:020000040000fa
:10000000f8ff0320a9440000cf4a0000d54a0000b1
:10001000e14a0000e74a0000ed4a0000000000004d
:100020000000000000000000000000000b35000090
:10003000db4a0000000000000b3500000b3500001b
:100040000b3500000b3500000b3500000b350000b0
:100050000b3500000b3500000b3500000b350000a0
:100060000b3500000b3500000b350000b9240000f3
:10007000a5360000d93600000b3500000b35000016
:100080000b3500000b3500000b3500000b35000070
:100090000b3500000b3500000b3500000b35000060
:1000a0000b3500000b3500000b3500000b35000050
:1000b0000b3500000b3500000b3500005911000016
:1000c0000b3500000b3500000b3500000b35000030
:1000d0000b3500000b3500000b3500000b35000020
:1000e0000b3500000b350000000000000000000090
:1000f000000000000b3500000b3500000b35000040
:100100000b3500000b3500000b3500000b350000ef
:100110000b3500000b3500000b3500000b350000df
:100120000b3500000b3500000b3500000b350000cf
:100130000b3500000b3500000b3500000b350000bf
:100140000b3500000b3500000b3500000b350000af
:100150000b3500000b350000550800005508000065
:1001600055080000550800000b3500000b35000055
:100170000b3500000b3500000b3500000b3500007f
:100180000b3500000b3500000b3500000b3500006f
:100190000b3500000b3500000b3500000b3500005f
:1001a0000b3500000b3500000b3500000b3500004f
:1001b0000b3500000b3500000b3500000b3500003f
:1001c0000b3500000b3500000b3500000b3500002f
:1001d0000b3500000b3500000b3500000b3500001f
:1001e0000b3500000b3500000b3500000b3500000f
:1001f0000b3500000b3500000b3500000b350000ff
:100200000b3500000b3500000b3500000b350000ee
:100210000b3500000b3500000b3500000b350000de
:100220000b3500000b3500000b3500000b350000ce
:100230000b3500000b35000000000000000000003e
:100240000b3500000b3500000b3500000b350000ae
:100250000b3500000b3500000b3500000b3500009e
:040260000b3500005a
:020000040000fa
:10026400f8b500bff8bc08bc9e4670477147000053
:10027400f8b500bff8bc08bc9e4670474d47000067
:020000040000fa
:080284007428000001000000d5
:020000040000fa
:10028c0080b400af194b01221a6000bf174bdb6919
:10029c00002bfbd1154b4ff480725a6000bf134bef
:1002ac00db69002bfbd1114bff22da600f4b104a9c
:1002bc001a6000bf0d4bdb69002bfbd10b4b1022de
:1002cc005a8300bf094bdb69002bfbd1094b002281
:1002dc0083f82120074b002283f82020034b832234
:1002ec009a7500bfbd465df8047b7047000800435b
:1002fc0016001000b805002080b489b000aff8607b
:10030c00b9607a600023fb61fb6807ee903af8ee67
:10031c00677ac7ed067abb6807ee903af8ee677a13
:10032c00c7ed057a4ff000033b61bb685b00fa68d0
:10033c009a4201d2002357e0bb682e4a93421fd841
:10034c00d7ed066ad7ed057a86eea77ad7ed067a51
:10035c00dfed296a67eea67af2ee046a77eea67aea
:10036c0077ee677ac7ed047ad7ed047afceee77a7c
:10037c0017ee903afb61bb68204a934213d801e018
:10038c00002331e0fb69b3f5ff7f02d9ff23fb614a
:10039c0026e0fb69012b02d80123fb6120e0fb69fd
:1003ac005b08fb611ce0fb69b3f5bf7f03d34ff621
:1003bc007f73fb6114e0fb69032b03d840f201232c
:1003cc00fb610de0fb695b000d4aa2fb03235b089c
:1003dc001a02fb690a49a1fb03135b081343fb6177
:1003ec007b68fa691a60012318462437bd465df80c
:1003fc00047b704740420f0095bfd633801a06002d
:10040c00abaaaaaa80b586b000af78603960002389
:10041c007b617b68002b01d1002349e07b681b6862
:10042c003b613b68002b01d1234b3b6007f10c0374
:10043c001a4639693868fff75fff034683f00103fa
:10044c00dbb2002b01d0002332e03b691b4a934204
:10045c0001d901237b611a4b1b68194a23f0020353
:10046c00136000bf164bdb69002bfbd1144afb68f1
:10047c00d360134b1b6823f040727b691b0603f09f
:10048c0040730f4913430b600d4b1b680c4a43f030
:10049c000203136000bf0a4bdb69002bfbd1084b36
:1004ac0010225a8300bf064bdb69002bfbd10123c2
:1004bc0018461837bd4680bd00879303801a060086
:1004cc000008004380b483b000af78603960064afe
:1004dc007b685362044a3b68936200bf0c37bd468d
:1004ec005df8047b704700bfb805002080b483b072
:1004fc0000af03460a46fb8013467b717b79002bc9
:10050c0004d00f4b032283f8202003e00c4b042271
:10051c0083f82020fb885b007a79002a01d0012225
:10052c0000e00022074913434b6200bf054bdb6917
:10053c00002bfbd100bf0c37bd465df8047b704728
:10054c00b80500200008004380b582b000af034618
:10055c000a46fb8013467b710e4b00229a610d4bb1
:10056c000022da610c4b83221a760b4b5b680a4a29
:10057c0023f48023536000bf074bdb69002bfbd1b6
:10058c007a79fb8811461846fff7b0ff00bf083791
:10059c00bd4680bdb80500200008004380b584b07e
:1005ac0000afb9607a603b600346fb81164b93f851
:1005bc0020305bb2002b01d0002320e0124afb89d3
:1005cc009380114a3b68d3600f4abb6953610e4a52
:1005dc00bb6893600c4a7b6813610b4a3b7f93703a
:1005ec00094a97f820301370074b002283f821201a
:1005fc003a7ffb8911461846fff7a6ff01231846e0
:10060c001037bd4680bd00bfb805002080b588b04e
:10061c0004af0346b9607a60fb81f889002302932a
:10062c00012301937b680093bb6800220021fff734
:10063c00b5ff034618461037bd4680bd80b588b05f
:10064c0004af0346b9607a60fb81f88900230293fa
:10065c00002301930023009300237a68b968fff705
:10066c009dff034618461037bd4680bd80b588b047
:10067c0004afb9607a603b600346fb81f8890023c4
:10068c00029300230193bb6900933b687a68b968b5
:10069c00fff784ff034618461037bd4680bd80b473
:1006ac0087b000afba607b600346fb810b46bb8111
:1006bc00bb683b610023fb75314b93f820305bb278
:1006cc00002b01d0002355e0bb68002b02d07b68c7
:1006dc00002b01d100234de07b6800221a70294bbe
:1006ec0083221a76274b83221a75fb89bb8236e04c
:1006fc0000bf244b5b8b9bb203f03003102bf8d163
:10070c00bb8a204a5b00536200bf1e4bdb69002b87
:10071c00fbd100bf1b4b1b7edbb203f00103002b94
:10072c00f8d0184b5b8b9bb203f00703002b08d15e
:10073c00fb7d3a691344ba8ad2b21a70fb7d01333d
:10074c00fb75104b5b680f4a43f44033536000bf9a
:10075c000c4bdb69002bfbd1bb8a0133bb82ba8a01
:10076c00bb899a42c4d97b68fa7d1a70054b8322e7
:10077c009a75012318461c37bd465df8047b7047fb
:10078c00b80500200008004380b483b000af0123fb
:10079c00fb710b4b93f820305bb2002b08d1094b4b
:1007ac005b8b9bb203f03003102b01d10023fb7148
:1007bc00fb7918460c37bd465df8047b704700bfcb
:1007cc00b80500200008004380b400af044b93f838
:1007dc002130dbb21846bd465df8047b704700bf84
:1007ec00b805002080b400af154b002283f82120ff
:1007fc00134b002283f82020124b1b68114a23f064
:10080c000203136000bf0f4bdb69002bfbd10d4bb8
:10081c001b680c4a43f00203136000bf094bdb69f1
:10082c00002bfbd1074b10225a8300bf054bdb6911
:10083c00002bfbd100bfbd465df8047b704700bfa9
:10084c00b80500200008004380b584b000af8b4b86
:10085c009b7ddbb2002b00f00d81894b9b6afb600a
:10086c00864b5b8b9bb203f00203022b08d1844bab
:10087c00ff2283f82020824b022283f82120b5e04e
:10088c007e4b5b8b9bb203f00103012b08d17c4b9d
:10089c00ff2283f820207a4b022283f82120a5e046
:1008ac00764b5b8b9bb203f00403042b08d1744b87
:1008bc00ff2283f82020724b012283f8212095e03f
:1008cc006f4b93f820305bb2042b00f28e8001a2a8
:1008dc0052f823f0f7090000f7090000f5080000b2
:1008ec009f0900001d090000654b1b69002b07d0f8
:1008fc00634b9b889bb200211846fff725fe75e0e1
:10090c005f4b9b889bb201211846fff71dfe6de0e3
:10091c005b4b9b69bb605a4b1b69ba689a4225d1e9
:10092c00574b5b69002b11d0554b9b889bb25b00de
:10093c00524a43f00103536200bf504bdb69002b5a
:10094c00fbd14f4b032283f820204fe04b4b5b68cd
:10095c004a4a43f44033536000bf484bdb69002bd9
:10096c00fbd1474b062283f820203fe0444b9a688a
:10097c00bb6813441a78414b9a62bb680133bb6065
:10098c0000bf3e4bdb69002bfbd13d4abb6893613a
:10099c002ce03b4bdb697b60394b5b69013b7a6834
:1009ac009a420ed1354b5b68344a43f4e0235360d2
:1009bc0000bf324bdb69002bfbd1314b062283f895
:1009cc00202000bf2d4bdb69002bfbd12b4b996af0
:1009dc002b4bda687b681344cab21a707b680133fc
:1009ec007b60274a7b68d36100e000bf244b93f8ff
:1009fc0020305bb2b3f1ff3f1ad1214b002283f8b8
:100a0c0020201e4b5b681d4a43f44033536000bfeb
:100a1c001a4bdb69002bfbd1184b83221a76184b2f
:100a2c005b6a002b26d0164b5b6af868984721e06e
:100a3c00134b93f820305bb2062b1bd1104b0022ca
:100a4c0083f820200e4b002283f821200b4b8322ad
:100a5c001a7600bf094b5b8b9bb203f03003102b53
:100a6c00f8d1074b5b6a002b04d0054b5b6af86826
:100a7c00984700bf00bf1037bd4680bd000800433b
:040a8c00b805002089
:020000040000fa
:100a900080b483b000af224b7b6000233b60002317
:100aa0003b6011e07b6800221a707b6800225a606c
:100ab0007b6800229a607b6800221a737b6810337f
:100ac0007b603b6801333b603b68002bead0154bf1
:100ad000154a5a63134b154a9a63124b5b69114ac4
:100ae00043f0813353610f4b114a1a640e4b40f2ad
:100af00009421a800b4b002283f84520084b012243
:100b00001a70084b032283f84d20064b40f6027200
:100b10001a8000bf0c37bd465df8047b704700bfec
:100b2000a805002000a000419805002088050020ad
:100b3000000d200080b489b000aff860b9607a6021
:100b40003b600023bb770023fb77514afb681b0106
:100b500013440c331b787b77bb68bb617b687b617c
:100b60004c4afb681b0113444e331b78dbb203f085
:100b70000303002b05d17b7f83f00103dbb2002b45
:100b80007fd0444afb681b0113444e3303221a7082
:100b90003f4afb681b0113440c3301221a70fb68a7
:100ba0001b013d4a13443b613b691b889bb203f424
:100bb0008063002b05d0ba693b681a443b695a60d0
:100bc00002e0ba693b695a603b691b889bb203f437
:100bd0000063002b05d07a693b681a443b699a6030
:100be0000ee02c4b5b889bb203f44043002b03d1f7
:100bf0007a693b699a6003e07b691a683b699a608d
:100c00003b691b889bb21b12dbb203f00303bb776b
:100c10003b689bb21a46bb7f42fa03f39ab23b6928
:100c20005a801c4afb6804331b0113441b68194992
:100c300043f00202fb6804331b010b441a60154a9f
:100c4000fb6804331b0113441b681b0a03f07f037a
:100c5000002b14d10f4afb6804331b0113440633e5
:100c60001b78dbb203f04003402b08d0094b1a6914
:100c70000121fb6801fa03f3064913430b610123c9
:100c8000fb77fb7f18462437bd465df8047b704731
:100c9000a805002000a000419805002080b485b080
:100ca00000af78600023fb730e4a7b681b0113447e
:100cb0000c331b78bb730c4a7b681b0113444e3307
:100cc0001b78dbb203f00303002b04d1bb7b002baa
:100cd00001d00123fb73fb7b18461437bd465df83a
:100ce000047b7047a805002000a0004180b485b0b7
:100cf00000af78600023bb600023fb730e4a7b6863
:100d00001b0113444e331b78dbb2bb60bb6803f09e
:100d10000203002b01d00123fb73bb6803f0010326
:100d2000002b01d00223fb73fb7b18461437bd4612
:100d30005df8047b704700bf00a0004180b483b021
:100d400000af7860124a7b6804331b0113441b68b0
:100d50000f4923f002027b6804331b010b441a6025
:100d600000bf0b4a7b6804331b0113441b6803f06c
:100d70000203002bf5d1074a7b681b0113440c3397
:100d800000221a7000bf0c37bd465df8047b704727
:100d900000a00041a805002080b485b000af7860b5
:100da0000b4a7b681b01134402331b88fb81094af1
:100db0007b681b01134402331b889bb2fa89d31a48
:100dc000fb81fb8918461437bd465df8047b7047ec
:100dd000980500208805002080b485b000aff86039
:100de000b9607a60094afb681b0113440433ba688e
:100df0001a60064afb681b01134408337a681a60bc
:100e000000bf1437bd465df8047b7047a80500207d
:100e100080b485b000af7860064bfb607b681b0137
:100e2000fa6813441b889bb218461437bd465df818
:100e3000047b70479805002080b485b000af7860cf
:100e40003960144bfb60144a7b6804331b01134464
:100e50001b68114923f002027b6804331b010b4419
:100e60001a6000bf0c4a7b6804331b0113441b68e3
:100e700003f00203002bf5d17b681b01fa681344d1
:100e80003a6892b21a80012318461437bd465df8bd
:100e9000047b70479805002000a0004180b483b017
:100ea00000af78600e4a7b6804331b01134404339f
:100eb0001b78dbb25bb223f003035bb243f00103a8
:100ec0005bb2074ad9b27b6804331b011344043375
:100ed0000a461a7000bf0c37bd465df8047b7047a8
:100ee00000a0004180b483b000af78600e4a7b68f8
:100ef00004331b01134404331b78dbb25bb223f0d1
:100f000003035bb243f002035bb2074ad9b27b68ca
:100f100004331b01134404330a461a7000bf0c3714
:100f2000bd465df8047b704700a0004180b400af6f
:100f3000034b00225a8000bfbd465df8047b70471a
:100f400000a0004180b584b000aff8603b1d83e88d
:100f50000600fff7ebff7b79002b02d10f4abb683d
:100f600093603b799b001bb203f00c031ab27b79b0
:100f70009b031bb213431ab2fb689bb220339bb294
:100f80001b021bb203f47c531bb213431ab2034b74
:100f900092b25a8000bf1037bd4680bd00a000410c
:100fa00080b400af034b9b681846bd465df8047bd8
:100fb000704700bf00a0004180b58ab000aff86064
:100fc000b960394681e80c00002387f827300023f8
:100fd0003b62fb68fb61fb68bb61fb687b61bb68d4
:100fe00003f00303002b06d1022387f82730bb68e8
:100ff0009b08bb600ae0bb6803f00103002b05d12e
:10100000012387f82730bb685b08bb60fff78effc2
:10101000294a7b6893603b789b001bb203f00c036a
:101020001ab297f827301bb203f003031bb2134325
:101030001bb243f480731ab21f4b92b25a80002342
:101040003b622fe097f82730002b06d1fa693b6a04
:1010500013441a78184b5a6016e097f82730012b82
:1010600007d13b6a5b00ba6913441a88124b5a6075
:101070000ae097f82730022b06d13b6a9b007a6979
:1010800013440d4a1b68536000bf0b4b1b7bdbb244
:1010900003f00103002bf8d0074b01221a733b6abf
:1010a00001333b623a6abb689a42cbd3024b9b68de
:1010b00018462837bd4680bd00a0004180b586b0e7
:1010c00000af0346fb710023bb600223fb75fb7975
:1010d0001b011f4a13443b611e4afb791b01134449
:1010e0004e331b78dbb2bb60bb6803f00203002bfe
:1010f0000bd0184afb791b0113444e3302221a709d
:101100000123fb753b6900221a73bb6803f00103de
:10111000002b0bd00f4afb791b0113444e330122e5
:101120001a700223fb753b6900221a733b695b68e6
:10113000002b08d03b699b68fb603b695b68fa7dcc
:10114000f9681046984700bf1837bd4680bd00bffc
:10115000a805002000a0004180b500af0020fff7e7
:08116000adff00bf80bd00bf20
:020000040000fa
:1011680080b483b000af0023fb714ff086435b8be4
:101178009bb203f00703bb80bb88002b14d04ff051
:10118800864380221a764ff0864307225a8303e06b
:101198004ff086439b6afb714ff086431b7edbb2a0
:1011a80003f00403042bf3d000bf0c37bd465df8f1
:1011b800047b704780b400af4ff08643124a1a6030
:1011c8004ff086434ff622029a814ff086434ff440
:1011d80040325a6000bf4ff08643db69002bfad1da
:1011e8004ff086431b684ff0864243f002031360ba
:1011f80000bf4ff08643db69002bfad100bfbd4624
:101208005df8047b704700bf0401004080b400af64
:10121800024b1846bd465df8047b70470087930370
:10122800b0b586b000af786039600023fb75002345
:10123800bb6000233b610023fb607b68002b00f050
:10124800bf807b681b68002b00f0ba803b68002bce
:1012580002d1fff7dbff38607b681b681b013a6827
:101268009a4204d300233b611023fb6016e07b689d
:101278001b68db003a689a4204d302233b610823c7
:10128800fb600be07b681a6813465b0013443a68fe
:101298009a4203d304233b610323fb60fb6819468e
:1012a8004ff000027b681b684ff0000403fb02f557
:1012b80001fb04f02844a1fb0334021914464ff043
:1012c80000004ff00001210441ea134118043b6873
:1012d8004ff000041a46234603f032fb03460c463f
:1012e800c3f58033bb604ff086431b684ff08642de
:1012f80023f00203136000bf4ff08643db69002b25
:10130800fad14ff08643ba6892b29a817b685b68db
:10131800022b1cd14ff086431b6823f0706323f423
:1013280060433a69520392b24ff0864113430b600f
:101338004ff086435b6823f047027b6899687b68b7
:10134800db680b434ff0864113434b6022e04ff0bc
:1013580086431b6823f0706323f460433a695203a1
:1013680092b213434ff0864243f0807313604ff0fc
:1013780086435b6823f4015323f007037a68926875
:101388001a437b68db681a437b685b684ff08641c9
:1013980013434b6000bf4ff08643db69002bfad143
:1013a8004ff086431b684ff0864243f002031360f8
:1013b80000bf4ff08643db69002bfad10123fb7590
:1013c800fb7d18461837bd46b0bd80b582b000af6a
:1013d8004ff086435b8b9bb203f00703fb80fb88cf
:1013e800002b01d0fff7bcfefb8818460837bd4626
:1013f80080bd80b400af4ff086431b6803f0020342
:10140800002b0dd14ff086431b684ff0864243f006
:101418000203136000bf4ff08643db69002bfad14b
:1014280000bfbd465df8047b704780b400af4ff045
:1014380086431b6803f00203002b0dd04ff0864350
:101448001b684ff0864223f00203136000bf4ff081
:101458008643db69002bfad100bfbd465df8047beb
:10146800704780b400af4ff086435b684ff0864208
:1014780043f48033536000bf4ff08643db69002b91
:10148800fad100bfbd465df8047b704780b400af59
:101498004ff086435b684ff0864223f480335360f5
:1014a80000bf4ff08643db69002bfad100bfbd4671
:1014b8005df8047b704780b487b000af786039600e
:1014c8000023fb757b68fb607b68bb6000233b6186
:1014d8007b68002b29d022e000bf4ff086431b7e9b
:1014e800dbb203f00103002bf7d04ff086435b68b3
:1014f80003f00703012b07d0fa683b6913441a78f5
:101508004ff086439a6207e03b695b00ba68134470
:101518001a884ff086439a623b6901333b613a6906
:101528003b689a42d8d30123fb75fb7d18461c37cc
:10153800bd465df8047b704780b483b000af0023dc
:10154800fb714ff086431b7edbb203f00103012bd6
:1015580001d10123fb71fb7918460c37bd465df8b4
:10156800047b704780b483b000af786000bf4ff051
:1015780086431b7edbb203f00103002bf7d07b68a8
:101588009ab24ff086439a6200bf0c37bd465df8a9
:10159800047b704780b483b000af0023fb714ff029
:1015a80086431b7edbb203f00203022b01d1012329
:1015b800fb71fb7918460c37bd465df8047b704714
:1015c80080b400af4ff086435b684ff0864243f427
:1015d8000033536000bf4ff08643db69002bfad11c
:1015e80000bfbd465df8047b704780b400af4ff084
:1015f80086435b684ff0864223f40033536000bf94
:101608004ff08643db69002bfad100bfbd465df879
:10161800047b704780b588b000af786039600023dc
:10162800fb777b687b617b683b610023bb610023a0
:10163800fb817b68002b3dd0fff792fd2ee000bfb9
:101648004ff086431b7edbb203f00403002bf7d078
:101658004ff086435b8b9bb203f00703fb81fb894a
:10166800002b20d14ff086435b6803f00703012b62
:1016780008d04ff08643996a7a69bb691344cab2a5
:101688001a7008e04ff08643996abb695b003a69b3
:1016980013448ab21a80bb690133bb61ba693b68db
:1016a8009a42ccd300e000bf3a68bb699a4201d1a4
:1016b8000123fb77fb7f18462037bd4680bd80b4e9
:1016c80083b000af0023fb714ff086431b7edbb273
:1016d80003f00403042b01d10123fb71fb791846a5
:1016e8000c37bd465df8047b704780b400af4ff0ff
:1016f80086439b6a1846bd465df8047b704700bf69
:020000040000fa
:1017080080b483b000af7860074bd3f8a03103f002
:101718000103012b02d1054b01221a7000bf0c37bf
:10172800bd465df8047b704700800041c904002075
:1017380080b582b000af7860184bd3f8a0315b0851
:1017480003f00103012b24d1154b1b78dbb283f086
:101758000103dbb2002b0ed0114b01221a70114984
:10176800114803f01dfa104803f028fa0346dab2cc
:101778000e4b1a700de00a4b00221a700c490a48e9
:1017880003f00efa084803f019fa0346dab2074bd9
:101798001a7000bf0837bd4680bd00bf00800041f9
:1017a800ca0400205c370000d4040020cb040020c9
:1017b8009037000080b483b000af786039607b68f0
:1017c80003f48073002b02d0044b01221a7000bf6f
:1017d8000c37bd465df8047b704700bfcd04002080
:1017e80080b483b000af03463960fb71fb79012bed
:1017f80002d1044b01221a7000bf0c37bd465df8b8
:10180800047b70473606002080b582b000af786050
:10181800fef7dcff0346002b02d1034b01221a70ae
:1018280000bf0837bd4680bdcc04002080b582b01b
:1018380000af3b1d00210a461a800a469a70012310
:101848003b7100237b710023bb713b1d03221946aa
:101858001820fef7f5fe00bf124b1b78dbb283f0b1
:101868000103dbb2002bf7d10e4b00221a700823bc
:101878003b7103237b713b1d022219461820fef79a
:10188800dffe00bf074b1b78dbb283f00103dbb23e
:10189800002bf7d1034b00221a7000bf0837bd4652
:1018a80080bd00bfcc04002090b587b000af786041
:1018b8007b681b7803f01f031b027a6801321278d9
:1018c80013447b617b69b3f5805f03db7b69a3f518
:1018d80000537b61786903f008f94ff000021a4b56
:1018e80002f09af903460c461846214602f04ffecc
:1018f80003463b61386902f0d7ff11a3d3e90023ff
:1019080002f08af903460c46184621464ff00002b9
:101918000e4b01f0d7fc03460c461846214602f050
:1019280036fe0346fb60d7ed037afceee77ac7ed97
:10193800007a3b68dbb218461c37bd4690bd00bf35
:10194800cdccccccccccfc3f0000b03f000040401c
:1019580080b59cb002af3b1d64220021184603f0fd
:1019680089f9002002f06efc00219d48fef7acfdcd
:10197800fff75cff00229b490020fff729fa0022ad
:101988009949002001f05afe00229849012001f0ef
:1019980055fe0021964800f077fd9649964803f0d9
:1019a800fff800f065fc85e0944b1b78dbb2002b58
:1019b8002ed0934b1b78dbb2002b29d08f4b002203
:1019c8001a708f4b00221a708e4b4ff40012c3f816
:1019d8001c218d4b1b78dbb21a46874bd0188b4bda
:1019e8001b781a4613469b0013449b00884a1344ed
:1019f8001a46884903f0d4f8834b00221a707e48af
:101a080003f0dcf80346844a7b490020fff78ef890
:101a1800824b1b78dbb2002b4cd0804b00221a7013
:101a28007a4b1b78002b07d1784b01221a704ff4a0
:101a3800806000f063fc22e0744b1b78012b07d117
:101a4800724b02221a704ff4006000f057fc16e047
:101a58006e4b1b78022b07d16c4b03221a704ff484
:101a6800805000f04bfc0ae0684b1b78032b06d132
:101a7800664b00221a704ff4007000f03ffc002003
:101a880000f026fc614b1b781a4613469b00134452
:101a98009b005f4a1a443b1d6149184603f080f8d1
:101aa8003b1d184603f08af80346391d5a4a0020a0
:101ab800fff73cf85b4b1b78dbb283f00103dbb22a
:101ac800002b7ff471af4d4b1b78dbb2002b0ad093
:101ad8004a4b00221a7002230093534b01225349a8
:101ae8001820fef7c5fd524b1b78dbb2002be1d066
:101af8004f4b00221a70494b1b78dbb283f001036d
:101b0800dbb2002b1bd04848fff7cefe03461a462f
:101b1800484b1a703c4b1b78dbb21a46364bd01830
:101b2800444b1b781a46444903f03af8364b0022d6
:101b38001a70344b4ff40012c3f81c2146e0374b9f
:101b480000221a70002000f0c3fb304b1b78002bda
:101b58000bd12e4b01221a703849274803f020f880
:101b68004ff4806000f0cafb2ee0284b1b78012b55
:101b78000bd1264b02221a7031491f4803f010f886
:101b88004ff4006000f0bafb1ee0204b1b78022bdc
:101b98000bd11e4b03221a702a49174803f000f88c
:101ba8004ff4805000f0aafb0ee0184b1b78032b73
:101bb8000ad1164b00221a7023490f4802f0f0ff91
:101bc8004ff4007000f09afb00f052fb0a4802f054
:101bd800f5ff0346104a08490020fef7a7ff69e70a
:101be80011180000e9170000091700003917000054
:101bf800bd170000cc370000d4040020cd0400201d
:101c08003606002000800041cb040020c8040020d4
:101c18000c370000f837000028000043c9040020f2
:101c280014380000ca040020d00400203706002021
:101c3800cc040020ce0400203c38000054380000ba
:0c1c48007c380000a4380000cc380000fc
:020000040000fa
:101c540080b400af044b40f204521a8000bfbd466a
:101c64005df8047b704700bf0040004180b586b03a
:101c740000aff860b9607a607b687b61ba687969a3
:101c8400f86802f065ff012318461837bd4680bd89
:101c940080b483b000af0346fb800a4b1b889bb221
:101ca4001bb223f030031ab2b7f9063013431ab249
:101cb400044b92b21a8000bf0c37bd465df8047b1a
:101cc400704700bf0040004180b586b000af786027
:101cd40039600023bb753b683b61194b1b889bb281
:101ce40003f03003fb81174b00221a803b6803f09a
:101cf4000f03002b02d00023bb751be02020fff74d
:101d0400c7ff0023fb750ce0fb7d9b007a6813443e
:101d14001a683b691a603b6904333b61fb7d0133fc
:101d2400fb75fb7d032befd9fb891846fff7b0ff4a
:101d34000123bb75bb7d18461837bd4680bd00bf67
:101d4400004000413406002080b586b000af7860c2
:101d540039600023bb753b683b61194b1b889bb200
:101d640003f03003fb81174b00221a803b6803f019
:101d74000703002b02d00023bb751be01020fff7e4
:101d840087ff0023fb750ce0fb7d9b007a681344fe
:101d94001a683b691a603b6904333b61fb7d01337c
:101da400fb75fb7d012befd9fb891846fff770ff0c
:101db4000123bb75bb7d18461837bd4680bd00bfe7
:101dc400004000413406002080b485b000af786044
:101dd40039603b68bb600e4b00221a800023fb6015
:101de4000ce0fb689b007a6813441a68bb681a60ad
:101df400bb680433bb60fb680133fb60fb687f2b6b
:101e0400efd9012318461437bd465df8047b7047ab
:101e14003406002080b483b000af78600b4b0022fe
:101e24001a800b4a7b685361094b1b889bb203f0f1
:101e34003003002b03d1064b4af203529a8001234c
:101e440018460c37bd465df8047b70473406002005
:101e54000040004180b485b000af786039603b68d1
:101e6400bb60144b00221a800023fb600ce0fb686b
:101e74009b007a6813441a68bb681a60bb68043311
:101e8400bb60fb680133fb60fb687f2befd90a4b17
:101e94001b889bb203f03003002b03d1064b4af29c
:101ea40003529a80012318461437bd465df8047b1b
:101eb400704700bf340600200040004180b483b066
:101ec40000af7860084b00221a80084a7b6853618f
:101ed400064b4af201529a80012318460c37bd463c
:101ee4005df8047b704700bf3406002000400041c9
:101ef40080b588b000af786039603b687b617b68ef
:101f04003b610023fb733b681e4a934234d93b6810
:101f14001d4a934230d81d4b00221a800023bb6116
:101f240025e00023fb610ce03b691a687b691a60b9
:101f34007b6904337b613b6904333b61fb69013397
:101f4400fb61fb69032befd9bb691a0110493b689c
:101f540013444b610e4b4af204529a8000bf00f0c6
:101f640073f80346002bfad1bb690133bb61bb692b
:101f74001f2bd6d90123fb73fb7b18462037bd46a4
:101f840080bd00bfff3f8000004080003406002079
:101f94000040004180b485b000af78600023fb733b
:101fa4007b680d4a93420fd97b680c4a93420bd845
:101fb4000b4b00221a800b4a7b685361094b4ff488
:101fc40025429a800123fb73fb7b18461437bd46d8
:101fd4005df8047b704700bfff3f80000042800033
:101fe400340600200040004180b483b000af0c4ba5
:101ff4001b8afb800b4b1b889ab2fb8813439ab253
:10200400084b1a80064b074a128892b21a82054b73
:102014001b889bb218460c37bd465df8047b70479d
:10202400004000413406002080b483b000af054b6b
:102034005b8afb80fb8818460c37bd465df8047b41
:10204400704700bf0040004180b400af074b5b8a7b
:102054009bb203f00103002b0cbf01230023dbb26e
:102064001846bd465df8047b704700bf0040004140
:1020740080b483b000af7860064a7b685361054b37
:102084004af211529a8000bf0c37bd465df8047bba
:10209400704700bf0040004180b483b000af786057
:1020a400064a7b685361054b4af212529a8000bf7c
:1020b4000c37bd465df8047b704700bf004000410b
:1020c40080b400af034b9b691846bd465df8047ba2
:1020d400704700bf0040004180b400af044b4af297
:1020e40016529a8000bfbd465df8047b704700bf5e
:1020f4000040004180b400af064bdb6a03f00403e8
:10210400002b14bf01230023dbb21846bd465df843
:10211400047b70470040004180b483b000af054b9e
:10212400db6a7b607b6818460c37bd465df8047b30
:10213400704700bf0040004180b400af074b1b8aca
:102144009bb203f48073002b14bf01230023dbb282
:102154001846bd465df8047b704700bf004000414f
:1021640080b400af044b4af217529a8000bfbd46b8
:102174005df8047b704700bf0040004180b400afad
:10218400044b4af232529a8000bfbd465df8047b8c
:08219400704700bf004000414c
:020000040000fa
:10219c0080b400af194b01221a8000bf174b1b698a
:1021ac0003f00103012bf9d0144b48f280121a8072
:1021bc0000bf124b1b6903f40043b3f5004ff8d07a
:1021cc000e4b4ff400721a6200bf0c4b1b6903f0ec
:1021dc002003202bf9d0094b00225a6200bf074b79
:1021ec001b6903f04003402bf9d0044b4ff4807271
:1021fc005a8100bfbd465df8047b70470024004047
:10220c0080b400af0b4b1b889bb20a4a6fea434366
:10221c006fea53439bb2138000bf064b1b6903f458
:10222c000043b3f5004ff8d000bfbd465df8047b0a
:10223c00704700bf0024004080b400af0a4b1b88dd
:10224c009bb2094ac3f30e039bb2138000bf064b2b
:10225c001b6903f40043b3f5004ff8d000bfbd4633
:10226c005df8047b704700bf0024004080b400afd1
:10227c00094b1b889bb2084a43f002039bb21380a4
:10228c0000bf054b1b6903f00203022bf9d000bf02
:10229c00bd465df8047b70470024004080b400af5d
:1022ac00094b1b889bb2084a23f002039bb2138094
:1022bc0000bf054b1b6903f00203022bf9d000bfd2
:1022cc00bd465df8047b70470024004080b483b0a9
:1022dc0000af7860074a7b68936100bf054b1b69b0
:1022ec0003f00803082bf9d000bf0c37bd465df88e
:1022fc00047b70470024004080b483b000af78604a
:10230c00074a7b68136200bf054b1b6903f020036f
:10231c00202bf9d000bf0c37bd465df8047b70470d
:10232c000024004080b483b000af7860074a7b681b
:10233c00536200bf054b1b6903f04003402bf9d0df
:10234c0000bf0c37bd465df8047b7047002400408d
:10235c0080b400af124b1b889bb21bb2002b11db5d
:10236c000f4b1b889bb20e4a6fea43436fea5343f1
:10237c009bb2138000bf0a4b1b6903f40043b3f5f7
:10238c00004ff8d000bf064b1b6903f00803082b65
:10239c00f9d0034b9b691846bd465df8047b70472a
:1023ac000024004080b400af4ff0ff331846bd4608
:1023bc005df8047b704780b400af4ff4806318461f
:1023cc00bd465df8047b704780b483b000af786085
:1023dc00044b7a6892b25a8100bf0c37bd465df847
:1023ec00047b70470024004080b483b000af786059
:1023fc00044b7a6892b21a8100bf0c37bd465df867
:10240c00047b70470024004080b483b000af0346c7
:10241c003960fb710549fb7920333a6841f8232078
:10242c0000bf0c37bd465df8047b704700240040ac
:10243c0080b483b000af0346fb71054afb792033af
:10244c0052f8233018460c37bd465df8047b7047b4
:10245c000024004080b400af034b9b6edbb21846e7
:10246c00bd465df8047b70470024004080b400af8b
:10247c00034b5b6e1846bd465df8047b704700bf8e
:10248c000024004080b483b000af78603960064a05
:10249c007b681360044a3b68936000bf0c37bd46f1
:1024ac005df8047b704700bf0006002080b582b049
:1024bc0000af0f4b9b899bb21a460e4b5a600c4bcc
:1024cc004cf2ff329a810a4b9b890a4b1b68002bfa
:1024dc000ad0084b5b687b60064b9b683b60054be6
:1024ec001b6839687868984700bf0837bd4680bdbf
:0824fc0000240040000600204e
:020000040000fa
:102504002de9f041aeb00646154605910027059920
:102514000b78002b00f0fa8000244ff0ff33cde954
:1025240009430eab0c9380230b940d930b5d0bb1fd
:10253400252b26d134b12246304602f063f9059b9f
:1025440023440593059b1a78252a40f0d78003f18c
:102554000108cdf81480059803782b2b1ad025d8c0
:10256400202b1bd0232b1dd02a2b27d002f084f83c
:102574000b90059b1a78303a092a2ed8013305931b
:10258400f7e70134d2e7099b43f0010301300993d3
:102594000590e0e7099b43f00403f7e7099b43f048
:1025a4000803f3e7099b43f01003efe72d2bead070
:1025b400302bd9d1099b43f00203e7e72b681a1d9e
:1025c4001b682a600130002b05900b9305da099ae9
:1025d4005b4282f0010209920b93099bda0744bf24
:1025e40023f002030993059b1a782e2a0dd10022a9
:1025f400581c0a9205905a782a2a25d10233059349
:102604002b681a1d1b682a600a9305a802f0dcf8df
:10261400059b0390187802f063fb6928039979d02d
:1026240032dc632800f0cb8019dc252800f0d98047
:10263400612853d000234ff0ff32cdf81480099362
:102644000b930a920093d4e002f016f80a90059bcb
:102654001a78303a092ad8d801330593f7e7642861
:1026640058d06728e6dc2a4606a802f0c7f90028f5
:1026740000f0a180059b5a1c05921b7806aa09a9a3
:10268400304602f06ffb38e0702873d015dc6e28fa
:1026940000f08c806f28cdd12b46002206a801f0d3
:1026a40055fb002800f08780059b06aa013309a981
:1026b4003046059302f054fb1fe075283ad0782881
:1026c40048d07328b6d1802975d1059b2a68013377
:1026d4000593131d2b60126800237de02a4606a88b
:1026e40002f08cf9002866d0059b5a1c05921b78d1
:1026f40006aa09a9304602f035fb04443c44a7422b
:102704007add3e4b4f221a604ff0ff3738462eb029
:10271400bde8f0812b46012206a801f017fb002832
:1027240049d0059b06aa013309a93046059301f057
:1027340063fbe2e72b46002206a801f007fb002812
:1027440039d0059b06aa013309a93046059302f046
:1027540007fbd2e72b46002206a801f0f7fa50b394
:10276400059b5a1c05921b7806aa09a9304602f05b
:10277400f9fac2e72b460022f02106a801f0e6fa96
:10278400c8b1059b01330593dde9062313430bd13f
:102794001b4802f015fa099b009319490b9b02464a
:1027a400304601f0c3fba8e77823dde72b463a194e
:1027b40006a801f07efc059b013305939ee7802962
:1027c400f9d1059b013305932b681a1d1b682a60f8
:1027d4008df8183006aa012309a9304601f00efe2f
:1027e4008be78029e7d1059b01330593099b00936f
:1027f4000b9b04490122d3e7274688e628060020dc
:08280400144d00001a4d000004
:020000040000fa
:10280c0080b485b000af78607b6803f00703fb6091
:10281c000c4bdb68bb60ba684ff6ff031340bb6020
:10282c00fb681a02bb68134343f0bf6343f40033e5
:10283c00bb60044abb68d36000bf1437bd465df86b
:10284c00047b704700ed00e080b483b000af03461a
:10285c00fb80b7f90630002b0bdbfb8803f01f0263
:10286c000749b7f906305b09012000fa02f241f87a
:10287c00232000bf0c37bd465df8047b704700bfba
:10288c0000e100e080b483b000af0346fb80b7f9f1
:10289c000630002b0ddb0a4ab7f906305b0952f8fb
:1028ac002320fb8803f01f0322fa03f303f0010338
:1028bc0000e0002318460c37bd465df8047b7047da
:1028cc0000e100e080b483b000af0346fb80b7f9b1
:1028dc000630002b10dbfb8803f01f020949b7f907
:1028ec0006305b09012000fa02f2203341f8232064
:1028fc00bff34f8fbff36f8f00bf0c37bd465df832
:10290c00047b704700e100e080b483b000af034665
:10291c003960fb80b7f90630002b0adb3b68dab272
:10292c000c49b7f906305201d2b20b4483f800239c
:10293c000ae03b68dab20849fb8803f00f03043b5a
:10294c005201d2b20b441a7600bf0c37bd465df86b
:10295c00047b704700e100e000ed00e080b500afc3
:10296c000020fff74dffbff35f8f62b607210b20ee
:10297c00fff7caff0b20fff767ff07210c20fff7bb
:10298c00c3ff0c20fff760ff07210d20fff7bcfff2
:10299c000d20fff759ff07211f20fff7b5ff1f2060
:1029ac00fff752ff07214620fff7aeff4620fff747
:1029bc004bff07214720fff7a7ff4720fff744fff6
:1029cc0007214820fff7a0ff4820fff73dff072114
:1029dc004920fff799ff4920fff736ff0c4b5b6a44
:1029ec000b4a43f480235362094b5b69084a43f05a
:1029fc0010035361064b5b6a054a43f40033536280
:102a0c00034b5b6a024a43f48033536200bf80bdc0
:102a1c0000ed00e080b400afbff35f8f62b600bf83
:102a2c00bd465df8047b704780b483b000afeff314
:102a3c0010833b603b68002b0cbf01230023fb7110
:102a4c0072b6bff35f8ffb7918460c37bd465df845
:102a5c00047b704780b483b000af0346fb71fb79f5
:102a6c00002b03d0bff35f8f62b602e072b6bff3e8
:102a7c005f8f00bf0c37bd465df8047b704780b597
:102a8c0084b000af0346fb80fff7ceff0346fb7319
:102a9c00b7f906301846fff7f5fe0346002b14bfb6
:102aac0001230023bb73b7f906301846fff70aff62
:102abc00fb7b1846fff7ceffbb7b18461037bd4695
:102acc0080bd80b582b000af03460a46fb8013463a
:102adc007b717b79002b05d0b7f906301846fff7d0
:0c2aec00b3fe00bf00bf0837bd4680bd30
:020000040000fa
:102af8002de9f04f099f154604468e461e46002bc9
:102b080040f0cc808a42b2fa82fc4cd9bcf1000f6a
:102b18000bd0ccf1200801fa0cfe20fa08f802fad2
:102b28000cf548ea0e0e00fa0cf44fea15491ffaa4
:102b380085f8befbf9fa210c09fb1ae30afb08fb2e
:102b480041ea03439b452ad9eb180af1ff3004d226
:102b58009b4502d9aaf102002b44a3eb0b03a4b2b4
:102b6800b3fbf9f209fb123302fb08f844ea034409
:102b7800a04516d92c1902f1ff3303d2a04501d97b
:102b8800931e2c44a4eb080443ea004027b124fa1e
:102b98000cf400233c607b603146bde8f08f504662
:102ba800dbe71346eee702b9ffdebcf1000f2ed1da
:102bb8008b1a01264fea154eaab2b3fbfef8210c78
:102bc8000efb183308fb02f941ea0343994561d922
:102bd800eb1808f1ff3004d2994502d9a8f1020098
:102be8002b44a3eb0903a4b2b3fbfef10efb113394
:102bf8004a4344ea0344a2424ed92c1901f1ff3357
:102c080003d2a24201d98b1e2c44a41abce7ccf1f2
:102c1800200e02fa0cf521fa0ef901fa0cf320fa4b
:102c28000efe4eea03034fea154800fa0cf4b9fb0e
:102c3800f8f11ffa85fe08fb1192180c01fb0ef63d
:102c480040ea0242964221d9aa1801f1ff3003d284
:102c5800964201d9881e2a44921b9bb2b2fbf8f90e
:102c680008fb192209fb0efe43ea02439e450fd9d1
:102c7800eb1809f1ff3604d29e4502d9a9f10206e4
:102c88002b44a3eb0e0346ea004693e70846e3e726
:102c98004e46f6e74046a4e70b46b6e78b4206d910
:102ca800002f7ed00026c7e90001304674e7b3fa4a
:102cb80083fcbcf1000f0fd18b4201d3824209d8ab
:102cc800841a61eb030e0120002f6dd0c7e9004e76
:102cd800002661e76046f7e7ccf1200e03fa0cf313
:102ce80022fa0ef521fa0ef41d4301fa0cf320fa2c
:102cf8000ef10b434fea154a00fa0cf6b4fbfaf949
:102d08001ffa85f80afb19401c0c09fb08f144ea74
:102d18000044a14202fa0cf23fd92c1909f1ff3004
:102d280004d2a14202d9a9f102002c44641a9bb230
:102d3800b4fbfaf90afb194409fb08f843ea044111
:102d480088452cd9691809f1ff3304d2884502d97e
:102d5800a9f10203294443ea0040a1eb0801a0fbc2
:102d680002894945c2464c4602d306d1464504d29b
:102d7800b8eb020a69eb05040138afb1b6eb0a03f8
:102d880061eb040606fa0efe23fa0cf34eea03037f
:102d980026fa0cf6c7e900369ae74846c6e74b46d6
:0c2da800d9e73e463846f7e63e46f5e621
:020000040000fa
:102db40080b400af1c4b012283f8cc201a4b0122b3
:102dc40083f8cd20184b222283f8b620164b4ff4fb
:102dd4000012c3f80021144b002283f85521124b32
:102de400002283f83a21104b0322c3f890210e4ba2
:102df400052283f8c0210c4b052283f8c1210a4b1c
:102e0400012283f8c821084b012283f8c921064b0b
:102e1400002283f8b021044b332283f8b42100bf8d
:102e2400bd465df8047b70470080004180b483b0e8
:102e340000af78607b681b6a18460c37bd465df8a6
:102e4400047b704780b485b000aff860b9607a60e5
:102e5400fb681a69bb68db4302ea0301ba687b6852
:102e64001a40fb680a431a6100bf1437bd465df877
:102e7400047b704780b483b000af78607b681b69c3
:102e840018460c37bd465df8047b704780b483b0a8
:102e940000af786039607b683a689a6100bf0c378c
:102ea400bd465df8047b704780b483b000af7860a2
:102eb40039607b683a685a6100bf0c37bd465df8db
:102ec400047b704780b483b000af786039607b685e
:102ed4003a68da6100bf0c37bd465df8047b704781
:102ee40080b485b000af786039607b683a685a6016
:102ef4000023fb6019e03a68fb6822fa03f303f04d
:102f04000103002b0ed07a68fb68134440331b780e
:102f1400dbb27a6843f00203d9b2fb68134440334e
:102f24000a461a70fb680133fb60fb681f2be2d969
:102f340000bf1437bd465df8047b704780b483b08e
:102f440000af786039607b683a689a6000bf0c37dc
:102f5400bd465df8047b704780b487b000af03467c
:102f64000a46fb8013467b717b793b61fb885b09d6
:102f74009bb203f5020303f58073db01fb60fb885e
:102f840003f01f03bb60fa68bb685b08134493f843
:102f94003030dbb27b61bb6803f00103002b07d048
:102fa4007b6923f0f0023b691b0113437b6105e05d
:102fb4007b6923f00f033a6913437b61fa68bb68aa
:102fc4005b087969c9b213440a4683f83020fa6869
:102fd400bb68134440331b78dbb2fa6843f0010347
:102fe400d9b2bb68134440330a461a7000bf1c3779
:102ff400bd465df8047b704780b485b000af0346de
:10300400fb80fb885b099bb203f5020303f5807325
:10301400db01fb60fb8803f01f03bb60fa68bb683d
:10302400134440331b78dbb2fa6823f00103d9b2ae
:10303400bb68134440330a461a7000bf1437bd46b8
:083044005df8047b704700bf3a
:020000040000fa
:10304c0084070020040000000100000000000000c4
:10305c00e40500201c000000000000008805002092
:10306c00300000000000000008040020c000000038
:10307c0000000000340600200200000000000000e8
:10308c00000600200c00000000000000b805002025
:10309c002c0000000000000036060020020000009a
:1030ac000100000001050000c804002070000000b1
:1030bc0000000000200600200400000000000000ba
:1030cc0038050020500000000000000038060020e9
:1030dc006c000000010000004406002040060020a7
:1030ec00440600200000000025000000080000201d
:1030fc0000040000000000000000000000000000c0
:10310c0000000000000000000000000000000000b3
:10311c0000000000714d00000000000000000000e5
:10312c0000000000000000008942000000000000c8
:10313c000000000000000000000000000000000083
:10314c000000000000000020080400000000000047
:10315c0064070020200000000100000001000000b6
:10316c000300000000000000000000000000000050
:10317c0000000000000000001806002018060020c7
:10318c0008000000000000002406002008000000d9
:10319c0000000000a40600206000000001000000f8
:1031ac00010000000300000000000000000000000f
:1031bc00000000000000000000000000a54300001b
:1031cc00000000000000000000000000554d000051
:1031dc000747000000000000000000000000000095
:1031ec0000000000000000000000000000000000d3
:1031fc0000000000000000000000000000000000c3
:10320c002c06002004000000000000000407002031
:10321c00600000000100000001000000030000003d
:10322c000000000000000000000000000000000092
:10323c0000000000a543000000000000000000009a
:10324c0000000000554d0000074700000000000082
:10325c000000000000000000000000000000000062
:10326c000000000000000000000000000000000052
:10327c00000000000000000088070020040000008f
:10328c0001000000010000003006002004000000d6
:10329c00000000000c0600200c00000000000000e4
:1032ac008c0700200400000001000000000000005a
:1032bc0000000000000000006666666666666666d2
:020000040000fa
:1032cc0030b591ea030f00f18280841a71eb030c84
:1032dc0005d2121953eb0c03001b71eb0c0140f2dd
:1032ec00000ccff6e07c1cea430f52d0bceb410f34
:1032fc005fd90c0da4eb135e5ff0010c6cf31f5146
:10330c006cf31f53def1200c2ad303fa0cf5401991
:10331c0041f1000122fa0ef5401923fa0ef569412c
:10332c0012fa0cf2cd0208d349085fea30005feaca
:10333c00320228bf42f001020134013c5fea500c1a
:10334c0072f1004250f1000051eb04514ff40013a4
:10335c0013eb410f38bf30bd6ff31301002030bdac
:10336c00bef1200ebef1200f1ed223fa0ef540192d
:10337c0041f10001cef1200c124218bf012203fad8
:10338c000cf52a43cee711ea5c0f04bf00200021a4
:10339c0030bd1cea410f04bf01f00041002030bddc
:1033ac0001f00041002030bd21f4801101eb0451eb
:1033bc0030bd004218bf41f00101bceb410f08bf0a
:1033cc0030bd4ff0fe4141f47801002030bd83f058
:1033dc000043841a71eb030e07d28ef0004e001bd3
:1033ec0071eb0e01121953eb0e0340f2000ccff6e9
:1033fc00e07c1cea430fc6d0bceb410f72d90c0d1c
:10340c00a4eb135ec90241ea5051c00241f00041e5
:10341c00db0243ea5253d20243f00043def1200cac
:10342c0041d312fa0cf522fa0ef203fa0cf542ea29
:10343c00050218bf42f0010223fa0ef3801a9941db
:10344c00e30ac4f30a0411f0404f03d418d0013c32
:10345c0040004941013c23d44205c00a40ea415096
:10346c00c90a51eac3715fea500c72f1004250f183
:10347c00000051eb045130bd01002fd00020203c46
:10348c000029f9d0b1fa81fcdcf1200e11fa0cf113
:10349c0030fa0ef510fa0cf02943a4eb0c04d9e722
:1034ac000020d90730bdaef1200ebef1200f0dd299
:1034bc00cef1200c03fa0cf533fa0ef32a4318bfa5
:1034cc0043f00103c01a61f10001b9e721f000419a
:1034dc00c00a40ea4150c90a01eb045130bd00203a
:1034ec00002130bd004218bf41f00101bceb410f7f
:0e34fc007ff467afbceb430f3ff463af30bd0e
:020000040000fa
:02350a00fee7da
:020000040000fa
:10350c0080b400af364b1b78dbb2354a43f0010375
:10351c00dbb2137000bf324b5b6803f00103012b6d
:10352c00f9d02f4b9922da612d4b00221a622c4bc9
:10353c0003221a632a4b00225a63294b03221a6175
:10354c00284b00221a81274b01229a82254b1022ec
:10355c001a84244b10229a85224b10221a87214b55
:10356c001022a3f844201f4b1022a3f850201d4b0f
:10357c001022a3f85c201b4b1022a3f86820194bd7
:10358c001022a3f87420174b1022a3f88020154b9f
:10359c001022a3f88c20134b1022a3f89820114b67
:1035ac001022a3f8a4200f4b1022a3f8b0200d4b2f
:1035bc001022a3f8bc200a4b1b78dbb2084a43f05c
:1035cc000203dbb2137000bf054b5b6803f0020310
:1035dc00022bf9d000bfbd465df8047b704700bfdd
:1035ec00002800400804002080b483b000af0346dc
:1035fc00fb80fb88054a012101fa03f3136100bf2c
:10360c000c37bd465df8047b704700bf00280040b6
:10361c0080b483b000af0346fb80fb88054a0121d0
:10362c0001fa03f3d36000bf0c37bd465df8047b91
:10363c00704700bf0028004080b485b000af03463f
:10364c00b9607a60fb81fa89124913465b00134416
:10365c009b000b4408331b889bb2fa899a4212d107
:10366c00fa890c4913465b0013449b000b44ba685f
:10367c001a60fa89074913465b0013449b000b44fc
:10368c0004337a681a6000bf1437bd465df8047bba
:10369c00704700bf0804002080b582b000af094b12
:1036ac0001225a61084b1b68002b06d0064b5b6845
:1036bc007b60054b1b687868984700bf0837bd4690
:1036cc0080bd00bf002800400804002080b582b0f7
:1036dc0000af094b02225a61084bdb68002b06d065
:1036ec00064b1b697b60054bdb687868984700bf0d
:1036fc000837bd4680bd00bf0028004008040020ec
:020000040000fa
:10370c00353030206d696c6c695365636f6e647312
:10371c000000000031205365636f6e6400000000f0
:10372c00000000000000000032205365636f6e64df
:10373c0073000000000000000000000034205365fe
:10374c00636f6e6473000000000000000000000056
:10375c002a2a2a2a2a2a2a2a2a2a2a2a2a20507259
:10376c00696e74696e672054656d706572617475ed
:10377c007265202a2a2a2a2a2a2a2a2a2a2a2a2a24
:10378c000d0a00002a2a2a2a2a2a2a2a2a2a2a2a1e
:10379c002a205072696e74696e6720546f67676c6b
:1037ac00696e67204c45442072617465202a2a2a70
:1037bc002a2a2a2a2a2a2a2a2a2a0d0a000000bf83
:1037cc00546f67676c696e67204c454420617420a8
:1037dc00353030206d696c6c697365636f6e647322
:1037ec002072617465200d0a000000bf546f67677a
:1037fc006c696e67204c45442061742025732072df
:10380c00617465200d0a00004c454420546f6767b5
:10381c006c696e67207261746520697320636861de
:10382c006e67656420746f2025730d0a000000bf5d
:10383c0054656d7065726174757265203d2025301c
:10384c00326420460d0a000053616d706c696e671e
:10385c002054656d7065726174757265206576654e
:10386c0072792031207365636f6e64200d0a00003d
:10387c0053616d706c696e672054656d7065726113
:10388c007475726520657665727920322073656374
:10389c006f6e6473200d0a0053616d706c696e67f6
:1038ac002054656d706572617475726520657665fe
:1038bc0072792034207365636f6e6473200d0a0077
:1038cc0053616d706c696e672054656d70657261c3
:1038dc007475726520657665727920353030206d8f
:0838ec0073200d0a000000bf6b
:020000040000fa
:1038f40080b400af00bfbd465df8047b704780b460
:1039040000af044b00221a7400bfbd465df8047b6f
:10391400704700bf0014004080b400af174b422230
:10392400c3f8842000bf154bd3f8843003f0400360
:10393400402bf8d1124b00229a63114b77225a6321
:1039440000bf0f4bdb6b03f00403042bf9d00c4bcb
:10395400022283f8302000bf094bdb6b03f0020323
:10396400022bf9d000bf064b1b6c03f00303032b9f
:10397400f9d100bfbd465df8047b7047001c0040d0
:103984000010004080b400af00bfbd465df8047b6a
:10399400704780b400af0d4b01225a7100bf0b4b2e
:1039a400db78dbb203f00103012bf8d1084b094aa1
:1039b4001a6200bf064b5b6803f00403042bf9d0c2
:1039c40000bfbd465df8047b704700bf000800409f
:1039d400001c00400701010080b400af074b084af7
:1039e4005a6200bf054b5b6803f00803082bf9d04b
:1039f40000bfbd465df8047b704700bf001c00405b
:103a04000701020080b400af074b084a9a6200bf66
:103a1400054b5b6803f01003102bf9d000bfbd46c3
:103a24005df8047b704700bf001c004006013000b5
:103a340080b500affff75cfffff761fffff7a2ff60
:103a4400fff7e0fffff768fffff7a3fffff7c4ffef
:103a5400184b4122c3f8902000bf164bd3f8903086
:103a640003f04003402bf8d1124b4122c3f8082144
:103a740000bf104bd3f8083103f04003402bf8d1ba
:103a84000c4b4122c3f8102100bf0a4bd3f810316c
:103a940003f04003402bf8d1074b6ff07f421a61cb
:103aa400054b40f2ff725a61034b05221a6200bfb4
:0c3ab40080bd00bf001c00400008004066
:020000040000fa
:103ac00080b400af084b9b68074a23f00103936062
:103ad00000bf054bdb6803f00103012bf9d000bfe9
:103ae000bd465df8047b70470060004180b400afc4
:103af0000d4b9b680c4a23f00103936000bf0a4bf7
:103b0000db6803f00103012bf9d0074b5b68064a21
:103b100023f002035360044b01229a6000bfbd46ac
:103b20005df8047b704700bf0060004180b400afc7
:103b30000d4b9b680c4a23f00103936000bf0a4bb6
:103b4000db6803f00103012bf9d0074b5b68064ae1
:103b500043f002035360044b01229a6000bfbd464c
:103b60005df8047b704700bf0060004180b400af87
:103b70000d4b9b680c4a23f00103936000bf0a4b76
:103b8000db6803f00103012bf9d0074b5b68064aa1
:103b900023f004035360044b01229a6000bfbd462a
:103ba0005df8047b704700bf0060004180b400af47
:103bb0000d4b9b680c4a23f00103936000bf0a4b36
:103bc000db6803f00103012bf9d0074b5b68064a61
:103bd00043f004035360044b01229a6000bfbd46ca
:103be0005df8047b704700bf0060004180b400af07
:103bf0000a4b9b68094a23f00103936000bf074bff
:103c0000db6803f00103012bf9d0044b01221a6297
:103c100000bfbd465df8047b704700bf00600041f7
:020000040000fa
:103c2000f0b540f2ff7681ea030c16ea115e1ebf82
:103c3000b64516ea1355b54252d021ea465141f431
:103c40008011a1fb024723ea465343f48013ae449c
:103c5000a0fb03650cf0004c36197d41a1fb034726
:103c600047f10003a0fb0217f619654153f1000369
:103c7000094218bf46f0010640f2fe74b3f5007f1a
:103c800013d2aef5806ea64523d24cea0331280349
:103c900041ea155140ea16503203450872f10042dc
:103ca00050f1000051eb0e51f0bdaef2ff3ea645c3
:103cb0000fd24ceac321e80241ea555140ea56507e
:103cc000f202450872f1004250f1000051eb0e5132
:103cd000f0bd1eea0e0f2dd50cf000410020f0bd06
:103ce00016ea115f04bf01f000410020004218bf36
:103cf00041f0010116ea135f04bf03f00043002204
:103d0000124218bf43f0010306ea1354b44218bf2d
:103d1000b64503d00cf000410020f0bd21f0004179
:103d200023f00043b1eb065f0cd8b3eb065f09d874
:103d300041b13bb10cf0004141f0fe4141f4700152
:103d40000020f0bd40f20001c7f6f8710020f0bd80
:020000040000fa
:103d5000882910b536d012dc812943d003dc8029b4
:103d600040d0002010bd82290ed08429f9d11968d5
:103d700002b30a1d1a60b1f90020d3171ee0a02972
:103d80002bd00bdc9029ecd11968073121f0070109
:103d900001f108021a60d1e900230fe0c02901d027
:103da000f029ded11a68111d196013680360002321
:103db000436005e00a1d1a600a880023c0e9002359
:103dc0000120cfe7196822b10a1d1a6091f900207d
:103dd000d3e70a1d1a600a78efe71a68111d196007
:103de0001268cae719681ab10a1d1a600a68c4e79e
:0c3df0000c1d1c600b68c0e90032e1e70c
:020000040000fa
:103dfc002de9f041d2e900230c4686b007465fea74
:103e0c00d37820684968a5680590e66841d052428d
:103e1c0063eb4303002908db20f002000590b8f1a6
:103e2c00000f02d1059948072ad5691e05a80290f2
:103e3c000a20cde90010204600f075f9b8f1000f0a
:103e4c0002d1059b59071fd5b8f1000f00f1ff30c7
:103e5c0014bf2d232b2333542269059b0093013a65
:103e6c002b46121a3118384600f05cf87b68db05db
:103e7c0003d563689842b8bf184606b0bde8f08118
:103e8c000807d2d42946d1e71a07e5d501382023f3
:083e9c00e1e70029c0dac5e7e7
:020000040000fa
:103ea4002de9ff41836946690093f61acde9016162
:103eb40004461746039216444ff002086d464246e4
:103ec4002946206800f0c4fdb04209d1d4e9023289
:103ed400c4e905331a44a262384604b0bde8f0814f
:103ee40000280dda6268002342f01002b8f1020fd4
:103ef400a362c4e90533626015d06b68ff1aebe76f
:103f04006b68984288bf0835a6eb000688bfc01ac4
:103f14002b6803442b606b68a3eb000088bf08f197
:0a3f2400ff386860cbe71f46d6e7c0
:020000040000fa
:023f2e007047da
:020000040000fa
:103f30002de9ff471d460c9b13f0010906468a46f2
:103f4000144601d195420bd822465146304600f026
:103f50005bfca54204d82546284604b0bde8f0879e
:103f60002f1b102f3a464ff0200128bf1022684621
:103f7000b84600f083fe00bfb8f10f0f11d83b091f
:103f80006ff00f0202fb03726946304600f03cfc02
:103f9000b9f1000fe0d122465146304600f034fc22
:103fa000dae710226946304600f02efca8f110082e
:043fb000e2e700bf85
:020000040000fa
:103fb400f0b51f4c2568a446002d36d000222946b2
:103fc40016461346d1f800e00f6986450ad132b18e
:103fd400176101f110031846f0bd3946f2e7ccf839
:103fe4000070f6e705d9ebb11c68a6453cbf164640
:103ff4000b460a46002ff0d1002becd019461f695e
:1040040051f8102b121a102a05d918600844103ad6
:104014000761026007469d420cbfccf8007037610f
:104024000b46d8e716460b46e3e72b46d3e700bf1b
:044034003006002032
:020000040000fa
:1040380080b586b000aff860b9607a6000237b6114
:104048000023fb74fb68002b10d17b68002b0dd07c
:104058000121b868fdf7defa0346fb74fb7c83f0a8
:104068000103dbb2002bf3d101237b617b69184686
:104078001837bd4680bd80b586b000aff860b9601e
:104088007a600023fb75fb68012b0bd17968b8684f
:10409800fdf711fa0346fb75fb7d83f00103dbb2e4
:0e40a800002bf3d17b6818461837bd4680bd4b
:020000040000fa
:1040b600842910b523d00cdc812903d0822913d0a2
:1040c60080290bd119680c1d1c600b6803601a60ef
:1040d60013e0902921d003dc882917d0002010bdd9
:1040e600a029efd0c029ece719680c1d1c600b68ed
:1040f6000360d1171046c3e900010120efe71968f4
:104106000c1d1c600b6803601a80f6e719680c1d0d
:104116001c600b6803601a70efe719680c1d1c60c1
:0c41260009680160d317c1e90023e6e737
:020000040000fa
:104132002de9f84f04460c9f6668d4f80cb0246948
:1041420010463a68013c002502f0020a0b9a0bf86d
:104152000450002e1946b8bf0126012390464feaab
:10416200e279002c03dcd3b12046bde8f88f50ea97
:10417200010209d1721b002a06dc0a9a521b002a8c
:10418200f1ddbaf1000feed042464b4600f0dbfb08
:10419200013c134630320bf804200135e1e73b685d
:0841a20023f010033b60dfe78e
:020000040000fa
:1041aa00f8b5846a05460f46164654b1ab6a6a6981
:1041ba009b1ab3420bd2324639462846fff76dfea8
:1041ca00f8bd00f006fd0028f0d02046f8e7002ee2
:1041da00f1d095f93430002b1bdbdbb23446621e7a
:1041ea00b95c994212d1224639462846fff755fe54
:1041fa00a042e5d32744341b22463946686900f0b9
:10420a00a4fc6b691c446c613046d9e71446002a49
:06421a00e5d13446f0e797
:020000040000fa
:1042200080b500af074b1b681b680021184600f0e3
:1042300042fd054b1b681b680021184600f03bfd42
:1042400000bf80bd3c0600208007002080b582b002
:1042500000af7860fdf7fefcfff7e2fffef7aafd76
:10426000fff7e8fb00f037fdfcf710f8fcf710fc57
:10427000fcf7a4fffff74af9fdf790fffef774fb88
:0842800000bf0837bd4680bdf8
:020000040000fa
:104288007fb5c36800911546002b18bf013a01920b
:1042980082680446cde902230e4602226946006878
:1042a80000f0bffb002808dc00f0180383f00802c8
:1042b80063681343636005460fe0019a8242fad2ad
:1042c800a368e363801ae268184420642ab15a1c80
:1042d800e2632e441b7806f8013c284604b070bd02
:020000040000fa
:1042e80037b5154d2b68044673b100f00ffc0190eb
:1042f80001a800f0a9fc0f30019920f00f0000f090
:1043080081fc60b100232b60002c08bf01240f340e
:1043180034f00f0405d1094b0c221a60204603b073
:1043280030bd042c38bf04242046fff73ffe002888
:10433800f5d040f8044cf2e7880700202806002052
:020000040000fa
:104348000e4a38b5002313600d4a0e4c13600e4a0e
:104358000e4d13600e4a13600e4a13600e4a5362e4
:1043680013610123936000f0aafcfff7dcfdac4267
:1043780000d338bd54f8043b9847f8e724060020da
:10438800440500207002000040050020740200006f
:0c439800380500203c05002048050020ee
:020000040000fa
:1043a40038b50d46044608b9002038bd43689b065d
:1043b40007d5d0e905239a4216d80023c4e905336a
:1043c400a362d4e90f13994204d20122c91a2068c6
:1043d40000f0dafc0023c4e90f33002de4d0206898
:1043e400bde8384000f0b7bc0022c36a11469847c4
:0c43f4006369002be1d14ff0ff30d6e7e9
:020000040000fa
:104400002de9ff41134dd1f80080af88adf80c7055
:1044100006462868029002aca8798df80e00002aa2
:1044200018bf1446d1e901571a461bb9204600f0bf
:10443000c9fb0246002d02dbaa4228bf2a46cdf85e
:1044400000803b4621463046fff772fd04b0bde8d0
:08445000f08100bf4c4d00009b
:020000040000fa
:10445800074a936823f001039360d36813f0010fb0
:10446800fbd1034b24225a6001229a60704700bf97
:1044780000600041eff3108172b6074ad2f8883025
:1044880043f47003c2f88830bff34f8fbff36f8fc8
:1044980001b962b6704700bf00ed00e0704700bf89
:020000040000fa
:1044a80008b50c4b98470c4b9847fff7e3fffff70d
:1044b800cfff00f0dff9094b23f07f03084a936030
:1044c800084b9847084b9847084b9847fdf740fa20
:1044d800fee700bfa5440000a5440000000000005e
:1044e80000ed00e049430000a5440000a544000099
:020000040000fa
:1044f80030b589b015464ff0ff32019202f203122f
:10450800029200b96846cde9030151b14c1e002959
:10451800059408da094b4f221a604ff0ff3009b0b2
:1045280030bd0c46f3e700220270cde906001a46ba
:10453800294601a800f018fbf1e700bf2806002073
:020000040000fa
:1045480013b5836a8df80710044673b16369a26acc
:10455800934212d3e36a01220df1070120469847de
:10456800012806d19df8070005e000f033fb00287c
:10457800ecd04ff0ff3002b010bd9df8070094f961
:0e45880034209042e6d05a1c62611870f3e7ae
:020000040000fa
:1045960001f000428b1aa3f16051b1f5801f0adbce
:1045a600b1f17f6f09d242eac102c10071f1004147
:1045b60042eb507070471046704701285b4113f577
:1045c600001f02d842f0ff407047c90041ea507010
:0c45d600104340f4800040f0804070472b
:020000040000fa
:0245e200704720
:020000040000fa
:1045e400022a70b5044616461d461ad043689b0637
:1045f40017d441b9002d08bf4ff4806505f10800b8
:10460400fff770fe01466368012e43f020036360e8
:10461400c4e9021514bfff230a2384f83430024b83
:0c462400e362002070bd00bfab4100004d
:020000040000fa
:1046300010b54ff48d60fff757fe0446a0b160221d
:10464000002100f01bfb094be362094b2363094b7c
:10465000e361094b6364ff2384f8343004f1680399
:10466000a3604ff48063e360204610bd554d000009
:0c467000714d0000a543000089420000cd
:020000040000fa
:10467c0010b50278202a034600f10100f9d0a2f10e
:10468c0009010429f5d92b2a07d02d2a11d1012192
:10469c000133013b00200a2403e00021f8e76043ca
:1046ac00801a13f8012f303a092af8d901b940427f
:0646bc0010bd0021ede736
:020000040000fa
:1046c20038b50d46044608b9002038bd43689b063c
:1046d2000ad40023a362c4e90533002df4d0206874
:1046e200bde8384000f038bbd0e905239a42f0d942
:1046f2000022c36a114698476369002be9d14ff043
:04470200ff30e2e7bb
:020000040000fa
:024706007047fa
:020000040000fa
:1047080070b590b10e4d2a68a0f110042e46a2b1e2
:1047180050f8101c43189a42136807d110331269d5
:1047280002600b4440f8103c2c6070bd1033d51863
:10473800ac4202d10b441360f7e702603460f4e73f
:044748003006002017
:020000040000fa
:10474c0010b5054c227832b9044b13b10448aff3c1
:10475c0000800123237010bde40500200000000040
:10476c000000000008b5034b1bb103490348aff32d
:10477c00008008bd00000000e805002000000000db
:020000040000fa
:10478c0010b44c68a40602460b4603d45df8044be7
:10479c0000f052b891f93410c0b2814203d059697b
:1047ac009c6aa14205d3114618465df8044bfff7ed
:0e47bc00c5be4c1c5c610a705df8044b704772
:020000040000fa
:0247ca00704736
:020000040000fa
:1047cc0030b50d4a002300bf12f8134024b902eb98
:1047dc0043035b78184630bd01680d78a54209bfcc
:1047ec0002eb430301335b78013114bfdbb2016090
:0c47fc000a2be9d9eee700bf3a4c0000a0
:020000040000fa
:1048080038b5436813f4807f0446154611d0036910
:104818009a4228bf1d465db12a46406900f096f9c4
:10482800636922692b44551b0022636125611a7054
:0c48380038bddb06fcd400f0d9f9f9e72c
:020000040000fa
:1048440007b54a68c0b2d2050b468df8070006d5f5
:104854004a69511c5961107003b05df804fb0122d0
:104864000df10701184600f0c3f910b19df80700d7
:08487400f2e74ff0ff30efe71f
:020000040000fa
:10487c0070b50a480a4d4ff6ff76016811b94368c6
:10488c0003b970bd83684268334000f10c0455f8dd
:10489c0023302046984704eb8000eee74c300000b4
:0448ac00684c000054
:020000040000fa
:1048b000c0f3c75191b142004fea40704fead201b4
:1048c0004fea310101f16051b2f17f4f38bf7047bb
:1048d00001f1605118bf41f40021704710f0004110
:0448e00000207047fd
:020000040000fa
:1048e40008b5fff770ff084b0021186800f005fabf
:1048f400064b0021186800f000fa054b00211868e7
:1049040000f0fbf908bd00bf380600201c0600209b
:044914002c0600204d
:020000040000fa
:1049180010b53820fff7e4fc044650b138220021d6
:1049280000f0a8f9044be362044b2363ff2384f8e7
:104938003430204610bd00bf554d00000747000029
:020000040000fa
:1049480053b94ab9002908bf00281cbf4ff0ff31ee
:104958004ff0ff3000f014baadf1080c6de904ce49
:10496800fef7c6f8ddf804e0dde9022304b070477d
:020000040000fa
:10497800064b1a680ab9064a1a60064a116809b944
:10498800054911601a68054b1a6070471406002023
:104998009807002010060020980900200c06002027
:020000040000fa
:1049a80043689a0770b558bfd0e90f42d0e905654a
:1049b80054bf121b0022741b224413f040000a60eb
:0c49c80003d0ae4294bf0020012070bd5f
:020000040000fa
:1049d40010b5084c23680bb9fff7ccff06492268d1
:1049e40009681044814234bf4ff0ff322060104602
:0c49f40010bd00bf0c06002010060020c3
:020000040000fa
:104a0000802910db812901dd83290cd1136807334c
:104a100023f0070303f108011160d3e90023c0e983
:0a4a200000230120704700207047ba
:020000040000fa
:104a2a002de9f0410024804617460e462546bd4230
:104a3a0002db2046bde8f081726856f8081b404642
:0a4a4a00fff7f5fa01350444f1e727
:020000040000fa
:104a54002de9f0410024804617460e462546bd4206
:104a640002db2046bde8f081726856f8081b404618
:0a4a7400fff703fb01350444f1e7ee
:020000040000fa
:104a7e0038b50569954228bf154604465db12a46ec
:104a8e00406900f060f8636922692b44551b0022cf
:084a9e00636125611a7038bd47
:020000040000fa
:104aa60090f948305a1e1343426880f8483012f095
:104ab60004031bbf42f010024260c0e90f334ff0ff
:084ac600ff3008bf18467047dd
:020000040000fa
:104ace0080b400affee780b400affee780b400af65
:104ade00fee780b400affee780b400affee780b41f
:044aee0000affee730
:020000040000fa
:104af20010f0004160b148bf40420a0d02f21d426f
:104b0200b0fa80f3d21a9840c30a400503eb02516f
:024b12007047ea
:020000040000fa
:104b140010b5054c22680ab9fff72cff034b18683f
:104b24002368c01a10bd00bf0c0600201006002028
:020000040000fa
:104b340010b50023934206d113f0030018bf0120df
:0e4b440000eb930010bdc45ccc540133f2e7cb
:020000040000fa
:024b52007047aa
:020000040000fa
:104b54005ab110b40a44431e11f8014b03f8014f33
:0c4b64009142f9d15df8044b7047704796
:020000040000fa
:104b700013b50446019201aafdf7c4fc636813f063
:0c4b8000100f18bf4ff0ff3002b010bd46
:020000040000fa
:104b8c0010b5d0e905424068a31a10f040000b6044
:0c4b9c0003d0944294bf0020012010bd03
:020000040000fa
:104ba8000eb403b503aa52f8041b019200f09df855
:0a4bb80002b05df804eb03b0704793
:020000040000fa
:104bc40003783bb1034600bf13f8012f002afbd141
:084bd400181a704718467047db
:020000040000fa
:104bdc0010b50446fff761ff28b9a368e268c4e981
:084bec0005331344a36210bd60
:020000040000fa
:104bf40010b4c46a1cb123465df8044b184700681e
:084c04005df8044bfff739ba1b
:020000040000fa
:104c0c00044a136823b910600361016001207047e6
:084c1c00002070473006002063
:020000040000fa
:104c240008b5fff7e9f8fff7e9fbfff78ff8bde8f0
:064c34000840fff73eba44
:020000040000fa
:104c3a0068076c094c836a9074a07ac000806888ff
:064c4a0000846c82008171
:020000040000fa
:104c50000068002808b501da002008bdfff7bafe99
:064c6000431cfad1f8e745
:020000040000fa
:104c6800a54c0000354b0000614d0000614d00006f
:044c7800614d00008a
:020000040000fa
:104c7c0032b1c9b20244034603f8011b9342fbd183
:044c8c00704700bfae
:020000040000fa
:104c900008b500f04bf8024b1860586008bd00bf23
:044ca00018060020d2
:020000040000fa
:104ca4000a440023914201d10020704701f8013bde
:024cb400f8e71f
:020000040000fa
:104cb60000294ff480630cbf02220022fff78fbc4d
:020000040000fa
:104cc60008b5fff7e2fffff789fcfff787fc08bd91
:020000040000fa
:0e4cd60080b400af00bfbd465df8047b7047a0
:020000040000fa
:0e4ce400a0f14103192b98bf40f0200070474b
:020000040000fa
:0c4cf20013460a466ff00041fff7fdbbbf
:020000040000fa
:0c4cfe0010b1c36903b1184700207047d3
:020000040000fa
:0a4d0a0080b483b000af7860fee7cc
:020000040000fa
:084d1400286e696c29002500de
:020000040000fa
:084d1c00004870476407002005
:020000040000fa
:084d240000487047a4060020be
:020000040000fa
:084d2c00004870470407002055
:020000040000fa
:084d340008b5fff729fd08bdd9
:020000040000fa
:084d3c0008b5fff777fc08bd84
:020000040000fa
:084d440008b5fff72ffe08bdc2
:020000040000fa
:074d4c00286e756c6c290054
:020000040000fa
:064d54000068fff792b9b0
:020000040000fa
:064d5a004ff0ff3070472e
:020000040000fa
:044d60000020704778
:020000040000fa
:044d64000020704774
:020000040000fa
:044d68000020704770
:020000040000fa
:044d6c00002070476c
:020000040000fa
:044d70000020704768
:020000040000fa
:044d7400fff7b6bfd0
:020000040000fa
:044d78000020704760
:020000040000fa
:044d7c00002070475c
:020000040000fa
:044d80000020704758
:020000040000fa
:044d8400036b18475e
:020000040000fa
:044d8800704700bfb1
:020000040000fa
:044d8c00002070474c
:020000040000fa
:0200000400807a
:044000003912003c35
:020000040000fa
:0200000400807a
:044004008000a82a66
:020000040000fa
:0200000400807a
:04400800ffffffffb8
:00000001FF
