:020000040000fa
:10000000f8ff032005aa00002795000003aa0000be
:10001000dfb50000abb60000bbb800000000000078
:10002000000000000000000000000000b7b9000060
:10003000cbaf000000000000b7b90000b7b9000066
:10004000b7b90000b7b90000b7b90000b7b90000f0
:10005000b7b90000b7b90000b7b90000b7b90000e0
:10006000b7b90000b7b90000b7b90000b7b90000d0
:10007000b7b90000b7b90000b7b90000b7b90000c0
:10008000b7b90000b7b90000b7b90000b7b90000b0
:10009000b7b90000b7b90000b7b90000b7b90000a0
:1000a000b7b90000b7b90000b7b90000b7b9000090
:1000b000b7b90000b7b90000b7b90000b7b9000080
:1000c000b7b90000b7b90000b7b90000b7b9000070
:1000d000b7b90000b7b90000b7b90000b7b9000060
:1000e000b7b90000b7b90000000000000000000030
:1000f00000000000b7b90000b7b90000b7b90000b0
:10010000b7b90000b7b90000b7b90000b7b900002f
:10011000b7b90000b7b90000659e0000659e0000f9
:10012000659e0000659e0000b7b90000b7b90000e9
:10013000b7b90000b7b90000b7b90000b7b90000ff
:10014000b7b90000b7b90000b7b90000b7b90000ef
:10015000b7b90000b7b90000b7b90000b7b90000df
:10016000b7b90000b7b90000b7b90000b7b90000cf
:10017000b7b90000b7b90000b7b90000b7b90000bf
:10018000b7b90000b7b90000b7b90000b7b90000af
:10019000b7b90000b7b90000b7b90000b7b900009f
:1001a000b7b90000b7b90000b7b90000b7b900008f
:1001b000b7b90000b7b90000b7b90000b7b900007f
:1001c000b7b90000b7b90000b7b90000b7b900006f
:1001d000b7b90000b7b90000b7b90000b7b900005f
:1001e000b7b90000b7b90000b7b90000b7b900004f
:1001f000b7b90000b7b90000b7b90000b7b900003f
:10020000b7b90000b7b90000b7b90000b7b900002e
:10021000b7b90000b7b90000b7b90000b7b900001e
:10022000b7b90000b7b90000b7b90000b7b900000e
:10023000b7b90000b7b900000000000000000000de
:10024000b7b90000b7b90000b7b90000b7b90000ee
:10025000b7b90000b7b90000b7b90000b7b90000de
:04026000b7b900002a
:020000040000fa
:10026400f8b500bff8bc08bc9e467047d1b6000084
:10027400f8b500bff8bc08bc9e467047adb6000098
:020000040000fa
:080284007c880000010000006d
:020000040000fa
:10028c00ec54002038000000000000005c550020f9
:10029c000100000000000000c05400202c000000f1
:1002ac0000000000905300206000000000000000df
:1002bc005d550020010000000000000024550020c6
:1002cc0010000000000000005e550020020000003d
:1002dc000000000044550020040000000000000055
:1002ec004054002048000000000000006055002031
:1002fc000020000004000000f0ff032005c90002ec
:10030c0063ca0002d3cd000273d000021fd10002d9
:10031c00dbd10012cfd20002d3ce0006cfd2000226
:10032c0095d10002cfd20002cfd20002cfd2000270
:10033c00cfd20002cfd20002cfd20002cfd2000225
:10034c00cfd20002cfd20002cfd20002cfd2000215
:10035c00cfd20002cfd20002cfd20002cfd2000205
:10036c00cfd20002cfd20002cfd20002cfd20002f5
:10037c00cfd20002cfd20002cfd20002cfd20002e5
:10038c00cfd20002cfd20002cfd20002cfd20002d5
:10039c00cfd20002cfd20002cfd20002cfd20002c5
:1003ac00cfd20002cfd20002cfd20002cfd20002b5
:1003bc00cfd20002cfd20002cfd20002cfd20002a5
:1003cc00cfd20002cfd20002cfd2000ecfd2000289
:1003dc00cfd20002cfd20002cfd20002cfd2000285
:1003ec00cfd20002cfd20002cfd20002cfd2000275
:1003fc00cfd20002cfd20002cfd20002cfd2000265
:10040c00cfd20002cfd20002cfd20002cfd2000254
:10041c00cfd20002cfd20002cfd20002cfd2000244
:10042c00cfd20002cfd20002cfd20002cfd2000234
:10043c00cfd20002cfd20002cfd20002cfd2000224
:10044c00cfd20002cfd20002cfd20002cfd2000214
:10045c00cfd20002cfd20002cfd20002cfd2000204
:10046c00cfd20002cfd20002cfd20002cfd20002f4
:10047c00cfd20002cfd20002cfd20002cfd20002e4
:10048c00cfd20002cfd20002cfd20002cfd20002d4
:10049c00cfd20002cfd20002cfd20002cfd20002c4
:1004ac00cfd20002cfd20002cfd20002cfd20002b4
:1004bc00cfd20002cfd20002cfd20002cfd20002a4
:1004cc00cfd20002cfd20002cfd20002cfd2000294
:1004dc00cfd20002cfd20002cfd20002cfd2000284
:1004ec00cfd20002cfd20002cfd20002cfd2000274
:1004fc00cfd20002cfd20002cfd20002cfd2000264
:10050c00cfd20002cfd20002cfd20002cfd2000a4b
:10051c00cfd20002cfd20002cfd20002cfd2000243
:10052c00cfd20002cfd20002cfd20002cfd2000233
:10053c00cfd20002f8b50001bff8bc08bc9e4670d3
:10054c0047f9cd0002f8b50001bff8bc08bc9e46c7
:10055c007047d5cd00022de9f04f85b0019001a870
:10056c000001f0e1fd00012803da00012005b0bd17
:10057c00e8f08f019b1b095d1e202d0fd9023b5b00
:10058c004ab3f500017f35bf02ebd30302ebd31363
:10059c0013f8045c13f8045c34bf013511350123e6
:1005ac00a5f12001c5f1200203fa01f923fa02f2a8
:1005bc0003fa05f849ea0209d8f10001084d4f6920
:1005cc00eb4909d7e900012302ea080a03ea090bff
:1005dc005aea0b0342d1019b03a810330393000189
:1005ec00f0d7ff18b9444b0c221a60c1e7d7f808b2
:1005fc0052a84206d0039b103b039301230001f148
:10060c0010058360039bea18012143f00103b5f147
:10061c00080442f8083c42f8041cc7f8082245f8c4
:10062c00043ca5d020460001f063fe88b155f808c3
:10063c003c55f8041c23f00103e31a5a6822f0011c
:10064c00020a445a6055f8041c21f0010162501c46
:10065c0046204601990001f01bfe04f108000189b7
:10066c00e75046244a264bbaf100010f34d1cbf1a6
:10067c0000010101ea0b014b4302ebd36393f83cfd
:10068c0060203630460001f019ff731c57f83340d8
:10069c0007ebc303083b9c4298d0272e26dd02357e
:1006ac00ae4201dc3f2e21d16168019a21f001019b
:1006bc008d1a28460001f0b8fd864217d1a318e028
:1006cc0068a668d8609e608360986842f00102c397
:1006dc0060c3e900012565506260bde7caf1000105
:1006ec000101404b4302ebd36393f83c60cbe73101
:1006fc004620460001f056fbafe70001bf1ccb00c3
:10070c00021804000120ac0600012029e66b0774d6
:10071c00060001201c000790060001200c0007b405
:10072c0006000120010007a4060001200400072494
:10073c0006000120500007b8060001206c000301e0
:10074c000003c406000120c006000120c4060001fd
:10075c002000042500031800022000010400229d43
:10076c00d3001203ca001a100002200804000684e9
:10077c000700012020000301000301000303001700
:10078c009c060001209c06000120080007a806001a
:10079c00012004000718040001200c0200062407a5
:1007ac00000120600003010003010003030017791e
:1007bc00cb000e8dd30002a7d3002eac0600012077
:1007cc0008000f2de9f8430001286ad050f8043cca
:1007dc00a0f1080423f00107e619326893420001e6
:1007ec00d0ffde726823681340da070fd42046006e
:1007fc0001f018fd00012857d130460001f02bfd07
:10080c00000128f0d0736823f001031f441e44ea52
:10081c00e747f001036360384633600001f09dfc4c
:10082c0005460001f0e4fd236872681340db07e025
:10083c00d5dff88ce0dee9000189c5f1200ca5f1cb
:10084c00200228fa05f009fa0cfc29fa02f240ea17
:10085c000c0001104301210001ea010200012313e5
:10086c0043c5f12000017346a5f1200212d121faf3
:10087c000001f001fa02f2a94042ea0001021ebf97
:10088c00def800020143cef800011022b1def804bc
:10089c00100a43cef80420681c03ebc003a3f10834
:1008ac000267603760a2605a68e2605c60e3689c33
:1008bc0060bde8f883236823f00103e41a6368231e
:1008cc00f001031f449ee718040001200d0a2323a6
:1008dc002323232323204170706c69636174696f37
:1008ec006e206c6f616465642066726f6d20426f60
:1008fc006f746c6f6164657220232323232323237d
:10090c000d000323232323232323205072657373a9
:10091c0020616e6420486f6c642074686520537786
:10092c006974636820746f2072652d7472696767cf
:10093c00657220426f6f746c6f6164657220232343
:10094c0023232323230d00012323232323232320c9
:10095c00426f6f746c6f6164657220547269676763
:10096c006572656420232323232323230d0002bff8
:10097c0010b51f4b1b78012b10d05ab212b1022ba1
:10098c001fd010bd1b4c20460001f0d8fc04f138e0
:10099c000002f0d4fc164b01221a70f2e7164bd36e
:1009ac00f8a03113f0010f02d1114b02221a704f33
:1009bc00f47a700001f03dfb104b4ff4000112c3b0
:1009cc00f81c21dfe70e480001f0bafc4ff00001e3
:1009dc00530c4a1a605a609a60da60bff34f8f0a60
:1009ec0049ca6802f4e062094b1343cb60bff34f72
:1009fc008f0001bffde7b406000120b0c6000380e4
:100a0c000001412cc700024d4348500001ed00018c
:100a1c00e0040001fa052de9ff41836946690001f4
:100a2c0093f61acde9016104461746039216444f1a
:100a3c00f002086d464246294620680001f06efc23
:100a4c00b04209d1d4e90232c4e905331a44a26296
:100a5c00384604b0bde8f0810001280dda62680068
:100a6c00012342f01002b8f1020fa362c4e905336e
:100a7c00626015d06b68ff1aebe76b68984288bf11
:100a8c000835a6eb00010688bfc01a2b6803442b5f
:100a9c00606b68a3eb000288bf08f1ff386860cb7d
:100aac00e71f46d6e770471b4b0001221a74a3f5cb
:100abc00406301225a711a46d37813f0010ffbd010
:100acc00164b174a1a621a46536813f0040ffbd1df
:100adc00124b144a5a621a46536813f0080ffbd192
:100aec000e4b114a9a621a46536813f0100ffbd141
:100afc000a4b4122c3f808211a46d2f8083113f0e8
:100b0c00400ffad0094b6ff07f421a6140f2ff722e
:100b1c005a6101221a627047000114000140000161
:100b2c001c00014006010100010601020001060142
:100b3c003000020800014008b5194b9847194b9832
:100b4c0047eff3108172b6174ad2f8883043f4702d
:100b5c0003c2f88830bff34f8fbff36f8f01b962b8
:100b6c00b6124a936823f0010393601346da6812b5
:100b7c00f0010ffbd10d4b24225a6001229a600028
:100b8c0001f090f90a4b23f07f03074a9360094b5d
:100b9c009847094b9847094b98470001f0fdfcfe1c
:100bac00e733d3000233d30003ed0001e000016012
:100bbc000001410001c0000265ca000233d30002eb
:100bcc0033d30002f8b5846a05460f46164654b175
:100bdc00ab6a6a699b1ab3420bd232463946284635
:100bec00fff722fff8bd0001f06bfc000128f0d0ec
:100bfc002046f8e700012ef1d095f9343000012b96
:100c0c001bdbdbb23446621eb95c994212d1224620
:100c1c0039462846fff70affa042e5d32744341b88
:100c2c002246394668690001f033fc6b691c446c40
:100c3c00613046d9e7144600012ae5d13446f0e785
:100c4c007fb5c368000191154600012b18bf013a0e
:100c5c00019282680446cde902230e4602226946bf
:100c6c000001680001f052fb00012808dc0001f0d3
:100c7c00180383f0080263681343636005460fe0b2
:100c8c00019a8242fad2a368e363801ae26818449c
:100c9c0020642ab15a1ce2632e441b7806f8013cee
:100cac00284604b070bdfee70e4a38b50001231388
:100cbc00600d4a0e4c13600e4a0e4d13600e4a1313
:100ccc00600e4a13600e4a53621361012393600055
:100cdc0001f063fc0001f078fcac420001d338bd9c
:100cec0054f8043b9847f8e7a806000120300600aa
:100cfc00012070c200022c0600012074c2000224e4
:100d0c00060001202806000120340600012070b5e1
:100d1c00d0e90245a54217d10122a1f12003c1f16e
:100d2c00200622fa06f602fa03f333438a40db4329
:100d3c00d6431ab10c490a6832400a605a1c1fbfcc
:100d4c00094a51680b4053604368ac6043f00102a0
:100d5c0023f00103e56042601844036843f001038b
:100d6c00036070bd0001bf18040001202021222364
:100d7c0024242525262627272828282829292929f7
:100d8c002a2a2a2a2b2b2b2b2c2c2c2c2c2c2c2ca3
:100d9c002d2d2d2d2d2d2d2d2e2e2e2e2e2e2e2e6f
:100dac002f2f2f2f2f2f2f2f00010117021d18135c
:100dbc00031e1b190b1408040d1f161c121a0a070c
:100dcc000c1511090610050f0e38b50d4604460812
:100ddc00b900012038bd43689b0607d5d0e905232f
:100dec009a4216d8000123c4e90533a362d4e90f53
:100dfc0013994204d20122c91a20680001f0fafbaf
:100e0c00000123c4e90f3300012de4d02068bde8b4
:100e1c0038400001f0e9bb000122c36a1146984733
:100e2c00636900012be1d14ff0ff30d6e718b370a6
:100e3c00b506460d460001f003faddb10001244f62
:100e4c00f08642137e13f0040ffbd0538b13f00784
:100e5c000f0bd1536803f00703012b936a14bf33b4
:100e6c005526f814300134a542ebd1a54214bf002d
:100e7c000120012070bd2c46f8e7000120704713bb
:100e8c00b5836a8df80710044673b16369a26a933f
:100e9c004212d3e36a01220df10701204698470163
:100eac002806d19df807000105e00001f01cfb00ad
:100ebc000128ecd04ff0ff3002b010bd9df80700b8
:100ecc000194f934209042e6d05a1c62611870f3f8
:100edc00e770b50e4b0e4a000121934208d30d4822
:100eec000e4d4ff6ff76016829b943681bb970bdea
:100efc0003f8011bf1e78368426833400001f10cf1
:100f0c000455f823302046984704eb800001ebe7aa
:100f1c00100002201000022028c40002f8d20002a7
:100f2c00022a70b5044616461d461ad043689b0625
:100f3c0017d441b900012d08bf4ff4806505f108a5
:100f4c000001fff7d2fa01466368012e43f020033b
:100f5c006360c4e9021514bfff230a2384f83430fc
:100f6c00024be36200012070bd0001bf8dc900027d
:100f7c000f4bda6822f4e0621204120c42f0bf62ea
:100f8c0042f4000132da60bff35f8f62b65a6a42f4
:100f9c00f480225a625a6942f010025a615a6a422b
:100fac00f40001325a625a6a42f480325a62704733
:100fbc000001bf0001ed0001e008b50001f0f1fafd
:100fcc000d4b1b6800012118680001f0f3fa0b4b64
:100fdc001b6800012118680001f0edfa0001f0b364
:100fec00f8fff785fdfff782fd0001f0fbf900012a
:100ffc00f001f90001f0b1fafff7c1ff08bdbc0622
:10100c00000120a007000120d8b110b40446d1b1d2
:10101c00084421464ff086426442137e13f0010fc0
:10102c00fbd0536803f00703012b14bf0b7834f883
:10103c001130936201318142efd101205df8044bf4
:10104c00704700012070470120f8e7fee710b50556
:10105c004c227832b9044b13b10448aff300018031
:10106c000123237010bd7406000120000808b5038d
:10107c004b1bb103490348aff300018008bd0004ca
:10108c007806000120000470b40e4b5e681b6813d8
:10109c00f0010f13d04bf6803303fb0001f0094b2a
:1010ac009b6860b1000121074c0136a2689a4292fc
:1010bc00bf9b1ab51a5b19194413468842f5d870b0
:1010cc00bc70470001bf10e00001e00c4a0368103f
:1010dc00b5546a0b4a591e121b8a420ad22bb1090b
:1010ec004b0c221a604ff0ff3010bd102202600032
:1010fc000120fae7173323f00f030360f8e7000130
:10110c00bf3406000120efffff7fac06000120106a
:10111c00b44c68a40602460b4603d45df8044b009d
:10112c0001f034b891f93410c0b2814203d059693e
:10113c009c6aa14205d3114618465df8044bfff793
:10114c00aebe4c1c5c610a705df8044b7047fee748
:10115c000d4b012183f8cc1083f8cd10222283f89b
:10116c00b6204ff4000112c3f8000121c3f810217e
:10117c0000012283f8552183f83a21c3f890110617
:10118c002183f8c01183f8b0217047000180000161
:10119c004107b54a68c0b2d2050b468df80700016d
:1011ac0006d54a69511c5961107003b05df804fbf7
:1011bc0001220df1070118460001f0b3f910b19da1
:1011cc00f8070001f2e74ff0ff30efe700010901eb
:1011dc0038202813d9b0f500017f05d2094b03eb59
:1011ec00d0000110f8040c7047b0f5e05f06d8048d
:1011fc004b03ebd01010f8040c103070473f2070ec
:10120c00470001bf1ccb00024ff086430a4a1a600c
:10121c004ef656429a814ff440325a601a46d369c0
:10122c0000012bfcd14ff08642136843f0020313ec
:10123c0060d36900012bfcd1704704011040426857
:10124c0022f00102531a102b10b40ed9441843f09b
:10125c00010341f00101216063608350416004f19e
:10126c000800015df8044bfff7ecba5df8044b7015
:10127c00474ff086435b8b13f0070f10d04ff0866f
:10128c004380221a7607225a831b7e13f0040f0622
:10129c00d04ff086439a6a1a7e12f0040ffad1707e
:1012ac004770b505462c68e30701d50001200fe017
:1012bc002046fff78fff06460001f0d6f82868a0fd
:1012cc0042f1d120f0010001281a3146fff73ffd11
:1012dc00012070bd70b505466c68e30701d50001af
:1012ec00200de02046fff777ff06460001f0bef820
:1012fc006b68a342f1d128463146fff729fd012046
:10130c0070bdfee7074b1968024609b9064919601a
:10131c001868064902448a4294bf1a604ff0ff30a5
:10132c0070470001bfb006000120a807000120a8eb
:10133c000900012070b500012902fb01f614460dcd
:10134c004618bf144601463246184608bf00012411
:10135c000001f0f1f8864218bfb0fbf5f42046709e
:10136c00bd2de9f041000124804617460e46254666
:10137c00bd4202db2046bde8f081726856f8081bbe
:10138c0040460001f087f801350444f1e72de9f0ff
:10139c0041000124804617460e462546bd4202db1d
:1013ac002046bde8f081726856f8081b40460001e3
:1013bc00f090f801350444f1e7fee710b5084c2332
:1013cc006819680001f046f800012807db23680a59
:1013dc002019680001f020f9c00f404210bd012017
:1013ec00fbe7a00700012090f948305a1e13434236
:1013fc006880f8483012f004031bbf42f010024220
:10140c0060c0e90f334ff0ff3008bf184670470635
:10141c004a000123136093604bf67f315160062123
:10142c001160034a9360136070470001bf10e00025
:10143c0001e0900600012008b5064b5868064a12d8
:10144c00689a6801329a601b6813b1014b1b68984b
:10145c004708bd900600012010e00001e070b50eb9
:10146c004605460001f057f8334604460246012172
:10147c002846fff768ff00011b18bf4ff0ff3070c4
:10148c00bdfee7064b013053f830203ab9c10001dc
:10149c00a1f108021a44194443f830204a607047fd
:1014ac00180400012038b550b952b10c4601252959
:1014bc00462046fff7e3fc000128f9d0012000018b
:1014cc00e000012038bd10b5000123934206d11372
:1014dc00f003000118bf01200001eb93000110bdc7
:1014ec00c45ccc540133f2e738b50d4614460128e0
:1014fc0001d0204638bd21462846fff7a1fd00014a
:10150c0028f9d0f6e75ab110b40a44431e11f80179
:10151c004b03f8014f9142f9d15df8044b704770c1
:10152c0047037833b1034613f8012f00012afbd18e
:10153c00181a7047184670470001bf10b50446ffd3
:10154c00f75cff28b9a368e268c4e905331344a328
:10155c006210bd10b4c46a1cb123465df8044b186c
:10156c00470001685df8044bfff7c0bf000168003d
:10157c00012808b501da00012008bdfff7d6fe43ab
:10158c001cfad1f8e7fee7034b0001229a601a68b7
:10159c0042f001021a60704710e00001e008b50348
:1015ac004b0001221a70fff7f0ff08bd0001bfb419
:1015bc000600012021d300021bd2000299d30002a5
:1015cc0099d3000299d3000208b50001f039f80252
:1015dc004b1860586008bd0001bf9c060001200a32
:1015ec0044000123914201d1000120704701f80110
:1015fc003bf8e77047024b4ff482721a8070470039
:10160c0001bf0001400001410001294ff480630c2f
:10161c00bf0222000122fff7b4bc08b5fff7d9ffc7
:10162c000001f023f80001f021f808bd08b5000115
:10163c0020fff7f0fc0001f001f8fce708b5fff71c
:10164c00eef908bd08b5fff78afd08bd704700012b
:10165c004870472407000120000168fff753bf4f73
:10166c00f0ff3070470001207047000120704700e8
:10167c000120704770477047ffffffffffffffff20
:10168c00ffffffffffffffffffffffffffffffff5e
:10169c00ffffffffffffffffffffffffffffffff4e
:1016ac00ffffffffffffffffffffffffffffffff3e
:1016bc00ffffffffffffffffffffffffffffffff2e
:1022dc00b8770020100000000100000091be000043
:1022ec0027bf000019ba000047bb00000000002007
:1022fc00742100000000000060750020c800000080
:10230c00040000001480158016801780fb533238af
:10231c00644833c97412ed73a339822f4c66902c28
:10232c00eab430ed5276c833e723f1bfc8b351edb0
:10233c0053d4cb8ea701e4401bf977d08126a1188a
:10234c007a9abcf5ac7e6cd8fc37a174fdc8cf75fd
:10235c00d51d494d384d1a69ef7aed822a0ee506e6
:10236c006ac30aaa2347431a7fcfc8b5215cee1d66
:10237c008a3a00011758429a8ab51b8e9d215cee51
:10238c001d8a3a00011758429a8ab51b8e9de25d50
:10239c006e8d89630a93162e8e87fc9c892e0310f2
:1023ac000022dc050002140007000000742100204c
:1023bc00082e0000000000008854002038000000a7
:1023cc000000000048550020040000000000000040
:1023dc00547700202400000001000000018300005d
:1023ec004b830000d18300006d840000f184000059
:1023fc003d85000003000000547700200000000021
:10240c00c87700200c000000010000002b2f3d407d
:10241c002b2f3d4c2d5f00004c550020040000007c
:10242c0000000000f05300205000000000000000ed
:10243c00787700202000000001000000010000005f
:10244c00030000000000000000000000000000007d
:10245c00000000000000000034550020345500201e
:10246c000800000000000000287600206c0000002e
:10247c0001000000347600203076002034760020f5
:10248c000000000025000000844f00200004000024
:10249c000000000000000000000000000000000030
:1024ac000000000000000000000000000000000020
:1024bc00a9bf0000000000000000000000000000a8
:1024cc00000000000db10000000000000000000042
:1024dc0000000000000000000000000000000000f0
:1024ec007c4f0020080400000000000098770020ba
:1024fc0020000000010000000100000003000000ab
:10250c0000000000000000000000000000000000bf
:10251c00000000003c5500203c5500200800000045
:10252c0000000000505500200800000000000000d2
:10253c009476002060000000010000000100000003
:10254c00030000000000000000000000000000007c
:10255c00000000000000000029b200000000000094
:10256c00000000000000000013a500007fbe00006a
:10257c00000000000000000000000000000000004f
:10258c00000000000000000000000000000000003f
:10259c00000000000000000000000000f4760020a5
:1025ac0060000000010000000100000003000000ba
:1025bc00000000000000000000000000000000000f
:1025cc000000000029b20000000000000000000024
:1025dc000000000013a500007fbe000000000000fa
:1025ec0000000000000000000000000000000000df
:1025fc0000000000000000000000000000000000cf
:10260c000000000000000000d4770020040000004f
:10261c0001000000010000005855002004000000db
:10262c0000000000845300200c000000000000009b
:10263c00000000000000000066666666666666665e
:020000040000fa
:10264c0080b588b004aff860b9607a603b60012354
:10265c00029301230193012300933b687a68b968c4
:10266c00f86800f0c0f8034618461037bd4680bd28
:10267c0080b485b000af03463960fb71fb791b0950
:10268c00fb73fb7b092b07d83b685a1c3a60fa7b1f
:10269c003032d2b21a7006e03b685a1c3a60fa7bb0
:1026ac003732d2b21a70fb7903f00f03fb73fb7b4a
:1026bc00092b07d83b685a1c3a60fa7b3032d2b2ed
:1026cc001a7006e03b685a1c3a60fa7b3732d2b279
:1026dc001a7000bf1437bd465df8047b704780b597
:1026ec0084b000af786039607b68002b19d03b68f0
:1026fc00002b16d00023fb600fe07a68fb681344b4
:10270c001b78184609f0f5fb01467a68fb68134400
:10271c00cab21a70fb680133fb60fa683b689a42d4
:10272c00ebd300bf1037bd4680bd80b584b000af81
:10273c00786039607b68002b19d03b68002b16d071
:10274c000023fb600fe07a68fb6813441b78184683
:10275c0009f0d6fb01467a68fb681344cab21a70ba
:10276c00fb680133fb60fa683b689a42ebd300bf0d
:10277c001037bd4680bd80b487b000aff860b9603b
:10278c007a603b60fb68002b02d07b68002b01d188
:10279c00e22322e03b681b68ba689a4201d9ed2318
:1027ac001be0bb68013b7b6100233b610de0fa68d9
:1027bc007b691a4479683b690b4412781a707b69ff
:1027cc00013b7b613b6901333b613a69bb689a42cf
:1027dc00edd33b68ba681a60002318461c37bd4617
:1027ec005df8047b704780b588b000aff860b960c5
:1027fc007a603b600023bb61fb68002b05d07b68d3
:10280c00002b02d03b68002b01d1e22375e03b6822
:10281c001b687b613b6800221a600023fb614ce063
:10282c00ba697b699a424dd8fb69002b2ed097f878
:10283c002830002b17d0fb6903f00f03002b12d1ab
:10284c00bb6902337a699a4201d2ed2355e07a686a
:10285c00bb69134402222b49184609f04bfabb6999
:10286c000233bb6112e097f82c30002b0ed0bb6901
:10287c0001337a699a4201d2ed233ee07a68bb6952
:10288c00134420221a70bb690133bb61bb6902334c
:10289c007a699a4201d2ed232fe0fa68fb6913445e
:1028ac0018787a68bb6913441946fff7e1febb69d7
:1028bc000233bb61fb690133fb61fa69bb689a4265
:1028cc00aed300e000bf97f83030002b04d0b969cc
:1028dc007868fff72aff03e0b9697868fff7fffe15
:1028ec003b68ba691a60ba697b699a4204d27a6801
:1028fc00bb69134400221a70002318462037bd46ca
:10290c0080bd00bf9cbf000080b483b000af034605
:10291c00fb71fb792f2b06d9fb79392b03d8fb796b
:10292c00303bdbb214e0fb79602b06d9fb79662bcc
:10293c0003d8fb79573bdbb20ae0fb79402b06d975
:10294c00fb79462b03d8fb79373bdbb200e0102335
:10295c0018460c37bd465df8047b704780b588b0cf
:10296c0000aff860b9607a603b600023bb61012363
:10297c00fb750023fb6167e0fa68fb6913441b7865
:10298c00184600f016f9034683f00103dbb2002b66
:10299c0017d0fb69591c364ba3fb01235a0813466d
:1029ac005b001344ca1a002a4ad197f82830002b2e
:1029bc0046d0fa68fb6913441b78202b40d0e223e5
:1029cc0052e03b681b68ba699a4201d3ed234be095
:1029dc00fb7d002b0fd0fa68fb6913441b7818465b
:1029ec00fff792ff034619467a68bb6913440a0144
:1029fc00d2b21a7015e0fa68fb6913441b781846ba
:102a0c00fff782ff034618467a68bb6913441a78ad
:102a1c007968bb690b440244d2b21a70bb690133aa
:102a2c00bb61fb7d002b14bf01230023dbb283f0c1
:102a3c000103dbb2fb75fb7d03f00103fb7500e0ca
:102a4c0000bffb690133fb61fa69bb689a4293d3ff
:102a5c00fb7d83f00103dbb2002b01d0e22303e00a
:102a6c003b68ba691a60002318462037bd4680bd02
:102a7c00abaaaaaa80b586b002aff860b9607a603a
:102a8c003b60002300933b687a68b968f868fff7ed
:102a9c0065ff034618461037bd4680bd80b483b031
:102aac0000af0346fb71fb792f2b04d9fb79392b33
:102abc0001d8012300e0002303f00103dbb2184628
:102acc000c37bd465df8047b704780b483b000af13
:102adc000346fb71fb790a2b08d0fb790d2b05d033
:102aec00fb79092b02d0fb79202b01d1012300e0cb
:102afc00002303f00103dbb218460c37bd465df82a
:102b0c00047b704780b483b000af0346fb71fb7944
:102b1c00402b02d9fb795a2b05d9fb79602b04d9b0
:102b2c00fb797a2b01d8012300e0002303f0010389
:102b3c00dbb218460c37bd465df8047b704780b499
:102b4c0083b000af0346fb71fb79402b02d9fb79b4
:102b5c00462b05d9fb79602b04d9fb79662b01d860
:102b6c00012300e0002303f00103dbb218460c370d
:102b7c00bd465df8047b704780b582b000af03465c
:102b8c00fb71fb79184600f014f80346002b06d1b4
:102b9c00fb791846fff799ff0346002b01d0012360
:102bac0000e0002303f00103dbb218460837bd46f2
:102bbc0080bd80b582b000af0346fb71fb7918462f
:102bcc00fff76cff0346002b06d1fb791846fff785
:102bdc00b6ff0346002b01d0012300e0002303f0d5
:102bec000103dbb218460837bd4680bd80b586b000
:102bfc0000aff860b9607a603b6000237b61002312
:102c0c003b61fb68002b05d07b68002b02d03b6836
:102c1c00002b01d1e22328e000237b611be0fa6842
:102c2c007b6913441b781846fff7c3ff0346002b40
:102c3c000ed03b681b683a699a4211d8fa687b69d6
:102c4c001a443b69591c396179680b4412781a7023
:102c5c007b6901337b617a69bb689a42dfd300e000
:102c6c0000bf3b683a691a60002318461837bd4606
:102c7c0080bd80b582b000af03463960fb71fb7933
:102c8c003968184600f014f80346002b06d1fb797e
:102c9c001846fff71aff0346002b01d0012300e072
:102cac00002303f00103dbb218460837bd4680bd94
:102cbc0080b582b000af03463960fb71fb791846d2
:102ccc00fff7ecfe0346002b17d1fb791846fff7f4
:102cdc0019ff0346002b10d13b681b78fa799a42f6
:102cec000bd03b6801331b78fa799a4205d03b68cc
:102cfc0002331b78fa799a4201d1012300e00023b8
:102d0c0003f00103dbb218460837bd4680bd80b422
:102d1c0083b000af03463960fb71fb79402b06d9b9
:102d2c00fb795a2b03d8fb79413bdbb22be0fb79c7
:102d3c00602b06d9fb797a2b03d8fb79473bdbb2a6
:102d4c0021e0fb792f2b06d9fb79392b03d8fb79a2
:102d5c000433dbb217e03b681b78fa799a4201d155
:102d6c003e2310e03b6801331b78fa799a4201d17b
:102d7c003f2308e03b6802331b78fa799a4201d171
:102d8c00402300e0ff2318460c37bd465df8047b5a
:102d9c00704780b483b000af03463960fb71fb7998
:102dac00192b03d8fb794133dbb228e0fb79192bc3
:102dbc0006d9fb79332b03d8fb794733dbb21ee002
:102dcc00fb79332b06d9fb793d2b03d8fb79043bdc
:102ddc00dbb214e0fb793e2b02d13b681b780ee092
:102dec00fb793f2b03d13b6801331b7807e0fb7960
:102dfc00402b03d13b6802331b7800e0ff231846bd
:102e0c000c37bd465df8047b704780b586b000afcb
:102e1c00f860b9607a603b600023fb7500233b616e
:102e2c00fb681b78402b0ed0fb6801331b78402bc2
:102e3c0009d0fb6802331b78402b0ad1fb680333a3
:102e4c001b78402b05d0e22007f02afe0346fb75c9
:102e5c006be0fb6802331b78402b02d101233b61f2
:102e6c0009e0fb6803331b78402b02d102233b6142
:102e7c0001e003233b617b681a683b6913443a68a1
:102e8c009a4205d2e22007f00bfe0346fb754ce09c
:102e9c00fb681b789b005ab2fb6801331b781b093b
:102eac00dbb25bb2134358b27b681b68591c7a685f
:102ebc001160ba681344c2b21a70fb6802331b78f3
:102ecc00402b2fd0fb6801331b781b015ab2fb68d7
:102edc0002331b789b08dbb25bb2134358b27b689e
:102eec001b68591c7a681160ba681344c2b21a7014
:102efc00fb6803331b78402b16d0fb6802331b781e
:102f0c009b015ab2fb6803331b785bb2134358b274
:102f1c007b681b68591c7a681160ba681344c2b28a
:102f2c001a7002e000bf00e000bffb7d18461837a6
:102f3c00bd4680bd90b58bb000aff860b9607a60cb
:102f4c003b60002387f8273000233b620023fb61a2
:102f5c000023fb76fb68002b08d07b68002b05d088
:102f6c003b68002b02d0bb6b002b06d1e22007f094
:102f7c0097fd034687f8273090e03b681b687b6120
:102f8c003b6800221a600023fb6158e0fa68fb6979
:102f9c0013441b781846fff798fd0346002b4ad1c3
:102fac00fa68fb6913441b78b96b1846fff780fe6f
:102fbc00034683f00103dbb2002b06d0e22007f0be
:102fcc006ffd034687f827303fe0fb7e002b06d0d1
:102fdc00e22007f065fd034687f8273035e0fa68f4
:102fec00fb6913441a783c6a631c3b62b96b10464c
:102ffc00fff78dfe03461a4607f12803234403f816
:10300c00182c3b6a032b17dd00233b6207f11000e1
:10301c007b693a687968fff7f8fe034687f8273032
:10302c0097f82730002b0fd1fb7c402b0cbf0123d2
:10303c000023fb7600e000bffb690133fb61fa69fa
:10304c00bb689a42a2d300e000bf97f82730002b50
:10305c0023d13b6a002b21d03b6a012b0fdce220f1
:10306c0007f01efd034687f8273017e007f1100222
:10307c003b6a134440221a703b6a01333b623b6a41
:10308c00032bf3dd07f110007b693a687968fff7d1
:10309c00bcfe034687f8273000e000bf97f82730c6
:1030ac0018462c37bd4690bd90b58bb000aff8607c
:1030bc00b9607a603b60002387f8273000233b62bd
:1030cc000023fb610023bb610023fb747b68002b96
:1030dc0008d0fb68002b05d03b68002b02d0bb6be3
:1030ec00002b06d1e22007f0dbfc034687f82730e3
:1030fc003ae1bb689f4aa2fb03235808b9689d4b71
:10310c00a3fb01235a0813465b001344ca1a002a76
:10311c0014bf01230023dbb203449b007b61bb6b18
:10312c0003331b78002b19d0bb6b03331b7803f0d4
:10313c000303dbb2002b06d0e22007f0b1fc034600
:10314c0087f8273010e1bb6b03331b781a467b6979
:10315c00b3fbf2f35b007a6913447b617b69013347
:10316c007b613b681b687a699a4206d9ed2007f0af
:10317c0097fc034687f82730f6e03b6800221a607c
:10318c0000233b62d2e0bb6b03331b78002b20d0b7
:10319c003b6a002b1dd0fa69bb69d31aba6b033298
:1031ac001278b3fbf2f102fb01f29b1a002b10d147
:1031bc00fb695a1cfa617a6813440d221a70fb6978
:1031cc005a1cfa617a6813440a221a70bb690233da
:1031dc00bb61fa683b6a13441b789b08fb74fb6960
:1031ec005a1cfa617a68d418fb7cb96b1846fff745
:1031fc00d0fd03462370fa683b6a13441b781b010d
:10320c00dbb203f03003fb743b6a0133ba689a42b9
:10321c0067d93b6a0133fa6813441b781b09dab28d
:10322c00fb7c1343fb74fb695a1cfa617a68d41853
:10323c00fb7cb96b1846fff7acfd034623703b6a69
:10324c000133fa6813441b789b00dbb203f03c0398
:10325c00fb743b6a0233ba689a422ad93b6a02333e
:10326c00fa6813441b789b09dab2fb7c1343fb749a
:10327c00fb695a1cfa617a68d418fb7cb96b184646
:10328c00fff787fd034623703b6a0233fa68134449
:10329c001b7803f03f03fb74fb695a1cfa617a68d4
:1032ac00d418fb7cb96b1846fff773fd03462370eb
:1032bc0039e0fb695a1cfa617a68d418fb7cb96b4b
:1032cc001846fff766fd03462370fb695a1cfa612a
:1032dc007a68d418b96b4020fff75bfd0346237066
:1032ec0021e0fb695a1cfa617a68d418fb7cb96b33
:1032fc001846fff74efd03462370fb695a1cfa6112
:10330c007a68d418b96b4020fff743fd034623704d
:10331c00fb695a1cfa617a68d418b96b4020fff724
:10332c0038fd034623703b6a03333b623a6abb6841
:10333c009a42fff428af02e0fb69013bfb61fb6999
:10334c00012b06d9fb69013b7a6813441b78002bcf
:10335c00f2d0fb695a1cfa617a68134400221a7085
:10336c00fb695a1e3b681a6097f8273018462c37b1
:10337c00bd4690bdabaaaaaa80b586b002aff860d4
:10338c00b9607a603b60064b00933b687a68b96819
:10339c00f868fff789fe034618461037bd4680bd16
:1033ac00c877002080b586b002aff860b9607a604b
:1033bc003b60064b00933b687a68b968f868fff786
:1033cc00b9fd034618461037bd4680bdc8770020ae
:1033dc0080b487b000aff860b9607a603b60fb687e
:1033ec00002b02d14ff0ff331ae03a68bb689a42c7
:1033fc0002d94ff0ff3313e0fb687b6105e07b697a
:10340c005a1c7a617a68d2b21a70bb685a1eba60ba
:10341c00002b04d03b685a1e3a60002befd10023de
:10342c0018461c37bd465df8047b704790b587b0d5
:10343c0000af786039607b687b613b683b6100233f
:10344c00fb607b69002b02d03b69002b29d17b6987
:10345c0036e07b691a783b691b789a4216d07b69f7
:10346c001b781c463b691b78184608f049fd03463f
:10347c009c420bd0fb68002b04d00023fb603b6804
:10348c003b610ee07b6901337b610ae0fb68002b3a
:10349c0001d17b69fb603b6901333b617b69013383
:1034ac007b617b691b78002b03d03b691b78002b5d
:1034bc00cfd13b691b78002b01d1fb6800e00023c6
:0834cc0018461c37bd4690bdf7
:020000040000fa
:1034d40090b5d9b000af07f10c042060084611463e
:1034e4003a1d136007f10a0302461a8007f1080324
:1034f4000a461a80002387f85f3107f10c031b6822
:10350400002b07d03b1d1b68002b03d0d7f870316c
:10351400002b05d1e22007f0c7fa034687f85f3194
:1035240097f85f31002b10d107f10c031b68d969a0
:1035340007f10c031b6893f8202007f11c031846bd
:1035440005f068f8034687f85f3197f85f31002b80
:1035540040f0838007f10c031b681b7d022b0cd108
:1035640007f11c030a224049184605f0d2f807f176
:1035740014034ff480721a601ce007f10c031b68fb
:103584001b7d012b0bd107f11c030a223749184676
:1035940005f0bff807f1140380221a600ae007f16e
:1035a4001c030a223249184605f0b3f807f1140344
:1035b400d0221a603b1d07f11c001022196805f087
:1035c400a8f807f11c031022d7f87011184605f06b
:1035d400a0f807f10a031b885bba9ab207f11a0331
:1035e4001a8007f11a0107f11c030222184605f09c
:1035f40090f807f11a0307f1080212881a8007f1fc
:103604001a0107f11c030222184605f082f807f19b
:1036140014031b689bb25bba9ab207f11a031a80af
:1036240007f11a0107f11c030222184605f071f88c
:1036340007f114031b68da0807f114031a6007f191
:103644000c031b68d96907f1140207f11c0318461f
:1036540005f071f8034687f85f3197f85f31184633
:1036640007f5b277bd4690bde4bb0000f0bb000097
:10367400fcbb000090b5d7b000af07f10c0420608c
:1036840007f108000160391d0a603a461360e2231d
:1036940087f8573107f10c031b68002b3ed007f164
:1036a40008031b68002b39d03b461b68002b35d020
:1036b400d7f86831002b31d007f10c031b68db8a83
:1036c4005bba9bb2a7f8543107f10c031b68d969a4
:1036d40007f10c031b6893f8202007f11403184624
:1036e40004f098ff07f5aa7107f1140302221846a3
:1036f40005f00ff83a1d07f1080307f114001268ea
:10370400196805f006f83b4607f11400d7f868215c
:10371400196805f010f8034687f8573197f85731c0
:10372400184607f5ae77bd4690bd80b58ab000afa8
:10373400f8607b600b467b8113463b81002387f84e
:10374400273000233b62fb68002b02d07b68002bf0
:1037540006d1e22007f0a8f9034687f827300ee0e7
:1037640006f03eff38623b6a002b01d0002300e0e4
:10377400fb23184607f098f9034687f827303b6a7d
:10378400002b00f09080fb683a895a84fb68002281
:103794001a753b8903f00103002b18d03b8903f011
:1037a4000203002b06d0fb681b7d43f02003dab232
:1037b400fb681a753b8903f00403002b1fd0fb68d8
:1037c4001b7d43f01003dab2fb681a7517e03b89de
:1037d40003f00203002b06d0fb681b7d43f01003ab
:1037e400dab2fb681a753b8903f00403002b06d098
:1037f400fb681b7d43f02003dab2fb681a753b6a51
:103804001622da703b6a00221a713b6a3a89a3f8dd
:1038140005207b895bba9ab23b6aa3f80720fb6850
:103824007a891a830a23fb833b8903f00203002b62
:1038340009d13b6a093310227968184608f05efa08
:10384400fb8b1033fb83fb8b5bba9ab23b6aa3f806
:103854000120f968386a01f090f8034687f82730a8
:1038640097f82730002b1bd13b8903f00203002b70
:1038740016d03b6abb61bb691b889bb25bba9bb227
:10388400053bfb82fb8a102b07d1bb690333102253
:103894001946786808f032fa02e0e12387f8273005
:1038a400386a06f0d7fe97f8273018462837bd4601
:1038b40080bd80b58ab002aff860084611461a464a
:1038c40003467b810b467b721346fb800023fb7708
:1038d4000023bb610a23bb820023fb82fb68002b0d
:1038e40009d07b6b002b06d0fb6a002b03d097f822
:1038f40028300f2b05d8e22007f0d6f80346fb77d3
:1039040012e0fb681b7d1b09dbb2fb8206f068fe3c
:10391400b861bb69002b01d0002300e0fb231846eb
:1039240007f0c2f80346fb77bb69002b64d0bb6980
:103934001622da70bb6901221a717b895bba9ab2ca
:10394400bb69a3f80520fb681b8b5bba9ab2bb6901
:10395400a3f80720bb697a7a5a72fb881b0a9bb2c8
:10396400dab2bb699a72fb88dab2bb69da72bb8ad3
:103974000333bb82fb685b8c03f00103002b07d08d
:10398400bb690c331022396b184608f0b7f906e00e
:10399400bb690c331022796b184608f0aff9fb6849
:1039a40000225a84bb8a1033bb82bb8a5bba9ab2a8
:1039b400bb69a3f80120f968b86900f0deff03468b
:1039c400184607f071f80346fb77fb7f002b10d1f4
:1039d400fb68fa6ada61fb6897f8282083f82020ec
:1039e4007b7a182b03d1fb6802221a7501e0e223cb
:1039f400fb77b86906f02efefb7f002b0dd1fa8a07
:103a0400f9887b6b00933b6bf868fff761fd034615
:103a1400184607f049f80346fb77fb7f1846203722
:103a2400bd4680bd80b58eb002aff860b960134664
:103a3400fb80002387f82f300023bb6200237b61c7
:103a440000233b62bb68bb61fb68002b02d0bb68f0
:103a5400002b06d1e22007f027f8034687f82f3021
:103a64000ee006f0bdfdb862bb6a002b01d0002356
:103a740000e0fb23184607f017f8034687f82f30b9
:103a8400bb6a002b00f0fa800023fb61bb6a16229c
:103a9400da70bb6a02221a71fb88002b06d0bb6a5b
:103aa4001b7963f07f03dab2bb6a1a71fb885bbad5
:103ab4009ab2bb6aa3f80520fb681b8b5bba9ab267
:103ac400bb6aa3f80720fb690833ba6a1344581c7d
:103ad400bb6803330622194608f010f9fb69063364
:103ae400fb61bb68b3f801309bb25bbafb84fb6833
:103af4001b7d022b36d120237b61fa8c7b69c3f5b5
:103b04007e7302339a4206d9ed2006f0cdff0346b8
:103b140087f82f3029e0fb8c0a3bfb84fb690833d0
:103b2400ba6a1344581cbb680933fa8c194608f066
:103b3400e5f8fb8cfa691344fb61bb6a03f10901e4
:103b4400f869fb690833ba6a13445a1c07f1140371
:103b5400009313460246f868fff78cfd034687f886
:103b64002f3002e0e02387f82f30fb699ab27b699b
:103b74009bb213449bb20a33fb84fb8c5bba9ab2ac
:103b8400bb6aa3f8012097f82f30002b06d1f968ff
:103b9400b86a00f0f2fe034687f82f3097f82f300a
:103ba400002b3cd1bb6a3b623b6a1b889bb25bba6d
:103bb4009bb2053bfb843b6a9a78bb699a70fb68ad
:103bc400db8a01339ab2fb68da82fb681b7d022b25
:103bd40022d120237b617b699bb2fa8cd31afb84ac
:103be400bb69d81c3b6a0333fa8c194608f086f883
:103bf400bb69991cfb8c581cfb8cba691344da1cf6
:103c040007f11403009313460246f868fff732fde8
:103c1400034687f82f3002e0e02387f82f3097f827
:103c24002f30002b1dd1fb681b7d032b12d0fb8c86
:103c34003a6a1344d81cfb8cba69134403337a6977
:103c4400194608f04cf80346002b03d0d22387f81a
:103c54002f3006e0fb8c05339bb25bba9ab2bb698a
:103c64001a8097f82f30002b05d1fb68db8a0133cb
:103c74009ab2fb68da82b86a06f0ecfc97f82f3047
:103c840018463037bd4680bd80b584b000af78603b
:103c94000023fb730023bb607b68002b05d1e2206b
:103ca40006f002ff0346fb730de006f099fcb860d2
:103cb400bb68002b01d0002300e0fb23184606f06c
:103cc400f3fe0346fb73bb68002b27d07b680022fe
:103cd4001a757b680022da82bb681622da70bb6828
:103ce40003221a71bb6800225a7100229a717b6800
:103cf4001b8b5bba9ab2bb68a3f80720bb6800228f
:103d04005a70002242f00a029a707968b86800f08a
:103d140056fe0346fb73b86806f09cfcfb7b184612
:103d24001037bd4680bd80b584b000af78600023f5
:103d3400fb737b68002b04d1e22006f0b5fe03463a
:103d4400fb737b6800221a757b680022da82fb7b96
:083d540018461037bd4680bd82
:020000040000fa
:103d5c0080b588b000aff8607a603b600b46fb72b0
:103d6c000023bb61fb68002b05d03b68002b02d005
:103d7c00bb6a002b05d1e22006f092fe0346fb77ce
:103d8c000de006f029fcb861bb69002b01d00023c3
:103d9c0000e0fb23184606f083fe0346fb77bb6965
:103dac00002b43d0bb690022da70bb69fa7a1a7116
:103dbc007b681ababb69c3f80520bb6900225a702c
:103dcc00002242f00a029a70f968b86900f0f3fd1b
:103ddc000346184606f064fe0346fb77fb7f002b78
:103dec0021d1bb697b617b691b889bb25bba9bb29f
:103dfc00053b3b613b69002b15d0bb6a1b683a69dc
:103e0c009a4205d9ed2006f04bfe0346fb7702e003
:103e1c00bb6a3a691a607b69d91cbb6a1b681a4673
:103e2c00386807f067ffb86906f010fcfb7f18468e
:103e3c002037bd4680bd80b586b002af7860396052
:103e4c000823fb6007f10c0300933b680022002160
:103e5c007868fff77dff034618461037bd4680bdd6
:103e6c0080b586b002af786039600423bb6007f17f
:103e7c00080300933b68002200217868fff768ff75
:103e8c000346fb73fb7bed2b01d10023fb73fb7b08
:103e9c0018461037bd4680bd80b586b002af78603d
:103eac0039600823bb6007f1080300933b680022cc
:103ebc0007217868fff74cff0346fb73fb7bed2b68
:103ecc0001d10023fb73fb7b18461037bd4680bd28
:103edc0080b586b002af78603960e223fb730823ab
:103eec00bb603b68002b0fd03b6800221a703b680c
:103efc005a1c07f108030093134600220721786827
:103f0c00fff726ff0346fb73fb7bed2b01d1002350
:103f1c00fb73fb7b18461037bd4680bd80b586b061
:103f2c0002af786039600423fb6007f10c03009347
:103f3c003b68002201217868fff70aff0346184608
:103f4c001037bd4680bd80b588b002aff860b9604f
:103f5c007a6001237b6107f1140300937b68ba68d4
:103f6c000221f868fff7f4fe034618461837bd46e1
:103f7c0080bd80b588b002aff860b9607a60092363
:103f8c007b6107f1140300937b68ba680321f8681e
:103f9c00fff7defe034618461837bd4680bd80b5d8
:103fac0088b000aff860b9607a60e223fb777b6879
:103fbc00002b2fd007f114031a46b968f868fff7e5
:103fcc00d8ff0346fb77fb7f002b23d13b7d03f00f
:103fdc000703bb77bb7f072b1ed801a252f823f037
:103fec002540000025400000254000000d40000049
:103ffc002540000025400000254000002540000021
:10400c00bb7d1b0203f470637a7d13431a467b68f5
:10401c001a6002e000bf00e000bffb7f18462037ab
:10402c00bd4680bd80b58ab000aff860b9607a60db
:10403c0000233b62fb68002b02d07b68002b06d16f
:10404c00e22006f02dfd034687f827300ee006f03f
:10405c00c3fa38623b6a002b01d0002300e0fb233b
:10406c00184606f01dfd034687f827303b6a002be7
:10407c0072d03b6a0022da703b6a04221a713b6ae6
:10408c0000225a7100229a710022da7100221a72ef
:10409c003b6a00225a70002242f00a029a70f968b8
:1040ac00386a00f088fc0346184606f0f9fc034613
:1040bc0087f8273097f82730002b4ad13b6a7b6171
:1040cc007b691b889bb25bba9bb2053b3b613b692e
:1040dc00022b3bd97b690533bb613b69023b3b61de
:1040ec007b681a683b695b089a4206d2ed2006f0a1
:1040fc00d7fc034687f8273003e03b695a087b68f6
:10410c001a600023fb6116e0bb691b789ab2bb698d
:10411c0001331b789bb21b029bb213449ab2bb684f
:10412c00991cb96052ba92b21a80fb690133fb61d7
:10413c00bb690233bb617b681b681a46fb699342ff
:10414c00e2db3b695a087b681a6002e07b6800225c
:10415c001a60386a06f07afa97f82730184628372a
:10416c00bd4680bd80b588b002aff8600b467a6062
:10417c00fb727b68002b05d1e22006f091fc034614
:10418c00fb752de0fb7a012b05d9e22006f088fcab
:10419c000346fb7524e002233b6107f1140207f18f
:1041ac0010030093134600220521f868fff7d0fd99
:1041bc000346fb75fb7d002b04d0fb7d184606f0f7
:1041cc006ffc0de0fb7a07f11802134413f8043c62
:1041dc00012b0cbf01230023dbb21a467b681a703b
:1041ec00fb7d18461837bd4680bd80b58ab002af3e
:1041fc00f8600b467a60fb727b68002b05d1e220dd
:10420c0006f04efc0346fb772de0fb7a032b05d919
:10421c00e22006f045fc0346fb7724e004237b6197
:10422c0007f1180207f1140300931346002206212c
:10423c00f868fff78dfd0346fb77fb7f002b04d05e
:10424c00fb7f184606f02cfc0de0fb7a07f12002f0
:10425c00134413f8083c012b0cbf01230023dbb2e1
:10426c001a467b681a70fb7f18462037bd4680bd06
:10427c0080b586b002af786039601023fb6007f11f
:10428c000c0300933b68002207217868fff760fd60
:10429c00034618461037bd4680bd80b586b002afc8
:1042ac00786039600623fb6007f10c0300933b68d0
:1042bc00002208217868fff74bfd0346184610379b
:1042cc00bd4680bd80b584b000af786039603b6876
:1042dc00002b05d1e22006f0e3fb0346fb7313e051
:1042ec0007f1080319467868fff7d7ff034618460d
:1042fc0006f0d6fb0346fb733b7a002b14bf01235d
:10430c000023dab23b681a70fb7b18461037bd46a7
:10431c0080bd80b584b000af786039603b68002bfd
:10432c0005d1e22006f0bcfb0346fb7313e007f15a
:10433c00080319467868fff7b0ff0346184606f0e5
:10434c00affb0346fb737b7a002b14bf01230023c6
:10435c00dab23b681a70fb7b18461037bd4680bd3d
:10436c0080b584b000af786039603b68002b05d114
:10437c00e22006f095fb0346fb7310e007f10803ff
:10438c0019467868fff789ff0346184606f088fb44
:10439c000346fb73d7f80a301a463b681a60fb7b5e
:1043ac0018461037bd4680bd80b586b002af786028
:1043bc0039604023fb6007f10c0300933b6800223b
:1043cc0009217868fff7c4fc034618461037bd4630
:1043dc0080bd80b586b002af786039600223fb6087
:1043ec0007f10c0300933b6800220a217868fff761
:1043fc00affc034618461037bd4680bd80b586b06d
:10440c0002af786039600223fb6007f10c03009364
:10441c003b6800220b217868fff79afc034618468c
:10442c001037bd4680bd80b586b000aff8600b4636
:10443c007a60fb72e223fb75fb7a002b0ad1796858
:10444c00f868fff73fff0346184606f029fb0346c2
:10445c00fb750ce0fb7a012b09d17968f868fff742
:10446c0058ff0346184606f01bfb0346fb75fb7d05
:10447c0018461837bd4680bd80b588b000aff860cf
:10448c000b467a607b817b68002b05d1e22006f01d
:10449c0007fb0346fb7717e07b8907f114021946eb
:1044ac00f868fff766fd0346184606f0f9fa03466e
:1044bc00fb773b7f9b1003f00103002b14bf012300
:1044cc000023dab27b681a70fb7f18462037bd4692
:1044dc0080bd80b588b000aff8600b467a607b81f8
:1044ec007b68002b05d1e22006f0dafa0346fb7755
:1044fc0014e07b8907f114021946f868fff739fdbf
:10450c000346184606f0ccfa0346fb773b7d012b9d
:10451c000cbf01230023dab27b681a70fb7f1846ac
:08452c002037bd4680bd00bf31
:020000040000fa
:1045340080b586b000aff8607a601a460b46fb720d
:1045440013463b81f023fb757b68002b02d03b892b
:10455400002b04d1e22006f0a7fa03462de0fb6805
:10456400184601f0a2fa0346002b09d0f8687b68cc
:1045740019783b897a6801f06ff90346fb751be0f3
:10458400f86800230022042101f0b0f90346fb750a
:10459400fb7df52b02d0fb7d002b07d1f8683b890e
:1045a400f97a7a6801f058f90346fb75f868002334
:1045b4000022052101f09af9fb7d18461837bd4603
:1045c40080bd80b586b000aff8607b600b46fb729f
:1045d4001346bb72e223fb753b6a002b3fd07b681a
:1045e400002b3cd0fb681b689b6a01333b61fb6872
:1045f400184601f05afa0346002b08d0f868b97a35
:104604003b6a7a6801f04df90346fb751fe0f868d0
:1046140000230022042101f069f9f86807f10a0275
:10462400f97a012301f018f90346fb75fb7d002b91
:1046340007d1f868f97a3b6a7a6801f032f90346df
:10464400fb75f86800230022052101f04ff93b694e
:104654005a1e3a61002b02ddfb7d002bc7d1fb7d86
:1046640018461837bd4680bd80b588b000aff860e5
:104674007a603b600b46fb72f023fb770223fb82dc
:1046840010237b753b68002b02d07b68002b04d180
:10469400e22006f009fa034682e0f86800230022cb
:1046a400042101f023f9fb681b689b6a0133bb6199
:1046b40008e0f86807f11502f97a012301f0ccf853
:1046c4000346fb77bb695a1eba61002b02ddfb7ff0
:1046d400002beed1fb7f002b04d0fb7f184606f0a5
:1046e400e3f956e0f86807f11603f97a7a6801f0fd
:1046f400d8f80346fb77fb7f002b04d0fb7f1846da
:1047040006f0d2f945e07b6801331b789bb2fb824b
:104714007b681b789bb21b029ab2fb8a13449bb240
:10472400fb82fb8a032b04d9fb8a40f205429342a5
:1047340005d9e62006f0b8f90346fb7729e03b6883
:104744001a88fb8a9a4205d2ed2006f0adf9034699
:10475400fb771ee0fb8a023b9bb2fb82f8687b6816
:104764009a1c07f11603f97a01f09bf80346fb77cc
:10477400fb7f002b06d0fb7f184606f095f9034615
:10478400fb7706e0fb8a02339bb2fb82fa8a3b6822
:104794001a80f86800230022052101f0a7f8fb7fa6
:1047a40018462037bd4680bd80b588b000af78601c
:1047b40039607b68b3f801309bb25bba9bb2fb8172
:1047c400386804f075ff0346fb7501233b617b6881
:1047d400db78122b0bd07b68db78162b0bd17b6834
:1047e4001b79022b07d17b685b7a122b03d144f629
:1047f4002063bb6102e040f2e243bb61386800f031
:104804006cf90346fb77fb7f002b06d0fb7f184631
:1048140006f04af90346fb77aae07b6800221a7087
:10482400fb8901339bb2fb81fb89f97d7a68386887
:10483400fff77efe0346184606f036f90346fb777b
:10484400fb7f002b40f09380386904f046f97b68c5
:10485400db78032b04d1fb7f184606f025f987e0ab
:1048640007f10d031a463021386800f0d8f80346e2
:10487400fb77fb7f002b2ed17b7b03f01003002bf7
:1048840029d07b7b03f00603062b24d005220021cc
:10489400786807f0b9fa40f20b43fb813b6818468d
:1048a40001f003f90346002b09d0386807f10e0321
:1048b4007a68102100f0f5ff0346fb7708e007f162
:1048c4000e03f97d7a683868fff7cefe0346fb775e
:1048d400fb7f002b08d0022004f0fff8bb695a1eae
:1048e400ba61002bbcdc00e000bfbb69002b05dc17
:1048f400eb2006f0d9f80346fb7739e0fb7f002b69
:1049040004d0fb7f184606f0cff831e0fb89042b76
:1049140008d8fb89002b02d0e623fb7728e0e723a5
:10492400fb7725e0fb89023b9bb21946786805f0ca
:104934003cfa0346fb77fb7f002b04d0fb7f184631
:1049440006f0b2f814e07b689b78fb77fb7f002bc2
:104954000ed0fb7f03f04003002b03d0fb7f23f03a
:104964004003fb77fb7f184606f09ef800e000bf8b
:10497400fb7f18462037bd4680bd80b584b000afac
:10498400786039607b68b3f801309bb25bbabb8155
:104994007b680133ba891146184605f039fa034693
:1049a400fb73fb7b002b05d139687868fff7fcfead
:1049b4000346fb73fb7b18461037bd4680bd80b5ac
:1049c40084b000af786039603b681b7d002b09d050
:1049d4003b685b8c1a4679683868fff723f803460e
:1049e400fb7317e07b68b3f801309bb25bbabb8101
:1049f4007b680133ba891146184605f009fa034663
:104a0400fb73fb7b002b05d139687868fff7ccfe7c
:104a14000346fb73fb7b18461037bd4680bd80b54b
:104a240088b002aff8600b467a60fb72e223fb7534
:104a34000123bb82fb68002b23d0fb68184601f0de
:104a440034f80346002b0dd0f86807f11403f97a03
:104a54007a6800f026ff0346184606f025f8034658
:104a6400fb750ee0f86804f023fe03461946fa7a53
:104a740007f1140300937b68f868fff7a2fd03466f
:104a8400fb75fb7d18461837bd4680bd80b584b0e4
:104a940000af78600b46fb701346bb70e223fb73d8
:104aa4007b68002b14d0fb783b73bb787b737868ee
:104ab40004f0fefd0346194607f10c020223786850
:104ac400fff736fd0346184605f0eeff0346fb7379
:104ad400fb7b18461037bd4680bd80b584b000af5f
:104ae40078600223bb7307f10d031a4630217868fe
:104af400fff795ff0346fb73fb7b002b09d17b7b00
:104b040003f00603002b0fd07b7b03f00603022b7c
:104b14000ad0052003f0e1ff97f90e30dab2013a2a
:104b2400d2b2ba73002bdedc97f90e30002b04dc12
:104b3400d02005f0b9ff0346fb73fb7b1846103702
:044b4400bd4680bd2d
:020000040000fa
:104b480080b4d9b000af07f10c03186007f108036f
:104b580019603b1d1a600023c7f85c310023c7f8b1
:104b680058310023c7f85831ace1d7f858319b01c8
:104b780007f1080212681344c7f850310023c7f838
:104b88005c314ee0d7f85c31d7f850211a44d7f899
:104b98005c310333117807f13402d154d7f85c3112
:104ba8000133d7f850211a44d7f85c310233117811
:104bb80007f13402d154d7f85c310233d7f85021c9
:104bc8001a44d7f85c310133117807f13402d15413
:104bd800d7f85c310333d7f850211344197807f11b
:104be8003402d7f85c3113440a461a70d7f85c319e
:104bf800002b00da03339b101a46d7f85c31002be0
:104c080000da03339b10194607f1340353f82220c6
:104c180007f1340343f82120d7f85c310433c7f88f
:104c28005c31d7f85c313f2bacdd1023c7f8543129
:104c380051e0d7f85431a3f10f0207f1340353f8c8
:104c48002230c7f84c31d7f84c314feaf312d7f875
:104c58004c314feab3435a40d7f84c31db08534044
:104c6800c7f84831d7f854319a1e07f1340353f87e
:104c78002230c7f84c31d7f84c314fea7342d7f895
:104c88004c314feaf3435a40d7f84c319b0a534012
:104c9800c7f84431d7f85431a3f1100207f13403af
:104ca80053f82220d7f848311a44d7f85431d91f7d
:104cb80007f1340353f821301a44d7f84431d11896
:104cc80007f13403d7f8542143f82210d7f85431a8
:104cd8000133c7f85431d7f854313f2ba9d90023f1
:104ce800c7f85c3112e007f10c031b68d7f85c21a8
:104cf800223253f8221007f11403d7f85c2143f845
:104d08002210d7f85c310133c7f85c31d7f85c3131
:104d1800072be8dd0023c7f85c31a5e007f1140391
:104d28001b684feab30207f114031b684fea733399
:104d38005a4007f114031b684feab3535340c7f8ae
:104d4800483107f114031a6807f11403596807f189
:104d580014039b684b401a4007f11403596807f184
:104d680014039b680b405340c7f84031d7f84821db
:104d7800d7f840311344c7f83c3107f114031b69d5
:104d88004feab31207f114031b694feaf3235a40a1
:104d980007f114031b694fea73635340c7f84431a2
:104da80007f114031a6907f114035b691a4007f144
:104db80014031b69d94307f114039b690b40534043
:104dc800c7f8383107f11403da69d7f844311a44bf
:104dd800d7f838311a444249d7f85c3151f82330b2
:104de8001a4407f13403d7f85c1153f821301344ff
:104df800c7f8343107f114039a6907f11403da612b
:104e080007f114035a6907f114039a6107f11403af
:104e18001a6907f114035a6107f11403da68d7f81d
:104e280034311a4407f114031a6107f114039a681c
:104e380007f11403da6007f114035a6807f1140341
:104e48009a6007f114031a6807f114035a60d7f837
:104e58003421d7f83c311a4407f114031a60d7f803
:104e68005c310133c7f85c31d7f85c313f2b7ff7f1
:104e780055af0023c7f85c311be007f10c031b6832
:104e8800d7f85c21223253f8222007f11403d7f80f
:104e98005c1153f82130d11807f10c031b68d7f8bf
:104ea8005c21223243f82210d7f85c310133c7f86d
:104eb8005c31d7f85c31072bdfddd7f85831013387
:104ec800c7f858313b1dd7f858211b689a42fff4a0
:104ed8004cae00bf07f5b277bd465df8047b70475e
:104ee80010a2000080b584b000af7860a82200212d
:104ef800786806f087ff0023fb600be0094afb682f
:104f080052f823107b68fa68223243f82210fb68b3
:104f18000133fb60fb68072bf0dd00bf1037bd468f
:104f280080bd00bf10a3000080b588b000aff86056
:104f3800b9607a60fb685b68c3f14003fb617a681b
:104f4800fb69934228bf1346bb61fb685b68083363
:104f5800fa681344ba69b968184606f0cdfefb68ca
:104f68005a687b6813443f2b06d8fb685a687b68ed
:104f78001a44fb685a6030e0fb680833012219467e
:104f8800f868fff7ddfd7a68bb69d31a7b607b6838
:104f98009b097b61ba68bb6913447a691946f8684a
:104fa800fff7cefdfb681a687b6901339b011a4441
:104fb800fb681a607b6803f03f02fb685a60fb6875
:104fc80003f108007b699a01bb691344ba68d118d8
:104fd800fb685b681a4606f08ffe2037bd4680bd29
:104fe80080b586b000af786039607b681a687b68e6
:104ff8005b681a447b681a607b681b68db00fb608f
:105008007b685a686ff008039b1a03f03f03bb6084
:105018007b685b68591c7a6851607a6813448022ff
:105028001a727b685b6808337a68d018bb680433e7
:105038001a46002106f0e6fe7b685a68bb681344ee
:105048001a1d7b685a60fb68180e7b685b68591ce0
:105058007a685160c1b27a6813440a461a72fb68ca
:10506800180c7b685b68591c7a685160c1b27a6811
:1050780013440a461a72fb68180a7b685b68591c55
:105088007a685160c1b27a6813440a461a727b681a
:105098005b68591c7a685160fa68d1b27a6813441f
:1050a8000a461a727b6803f108017b685b689b09f2
:1050b8001a467868fff744fd00237b6123e0032349
:1050c8003b611ae07b687a69223253f822107b69c7
:1050d8009a003b6913443a681344cab21a703b6990
:1050e800013b3b617b687a69223253f82230190a06
:1050f8007b687a69223243f822103b69002be1da97
:105108007b6901337b617b69072bd8dd00bf1837ca
:10511800bd4680bd80b5aeb000aff860b9607a60ba
:1051280007f110031846fff7ddfe07f11003ba6810
:10513800f9681846fff7f8fe07f110037968184672
:0c514800fff74eff00bfb837bd4680bd2a
:020000040000fa
:1051540080b584b000af7860084611461a4603460d
:10516400fb700b46bb7013467b700023fb607b68af
:10517400002b05d1e22005f097fc0346fb720de0fd
:1051840005f02efaf860fb68002b01d0002300e044
:10519400fb23184605f088fc0346fb72fb68002bd2
:1051a40021d0fb681a22da70fb68fa781a71fb685e
:1051b400ba785a71fb687a789a713b8b5bba9ab267
:1051c400fb68a3f80720fb6800225a70002242f013
:1051d4000a029a707968f868fff7f1fb0346fb72dc
:1051e400f86805f037fafb7a18461037bd4680bddb
:1051f40080b588b000aff8607a603b600b46fb7204
:105204000023fb610023fb76fb68002b02d07b6844
:10521400002b05d1e22005f047fc0346fb760de0a8
:1052240005f0def9f861fb69002b01d0002300e0f2
:10523400fb23184605f038fc0346fb76fb69002b7c
:105244003ed0fb691a22da70fb69fa7a1a71fb699b
:1052540000225a7100229a710022da7100221a7215
:10526400fb69093310227968184606f047fdfb698b
:1052740000225a70002242f01a029a70f968f86902
:10528400fff79dfb0346fb76fb7e002b15d1fb69e4
:105294007b617b691b889bb25bba9bb2053b7b82bb
:1052a4003b68002b09d07b8a0f2b06d97b6903331b
:1052b40010221946386806f021fdf86905f0caf98c
:1052c400fb7e18462037bd4680bd80b58ab000af4e
:1052d400f860084611461a460346fb720b463b81aa
:1052e4001346fb8000233b62fb68002b06d1e220bf
:1052f40005f0dafb034687f827300ee005f070f975
:1053040038623b6a002b01d0002300e0fb231846df
:1053140005f0cafb034687f827303b6a002b00f0f0
:1053240006813b6a1a22da703b6afa7a1a713b895f
:105334005bba9ab23b6aa3f80520fb885bba9ab2bf
:105344003b6aa3f807203b6a0933bb613a89fb88af
:105354001344b3f5797f06dde22005f0a5fb03468f
:1053640087f82730e0e097f90b30002b11db3b6b1b
:10537400002b06d1e22005f097fb034687f827307f
:10538400d2e00c22396bb86906f0b8fcbb690c3367
:10539400bb613b89002b13d07b6b002b06d1e22031
:1053a40005f082fb034687f82730bde03b891a46a7
:1053b400796bb86906f0a2fc3b89ba691344bb61f6
:1053c400fb88002b13d0bb6b002b06d1e22005f029
:1053d4006bfb034687f82730a6e0fb881a46b96bb7
:1053e400b86906f08bfcfb88ba691344bb61fb7a8d
:1053f40003f00303dbb2022b11d1fb6b002b06d1ac
:10540400e22005f051fb034687f827308ce0102298
:10541400f96bb86906f072fcbb691033bb613b6a77
:105424000933ba69d31a9bb20a339bb25bba9ab2f4
:105434003b6aa3f80120f968386afff7c0fa03460b
:1054440087f8273097f82730002b08d097f82730b3
:10545400184605f029fb034687f8273064e03b6ac9
:105464007b617b690333bb617b691b889bb25bba3d
:105474009bb2053bfb83fa8bfb889a4217d33b6ca8
:10548400002b05d0fb881a46b969386c06f036fc47
:10549400fb88ba691344bb61fa8bfb88d31afb837c
:1054a400fb7a03f00303dbb2012b20d106e0e420f6
:1054b40005f0fafa034687f8273035e0fb8b0f2b0b
:1054c4000ed9fb6b002b04d01022b969f86b06f0df
:1054d40015fcbb691033bb61fb8b103bfb8306e0ff
:1054e400e42005f0e1fa034687f827301ce097f939
:1054f4000b30002b18dafb8b0b2b0ed93b6b002bdc
:1055040004d00c22b969386b06f0f8fbbb690c3384
:10551400bb61fb8b0c3bfb8306e0e42005f0c4fa83
:10552400034687f8273000bf386a05f093f897f8e8
:10553400273018462837bd4680bd80b588b002aff5
:10554400f8607b600b467b8113467b727a7a7b8999
:105554000093134600220421f868fff7f9fd03467f
:10556400fb75fb7d002b04d0fb7d184605f09cfaef
:105574000fe03b6a7a680521f868fff739fe0346b5
:10558400fb75fb7d002b04d0fb7d184605f08cfadf
:1055940000bffb7d18461837bd4680bd80b588b076
:1055a40002aff8607b600b467b8113467b727a7a8c
:1055b4007b890093134600220421f868fff7c8fd95
:1055c4000346fb75fb7d002b04d0fb7d184605f0dc
:1055d4006bfa0fe03b6a7a680621f868fff708fe69
:1055e4000346fb75fb7d002b04d0fb7d184605f0bc
:1055f4005bfa00bffb7d18461837bd4680bd80b5f9
:1056040084b002af78600b467b8013467b707a7857
:105614007b8800931346002208217868fff798fde1
:10562400034618460837bd4680bd80b584b002af36
:105634007860084611461a4603467b800b467b7009
:1056440013463b7079783a787b8800930b4688211f
:105654007868fff77dfd034618460837bd4680bdd0
:1056640080b58ab006aff860b9603b601346fb8032
:10567400b98bfa883b6a04937b6a0393bb690293f0
:10568400bb6801933b6800930b460921f868fff758
:105694001cfe034618461037bd4680bd80b58ab04f
:1056a40006aff860b9603b601346fb80398bfa881b
:1056b400fb6904933b6a03933b680293bb680193c1
:1056c4007b6a00930b468921f868fff7fefd0346c9
:1056d40018461037bd4680bd80b58ab006aff86065
:1056e400b9603b601346fb80398cfa887b6a04936b
:1056f400bb690393fb690293bb6801933b68009306
:105704000b460a21f868fff7e0fd034618461037f8
:04571400bd4680bd51
:020000040000fa
:1057180080b584b000af786039607b68002b02d018
:105728003b68002b01d1e22311e03b687a681a60dc
:10573800386800f010f80346184605f0b3f9034638
:10574800fb73fb7b002b01d0fb7b00e0002318469a
:105758001037bd4680bd80b584b000af7860f023b7
:10576800fb737b68002b70d07b6818687b68191df9
:105778007b6808331a4602f04dfb0346184605f0cd
:1057880091f90346fb73fb7b002b2fd17b689b6849
:10579800002b2bd07b689b681b68002b21d07b6873
:1057a8009b685b68002b1cd07b689b681b687a68c9
:1057b80012681146786898470346184605f072f94a
:1057c8000346fb73fb7b002b10d17b689b685b68ef
:1057d800786898470346184605f064f90346fb7352
:1057e80004e0f62005f05ef90346fb73fb7b002b13
:1057f8002bd17b685b681b68002b21d07b685b68ba
:105808005b68002b1cd07b685b681b687a68126831
:105818001146786898470346184605f043f9034649
:10582800fb73fb7b002b10d17b685b685b68786837
:1058380098470346184605f035f90346fb7304e01c
:10584800f62005f02ff90346fb73fb7b184610374b
:10585800bd4680bd90b585b000aff8607a603b600a
:105868000b46fb72fb68002b01d1e22313e0fb68b7
:105878005b68002b0ed0fb685b689b68002b09d027
:10588800fb685b689c68f97a3b687a68f868a047a7
:10589800034600e0fd2318461437bd4690bd90b579
:1058a80085b000aff8607a603b600b46fb72fb681e
:1058b800002b01d1e22313e0fb685b68002b0ed0bc
:1058c800fb685b68db68002b09d0fb685b68dc68f9
:1058d800f97a3b687a68f868a047034600e0fd2338
:1058e80018461437bd4690bd90b585b000aff86036
:1058f8007a603b600b46fb72fb68002b01d1e22308
:1059080013e0fb685b68002b0ed0fb685b681b69c3
:10591800002b09d0fb685b681c69f97a3b687a68d8
:10592800f868a047034600e0fd2318461437bd4633
:1059380090bd90b585b000af78607b68002b01d131
:10594800e22325e07b685b68002b20d07b685b68de
:105958001b69002b1bd07b685b681c690023002235
:1059680000217868a0470346fb73fb7bd02b0cd142
:10597800192003f0b0f87b685b681c6900230022db
:1059880000217868a0470346fb73fb7b00e0fd23fa
:1059980018461437bd4690bd90b585b000af786005
:1059a8007b68002b01d1e22318e07b685b68002b41
:1059b80013d07b685b681b69002b0ed07b685b6823
:1059c8001c690023002201217868a0470346fb7365
:1059d800012003f080f8fb7b00e0fd231846143714
:1059e800bd4690bd90b585b000af78607b68002b50
:1059f80001d1e22318e07b685b68002b13d07b6839
:105a08005b681b69002b0ed07b685b681c690023f0
:105a1800002202217868a0470346fb73012003f0a7
:105a28005af8fb7b00e0fd2318461437bd4690bdad
:105a380080b483b000af78607b68002b02d07b68ad
:105a48001b6800e0002318460c37bd465df8047b50
:105a5800704780b483b000af78607b68002b02d0b9
:105a68007b68db6800e0002318460c37bd465df80c
:105a7800047b704780b485b000af0346fb710023f8
:105a8800fb73fb79042b05d0fb79052b02d0fb793e
:105a9800022b01d10123fb73fb7b18461437bd464b
:105aa8005df8047b704780b485b000af7860002350
:105ab800fb737b68002b14d07b681b68002b10d00d
:105ac8007b681b681b78042b09d07b681b681b78d4
:105ad800052b04d07b681b681b78022b01d101239e
:105ae800fb73fb7b18461437bd465df8047b704793
:105af80080b485b000af78600023fb737b68002b0f
:105b08000fd07b681b68002b0bd07b681b681b7849
:105b1800012b04d07b681b681b78082b01d101235b
:105b2800fb73fb7b18461437bd465df8047b704752
:105b380080b483b000af78607b68002b07d07b68a7
:105b48001b68002b03d07b681b689b6a00e000235e
:105b580018460c37bd465df8047b704780b483b0a7
:105b680000af78607b68002b07d07b681b68002b30
:105b780003d07b681b689b8c01e040f2dc5318461d
:105b88000c37bd465df8047b704780b485b000af24
:105b98007860ff23fb737b68002b00bffb7b1846f4
:105ba8001437bd465df8047b704780b485b000affc
:105bb80078600b46fb701346bb70e223fb737b686f
:105bc800002b04d00023fb73e223fb7300e000bf2b
:105bd800fb7b18461437bd465df8047b704780b5db
:105be80084b000af7860e223fb737b68002b1cd085
:105bf8007b681b68002b18d07b681b681a787b6849
:105c0800db681946104602f021f90346fb73fb7b5b
:105c1800002b02d17b680022da607b681b681b7846
:105c2800062b02d17b6800225a60fb7b184610378e
:105c3800bd4680bd80b584b000af78607e23fb731d
:105c48007b68002b16d00e4bbb600fe0bb685b680f
:105c580019467868fdf7ecfb0346002b03d0bb68b8
:105c68001b78fb7306e0bb680833bb60bb681b7816
:105c78007e2bebd1fb7b18461037bd4680bd00bf9d
:045c88003cbc000020
:020000040000fa
:105c8c0080b588b000af786003f0defc03461846a0
:105c9c0000f066fb4ff40053bb614ff480637b61f3
:105cac000023fb6100233b610023fb6017e0ba6912
:105cbc00fb69d31a3b617a693b699342a8bf1346cf
:105ccc00fb6003f0c1fcfb6899b2fb697a68134472
:105cdc001a4600f073fbfa69fb681344fb61fa691e
:105cec00bb699a42e3db03f0affc03460349184659
:105cfc0000f0a7fb00bf2037bd4680bd80210020ef
:105d0c0080b586b000af78600023fb7203f09cfc7a
:105d1c001d4b1b88194607f10b031a46fef713f9a6
:105d2c000346fb75fb7a012b1ed001233b7300232a
:105d3c0043f006037b73002343f00403bb7300237f
:105d4c00fb7300233b7400237b744523bb7400233b
:105d5c00fb7403f079fc0c4b1b8807f10c02194601
:105d6c0003f021fa0346fb7503f06efc064b198811
:105d7c007b6840331a4603f073fd0346fb7500bf86
:105d8c001837bd4680bd00bf6275002080b586b057
:105d9c0000af78600023fb7203f056fc1b4b1b8892
:105dac00194607f10b031a46fef7cdf80346fb75af
:105dbc00fb7a012b1ad000233b7300237b73002347
:105dcc00bb730023fb7300233b7400237b745523ac
:105ddc00bb740023fb7403f037fc0c4b1b8807f1de
:105dec000c02194603f0dff90346fb7503f02cfc9b
:105dfc00064b19887b684033402201f03dfd034679
:105e0c00fb7500bf1837bd4680bd00bf6075002014
:105e1c0080b584b000af0023fb7003f015fc1b4b66
:105e2c001b881946fb1c1a46fef78df80346fb73bc
:105e3c00fb78012b1bd0e2233b7100237b710023e9
:105e4c0043f00603bb710023fb7100233b7200235c
:105e5c007b724523bb720023fb7203f0f5fb0b4beb
:105e6c001b883a1d194603f09ef90346fb7303f099
:105e7c00ebfb064b1988064b102201f0befb0346c8
:105e8c00fb7300bf1037bd4680bd00bf647500209a
:105e9c0044ba000080b584b000af0023fb7003f05f
:105eac00d3fb1b4b1b881946fb1c1a46fef74bf801
:105ebc000346fb73fb78012b1bd0e2233b710023c1
:105ecc007b71002343f00603bb710023fb7100239d
:105edc003b7200237b724523bb720023fb7203f0e1
:105eec00b3fb0b4b1b883a1d194603f05cf90346b8
:105efc00fb7303f0a9fb064b1988064b102201f02b
:105f0c007cfb0346fb7300bf1037bd4680bd00bf52
:105f1c006675002054ba0000b0b58cb004af786040
:105f2c00396003f091fb234b1b8800221946fff7c5
:105f3c0062fb4ff400537b614ff479733b61002398
:105f4c00fb610023fb600023bb600023bb6128e0e6
:105f5c007a69fb69d31afb603a69fb689342a8bf64
:105f6c001346bb6003f070fb0546fb697a6813446b
:105f7c00ba6892b2f96938680144b8690e4c204489
:105f8c0003900291019200930c4b002200212846b1
:105f9c00fff762fbfa69bb681344fb61bb69103302
:105fac00bb61fa697b699a42d2db00bf2037bd46e0
:105fbc00b0bd00bf64750020c042002064ba000070
:105fcc0090b58bb002af7860396090237b61102361
:105fdc003b610023fb610023fb600023bb600023bb
:105fec00bb6121e07a69fb69d31afb603a69fb68f3
:105ffc009342a8bf1346bb6003f026fb04460e4b2e
:10600c001988fb697a68d018fb693a6813440093c5
:10601c00034600222046fff78cfafa69bb6813444a
:10602c00fb61bb691033bb61fa697b699a42d9dbae
:10603c0000bf2437bd4690bd6675002090b58bb06f
:10604c0002af7860396090237b6110233b610023a1
:10605c00fb610023fb600023bb600023bb6121e0dc
:10606c007a69fb69d31afb603a69fb689342a8bf53
:10607c001346bb6003f0e8fa04460e4b1988fb6923
:10608c007a68d018fb693a681344009303460022df
:10609c002046fff77ffafa69bb681344fb61bb69c2
:1060ac001033bb61fa697b699a42d9db00bf243794
:1060bc00bd4690bd6675002080b588b004af786091
:1060cc004023fb8103f0c0fa0c4b19887b6807f165
:1060dc000e020392029320230193094b00934ff479
:1060ec0090430a46002102f0fcfe03461a46054b7b
:1060fc001a7000bf1037bd4680bd00bf627500200e
:10610c00802100207421002080b483b000af78601f
:10611c007b681a78074b5a717b685b68054a9360f9
:10612c007b689b68034ad36200bf0c37bd465df8a1
:10613c00047b7047f875002080b584b000aff86020
:10614c00b9607a60174803f033fa03461a46164bc7
:10615c001a7003f079fa034614491846fdf79cfeb1
:10616c0003461a46104b1a707868fff7c9fd786819
:10617c00fff70cfefff74cfefff78cfef868fff7fd
:10618c007ffd7868fff798ffb968f868fff7c4fee1
:10619c007b68803319460648fff712ff00bf1037a3
:1061ac00bd4680bdf87500207421002078210020a8
:0461bc00c0420020bd
:020000040000fa
:1061c00080b58ab000aff860084611461a4603460b
:1061d000fb720b463b811346fb8000233b62fb684e
:1061e000002b09d03b89b3f5806f05d87b6b002b62
:1061f00009d0bb6b002b06d1e22004f057fc03460c
:1062000087f827300ee004f0edf938623b6a002b86
:1062100001d0002300e0fb23184604f047fc0346ae
:1062200087f827303b6a002b62d03b6a1922da706c
:106230003b6afa7a1a713b895bba9ab23b6aa3f855
:106240000520fb885bba9ab23b6aa3f807203b6a39
:106250000933fb613b6b002b09d03b891a46396b34
:10626000f86905f04dfd3b89fa691344fb613b6a0f
:106270000933fa69d31a9bb20a339bb25bba9ab25a
:106280003b6aa3f80120f968386afef79afb0346d7
:10629000184604f00bfc034687f8273097f82730a0
:1062a000002b22d13b6abb61bb691b889bb25bbae6
:1062b0009bb2053bfb827b6b002b16d0fb8a002b2d
:1062c00013d0bb6b1b88fa8a9a4206d9ed2004f0e2
:1062d000edfb034687f8273007e0bb69d91cbb6b91
:1062e0001b881a46786b05f00bfd386a04f0b4f988
:1062f00097f8273018462837bd4680bd80b58ab04c
:1063000004aff8607b600b46fb7213463b81fb7a5f
:1063100003f00303fb72fb7a002b05d0fb7a012b01
:1063200002d0fb7a022b16d13a89f97a7b6a029362
:106330003b6a01937b6800934ff48043f868fff752
:106340003fff0346fb75fb7d002b0ad0fb7d184603
:1063500004f0acfb05e0e22004f0a8fb0346fb756b
:1063600000bffb7d18461837bd4680bd80b586b09e
:1063700004af78600023029300230193002300936d
:106380004ff48043002200217868fff719ff03468d
:1063900018460837bd4680bd80b586b004af78602a
:1063a0000b467b807a88002302930023019300230d
:1063b00000931346002200217868fff701ff03468f
:1063c00018460837bd4680bd80b588b004aff86078
:1063d0000b467a607b817a89002302930023019324
:1063e0007b6800934ff480430121f868fff7e8fed3
:1063f000034618461037bd4680bd80b588b004af4f
:10640000f8607b600b467b8113463b8179893a8932
:1064100000230293002301937b6800930b46012124
:10642000f868fff7cdfe034618461037bd4680bd1d
:1064300080b582b000af786039603a6840217868f2
:10644000fff7c2ff034618460837bd4680bd80b53a
:1064500088b004af786039602023fb8107f10e0318
:1064600002933b680193002300934ff48043002282
:1064700002217868fff7a4fe034618461037bd4690
:1064800080bd80b58ab004aff8600b467a607b812e
:106490002023fb827a8907f1160302937b6801931c
:1064a00000230093134600228221f868fff788fe3c
:1064b000034618461837bd4680bd80b586b000af8c
:1064c000f860b9603b601346fb803b68002b0fd03f
:1064d000fb883a681946f868fff776ff0346fb75b4
:1064e000fb7d002b04d0fb7d184604f0dffa0fe0a3
:1064f000ba684ff48041f868fff7c3ff0346fb75a5
:10650000fb7d002b04d0fb7d184604f0cffa00bfc2
:10651000fb7d18461837bd4680bd80b58ab004aff4
:10652000f8607a603b600b467b812023bb82f423ba
:10653000fb757b89002b16d07a8907f1140302932f
:106540003b6801937b68009300230321f868fff701
:1065500037fe0346fb75fb7d002b1fd0fb7d1846e5
:1065600004f0a4fa1ae0f868fff700ff0346fb7591
:10657000fb7d002b04d0fb7d184604f097fa0de05c
:106580003968f868fff763ff0346fb75fb7d002b56
:1065900004d0fb7d184604f089fa00bffb7d184645
:1065a0001837bd4680bd80b58ab004aff8607b6007
:1065b0000b467b8113463b812023fb8279893a89f4
:1065c00007f1160302933b6a01937b6800930b4625
:1065d0008321f868fff7f4fd034618461837bd46d7
:1065e00080bd80b586b000aff860b9607a60bb68e6
:1065f000002b05d1e22004f059fa0346fb7508e0b0
:10660000bb687a684ff48041f86800f0cefd03461d
:10661000fb75fb7d18461837bd4680bd80b586b03a
:1066200000aff8607a603b600b467b817b68002b93
:1066300005d1e22004f03afa0346fb7507e07989b8
:106640007b683a68f86800f0b0fd0346fb75fb7d97
:1066500018461837bd4680bd80b584b000aff860dd
:10666000b9601346fb80fa88bb684ff48041f86834
:1066700000f0c9ff034618461037bd4680bd80b5ff
:1066800084b000aff8607a601a460b467b811346ef
