:020000040000fa
:10000000f8ff0320a5880000bb790000a38800004a
:10001000779100000f940000cf94000000000000d2
:10002000000000000000000000000000339a000003
:10003000ff8d000000000000339a0000339a00009a
:10004000339a0000339a0000339a0000339a00007c
:10005000339a0000339a0000339a0000339a00006c
:10006000339a0000339a0000339a0000339a00005c
:10007000339a0000339a0000339a0000339a00004c
:10008000339a0000339a0000339a0000339a00003c
:10009000339a0000339a0000339a0000339a00002c
:1000a000339a0000339a0000339a0000339a00001c
:1000b000339a0000339a0000339a0000339a00000c
:1000c000339a0000339a0000339a0000339a0000fc
:1000d000339a0000339a0000339a0000339a0000ec
:1000e000339a0000339a0000000000000000000076
:1000f00000000000339a0000339a0000339a000099
:10010000339a0000339a0000339a0000339a0000bb
:10011000339a0000339a0000957c0000957c000023
:10012000957c0000957c0000339a0000339a000013
:10013000339a0000339a0000339a0000339a00008b
:10014000339a0000339a0000339a0000339a00007b
:10015000339a0000339a0000339a0000339a00006b
:10016000339a0000339a0000339a0000339a00005b
:10017000339a0000339a0000339a0000339a00004b
:10018000339a0000339a0000339a0000339a00003b
:10019000339a0000339a0000339a0000339a00002b
:1001a000339a0000339a0000339a0000339a00001b
:1001b000339a0000339a0000339a0000339a00000b
:1001c000339a0000339a0000339a0000339a0000fb
:1001d000339a0000339a0000339a0000339a0000eb
:1001e000339a0000339a0000339a0000339a0000db
:1001f000339a0000339a0000339a0000339a0000cb
:10020000339a0000339a0000339a0000339a0000ba
:10021000339a0000339a0000339a0000339a0000aa
:10022000339a0000339a0000339a0000339a00009a
:10023000339a0000339a0000000000000000000024
:10024000339a0000339a0000339a0000339a00007a
:10025000339a0000339a0000339a0000339a00006a
:04026000339a0000cd
:020000040000fa
:10026400f8b500bff8bc08bc9e4670473594000042
:10027400f8b500bff8bc08bc9e4670471194000056
:020000040000fa
:080284007c6b0000010000008a
:020000040000fa
:10028c0080b588b004aff860b9607a603b60012338
:10029c00029301230193012300933b687a68b968a8
:1002ac00f86800f0c0f8034618461037bd4680bd0c
:1002bc0080b485b000af03463960fb71fb791b0934
:1002cc00fb73fb7b092b07d83b685a1c3a60fa7b03
:1002dc003032d2b21a7006e03b685a1c3a60fa7b94
:1002ec003732d2b21a70fb7903f00f03fb73fb7b2e
:1002fc00092b07d83b685a1c3a60fa7b3032d2b2d1
:10030c001a7006e03b685a1c3a60fa7b3732d2b25c
:10031c001a7000bf1437bd465df8047b704780b57a
:10032c0084b000af786039607b68002b19d03b68d3
:10033c00002b16d00023fb600fe07a68fb68134497
:10034c001b78184609f0fafc01467a68fb681344de
:10035c00cab21a70fb680133fb60fa683b689a42b8
:10036c00ebd300bf1037bd4680bd80b584b000af65
:10037c00786039607b68002b19d03b68002b16d055
:10038c000023fb600fe07a68fb6813441b78184667
:10039c0009f0dbfc01467a68fb681344cab21a7098
:1003ac00fb680133fb60fa683b689a42ebd300bff1
:1003bc001037bd4680bd80b487b000aff860b9601f
:1003cc007a603b60fb68002b02d07b68002b01d16c
:1003dc00e22322e03b681b68ba689a4201d9ed23fc
:1003ec001be0bb68013b7b6100233b610de0fa68bd
:1003fc007b691a4479683b690b4412781a707b69e3
:10040c00013b7b613b6901333b613a69bb689a42b2
:10041c00edd33b68ba681a60002318461c37bd46fa
:10042c005df8047b704780b588b000aff860b960a8
:10043c007a603b600023bb61fb68002b05d07b68b6
:10044c00002b02d03b68002b01d1e22375e03b6806
:10045c001b687b613b6800221a600023fb614ce047
:10046c00ba697b699a424dd8fb69002b2ed097f85c
:10047c002830002b17d0fb6903f00f03002b12d18f
:10048c00bb6902337a699a4201d2ed2355e07a684e
:10049c00bb69134402222b49184609f03dfbbb698a
:1004ac000233bb6112e097f82c30002b0ed0bb69e5
:1004bc0001337a699a4201d2ed233ee07a68bb6936
:1004cc00134420221a70bb690133bb61bb69023330
:1004dc007a699a4201d2ed232fe0fa68fb69134442
:1004ec0018787a68bb6913441946fff7e1febb69bb
:1004fc000233bb61fb690133fb61fa69bb689a4249
:10050c00aed300e000bf97f83030002b04d0b969af
:10051c007868fff72aff03e0b9697868fff7fffef8
:10052c003b68ba691a60ba697b699a4204d27a68e4
:10053c00bb69134400221a70002318462037bd46ad
:10054c0080bd00bfb43d000080b483b000af034653
:10055c00fb71fb792f2b06d9fb79392b03d8fb794f
:10056c00303bdbb214e0fb79602b06d9fb79662bb0
:10057c0003d8fb79573bdbb20ae0fb79402b06d959
:10058c00fb79462b03d8fb79373bdbb200e0102319
:10059c0018460c37bd465df8047b704780b588b0b3
:1005ac0000aff860b9607a603b600023bb61012347
:1005bc00fb750023fb6167e0fa68fb6913441b7849
:1005cc00184600f016f9034683f00103dbb2002b4a
:1005dc0017d0fb69591c364ba3fb01235a08134651
:1005ec005b001344ca1a002a4ad197f82830002b12
:1005fc0046d0fa68fb6913441b78202b40d0e223c9
:10060c0052e03b681b68ba699a4201d3ed234be078
:10061c00fb7d002b0fd0fa68fb6913441b7818463e
:10062c00fff792ff034619467a68bb6913440a0127
:10063c00d2b21a7015e0fa68fb6913441b7818469d
:10064c00fff782ff034618467a68bb6913441a7891
:10065c007968bb690b440244d2b21a70bb6901338e
:10066c00bb61fb7d002b14bf01230023dbb283f0a5
:10067c000103dbb2fb75fb7d03f00103fb7500e0ae
:10068c0000bffb690133fb61fa69bb689a4293d3e3
:10069c00fb7d83f00103dbb2002b01d0e22303e0ee
:1006ac003b68ba691a60002318462037bd4680bde6
:1006bc00abaaaaaa80b586b002aff860b9607a601e
:1006cc003b60002300933b687a68b968f868fff7d1
:1006dc0065ff034618461037bd4680bd80b483b015
:1006ec0000af0346fb71fb792f2b04d9fb79392b17
:1006fc0001d8012300e0002303f00103dbb218460c
:10070c000c37bd465df8047b704780b483b000aff6
:10071c000346fb71fb790a2b08d0fb790d2b05d016
:10072c00fb79092b02d0fb79202b01d1012300e0ae
:10073c00002303f00103dbb218460c37bd465df80d
:10074c00047b704780b483b000af0346fb71fb7928
:10075c00402b02d9fb795a2b05d9fb79602b04d994
:10076c00fb797a2b01d8012300e0002303f001036d
:10077c00dbb218460c37bd465df8047b704780b47d
:10078c0083b000af0346fb71fb79402b02d9fb7998
:10079c00462b05d9fb79602b04d9fb79662b01d844
:1007ac00012300e0002303f00103dbb218460c37f1
:1007bc00bd465df8047b704780b582b000af034640
:1007cc00fb71fb79184600f014f80346002b06d198
:1007dc00fb791846fff799ff0346002b01d0012344
:1007ec0000e0002303f00103dbb218460837bd46d6
:1007fc0080bd80b582b000af0346fb71fb79184613
:10080c00fff76cff0346002b06d1fb791846fff768
:10081c00b6ff0346002b01d0012300e0002303f0b8
:10082c000103dbb218460837bd4680bd80b586b0e3
:10083c0000aff860b9607a603b6000237b610023f5
:10084c003b61fb68002b05d07b68002b02d03b681a
:10085c00002b01d1e22328e000237b611be0fa6826
:10086c007b6913441b781846fff7c3ff0346002b24
:10087c000ed03b681b683a699a4211d8fa687b69ba
:10088c001a443b69591c396179680b4412781a7007
:10089c007b6901337b617a69bb689a42dfd300e0e4
:1008ac0000bf3b683a691a60002318461837bd46ea
:1008bc0080bd80b582b000af03463960fb71fb7917
:1008cc003968184600f014f80346002b06d1fb7962
:1008dc001846fff71aff0346002b01d0012300e056
:1008ec00002303f00103dbb218460837bd4680bd78
:1008fc0080b582b000af03463960fb71fb791846b6
:10090c00fff7ecfe0346002b17d1fb791846fff7d7
:10091c0019ff0346002b10d13b681b78fa799a42d9
:10092c000bd03b6801331b78fa799a4205d03b68af
:10093c0002331b78fa799a4201d1012300e000239b
:10094c0003f00103dbb218460837bd4680bd80b406
:10095c0083b000af03463960fb71fb79402b06d99d
:10096c00fb795a2b03d8fb79413bdbb22be0fb79ab
:10097c00602b06d9fb797a2b03d8fb79473bdbb28a
:10098c0021e0fb792f2b06d9fb79392b03d8fb7986
:10099c000433dbb217e03b681b78fa799a4201d139
:1009ac003e2310e03b6801331b78fa799a4201d15f
:1009bc003f2308e03b6802331b78fa799a4201d155
:1009cc00402300e0ff2318460c37bd465df8047b3e
:1009dc00704780b483b000af03463960fb71fb797c
:1009ec00192b03d8fb794133dbb228e0fb79192ba7
:1009fc0006d9fb79332b03d8fb794733dbb21ee0e6
:100a0c00fb79332b06d9fb793d2b03d8fb79043bbf
:100a1c00dbb214e0fb793e2b02d13b681b780ee075
:100a2c00fb793f2b03d13b6801331b7807e0fb7943
:100a3c00402b03d13b6802331b7800e0ff231846a0
:100a4c000c37bd465df8047b704780b586b000afaf
:100a5c00f860b9607a603b600023fb7500233b6152
:100a6c00fb681b78402b0ed0fb6801331b78402ba6
:100a7c0009d0fb6802331b78402b0ad1fb68033387
:100a8c001b78402b05d0e22007f05aff0346fb757c
:100a9c006be0fb6802331b78402b02d101233b61d6
:100aac0009e0fb6803331b78402b02d102233b6126
:100abc0001e003233b617b681a683b6913443a6885
:100acc009a4205d2e22007f03bff0346fb754ce04f
:100adc00fb681b789b005ab2fb6801331b781b091f
:100aec00dbb25bb2134358b27b681b68591c7a6843
:100afc001160ba681344c2b21a70fb6802331b78d7
:100b0c00402b2fd0fb6801331b781b015ab2fb68ba
:100b1c0002331b789b08dbb25bb2134358b27b6881
:100b2c001b68591c7a681160ba681344c2b21a70f7
:100b3c00fb6803331b78402b16d0fb6802331b7801
:100b4c009b015ab2fb6803331b785bb2134358b258
:100b5c007b681b68591c7a681160ba681344c2b26e
:100b6c001a7002e000bf00e000bffb7d184618378a
:100b7c00bd4680bd90b58bb000aff860b9607a60af
:100b8c003b60002387f8273000233b620023fb6186
:100b9c000023fb76fb68002b08d07b68002b05d06c
:100bac003b68002b02d0bb6b002b06d1e22007f078
:100bbc00c7fe034687f8273090e03b681b687b61d3
:100bcc003b6800221a600023fb6158e0fa68fb695d
:100bdc0013441b781846fff798fd0346002b4ad1a7
:100bec00fa68fb6913441b78b96b1846fff780fe53
:100bfc00034683f00103dbb2002b06d0e22007f0a2
:100c0c009ffe034687f827303fe0fb7e002b06d083
:100c1c00e22007f095fe034687f8273035e0fa68a6
:100c2c00fb6913441a783c6a631c3b62b96b10462f
:100c3c00fff78dfe03461a4607f12803234403f8f9
:100c4c00182c3b6a032b17dd00233b6207f11000c5
:100c5c007b693a687968fff7f8fe034687f8273016
:100c6c0097f82730002b0fd1fb7c402b0cbf0123b6
:100c7c000023fb7600e000bffb690133fb61fa69de
:100c8c00bb689a42a2d300e000bf97f82730002b34
:100c9c0023d13b6a002b21d03b6a012b0fdce220d5
:100cac0007f04efe034687f8273017e007f11002d5
:100cbc003b6a134440221a703b6a01333b623b6a25
:100ccc00032bf3dd07f110007b693a687968fff7b5
:100cdc00bcfe034687f8273000e000bf97f82730aa
:100cec0018462c37bd4690bd90b58bb000aff86060
:100cfc00b9607a603b60002387f8273000233b62a1
:100d0c000023fb610023bb610023fb747b68002b79
:100d1c0008d0fb68002b05d03b68002b02d0bb6bc6
:100d2c00002b06d1e22007f00bfe034687f8273094
:100d3c003ae1bb689f4aa2fb03235808b9689d4b54
:100d4c00a3fb01235a0813465b001344ca1a002a5a
:100d5c0014bf01230023dbb203449b007b61bb6bfc
:100d6c0003331b78002b19d0bb6b03331b7803f0b8
:100d7c000303dbb2002b06d0e22007f0e1fd0346b3
:100d8c0087f8273010e1bb6b03331b781a467b695d
:100d9c00b3fbf2f35b007a6913447b617b6901332b
:100dac007b613b681b687a699a4206d9ed2007f093
:100dbc00c7fd034687f82730f6e03b6800221a602f
:100dcc0000233b62d2e0bb6b03331b78002b20d09b
:100ddc003b6a002b1dd0fa69bb69d31aba6b03327c
:100dec001278b3fbf2f102fb01f29b1a002b10d12b
:100dfc00fb695a1cfa617a6813440d221a70fb695c
:100e0c005a1cfa617a6813440a221a70bb690233bd
:100e1c00bb61fa683b6a13441b789b08fb74fb6943
:100e2c005a1cfa617a68d418fb7cb96b1846fff728
:100e3c00d0fd03462370fa683b6a13441b781b01f0
:100e4c00dbb203f03003fb743b6a0133ba689a429d
:100e5c0067d93b6a0133fa6813441b781b09dab271
:100e6c00fb7c1343fb74fb695a1cfa617a68d41837
:100e7c00fb7cb96b1846fff7acfd034623703b6a4d
:100e8c000133fa6813441b789b00dbb203f03c037c
:100e9c00fb743b6a0233ba689a422ad93b6a023322
:100eac00fa6813441b789b09dab2fb7c1343fb747e
:100ebc00fb695a1cfa617a68d418fb7cb96b18462a
:100ecc00fff787fd034623703b6a0233fa6813442d
:100edc001b7803f03f03fb74fb695a1cfa617a68b8
:100eec00d418fb7cb96b1846fff773fd03462370cf
:100efc0039e0fb695a1cfa617a68d418fb7cb96b2f
:100f0c001846fff766fd03462370fb695a1cfa610d
:100f1c007a68d418b96b4020fff75bfd0346237049
:100f2c0021e0fb695a1cfa617a68d418fb7cb96b16
:100f3c001846fff74efd03462370fb695a1cfa61f5
:100f4c007a68d418b96b4020fff743fd0346237031
:100f5c00fb695a1cfa617a68d418b96b4020fff708
:100f6c0038fd034623703b6a03333b623a6abb6825
:100f7c009a42fff428af02e0fb69013bfb61fb697d
:100f8c00012b06d9fb69013b7a6813441b78002bb3
:100f9c00f2d0fb695a1cfa617a68134400221a7069
:100fac00fb695a1e3b681a6097f8273018462c3795
:100fbc00bd4690bdabaaaaaa80b586b002aff860b8
:100fcc00b9607a603b60064b00933b687a68b968fd
:100fdc00f868fff789fe034618461037bd4680bdfa
:100fec006059002080b586b002aff860b9607a60b5
:100ffc003b60064b00933b687a68b968f868fff76a
:10100c00b9fd034618461037bd4680bd6059002017
:10101c0080b487b000aff860b9607a603b60fb6861
:10102c00002b02d14ff0ff331ae03a68bb689a42aa
:10103c0002d94ff0ff3313e0fb687b6105e07b695d
:10104c005a1c7a617a68d2b21a70bb685a1eba609e
:10105c00002b04d03b685a1e3a60002befd10023c2
:10106c0018461c37bd465df8047b704790b587b0b9
:10107c0000af786039607b687b613b683b61002323
:10108c00fb607b69002b02d03b69002b29d17b696b
:10109c0036e07b691a783b691b789a4216d07b69db
:1010ac001b781c463b691b78184608f04efe03461d
:1010bc009c420bd0fb68002b04d00023fb603b68e8
:1010cc003b610ee07b6901337b610ae0fb68002b1e
:1010dc0001d17b69fb603b6901333b617b69013367
:1010ec007b617b691b78002b03d03b691b78002b41
:1010fc00cfd13b691b78002b01d1fb6800e00023aa
:08110c0018461c37bd4690bdda
:020000040000fa
:1011140090b5d9b000af07f10c0420600846114621
:101124003a1d136007f10a0302461a8007f1080307
:101134000a461a80002387f85f3107f10c031b6805
:10114400002b07d03b1d1b68002b03d0d7f8703150
:10115400002b05d1e22007f0f7fb034687f85f3147
:1011640097f85f31002b10d107f10c031b68d96984
:1011740007f10c031b6893f8202007f11c031846a1
:1011840005f060fa034687f85f3197f85f31002b6a
:1011940040f0838007f10c031b681b7d022b0cd1ec
:1011a40007f11c030a224049184605f0cafa07f160
:1011b40014034ff480721a601ce007f10c031b68df
:1011c4001b7d012b0bd107f11c030a22374918465a
:1011d40005f0b7fa07f1140380221a600ae007f158
:1011e4001c030a223249184605f0abfa07f114032e
:1011f400d0221a603b1d07f11c001022196805f06b
:10120400a0fa07f11c031022d7f87011184605f054
:1012140098fa07f10a031b885bba9ab207f11a031a
:101224001a8007f11a0107f11c030222184605f07f
:1012340088fa07f11a0307f1080212881a8007f1e5
:101244001a0107f11c030222184605f07afa07f185
:1012540014031b689bb25bba9ab207f11a031a8093
:1012640007f11a0107f11c030222184605f069fa76
:1012740007f114031b68da0807f114031a6007f175
:101284000c031b68d96907f1140207f11c03184603
:1012940005f069fa034687f85f3197f85f3118461d
:1012a40007f5b277bd4690bdc8990000d4990000f7
:1012b400e099000090b5d7b000af07f10c042060ae
:1012c40007f108000160391d0a603a461360e22301
:1012d40087f8573107f10c031b68002b3ed007f148
:1012e40008031b68002b39d03b461b68002b35d004
:1012f400d7f86831002b31d007f10c031b68db8a67
:101304005bba9bb2a7f8543107f10c031b68d96987
:1013140007f10c031b6893f8202007f11403184607
:1013240005f090f907f5aa7107f114030222184693
:1013340005f007fa3a1d07f1080307f114001268d3
:10134400196805f0fef93b4607f11400d7f8682147
:10135400196805f008fa034687f8573197f85731aa
:10136400184607f5ae77bd4690bd80b58ab000af8c
:10137400f8607b600b467b8113463b81002387f832
:10138400273000233b62fb68002b02d07b68002bd4
:1013940006d1e22007f0d8fa034687f827300ee09a
:1013a40007f036f838623b6a002b01d0002300e0d6
:1013b400fb23184607f0c8fa034687f827303b6a30
:1013c400002b00f09080fb683a895a84fb68002265
:1013d4001a753b8903f00103002b18d03b8903f0f5
:1013e4000203002b06d0fb681b7d43f02003dab216
:1013f400fb681a753b8903f00403002b1fd0fb68bc
:101404001b7d43f01003dab2fb681a7517e03b89c1
:1014140003f00203002b06d0fb681b7d43f010038e
:10142400dab2fb681a753b8903f00403002b06d07b
:10143400fb681b7d43f02003dab2fb681a753b6a34
:101444001622da703b6a00221a713b6a3a89a3f8c1
:1014540005207b895bba9ab23b6aa3f80720fb6834
:101464007a891a830a23fb833b8903f00203002b46
:1014740009d13b6a093310227968184608f050fbf9
:10148400fb8b1033fb83fb8b5bba9ab23b6aa3f8ea
:101494000120f968386a01f090f8034687f827308c
:1014a40097f82730002b1bd13b8903f00203002b54
:1014b40016d03b6abb61bb691b889bb25bba9bb20b
:1014c400053bfb82fb8a102b07d1bb690333102237
:1014d4001946786808f024fb02e0e12387f82730f6
:1014e400386a06f0cfff97f8273018462837bd46ec
:1014f40080bd80b58ab002aff860084611461a462e
:1015040003467b810b467b721346fb800023fb77eb
:101514000023bb610a23bb820023fb82fb68002bf0
:1015240009d07b6b002b06d0fb6a002b03d097f805
:1015340028300f2b05d8e22007f006fa0346fb7784
:1015440012e0fb681b7d1b09dbb2fb8206f060ff27
:10155400b861bb69002b01d0002300e0fb231846cf
:1015640007f0f2f90346fb77bb69002b64d0bb6933
:101574001622da70bb6901221a717b895bba9ab2ae
:10158400bb69a3f80520fb681b8b5bba9ab2bb69e5
:10159400a3f80720bb697a7a5a72fb881b0a9bb2ac
:1015a400dab2bb699a72fb88dab2bb69da72bb8ab7
:1015b4000333bb82fb685b8c03f00103002b07d071
:1015c400bb690c331022396b184608f0a9fa06e0ff
:1015d400bb690c331022796b184608f0a1fafb683a
:1015e40000225a84bb8a1033bb82bb8a5bba9ab28c
:1015f400bb69a3f80120f968b86900f0deff03466f
:10160400184607f0a1f90346fb77fb7f002b10d1a6
:10161400fb68fa6ada61fb6897f8282083f82020cf
:101624007b7a182b03d1fb6802221a7501e0e223ae
:10163400fb77b86906f026fffb7f002b0dd1fa8af1
:10164400f9887b6b00933b6bf868fff761fd0346f9
:10165400184607f079f90346fb77fb7f18462037d5
:10166400bd4680bd80b58eb002aff860b960134648
:10167400fb80002387f82f300023bb6200237b61ab
:1016840000233b62bb68bb61fb68002b02d0bb68d4
:10169400002b06d1e22007f057f9034687f82f30d4
:1016a4000ee006f0b5feb862bb6a002b01d0002341
:1016b40000e0fb23184607f047f9034687f82f306c
:1016c400bb6a002b00f0fa800023fb61bb6a162280
:1016d400da70bb6a02221a71fb88002b06d0bb6a3f
:1016e4001b7963f07f03dab2bb6a1a71fb885bbab9
:1016f4009ab2bb6aa3f80520fb681b8b5bba9ab24b
:10170400bb6aa3f80720fb690833ba6a1344581c60
:10171400bb6803330622194608f002fafb69063354
:10172400fb61bb68b3f801309bb25bbafb84fb6816
:101734001b7d022b36d120237b61fa8c7b69c3f598
:101744007e7302339a4206d9ed2007f0fdf8034672
:1017540087f82f3029e0fb8c0a3bfb84fb690833b4
:10176400ba6a1344581cbb680933fa8c194608f04a
:10177400d7f9fb8cfa691344fb61bb6a03f10901d5
:10178400f869fb690833ba6a13445a1c07f1140355
:10179400009313460246f868fff78cfd034687f86a
:1017a4002f3002e0e02387f82f30fb699ab27b697f
:1017b4009bb213449bb20a33fb84fb8c5bba9ab290
:1017c400bb6aa3f8012097f82f30002b06d1f968e3
:1017d400b86a00f0f2fe034687f82f3097f82f30ee
:1017e400002b3cd1bb6a3b623b6a1b889bb25bba51
:1017f4009bb2053bfb843b6a9a78bb699a70fb6891
:10180400db8a01339ab2fb68da82fb681b7d022b08
:1018140022d120237b617b699bb2fa8cd31afb848f
:10182400bb69d81c3b6a0333fa8c194608f078f973
:10183400bb69991cfb8c581cfb8cba691344da1cd9
:1018440007f11403009313460246f868fff732fdcc
:10185400034687f82f3002e0e02387f82f3097f80b
:101864002f30002b1dd1fb681b7d032b12d0fb8c6a
:101874003a6a1344d81cfb8cba69134403337a695b
:10188400194608f03ff90346002b03d0d22387f80a
:101894002f3006e0fb8c05339bb25bba9ab2bb696e
:1018a4001a8097f82f30002b05d1fb68db8a0133af
:1018b4009ab2fb68da82b86a06f0e4fd97f82f3032
:1018c40018463037bd4680bd80b584b000af78601f
:1018d4000023fb730023bb607b68002b05d1e2204f
:1018e40007f032f80346fb730de006f091fdb86093
:1018f400bb68002b01d0002300e0fb23184607f04f
:1019040023f80346fb73bb68002b27d07b680022b7
:101914001a757b680022da82bb681622da70bb680b
:1019240003221a71bb6800225a7100229a717b68e3
:101934001b8b5bba9ab2bb68a3f80720bb68002272
:101944005a70002242f00a029a707968b86800f06e
:1019540056fe0346fb73b86806f094fdfb7b1846fd
:101964001037bd4680bd80b584b000af78600023d9
:10197400fb737b68002b04d1e22006f0e5ff0346ed
:10198400fb737b6800221a757b680022da82fb7b7a
:0819940018461037bd4680bd66
:020000040000fa
:10199c0080b588b000aff8607a603b600b46fb7294
:1019ac000023bb61fb68002b05d03b68002b02d0e9
:1019bc00bb6a002b05d1e22006f0c2ff0346fb7781
:1019cc000de006f021fdb861bb69002b01d00023ae
:1019dc0000e0fb23184606f0b3ff0346fb77bb6918
:1019ec00002b43d0bb690022da70bb69fa7a1a71fa
:1019fc007b681ababb69c3f80520bb6900225a7010
:101a0c00002242f00a029a70f968b86900f0f3fdfe
:101a1c000346184606f094ff0346fb77fb7f002b2a
:101a2c0021d1bb697b617b691b889bb25bba9bb282
:101a3c00053b3b613b69002b15d0bb6a1b683a69bf
:101a4c009a4205d9ed2006f07bff0346fb7702e0b6
:101a5c00bb6a3a691a607b69d91cbb6a1b681a4657
:101a6c00386808f059f8b86906f008fdfb7f18468d
:101a7c002037bd4680bd80b586b002af7860396036
:101a8c000823fb6007f10c0300933b680022002144
:101a9c007868fff77dff034618461037bd4680bdba
:101aac0080b586b002af786039600423bb6007f163
:101abc00080300933b68002200217868fff768ff59
:101acc000346fb73fb7bed2b01d10023fb73fb7bec
:101adc0018461037bd4680bd80b586b002af786021
:101aec0039600823bb6007f1080300933b680022b0
:101afc0007217868fff74cff0346fb73fb7bed2b4c
:101b0c0001d10023fb73fb7b18461037bd4680bd0b
:101b1c0080b586b002af78603960e223fb7308238e
:101b2c00bb603b68002b0fd03b6800221a703b68ef
:101b3c005a1c07f10803009313460022072178680a
:101b4c00fff726ff0346fb73fb7bed2b01d1002334
:101b5c00fb73fb7b18461037bd4680bd80b586b045
:101b6c0002af786039600423fb6007f10c0300932b
:101b7c003b68002201217868fff70aff03461846ec
:101b8c001037bd4680bd80b588b002aff860b96033
:101b9c007a6001237b6107f1140300937b68ba68b8
:101bac000221f868fff7f4fe034618461837bd46c5
:101bbc0080bd80b588b002aff860b9607a60092347
:101bcc007b6107f1140300937b68ba680321f86802
:101bdc00fff7defe034618461837bd4680bd80b5bc
:101bec0088b000aff860b9607a60e223fb777b685d
:101bfc00002b2fd007f114031a46b968f868fff7c9
:101c0c00d8ff0346fb77fb7f002b23d13b7d03f0f2
:101c1c000703bb77bb7f072b1ed801a252f823f01a
:101c2c00651c0000651c0000651c00004d1c0000bc
:101c3c00651c0000651c0000651c0000651c000094
:101c4c00bb7d1b0203f470637a7d13431a467b68d9
:101c5c001a6002e000bf00e000bffb7f184620378f
:101c6c00bd4680bd80b58ab000aff860b9607a60bf
:101c7c0000233b62fb68002b02d07b68002b06d153
:101c8c00e22006f05dfe034687f827300ee006f0f2
:101c9c00bbfb38623b6a002b01d0002300e0fb2326
:101cac00184606f04dfe034687f827303b6a002b9a
:101cbc0072d03b6a0022da703b6a04221a713b6aca
:101ccc0000225a7100229a710022da7100221a72d3
:101cdc003b6a00225a70002242f00a029a70f9689c
:101cec00386a00f088fc0346184606f029fe0346c5
:101cfc0087f8273097f82730002b4ad13b6a7b6155
:101d0c007b691b889bb25bba9bb2053b3b613b6911
:101d1c00022b3bd97b690533bb613b69023b3b61c1
:101d2c007b681a683b695b089a4206d2ed2006f084
:101d3c0007fe034687f8273003e03b695a087b68a7
:101d4c001a600023fb6116e0bb691b789ab2bb6971
:101d5c0001331b789bb21b029bb213449ab2bb6833
:101d6c00991cb96052ba92b21a80fb690133fb61bb
:101d7c00bb690233bb617b681b681a46fb699342e3
:101d8c00e2db3b695a087b681a6002e07b68002240
:101d9c001a60386a06f072fb97f827301846283715
:101dac00bd4680bd80b588b002aff8600b467a6046
:101dbc00fb727b68002b05d1e22006f0c1fd0346c7
:101dcc00fb752de0fb7a012b05d9e22006f0b8fd5e
:101ddc000346fb7524e002233b6107f1140207f173
:101dec0010030093134600220521f868fff7d0fd7d
:101dfc000346fb75fb7d002b04d0fb7d184606f0db
:101e0c009ffd0de0fb7a07f11802134413f8043c14
:101e1c00012b0cbf01230023dbb21a467b681a701e
:101e2c00fb7d18461837bd4680bd80b58ab002af21
:101e3c00f8600b467a60fb727b68002b05d1e220c0
:101e4c0006f07efd0346fb772de0fb7a032b05d9cc
:101e5c00e22006f075fd0346fb7724e004237b614a
:101e6c0007f1180207f11403009313460022062110
:101e7c00f868fff78dfd0346fb77fb7f002b04d042
:101e8c00fb7f184606f05cfd0de0fb7a07f12002a3
:101e9c00134413f8083c012b0cbf01230023dbb2c5
:101eac001a467b681a70fb7f18462037bd4680bdea
:101ebc0080b586b002af786039601023fb6007f103
:101ecc000c0300933b68002207217868fff760fd44
:101edc00034618461037bd4680bd80b586b002afac
:101eec00786039600623fb6007f10c0300933b68b4
:101efc00002208217868fff74bfd0346184610377f
:101f0c00bd4680bd80b584b000af786039603b6859
:101f1c00002b05d1e22006f013fd0346fb7313e002
:101f2c0007f1080319467868fff7d7ff03461846f0
:101f3c0006f006fd0346fb733b7a002b14bf01230e
:101f4c000023dab23b681a70fb7b18461037bd468b
:101f5c0080bd80b584b000af786039603b68002be1
:101f6c0005d1e22006f0ecfc0346fb7313e007f10d
:101f7c00080319467868fff7b0ff0346184606f0c9
:101f8c00dffc0346fb737b7a002b14bf0123002379
:101f9c00dab23b681a70fb7b18461037bd4680bd21
:101fac0080b584b000af786039603b68002b05d1f8
:101fbc00e22006f0c5fc0346fb7310e007f10803b2
:101fcc0019467868fff789ff0346184606f0b8fcf7
:101fdc000346fb73d7f80a301a463b681a60fb7b42
:101fec0018461037bd4680bd80b586b002af78600c
:101ffc0039604023fb6007f10c0300933b6800221f
:10200c0009217868fff7c4fc034618461037bd4613
:10201c0080bd80b586b002af786039600223fb606a
:10202c0007f10c0300933b6800220a217868fff744
:10203c00affc034618461037bd4680bd80b586b050
:10204c0002af786039600223fb6007f10c03009348
:10205c003b6800220b217868fff79afc0346184670
:10206c001037bd4680bd80b586b000aff8600b461a
:10207c007a60fb72e223fb75fb7a002b0ad179683c
:10208c00f868fff73fff0346184606f059fc034675
:10209c00fb750ce0fb7a012b09d17968f868fff726
:1020ac0058ff0346184606f04bfc0346fb75fb7db8
:1020bc0018461837bd4680bd80b588b000aff860b3
:1020cc000b467a607b817b68002b05d1e22006f001
:1020dc0037fc0346fb7717e07b8907f1140219469e
:1020ec00f868fff766fd0346184606f029fc034620
:1020fc00fb773b7f9b1003f00103002b14bf0123e4
:10210c000023dab27b681a70fb7f18462037bd4675
:10211c0080bd80b588b000aff8600b467a607b81db
:10212c007b68002b05d1e22006f00afc0346fb7706
:10213c0014e07b8907f114021946f868fff739fda2
:10214c000346184606f0fcfb0346fb773b7d012b50
:10215c000cbf01230023dab27b681a70fb7f184690
:08216c002037bd4680bd00bf15
:020000040000fa
:1021740080b586b000aff8607a601a460b46fb72f1
:1021840013463b81f023fb757b68002b02d03b890f
:10219400002b04d1e22006f0d7fb03462de0fb68b8
:1021a400184601f0a2fa0346002b09d0f8687b68b0
:1021b40019783b897a6801f06ff90346fb751be0d7
:1021c400f86800230022042101f0b0f90346fb75ee
:1021d400fb7df52b02d0fb7d002b07d1f8683b89f2
:1021e400f97a7a6801f058f90346fb75f868002318
:1021f4000022052101f09af9fb7d18461837bd46e7
:1022040080bd80b586b000aff8607b600b46fb7282
:102214001346bb72e223fb753b6a002b3fd07b68fd
:10222400002b3cd0fb681b689b6a01333b61fb6855
:10223400184601f05afa0346002b08d0f868b97a18
:102244003b6a7a6801f04df90346fb751fe0f868b4
:1022540000230022042101f069f9f86807f10a0259
:10226400f97a012301f018f90346fb75fb7d002b75
:1022740007d1f868f97a3b6a7a6801f032f90346c3
:10228400fb75f86800230022052101f04ff93b6932
:102294005a1e3a61002b02ddfb7d002bc7d1fb7d6a
:1022a40018461837bd4680bd80b588b000aff860c9
:1022b4007a603b600b46fb72f023fb770223fb82c0
:1022c40010237b753b68002b02d07b68002b04d164
:1022d400e22006f039fb034682e0f868002300227e
:1022e400042101f023f9fb681b689b6a0133bb617d
:1022f40008e0f86807f11502f97a012301f0ccf837
:102304000346fb77bb695a1eba61002b02ddfb7fd3
:10231400002beed1fb7f002b04d0fb7f184606f088
:1023240013fb56e0f86807f11603f97a7a6801f0ae
:10233400d8f80346fb77fb7f002b04d0fb7f1846bd
:1023440006f002fb45e07b6801331b789bb2fb82fd
:102354007b681b789bb21b029ab2fb8a13449bb224
:10236400fb82fb8a032b04d9fb8a40f20542934289
:1023740005d9e62006f0e8fa0346fb7729e03b6836
:102384001a88fb8a9a4205d2ed2006f0ddfa03464c
:10239400fb771ee0fb8a023b9bb2fb82f8687b68fa
:1023a4009a1c07f11603f97a01f09bf80346fb77b0
:1023b400fb7f002b06d0fb7f184606f0c5fa0346c8
:1023c400fb7706e0fb8a02339bb2fb82fa8a3b6806
:1023d4001a80f86800230022052101f0a7f8fb7f8a
:1023e40018462037bd4680bd80b588b000af786000
:1023f40039607b68b3f801309bb25bba9bb2fb8156
:10240400386805f079f90346fb7501233b617b6865
:10241400db78122b0bd07b68db78162b0bd17b6817
:102424001b79022b07d17b685b7a122b03d144f60c
:102434002063bb6102e040f2e243bb61386800f014
:102444006cf90346fb77fb7f002b06d0fb7f184615
:1024540006f07afa0346fb77aae07b6800221a703a
:10246400fb8901339bb2fb81fb89f97d7a6838686b
:10247400fff77efe0346184606f066fa0346fb772e
:10248400fb7f002b40f09380386904f0a6fc7b6846
:10249400db78032b04d1fb7f184606f055fa87e05e
:1024a40007f10d031a463021386800f0d8f80346c6
:1024b400fb77fb7f002b2ed17b7b03f01003002bdb
:1024c40029d07b7b03f00603062b24d005220021b0
:1024d400786807f0b5fb40f20b43fb813b68184674
:1024e40001f003f90346002b09d0386807f10e0305
:1024f4007a68102100f0f5ff0346fb7708e007f146
:102504000e03f97d7a683868fff7cefe0346fb7741
:10251400fb7f002b08d0022004f05ffcbb695a1e2d
:10252400ba61002bbcdc00e000bfbb69002b05dcfa
:10253400eb2006f009fa0346fb7739e0fb7f002b1a
:1025440004d0fb7f184606f0fff931e0fb89042b29
:1025540008d8fb89002b02d0e623fb7728e0e72389
:10256400fb7725e0fb89023b9bb21946786805f0ae
:1025740034fb0346fb77fb7f002b04d0fb7f18461c
:1025840006f0e2f914e07b689b78fb77fb7f002b75
:102594000ed0fb7f03f04003002b03d0fb7f23f01e
:1025a4004003fb77fb7f184606f0cef900e000bf3e
:1025b400fb7f18462037bd4680bd80b584b000af90
:1025c400786039607b68b3f801309bb25bbabb8139
:1025d4007b680133ba891146184605f031fb03467e
:1025e400fb73fb7b002b05d139687868fff7fcfe91
:1025f4000346fb73fb7b18461037bd4680bd80b590
:1026040084b000af786039603b681b7d002b09d033
:102614003b685b8c1a4679683868fff723f80346f1
:10262400fb7317e07b68b3f801309bb25bbabb81e4
:102634007b680133ba891146184605f001fb03464d
:10264400fb73fb7b002b05d139687868fff7ccfe60
:102654000346fb73fb7b18461037bd4680bd80b52f
:1026640088b002aff8600b467a60fb72e223fb7518
:102674000123bb82fb68002b23d0fb68184601f0c2
:1026840034f80346002b0dd0f86807f11403f97ae7
:102694007a6800f026ff0346184606f055f903460b
:1026a400fb750ee0f86805f027f803461946fa7a38
:1026b40007f1140300937b68f868fff7a2fd034653
:1026c400fb75fb7d18461837bd4680bd80b584b0c8
:1026d40000af78600b46fb701346bb70e223fb73bc
:1026e4007b68002b14d0fb783b73bb787b737868d2
:1026f40005f002f80346194607f10c020223786834
:10270400fff736fd0346184606f01ef90346fb7331
:10271400fb7b18461037bd4680bd80b584b000af42
:1027240078600223bb7307f10d031a4630217868e1
:10273400fff795ff0346fb73fb7b002b09d17b7be3
:1027440003f00603002b0fd07b7b03f00603022b60
:102754000ad0052004f041fb97f90e30dab2013ab1
:10276400d2b2ba73002bdedc97f90e30002b04dcf6
:10277400d02006f0e9f80346fb73fb7b18461037bc
:04278400bd4680bd11
:020000040000fa
:1027880080b4d9b000af07f10c03186007f1080353
:1027980019603b1d1a600023c7f85c310023c7f895
:1027a80058310023c7f85831ace1d7f858319b01ac
:1027b80007f1080212681344c7f850310023c7f81c
:1027c8005c314ee0d7f85c31d7f850211a44d7f87d
:1027d8005c310333117807f13402d154d7f85c31f6
:1027e8000133d7f850211a44d7f85c3102331178f5
:1027f80007f13402d154d7f85c310233d7f85021ad
:102808001a44d7f85c310133117807f13402d154f6
:10281800d7f85c310333d7f850211344197807f1fe
:102828003402d7f85c3113440a461a70d7f85c3181
:10283800002b00da03339b101a46d7f85c31002bc3
:1028480000da03339b10194607f1340353f82220aa
:1028580007f1340343f82120d7f85c310433c7f873
:102868005c31d7f85c313f2bacdd1023c7f854310d
:1028780051e0d7f85431a3f10f0207f1340353f8ac
:102888002230c7f84c31d7f84c314feaf312d7f859
:102898004c314feab3435a40d7f84c31db08534028
:1028a800c7f84831d7f854319a1e07f1340353f862
:1028b8002230c7f84c31d7f84c314fea7342d7f879
:1028c8004c314feaf3435a40d7f84c319b0a5340f6
:1028d800c7f84431d7f85431a3f1100207f1340393
:1028e80053f82220d7f848311a44d7f85431d91f61
:1028f80007f1340353f821301a44d7f84431d1187a
:1029080007f13403d7f8542143f82210d7f854318b
:102918000133c7f85431d7f854313f2ba9d90023d4
:10292800c7f85c3112e007f10c031b68d7f85c218b
:10293800223253f8221007f11403d7f85c2143f828
:102948002210d7f85c310133c7f85c31d7f85c3115
:10295800072be8dd0023c7f85c31a5e007f1140375
:102968001b684feab30207f114031b684fea73337d
:102978005a4007f114031b684feab3535340c7f892
:10298800483107f114031a6807f11403596807f16d
:1029980014039b684b401a4007f11403596807f168
:1029a80014039b680b405340c7f84031d7f84821bf
:1029b800d7f840311344c7f83c3107f114031b69b9
:1029c8004feab31207f114031b694feaf3235a4085
:1029d80007f114031b694fea73635340c7f8443186
:1029e80007f114031a6907f114035b691a4007f128
:1029f80014031b69d94307f114039b690b40534027
:102a0800c7f8383107f11403da69d7f844311a44a2
:102a1800d7f838311a444249d7f85c3151f8233095
:102a28001a4407f13403d7f85c1153f821301344e2
:102a3800c7f8343107f114039a6907f11403da610e
:102a480007f114035a6907f114039a6107f1140393
:102a58001a6907f114035a6107f11403da68d7f801
:102a680034311a4407f114031a6107f114039a6800
:102a780007f11403da6007f114035a6807f1140325
:102a88009a6007f114031a6807f114035a60d7f81b
:102a98003421d7f83c311a4407f114031a60d7f8e7
:102aa8005c310133c7f85c31d7f85c313f2b7ff7d5
:102ab80055af0023c7f85c311be007f10c031b6816
:102ac800d7f85c21223253f8222007f11403d7f8f3
:102ad8005c1153f82130d11807f10c031b68d7f8a3
:102ae8005c21223243f82210d7f85c310133c7f851
:102af8005c31d7f85c31072bdfddd7f8583101336b
:102b0800c7f858313b1dd7f858211b689a42fff483
:102b18004cae00bf07f5b277bd465df8047b704741
:102b28004080000080b584b000af7860a822002102
:102b3800786807f083f80023fb600be0094afb681c
:102b480052f823107b68fa68223243f82210fb6897
:102b58000133fb60fb68072bf0dd00bf1037bd4673
:102b680080bd00bf4081000080b588b000aff8602c
:102b7800b9607a60fb685b68c3f14003fb617a68ff
:102b8800fb69934228bf1346bb61fb685b68083347
:102b9800fa681344ba69b968184606f0bffffb68bb
:102ba8005a687b6813443f2b06d8fb685a687b68d1
:102bb8001a44fb685a6030e0fb6808330122194662
:102bc800f868fff7ddfd7a68bb69d31a7b607b681c
:102bd8009b097b61ba68bb6913447a691946f8682e
:102be800fff7cefdfb681a687b6901339b011a4425
:102bf800fb681a607b6803f03f02fb685a60fb6859
:102c080003f108007b699a01bb691344ba68d118bb
:102c1800fb685b681a4606f081ff2037bd4680bd19
:102c280080b586b000af786039607b681a687b68c9
:102c38005b681a447b681a607b681b68db00fb6072
:102c48007b685a686ff008039b1a03f03f03bb6068
:102c58007b685b68591c7a6851607a6813448022e3
:102c68001a727b685b6808337a68d018bb680433cb
:102c78001a46002106f0e2ff7b685a68bb681344d5
:102c88001a1d7b685a60fb68180e7b685b68591cc4
:102c98007a685160c1b27a6813440a461a72fb68ae
:102ca800180c7b685b68591c7a685160c1b27a68f5
:102cb80013440a461a72fb68180a7b685b68591c39
:102cc8007a685160c1b27a6813440a461a727b68fe
:102cd8005b68591c7a685160fa68d1b27a68134403
:102ce8000a461a727b6803f108017b685b689b09d6
:102cf8001a467868fff744fd00237b6123e003232d
:102d08003b611ae07b687a69223253f822107b69aa
:102d18009a003b6913443a681344cab21a703b6973
:102d2800013b3b617b687a69223253f82230190ae9
:102d38007b687a69223243f822103b69002be1da7a
:102d48007b6901337b617b69072bd8dd00bf1837ae
:102d5800bd4680bd80b5aeb000aff860b9607a609e
:102d680007f110031846fff7ddfe07f11003ba68f4
:102d7800f9681846fff7f8fe07f110037968184656
:0c2d8800fff74eff00bfb837bd4680bd0e
:020000040000fa
:102d940080b584b000af7860084611461a460346f1
:102da400fb700b46bb7013467b700023fb607b6893
:102db400002b05d1e22005f0c7fd0346fb720de0b0
:102dc40005f026fbf860fb68002b01d0002300e02f
:102dd400fb23184605f0b8fd0346fb72fb68002b85
:102de40021d0fb681a22da70fb68fa781a71fb6842
:102df400ba785a71fb687a789a713b8b5bba9ab24b
:102e0400fb68a3f80720fb6800225a70002242f0f6
:102e14000a029a707968f868fff7f1fb0346fb72bf
:102e2400f86805f02ffbfb7a18461037bd4680bdc5
:102e340080b588b000aff8607a603b600b46fb72e7
:102e44000023fb610023fb76fb68002b02d07b6828
:102e5400002b05d1e22005f077fd0346fb760de05b
:102e640005f0d6faf861fb69002b01d0002300e0dd
:102e7400fb23184605f068fd0346fb76fb69002b2f
:102e84003ed0fb691a22da70fb69fa7a1a71fb697f
:102e940000225a7100229a710022da7100221a72f9
:102ea400fb69093310227968184606f039fefb697c
:102eb40000225a70002242f01a029a70f968f869e6
:102ec400fff79dfb0346fb76fb7e002b15d1fb69c8
:102ed4007b617b691b889bb25bba9bb2053b7b829f
:102ee4003b68002b09d07b8a0f2b06d97b690333ff
:102ef40010221946386806f013fef86905f0c2fa84
:102f0400fb7e18462037bd4680bd80b58ab000af31
:102f1400f860084611461a460346fb720b463b818d
:102f24001346fb8000233b62fb68002b06d1e220a2
:102f340005f00afd034687f827300ee005f068fa2d
:102f440038623b6a002b01d0002300e0fb231846c3
:102f540005f0fafc034687f827303b6a002b00f0a3
:102f640006813b6a1a22da703b6afa7a1a713b8943
:102f74005bba9ab23b6aa3f80520fb885bba9ab2a3
:102f84003b6aa3f807203b6a0933bb613a89fb8893
:102f94001344b3f5797f06dde22005f0d5fc034642
:102fa40087f82730e0e097f90b30002b11db3b6bff
:102fb400002b06d1e22005f0c7fc034687f8273032
:102fc400d2e00c22396bb86906f0aafdbb690c3358
:102fd400bb613b89002b13d07b6b002b06d1e22015
:102fe40005f0b2fc034687f82730bde03b891a465a
:102ff400796bb86906f094fd3b89ba691344bb61e7
:10300400fb88002b13d0bb6b002b06d1e22005f00c
:103014009bfc034687f82730a6e0fb881a46b96b69
:10302400b86906f07dfdfb88ba691344bb61fb7a7d
:1030340003f00303dbb2022b11d1fb6b002b06d18f
:10304400e22005f081fc034687f827308ce010224b
:10305400f96bb86906f064fdbb691033bb613b6a68
:103064000933ba69d31a9bb20a339bb25bba9ab2d8
:103074003b6aa3f80120f968386afff7c0fa0346ef
:1030840087f8273097f82730002b08d097f8273097
:10309400184605f059fc034687f8273064e03b6a7c
:1030a4007b617b690333bb617b691b889bb25bba21
:1030b4009bb2053bfb83fa8bfb889a4217d33b6c8c
:1030c400002b05d0fb881a46b969386c06f028fd38
:1030d400fb88ba691344bb61fa8bfb88d31afb8360
:1030e400fb7a03f00303dbb2012b20d106e0e420da
:1030f40005f02afc034687f8273035e0fb8b0f2bbd
:103104000ed9fb6b002b04d01022b969f86b06f0c2
:1031140007fdbb691033bb61fb8b103bfb8306e0ef
:10312400e42005f011fc034687f827301ce097f9ea
:103134000b30002b18dafb8b0b2b0ed93b6b002bbf
:1031440004d00c22b969386b06f0eafcbb690c3375
:10315400bb61fb8b0c3bfb8306e0e42005f0f4fb36
:10316400034687f8273000bf386a05f08bf997f8d3
:10317400273018462837bd4680bd80b588b002afd9
:10318400f8607b600b467b8113467b727a7a7b897d
:103194000093134600220421f868fff7f9fd034663
:1031a400fb75fb7d002b04d0fb7d184605f0ccfba2
:1031b4000fe03b6a7a680521f868fff739fe034699
:1031c400fb75fb7d002b04d0fb7d184605f0bcfb92
:1031d40000bffb7d18461837bd4680bd80b588b05a
:1031e40002aff8607b600b467b8113467b727a7a70
:1031f4007b890093134600220421f868fff7c8fd79
:103204000346fb75fb7d002b04d0fb7d184605f0bf
:103214009bfb0fe03b6a7a680621f868fff708fe1b
:103224000346fb75fb7d002b04d0fb7d184605f09f
:103234008bfb00bffb7d18461837bd4680bd80b5ab
:1032440084b002af78600b467b8013467b707a783b
:103254007b8800931346002208217868fff798fdc5
:10326400034618460837bd4680bd80b584b002af1a
:103274007860084611461a4603467b800b467b70ed
:1032840013463b7079783a787b8800930b46882103
:103294007868fff77dfd034618460837bd4680bdb4
:1032a40080b58ab006aff860b9603b601346fb8016
:1032b400b98bfa883b6a04937b6a0393bb690293d4
:1032c400bb6801933b6800930b460921f868fff73c
:1032d4001cfe034618461037bd4680bd80b58ab033
:1032e40006aff860b9603b601346fb80398bfa88ff
:1032f400fb6904933b6a03933b680293bb680193a5
:103304007b6a00930b468921f868fff7fefd0346ac
:1033140018461037bd4680bd80b58ab006aff86048
:10332400b9603b601346fb80398cfa887b6a04934e
:10333400bb690393fb690293bb6801933b680093e9
:103344000b460a21f868fff7e0fd034618461037dc
:04335400bd4680bd35
:020000040000fa
:1033580080b584b000af786039607b68002b02d0fc
:103368003b68002b01d1e22311e03b687a681a60c0
:10337800386800f010f80346184605f0e3fa0346eb
:10338800fb73fb7b002b01d0fb7b00e0002318467e
:103398001037bd4680bd80b584b000af7860f0239b
:1033a800fb737b68002b70d07b6818687b68191ddd
:1033b8007b6808331a4602f045fd0346184605f0b7
:1033c800c1fa0346fb73fb7b002b2fd17b689b68fc
:1033d800002b2bd07b689b681b68002b21d07b6857
:1033e8009b685b68002b1cd07b689b681b687a68ad
:1033f80012681146786898470346184605f0a2fafd
:103408000346fb73fb7b002b10d17b689b685b68d2
:10341800786898470346184605f094fa0346fb7304
:1034280004e0f62005f08efa0346fb73fb7b002bc5
:103438002bd17b685b681b68002b21d07b685b689d
:103448005b68002b1cd07b685b681b687a68126815
:103458001146786898470346184605f073fa0346fc
:10346800fb73fb7b002b10d17b685b685b6878681b
:1034780098470346184605f065fa0346fb7304e0cf
:10348800f62005f05ffa0346fb73fb7b18461037fe
:10349800bd4680bd90b585b000aff8607a603b60ee
:1034a8000b46fb72fb68002b01d1e22313e0fb689b
:1034b8005b68002b0ed0fb685b689b68002b09d00b
:1034c800fb685b689c68f97a3b687a68f868a0478b
:1034d800034600e0fd2318461437bd4690bd90b55d
:1034e80085b000aff8607a603b600b46fb72fb6802
:1034f800002b01d1e22313e0fb685b68002b0ed0a0
:10350800fb685b68db68002b09d0fb685b68dc68dc
:10351800f97a3b687a68f868a047034600e0fd231b
:1035280018461437bd4690bd90b585b000aff86019
:103538007a603b600b46fb72fb68002b01d1e223eb
:1035480013e0fb685b68002b0ed0fb685b681b69a7
:10355800002b09d0fb685b681c69f97a3b687a68bc
:10356800f868a047034600e0fd2318461437bd4617
:1035780090bd90b585b000af78607b68002b01d115
:10358800e22325e07b685b68002b20d07b685b68c2
:103598001b69002b1bd07b685b681c690023002219
:1035a80000217868a0470346fb73fb7bd02b0cd126
:1035b800192003f010fc7b685b681c69002300225b
:1035c80000217868a0470346fb73fb7b00e0fd23de
:1035d80018461437bd4690bd90b585b000af7860e9
:1035e8007b68002b01d1e22318e07b685b68002b25
:1035f80013d07b685b681b69002b0ed07b685b6807
:103608001c690023002201217868a0470346fb7348
:10361800012003f0e0fbfb7b00e0fd231846143794
:10362800bd4690bd90b585b000af78607b68002b33
:1036380001d1e22318e07b685b68002b13d07b681c
:103648005b681b69002b0ed07b685b681c690023d4
:10365800002202217868a0470346fb73012003f08b
:10366800bafbfb7b00e0fd2318461437bd4690bd2e
:1036780080b483b000af78607b68002b02d07b6891
:103688001b6800e0002318460c37bd465df8047b34
:10369800704780b483b000af78607b68002b02d09d
:1036a8007b68db6800e0002318460c37bd465df8f0
:1036b800047b704780b485b000af0346fb710023dc
:1036c800fb73fb79042b05d0fb79052b02d0fb7922
:1036d800022b01d10123fb73fb7b18461437bd462f
:1036e8005df8047b704780b485b000af7860002334
:1036f800fb737b68002b14d07b681b68002b10d0f1
:103708007b681b681b78042b09d07b681b681b78b7
:10371800052b04d07b681b681b78022b01d1012381
:10372800fb73fb7b18461437bd465df8047b704776
:1037380080b485b000af78600023fb737b68002bf2
:103748000fd07b681b68002b0bd07b681b681b782d
:10375800012b04d07b681b681b78082b01d101233f
:10376800fb73fb7b18461437bd465df8047b704736
:1037780080b483b000af78607b68002b07d07b688b
:103788001b68002b03d07b681b689b6a00e0002342
:1037980018460c37bd465df8047b704780b483b08b
:1037a80000af78607b68002b07d07b681b68002b14
:1037b80003d07b681b689b8c01e040f2dc53184601
:1037c8000c37bd465df8047b704780b485b000af08
:1037d8007860ff23fb737b68002b00bffb7b1846d8
:1037e8001437bd465df8047b704780b485b000afe0
:1037f80078600b46fb701346bb70e223fb737b6853
:10380800002b04d00023fb73e223fb7300e000bf0e
:10381800fb7b18461437bd465df8047b704780b5be
:1038280084b000af7860e223fb737b68002b1cd068
:103838007b681b68002b18d07b681b681a787b682c
:10384800db681946104602f019fb0346fb73fb7b45
:10385800002b02d17b680022da607b681b681b782a
:10386800062b02d17b6800225a60fb7b1846103772
:10387800bd4680bd80b584b000af78607e23fb7301
:103888007b68002b16d00e4bbb600fe0bb685b68f3
:1038980019467868fdf7ecfb0346002b03d0bb689c
:1038a8001b78fb7306e0bb680833bb60bb681b78fa
:1038b8007e2bebd1fb7b18461037bd4680bd00bf81
:0438c800449a00001e
:020000040000fa
:1038cc0080b58ab000aff860084611461a46034628
:1038dc00fb720b463b811346fb8000233b62fb686b
:1038ec00002b09d03b89b3f5806f05d87b6b002b7f
:1038fc0009d0bb6b002b06d1e22005f021f8034662
:10390c0087f827300ee004f07ffd38623b6a002b0d
:10391c0001d0002300e0fb23184605f011f8034604
:10392c0087f827303b6a002b62d03b6a1922da7089
:10393c003b6afa7a1a713b895bba9ab23b6aa3f872
:10394c000520fb885bba9ab23b6aa3f807203b6a56
:10395c000933fb613b6b002b09d03b891a46396b51
:10396c00f86906f0d9f83b89fa691344fb613b6aa4
:10397c000933fa69d31a9bb20a339bb25bba9ab277
:10398c003b6aa3f80120f968386afef734fe034657
:10399c00184604f0d5ff034687f8273097f82730f0
:1039ac00002b22d13b6abb61bb691b889bb25bba03
:1039bc009bb2053bfb827b6b002b16d0fb8a002b4a
:1039cc0013d0bb6b1b88fa8a9a4206d9ed2004f0ff
:1039dc00b7ff034687f8273007e0bb69d91cbb6be0
:1039ec001b881a46786b06f097f8386a04f046fd87
:1039fc0097f8273018462837bd4680bd80b58ab069
:103a0c0004aff8607b600b46fb7213463b81fb7a7c
:103a1c0003f00303fb72fb7a002b05d0fb7a012b1e
:103a2c0002d0fb7a022b16d13a89f97a7b6a02937f
:103a3c003b6a01937b6800934ff48043f868fff76f
:103a4c003fff0346fb75fb7d002b0ad0fb7d184620
:103a5c0004f076ff05e0e22004f072ff0346fb75ec
:103a6c0000bffb7d18461837bd4680bd80b586b0bb
:103a7c0004af78600023029300230193002300938a
:103a8c004ff48043002200217868fff719ff0346aa
:103a9c0018460837bd4680bd80b586b004af786047
:103aac000b467b807a88002302930023019300232a
:103abc0000931346002200217868fff701ff0346ac
:103acc0018460837bd4680bd80b588b004aff86095
:103adc000b467a607b817a89002302930023019341
:103aec007b6800934ff480430121f868fff7e8fef0
:103afc00034618461037bd4680bd80b588b004af6c
:103b0c00f8607b600b467b8113463b8179893a894f
:103b1c0000230293002301937b6800930b46012141
:103b2c00f868fff7cdfe034618461037bd4680bd3a
:103b3c0080b582b000af786039603a68402178680f
:103b4c00fff7c2ff034618460837bd4680bd80b557
:103b5c0088b004af786039602023fb8107f10e0335
:103b6c0002933b680193002300934ff4804300229f
:103b7c0002217868fff7a4fe034618461037bd46ad
:103b8c0080bd80b58ab004aff8600b467a607b814b
:103b9c002023fb827a8907f1160302937b68019339
:103bac0000230093134600228221f868fff788fe59
:103bbc00034618461837bd4680bd80b586b000afa9
:103bcc00f860b9603b601346fb803b68002b0fd05c
:103bdc00fb883a681946f868fff776ff0346fb75d1
:103bec00fb7d002b04d0fb7d184604f0a9fe0fe0f2
:103bfc00ba684ff48041f868fff7c3ff0346fb75c2
:103c0c00fb7d002b04d0fb7d184604f099fe00bf11
:103c1c00fb7d18461837bd4680bd80b58ab004af11
:103c2c00f8607a603b600b467b812023bb82f423d7
:103c3c00fb757b89002b16d07a8907f1140302934c
:103c4c003b6801937b68009300230321f868fff71e
:103c5c0037fe0346fb75fb7d002b1fd0fb7d184602
:103c6c0004f06efe1ae0f868fff700ff0346fb75e0
:103c7c00fb7d002b04d0fb7d184604f061fe0de0ab
:103c8c003968f868fff763ff0346fb75fb7d002b73
:103c9c0004d0fb7d184604f053fe00bffb7d184694
:103cac001837bd4680bd80b58ab004aff8607b6024
:103cbc000b467b8113463b812023fb8279893a8911
:103ccc0007f1160302933b6a01937b6800930b4642
:103cdc008321f868fff7f4fd034618461837bd46f4
:103cec0080bd80b586b000aff860b9607a60bb6803
:103cfc00002b05d1e22004f023fe0346fb7508e0ff
:103d0c00bb687a684ff48041f86801f014f80346f8
:103d1c00fb75fb7d18461837bd4680bd80b586b057
:103d2c0000aff8607a603b600b467b817b68002bb0
:103d3c0005d1e22004f004fe0346fb7507e0798907
:103d4c007b683a68f86800f0f6ff0346fb75fb7d6c
:103d5c0018461837bd4680bd80b584b000aff860fa
:103d6c00b9601346fb80fa88bb684ff48041f86851
:103d7c0001f00ffa034618461037bd4680bd80b5da
:103d8c0084b000aff8607a601a460b467b8113460c
:103d9c003b813a8979897b68f86801f0faf9034626
:083dac0018461037bd4680bd2a
:020000040000fa
:043db4000d0a0000f4
:020000040000fa
:103db8002de9f04f2ded028bd2e9008997b0cde9be
:103dc8000c138b6808930b690f90d1e900b6149314
:103dd800cd68002200234046494605f041fc40b921
:103de8001bf0040f32d11bf00803059330d02023b9
:103df80003e089f0004399462d232b70089b03f1bb
:103e0800ff3a012305934c4929f0004300208b42d7
:103e180008bf80451fd10d9b413b192b059b94bfc3
:103e2800464947492b44184605f0b6ff284605f091
:103e3800c3fecdf800b00246089b0f98294604f04f
:103e4800b3fd17b0bdec028bbde8f08f2b23d4e790
:103e5800ddf820a0d7e7994208bf404509d20d9b5d
:103e6800413b192b059b94bf364937492b441846cb
:103e7800dae7002200234046494605f041fc9fed61
:103e88002c7b8ded027b48b300240d9805f058ff7c
:103e9800002ec3b20993c0f2d781672b5ad1002ee6
:103ea80008bf0126231d02dbb442c0f2c681652784
:103eb80061e09ded067b8ded027b01340022234bf2
:103ec800dde9020103f08eff42464b46cde90601cb
:103ed80005f0aafb0028ecd000271fe00446ede718
:103ee80014f5967f11da87b90022194b40464946e6
:103ef80003f078ff002280468946154bdde9020170
:103f080003f070ffcde902010127dde9020100227b
:103f18000e4b03f043fccde90201013cdde902232d
:103f28004046494605f09cfb0028d9d1ade700bfc3
:103f3800000000000000f03f0000f07f289d000016
:103f48002c9d0000309d0000349d0000000024409e
:103f580000005043099f662f06f101060bd1002c83
:103f680004da9fedbd7b8ded027b0024099b672b56
:103f780018bf361966279ded027bcde906898dedc0
:103f88000a7b00230e93dde90a23dde9060103f02d
:103f980005fc41ec100b04f0d3f951ec100bb0ee1a
:103fa800408af0ee608a05f081f9b0ee480af0ee3a
:103fb800680a069b1093079b159083f000431193a2
:103fc8009ded0a1b9ded102b05f02afc53ec102be0
:103fd80083f000430793dde90a01a34b8ded060a40
:103fe800002203f0dbfb0e9b01339e42cde90a0160
:103ff8000e93c8d100229d4b03f0f4fecde90a01cf
:1040080002460b46dde9060105f02afb002840f0d0
:104018008180dde90a23dde9060105f071fb10b1b5
:10402800159bda0776d5dde90a234046494603f0b1
:104038007cf90022cde906018b4bdde9020103f092
:10404800d1fedde90623cde90a0105f097fa00283b
:1040580065d0662f04f1010465d10136a146a9ebac
:1040680006034ff00008059e1093cdf80880109bba
:10407800994540f08180029b002b00f0c880a81968
:104088000022652f027029d1149b1499013b944298
:10409800ea54c1f1030ebcbf644201220a21002c7c
:1040a80040f0bc800eeb030cbcf1000f00f3b680af
:1040b800002a03f1ff3114bf2d222b226a540d9ad6
:1040c800023b413a192a05eb030198bf45279e4256
:1040d8000f70aaf1020a01da05f05efe0bf0030385
:1040e800022b7ff4a3aebaf1000f7ff79fae2846ec
:1040f80005f062fd05eb0a03059a824240f39980b8
:10410800059b2b4418465246302105f097fd0023a5
:1041180008938be69fed527b8ded0a7b83e79ded3f
:10412800027b8ded0a7b652f14bfa1464ff0000975
:1041380095e7029a52b9b9f1000f07da0e992e22c3
:104148006a54012201360af1ff3a029205eb08018e
:10415800aa193144302001e002f8010b9142fbd149
:1041680008eb06023033aaeb080808f1ff3a561ca0
:10417800ab544ff0000828e00c9b0e961b69053bda
:10418800b3427ff678afdde90a23dde9060103f0e3
:1041980005fb41ec100b04f0d3f851ec100bb0ee1a
:1041a800408af0ee608a05f081f80bf010020928c9
:1041b8000346a8bf09230243bbd1099a672ab8d18d
:1041c800b9f1000fc2da08f10108069b1293079ba8
:1041d800b0ee480af0ee680a83f0004313939dedb1
:1041e8000a1b9ded122b05f01bfb53ec102b83f0e3
:1041f80000430793dde90a0100221b4b8ded060af7
:1042080003f0ccfa09f1ff39cde90a012fe71bf0d9
:10421800100f1ebf2e23ab55013630e7b4fbf1fc5f
:10422800013b01fb1c443034ec540af1ff3a64466c
:1042380035e72a5c1a5401385ee7002cbff69aaebf
:10424800662788e606262de6099b672bfad01f46c7
:10425800062680e6aff30080000000000000f03f73
:10426800000000000000000000002440000014408e
:020000040000fa
:104278002de9f04f95b0cde912030b68089392ed44
:10428800007b4b680a938b6809930b690d93cc6884
:104298000022002351ec170b8ded047b05f0e0f9ab
:1042a80040b9089b580734d4089b13f0080732d04c
:1042b800202306e0dde9042181f00043cde9042351
:1042c8002d232370099b01275a1edde90403dff81b
:1042d800f8b223f000414ff0000a594508bf504595
:1042e8001bd1139b413b192b04eb070094bfb0492a
:1042f800b04905f051fdaf4805f05efc089b0093fe
:104308000246099b1298214604f04efb15b0bde801
:10431800f08f2b23d5e7099ad7e7139b8b45a3f199
:10432800410308bf82450b9309d2192b04eb070000
:1043380094bfa149a14905f02ffda048dce7302131
:10434800e1550b997b1c1a2934bf58217821e15477
:10435800931e079300220023dde90401023705f0cc
:10436800cff9002800f07b819fed8f7b8ded027bdc
:1043780000250a9bdde90289002bdde904abb8bf03
:1043880018230e93002642464b465046594603f0e2
:1043980005fa41ec100b03f0d3ff42464b4651ecb3
:1043a800100b8ded100b03f01dfd02460b46504619
:1043b800594605f00bfd824b82468b4640464946de
:1043c800002203f00ffd731c0c930a9b002b804600
:1043d800894606da002200235046594605f090f92e
:1043e80028b90e9bb34200f3408101330c9300229d
:1043f800744b4046494603f0f5fc80468946024620
:104408000b465046594605f02bf9002840f02f81fd
:1044180042464b465046594605f072f930b1dde93f
:10442800100104f043ffc10740f1218142464b4689
:10443800dde9040102f079ffcde90401dde9042199
:1044480021f00043604900208b4208bf82423ff4bc
:1044580048af4ff000083e46c246c1460d9b053b9b
:10446800b342b34633d9dde90223dde9040103f0a1
:1044780095f941ec100b03f063ff51ec100b8ded37
:104488000e0b04f013ff002840f0f680b9f1000f7e
:1044980000f0f28008f10108dde90223dde90e01f0
:1044a80003f0a0fc02460b46dde9040105f08efc92
:1044b800434bcde904010022dde9020103f092fc3f
:1044c8000c9b09f101094b45cde90201c6d1baf1ae
:1044d800000f1ed1b8f1000f00f015810a9b002bc8
:1044e80040f31181089bda0700f10d81a3192e22f0
:1044f8001a7008eb06022244302100bf03f8011f9e
:104508009a42fbd1079b46446fea080843440136a8
:1045180007930d9b0d990022a019013b954202704b
:10452800b8bf6d42e254c1f1020eb8bf01224ff08c
:104538000a08002d40f0d7800eeb030cbcf1010fe8
:1045480000f0d180002a03f1ff3114bf2d222b2265
:1045580062540b9a023b1a2a04eb030134bf50221f
:1045680070229e420a7001da05f016fc089b03f0df
:104578000303022b14d1079ba3f10208b8f1000f23
:104588000edd204605f018fb04eb0803b84280f264
:10459800b68042463021e01905f050fb002309930c
:1045a8002046a9e6aff30080000000000000f03fbd
:1045b800189d00001c9d0000209d0000249d000007
:1045c8000000b03f000020400000f07fcde90289e4
:1045d8000135dde902231046194602f0a6fe8046a1
:1045e800894602460b46dde9040105f039f8002842
:1045f800ecd0dff82cb1dff82c914ff0000a4ff027
:104608000008dde90223dde9040105f029f80028a6
:104618003ff4afae52465b46dde9020103f0e2fb30
:104628000022002305f06cf878b142464b46dde9dc
:10463800020103f0d7fb4246cde902014b46dde912
:10464800040103f0cffbcde90401dde90201524684
:104658005b4603f0c7fb013dcde90201d1e79fedc1
:104668002e7b05468ded027bb3e70c9e8be64ff063
:1046780000084ff00009d9e6baf1000f0bd1b9f1e3
:10468800000f08d02e2304f80b30079b013b01369e
:1046980007934ff0010a04eb0803a21933443021b1
:1046a80002e000bf02f8011b9a42fbd1079b06eb10
:1046b800080ba3eb08080b9b0928d4bf30305730f0
:1046c800192b06d840f02003613b192b01d805f0bf
:1046d8003efb08f1ff330bf1010604f80b000793ca
:1046e8004ff00008d8e60799b5fbf8fc013b08fb3a
:1046f8001c5530350139e5540791654619e7225ca8
:104708001a54013842e7089bdb067ff502af2e23d7
:10471800a3550136fde600bf000000000000f03f91
:084728000000e03f00005043d7
:020000040000fa
:104730002de9f04f87b0a04b1b782bb101249f4f80
:104740009f4b803301930fe09e4804f01df89a4b75
:1047500001221a70f2e7002005f08cf9804698b922
:104760003b78002b00f0fd81204605f0adfa0028d3
:10477000f6d0204605f01afb04f0dfff10f007002a
:10478000e9d00728ecd1e6e73c7000ebc0028e4d83
:10479000d2000021284605f055fa2a46414600205d
:1047a00004f066fb0028dbd008f1ff385ffa88f8d8
:1047b00008f1010808ebc80805ebc81809e08349af
:1047c00051230b72204604f0bdfd05f5906545456b
:1047d000c6d0ae7906f00f067d4b0fcb0df1180c4d
:1047e0000ce90f00664416f8109c95f808b095f88f
:1047f0000ba0764e48220021304605f023fa33689c
:10480000744a62f31c033360b37964f3030343f027
:104810003003b371b9f1030fd1d9baf13c0fced83f
:104820000af104039945cad3ab7ae22bc7d1bbf195
:10483000a00f15d0bbf1a10f4cd0bbf1a60f00f01b
:104840008680bbf1a20f00f08e80bbf1a30f00f0b9
:1048500064815e4952230b72204604f073fdb4e775
:104860005d4805f0c3f8ea6822f4ff5222f01f0207
:104870002b6923f4ff7323f0010313449a4205d2fa
:10488000b3f5801f02d8baf1080f18d00023534a9d
:104890001360534a13604d4951230b72204604f0b4
:1048a00051fd00234f4a13704f4a13604b4b1a6857
:1048b0004e4b1a604a4b1a684d4b1a6085e74749c0
:1048c0000a60474a1360414950230b72204604f0a6
:1048d00039fde6e7434b1e786b7ab34229d1baf132
:1048e000000f1cd0424b1b6853b33f4bd3f800e082
:1048f00005f10b033f4a72440af1ff3c5ffa8cfc5e
:1049000005f10c00604400bf13f8011f02f8011ffd
:104910008342f9d10ef101036344334a1360013637
:10492000304b1e70294950230b72204604f00afdbb
:104930004be7264955230b72204604f003fd44e75c
:10494000224951230b72204604f0fcfc3de703f0a2
:10495000f8fc1e4950230b72030a4b728872032025
:1049600004f0f0fc31e7baf1000f18d0224bd3f875
:1049700000c005f10b02214961440af1ff33dbb2ab
:1049800005f10c061e4400bf12f8010f01f8010fdb
:10499000b242f9d10cf1010c6344174a1360164b73
:1049a0001b68b3f5887f2bd0084950230b72204633
:1049b00004f0c8fc09e700bf83570020825700209d
:1049c0002c52002010550020fc5500204456002099
:1049d000b89c000000006811b88a000064570020ed
:1049e00068570020845700205c5700205057002053
:1049f00058570020ff1f0020605700203b53002025
:104a0000594804f0f3ff594b00221a60dff89ce18b
:104a1000574ef446bce80f000fc6bce80f000fc6a7
:104a2000bce80f000fc69ce80f0086e80f00a6f157
:104a3000300303f140060ef1400cbce80f000fc636
:104a4000bce80f000fc6bce80f000fc69ce80f00c3
:104a500086e80f0090220ef18001019805f062f8bf
:104a60004448454b43603d230370444b836000f052
:104a700043fea6f170024249424800f055fe424b07
:104a800018701b78002b44d0404804f075ff404e4e
:104a900006f5005bdff81891dff818a118e03d4b30
:104aa0001968504604f0d4fc05f0b8f80028fbd192
:104ab0000023c9f80030374a136803f50073136008
:104ac000354a1368a3f5007313605e453ff46caf7d
:104ad000d9f8003016f8012f0af803200133c9f87d
:104ae0000030b3f5007ff0d12a4b1868c0f30c03f7
:104af000002bd4d105f0f8f805f090f80028fbd190
:104b0000244b186804f0e4ff05f088f80028fbd176
:104b1000c5e7224804f030ff46e74ff4006005f097
:104b2000d3f8c8b91e4950230b72012004f00afcc7
:104b30004ff40064204605f0c7f80028fad0bff310
:104b40004f8f1849ca6802f4e062174b1343cb60d9
:104b5000bff34f8f00bffde74ff4006005f026f96b
:104b6000e0e707b0bde8f08fdc8a00006057002066
:104b70002c52002028570020a08601005059002008
:104b80000000002000200020855700200c8b000032
:104b9000ffffff1f5057002058570020248b0000b4
:104ba0004456002000ed00e00400fa053c530020cc
:084bb000545700202c50002096
:020000040000fa
:104bb80080b58ab000aff860084611461a46034629
:104bc800fb720b463b811346fb8000233b62fb686c
:104bd800002b08d0bb6b002b05d07b6b002b09d1b9
:104be800fb7a002b06d1e22003f0acfe034687f8df
:104bf80027300ee003f00afc38623b6a002b01d034
:104c0800002300e0fb23184603f09cfe034687f8c8
:104c180027303b6a002b00f08a803b6a0722da7053
:104c28003b6afa7a1a713b895bba9ab23b6aa3f873
:104c38000520fb885bba9ab23b6aa3f807203b6a57
:104c48000933fb61fb7a03f00103002b14d17b6b62
:104c58001b885bba9bb2bb82ba8afb691a80fb6964
:104c68000233fb613b8e5bba9bb2bb82ba8afb699b
:104c78001a80fb690233fb6197f90b30002b10dabd
:104c8800fb6b002b05d01022f96bf86904f046ff86
:104c980004e010220021f86904f0d0fffb6910330a
:104ca800fb613b6a0933fa69d31a9bb20a339bb298
:104cb8005bba9ab23b6aa3f80120f968386afdf733
:104cc8009cfc0346184603f03dfe034687f8273050
:104cd80097f82730002b27d13b6abb61bb6b002bb1
:104ce80022d0bb691b889bb25bba9bb2053bfb8297
:104cf8007b6b002b11d07b6b1b88fa8a934228bff1
:104d080013469ab27b6b1a80bb69d91c7b6b1b88d4
:104d18001a46b86b04f002ff06e0bb690333fa8a4f
:104d28001946b86b04f0fafe386a03f0a9fb97f845
:104d3800273018462837bd4680bd80b58cb004aff3
:104d4800f8607a603b600b467b810023bb837b68fd
:104d58001b887b8307f114031946f86803f0bbfa34
:104d68000346fb77fb7f002b47d17b681b881a46dd
:104d78007b699a4211d87a89002303933b6802938e
:104d88007b68019300230093134600220121f868f1
:104d9800fff70eff0346fb772fe07a8b7b69934280
:104da80028bf13469bb27b821fe0bb8b3a68134433
:104db80007f11200ba8b798900930346f86800f06e
:104dc80021f80346fb77fb7f002b12d17b8a7a8b75
:104dd800d31a7b837a8abb8b1344bb837a8b7b6918
:104de800934228bf13469bb27b827b8a002bdcd17f
:104df80000e000bf7b68ba8b1a80fb7f184620371b
:104e0800bd4680bd80b588b004aff8607b600b46b6
:104e18007b8113463b817a8900230393bb69029304
:104e28007b6801933b890093134600220021f868b0
:104e3800fff7befe034618461037bd4680bd80b555
:104e480088b004af786039603023fb810023039376
:104e58003b68029307f10e030193002300934ff47c
:104e68004043002201217868fff7a2fe0346184656
:104e78001037bd4680bd80b58ab004aff8600b46d8
:104e88007a607b817b89b3f5864f04d37b8944f2b2
:104e98000232934205d9e22003f054fd0346fb7524
:104ea80010e07a89002303937b680293002301931f
:104eb80000230093134600220121f868fff778fecb
:104ec8000346fb75fb7d18461837bd4680bd80b587
:104ed80086b000aff8600b467a607b814023fb8286
:104ee80007f1160279897b68f868fff726ff034601
:104ef80018461837bd4680bd80b586b002aff86049
:104f08007b600b46fb7213463b817b689ab207f1c4
:104f18001c003989bb6900930346f868fff772ffe4
:104f2800034618461037bd4680bd80b586b000af31
:104f3800f8600b467a607b814023fb8207f11602fa
:104f480079897b68f868fff7f8fe03461846183732
:104f5800bd4680bd80b588b004aff8607a603b601c
:104f68000b467b817a893b6803937b680293002315
:104f780001930023009300238121f868fff718feae
:104f8800034618461037bd4680bd80b592b000afc5
:104f9800f860b9607a6007f11403302200211846de
:104fa80004f04cfebb68002b02d07b68002b06d1b6
:104fb800e22003f0c7fc034687f8473021e007f1f9
:104fc80014031946f868fff73aff034687f8473095
:104fd80097f84730002b05d097f84730184603f06c
:104fe800b1fc0ee007f1140330221946b86804f04a
:104ff80087fd0346002b0cbf01230023dab27b6830
:0e5008001a7097f8473018464837bd4680bded
:020000040000fa
:1050160080b588b000aff860084611461a460346c8
:10502600fb720b463b811346fb800023fb77002374
:10503600bb61fb68002b05d1e22003f084fc03462c
:10504600fb770de003f0e3f9b861bb69002b01d0f3
:10505600002300e0fb23184603f075fc0346fb77ac
:10506600bb69002b00f09380bb690822da70bb692c
:10507600fa7a1a713b895bba9ab2bb69a3f8052022
:10508600fb885bba9ab2bb69a3f80720bb690933f0
:105096007b61fb7a03f00103002b1ed13b8db3f538
:1050a6007f7f05d9e22003f04efc0346fb7722e022
:1050b6003b8d5bba9bb27b827a8a7b691a807b695d
:1050c60002337b61bb8d5bba9bb27b827a8a7b693a
:1050d6001a807b6902337b610de03b8db3f5806fef
:1050e60009d9fb7a03f08103812b04d0e22003f077
:1050f6002afc0346fb77fb7f002b17d13b8903f481
:105106009043b3f5904f11d13b6b002b04d1e220b5
:1051160003f019fc0346fb773b8d1a46396b786919
:1051260004f0fdfc3b8d7a6913447b61fb7f002b09
:1051360015d1bb6909337a69d31a9bb20a339bb27c
:105146005bba9ab2bb69a3f80120f968b869fdf7a2
:1051560055fa0346184603f0f6fb0346fb77fb7f3a
:10516600002b11d1fb7a03f08103812b0cd17b6bd1
:10517600002b09d0bb697b617b6901337b611022ff
:105186007969786b04f0cbfcb86903f07af9fb7f98
:1051960018462037bd4680bd80b58cb004aff86098
:1051a6007b600b467b8113463b8107f1140319464e
:1051b600f86803f091f80346fb77fb7f002b40d19c
:1051c6003a897b699a4212d87a89002303937b68cd
:1051d6000293002301933b89009313464ff49042b8
:1051e6000121f868fff714ff0346fb7729e0002347
:1051f600bb833b897b837b693b831de0bb8b7a68e2
:105206001344b88b3a8b798900930346f86800f00b
:105216001df80346fb77fb7f002b11d17a8b3b8b66
:10522600d31a7b83ba8b3b8b1344bb837a8b7b6904
:10523600934228bf13463b833b8b002bded100e015
:1052460000bffb7f18462037bd4680bd80b588b0bd
:1052560004aff860084611461a4603467b810b46a2
:105266003b811346fb807a8900230393bb69029333
:10527600fb8801933b89009313464ff4904200212b
:10528600f868fff7c5fe034618461037bd4680bdd1
:1052960080b582b000af786039603b6830224ff449
:1052a60040417868fff778ff034618460837bd4641
:1052b60080bd80b584b000aff8600b467a607b8114
:1052c60079897b684022f868fff766ff034618462f
:1052d6001037bd4680bd80b586b002af78600846ff
:1052e60011461a460346fb700b463b801346bb70bd
:1052f600bb78da003b7e13449bb29b00fb8197f898
:1053060020309ab2f8893988fb6900930346786899
:10531600fff79cff034618461037bd4680bd80b593
:1053260086b002aff8607b600b46fb7213463b818a
:105336007b68002b0cd1fb69b3f5806f08d2fb6943
:105346009ab23989bb69f868fff726ff03460be076
:10535600fb699ab27b6898b23989bb6900930346a8
:10536600f868fff773ff034618461037bd4680bd41
:1053760080b586b000aff8600b467a607b817b898a
:10538600b3f5864f04d37b8944f20232934205d9a2
:10539600e22003f0d8fa0346fb7507e079897b68bb
:1053a6000122f868fff7f8fe0346fb75fb7d1846f9
:1053b6001837bd4680bd80b586b004af78600b4611
:1053c6007b8013463b8039887a8800230393002329
:1053d600029300230193002300930b460021786873
:1053e600fff716fe034618460837bd4680bd80b552
:1053f60084b000aff8607b600b467b8113463b812f
:105406003a8979897b68f868fff7c6fe034618462d
:105416001037bd4680bd80b584b000aff8607b60b4
:105426000b467b8113463b813a8979897b68f8680c
:0e543600fff7b2fe034618461037bd4680bd94
:020000040000fa
:1054440080b586b000af78600023fb7202f024f9c7
:105454001b4b1b88194607f10b031a46fcf797fbf5
:105464000346fb75fb7a012b1ad000233b73002300
:105474007b730023bb730023fb7300233b74002363
:105484007b745523bb740023fb7402f005f90c4ba9
:105494001b8807f10c02194601f0aefe0346fb75aa
:1054a40002f0faf8064b19887b6840334022fff774
:1054b400b3ff0346fb7500bf1837bd4680bd00bf70
:1054c400e458002080b584b000af0023fb7002f0e4
:1054d400e3f81b4b1b881946fb1c1a46fcf757fbc9
:1054e4000346fb73fb78012b1bd0e2233b710023a3
:1054f4007b71002343f00603bb710023fb7100237f
:105504003b7200237b724523bb720023fb7202f0c3
:10551400c3f80b4b1b883a1d194601f06dfe034678
:10552400fb7302f0b9f8064b1988064b1022fff7fb
:1055340034fe0346fb7300bf1037bd4680bd00bf79
:10554400e8580020dc84000080b584b000af00235c
:10555400fb7002f0a1f81b4b1b881946fb1c1a4672
:10556400fcf715fb0346fb73fb78012b1bd0e223ee
:105574003b7100237b71002343f00603bb710023be
:10558400fb7100233b7200237b724523bb72002313
:10559400fb7202f081f80b4b1b883a1d194601f08f
:1055a4002bfe0346fb7302f077f8064b1988064b73
:1055b4001022fff7f2fd0346fb7300bf1037bd4610
:1055c40080bd00bfea580020ec840000b0b58eb066
:1055d40004af7860396002f05ff8244b1b88002226
:1055e4001946fdf72cfe4ff40053fb614ff4797319
:1055f400bb6100237b6200237b6100233b610023aa
:105604003b622ae0fa697b6ad31a7b61ba697b69d7
:105614009342a8bf13463b6102f03ef805463b6a3d
:10562400134a13447a6a79680a44396989b2786af0
:105634003c68204403900291019200930d4b002298
:1056440000212846fdf768fe0346fb737a6a3b692e
:1056540013447b623b6a10333b627a6afb699a4269
:10566400d0db00bf2837bd46b0bd00bfe8580020de
:105674004c540020fc84000090b58bb002af7860dd
:10568400396090237b6110233b610023fb6100237d
:10569400fb600023bb600023bb6121e07a69fb69e6
:1056a400d31afb603a69fb689342a8bf1346bb60f8
:1056b40001f0f2ff04460e4b1988fb697a68d01892
:1056c400fb693a6813440093034600222046fdf721
:1056d40085fdfa69bb681344fb61bb691033bb6188
:1056e400fa697b699a42d9db00bf2437bd4690bd75
:1056f400ea58002080b483b000af78607b681a78e1
:10570400074b5a717b685b68054a93607b689b68aa
:10571400034ad36200bf0c37bd465df8047b704773
:10572400b458002090b593b008aff860b9607a60bf
:10573400414801f065ff03461a46404b1a7001f0d8
:10574400abff03463e491846fcf7caf903461a461e
:105754003a4b1a707868fff773fefff7b3fefff752
:10576400f3fe7b68803337491846fff785ffb96835
:10577400f868fff72bff01f08fff03461846fef78a
:1057840079f94ff400533b624ff48063fb610023cb
:105794007b620023bb6100237b6117e03a6a7b6a6a
:1057a400d31abb61fa69bb699342a8bf13467b61f4
:1057b40001f072ff7b6999b27b6aba6813441a4696
:1057c400fef786f97a6a7b6913447b627a6a3b6adc
:1057d4009a42e3db01f060ff03461b491846fef7db
:1057e400baf901f059ff0446184b18887b687a68a7
:1057f40040321749069140210591049220220392d8
:10580400114a029240220192009303464ff49042bf
:105814000021204601f02bf80346fb74fb7c002b8f
:1058240005d10b4b1b78002b01d0012300e0002392
:1058340018462c37bd4690bdb4580020dc540020d7
:10584400e05400204c540020e8540020e458002088
:0458540008550020d3
:020000040000fa
:10585800f05600201c00000000000000000000209e
:105868000020000000000000105500209c000000ef
:105878000000000082570020030000000000000024
:105888005057002004000000000000002c500020a9
:10589800000200000000000054570020080000002b
:1058a80000000000285700200c0000000000000045
:1058b8005c570020040000000000000000200020c9
:1058c8000020000000000000fc55002048000000f7
:1058d800000000002c520020200200000000000000
:1058e800605700200400000000000000445600201b
:1058f8004800000000000000645700200800000075
:105908000000000085570020010000000000000092
:10591800505900201000000001000000f99c000010
:10592800719d0000fd970000299900000c57002088
:105938001c0000000000000080570020020000004a
:105948000000000086570020010000000000000051
:10595800c45600202c00000000000000b4580020ad
:1059680038000000010000000310000000000000e3
:10597800000000000000000000000000000000001f
:10598800000000000000000000000000dc0500002e
:105998001400000000000000148015801680178095
:1059a8004c540020c400000000000000004000200b
:1059b800240c0000000000008c5600203800000075
:1059c800000000006c5700200400000000000000e8
:1059d800ec580020240000000100000031630000a2
:1059e8007b630000016400009d64000021650000e5
:1059f8006d65000003000000ec5800200000000066
:105a0800605900200c000000010000002b2f3d40d1
:105a18002b2f3d4c2d5f0000705700200400000024
:105a280000000000ac5500205000000000000000fd
:105a380010590020200000000100000001000000b3
