:020000040000fa
:10000000f0ff032031190000672100002f280000b5
:10001000d72900001b2a00004d2a00000000000024
:100020000000000000000000000000002f19000088
:1000300087290000000000002f1900002f19000080
:100040002f1900002f1900002f1900002f19000090
:100050002f1900002f1900002f1900002f19000080
:100060002f1900002f1900002f190000e9250000aa
:1000700009270000292700002f1900002f19000070
:100080002f1900002f1900002f1900002f19000050
:100090002f1900002f1900002f1900002f19000040
:1000a0002f1900002f1900002f1900002f19000030
:1000b0002f1900002f1900002f190000092a000035
:1000c0002f1900002f1900002f1900002f19000010
:1000d0002f1900002f1900002f1900002f19000000
:1000e0002f1900002f190000000000000000000080
:1000f000000000002f1900002f1900002f19000028
:100100002f1900002f1900002f1900002f190000cf
:100110002f1900002f1900002f1900002f190000bf
:100120002f1900002f1900002f1900002f190000af
:100130002f1900002f1900002f1900002f1900009f
:100140002f1900002f1900002f1900002f1900008f
:100150002f1900002f19000031100000311000008d
:1001600031100000311000002f1900002f1900007d
:100170002f1900002f1900002f1900002f1900005f
:100180002f1900002f1900002f1900002f1900004f
:100190002f1900002f1900002f1900002f1900003f
:1001a0002f1900002f1900002f1900002f1900002f
:1001b0002f1900002f1900002f1900002f1900001f
:1001c0002f1900002f1900002f1900002f1900000f
:1001d0002f1900002f1900002f1900002f190000ff
:1001e0002f1900002f1900002f1900002f190000ef
:1001f0002f1900002f1900002f1900002f190000df
:100200002f1900002f1900002f1900002f190000ce
:100210002f1900002f1900002f1900002f190000be
:100220002f1900002f1900002f1900002f190000ae
:100230002f1900002f19000000000000000000002e
:100240002f1900002f1900002f1900002f1900008e
:100250002f1900002f1900002f1900002f1900007e
:040260002f19000052
:020000040000fa
:10026400f8b500bff8bc08bc9e4670479123000057
:10027400f8b500bff8bc08bc9e4670476d2300006b
:020000040000fa
:08028400c006000001000000ab
:020000040000fa
:04028c000020704797
:020000040000fa
:100290002de980489fb06422002105a802f056fb9a
:1002a000002001f0adff0021b34802f09bfb0023ca
:1002b000adf810308df8123001238df81030032284
:1002c00004a9182002f0aef8ac4b1a78002afcd032
:1002d000aa4b00221a7008238df8103003238df8e2
:1002e0001130022204a9182002f09cf8a34b1a78be
:1002f000002afcd00024a14b1c702246a0492046b5
:1003000002f042fb22469f49204602f00df92246a8
:100310009d49012002f008f921469c4802f05cfb4f
:100320009b4c9c4d0fcd0fc40fcd0fc495e807001b
:1003300003c4227002f07cfa974c4ff00008dff8fb
:100340009c920ff22c2bdbe900ab32e0934b1b7835
:1003500023b1934b1b78002b40f08180914b1b788d
:100360003bb3904b00221a708f4b1b78002b00f090
:100370009980012b00f09e80022b00f0a380032bbc
:1003800000f0a880002002f0a5fa874b1a7802eb53
:100390008202864b03eb8202854905a802f03afaf5
:1003a00005a802f051fa0346824a05a9002001f08f
:1003b000c9f82378002bc9d0784b1b78002b40f06c
:1003c00091806e4b1b78002bf3d06c4b00221a707f
:1003d000744b1b78002b40f09180774a107800f026
:1003e0001f03507800eb0320b0f5805fa8bfa0f595
:1003f0000050724e3578edb202f075f942464b4628
:1004000000f0f4fe01f022ff02f074f852465b4661
:1004100000f0ecfe00226a4b00f0f2fb01f016ff48
:1004200007ee900afceee77acded037a9df80c20fa
:1004300064495748284402f0edf900233370624bb9
:100440004ff40012c3f81c21514d284602f0fcf96c
:100450000346584a2946002001f074f8a9e7002510
:100460004e4b1d704e4b1d70574b4ff40012c3f88e
:100470001c21524f38784c4b1a7802eb8202444ec2
:100480004a4b03eb82025149304402f0c3f93d70fc
:10049000304602f0d9f90346464a3146284601f073
:1004a00051f85be7404b01221a704ff4806002f074
:1004b0001bfa67e73c4b02221a704ff4006002f00f
:1004c00013fa5fe7384b03221a704ff4805002f0a2
:1004d0000bfa57e7344b00221a704ff4007002f009
:1004e00003fa4fe72d4b00221a7002230093324b80
:1004f00001223749182001f0afff62e70020294ba5
:10050000187002f0e7f9284b1b7843b1012b1cd07f
:10051000022b65d0032b75d002f08af994e7224ba9
:1005200001221a701a4d2b4e0fce0fc50fce0fc5dc
:1005300096e8030045f8040b25f8021b090c297006
:100540004ff4806002f0d0f9e6e7174b02221a70f0
:100550000f4d214e0fce0fc50fce0fc596e80300ed
:1005600085e803004ff4006002f0bef9d4e700bf55
:10057000cdccccccccccfc3f2529000029060020da
:1005800011290000c127000019180000fd280000f3
:10059000c80400201c1300002a06002028060020a2
:1005a0001d070020270600202b06002078200000d1
:1005b00064130000280000432406002026060020c3
:1005c000000040408c1300000080004148130000f0
:1005d0001c070020a4130000cc1300000000b03f53
:1005e000124b03221a70124d124e0fce0fc50fceb2
:1005f0000fc596e8030085e803004ff4805002f031
:1006000073f989e7094b00221a70094d0a4e0fce83
:100610000fc50fce0fc596e8030045f8040b2970ef
:100620004ff4007002f060f976e700bf2b0600205f
:0c063000c8040020f41300001c1400009b
:020000040000fa
:10063c002de9f041aeb00646154605910027059907
:10064c000b78002b00f0fa8000244ff0ff33cde93b
:10065c0009430eab0c9380230b940d930b5d0bb1e4
:10066c00252b26d134b12246304601f0b7fe059b2e
:10067c0023440593059b1a78252a40f0d78003f173
:10068c000108cdf81480059803782b2b1ad025d8a7
:10069c00202b1bd0232b1dd02a2b27d001f01cfe86
:1006ac000b90059b1a78303a092a2ed80133059302
:1006bc00f7e70134d2e7099b43f0010301300993ba
:1006cc000590e0e7099b43f00403f7e7099b43f02f
:1006dc000803f3e7099b43f01003efe72d2bead057
:1006ec00302bd9d1099b43f00203e7e72b681a1d85
:1006fc001b682a600130002b05900b9305da099ad0
:10070c005b4282f0010209920b93099bda0744bf0a
:10071c0023f002030993059b1a782e2a0dd100228f
:10072c00581c0a9205905a782a2a25d1023305932f
:10073c002b681a1d1b682a600a9305a801f030fe6d
:10074c00059b0390187802f039f96928039979d040
:10075c0032dc632800f0cb8019dc252800f0d9802e
:10076c00612853d000234ff0ff32cdf81480099349
:10077c000b930a920093d4e001f0aefd0a90059b16
:10078c001a78303a092ad8d801330593f7e7642848
:10079c0058d06728e6dc2a4606a801f04bff002853
:1007ac0000f0a180059b5a1c05921b7806aa09a98a
:1007bc00304602f03df938e0702873d015dc6e2815
:1007cc0000f08c806f28cdd12b46002206a800f0bb
:1007dc0027ff002800f08780059b06aa013309a992
:1007ec003046059302f022f91fe075283ad078289c
:1007fc0048d07328b6d1802975d1059b2a6801335e
:10080c000593131d2b60126800237de02a4606a871
:10081c0001f010ff002866d0059b5a1c05921b782e
:10082c0006aa09a9304602f003f904443c44a74245
:10083c007add3e4b4f221a604ff0ff3738462eb010
:10084c00bde8f0812b46012206a800f0e9fe002845
:10085c0049d0059b06aa013309a93046059300f03f
:10086c0035ffe2e72b46002206a800f0d9fe00284f
:10087c0039d0059b06aa013309a93046059302f02d
:10088c00d5f8d2e72b46002206a800f0c9fe50b3db
:10089c00059b5a1c05921b7806aa09a9304602f042
:1008ac00c7f8c2e72b460022f02106a800f0b8fedc
:1008bc00c8b1059b01330593dde9062313430bd126
:1008cc001b4801f0bbff099b009319490b9b024687
:1008dc00304601f0adf8a8e77823dde72b463a194e
:1008ec0006a801f067f9059b013305939ee7802963
:1008fc00f9d1059b013305932b681a1d1b682a60df
:10090c008df8183006aa012309a9304601f058fbce
:10091c008be78029e7d1059b01330593099b009355
:10092c000b9b04490122d3e7274688e61c060020ce
:08093c00122a0000182a000035
:020000040000fa
:100944002de9f04f099f154604468e461e46002b9e
:1009540040f0cc808a42b2fa82fc4cd9bcf1000f40
:100964000bd0ccf1200801fa0cfe20fa08f802faa8
:100974000cf548ea0e0e00fa0cf44fea15491ffa7a
:1009840085f8befbf9fa210c09fb1ae30afb08fb04
:1009940041ea03439b452ad9eb180af1ff3004d2fc
:1009a4009b4502d9aaf102002b44a3eb0b03a4b28a
:1009b400b3fbf9f209fb123302fb08f844ea0344df
:1009c400a04516d92c1902f1ff3303d2a04501d951
:1009d400931e2c44a4eb080443ea004027b124faf4
:1009e4000cf400233c607b603146bde8f08f504638
:1009f400dbe71346eee702b9ffdebcf1000f2ed1b0
:100a04008b1a01264fea154eaab2b3fbfef8210c4d
:100a14000efb183308fb02f941ea0343994561d9f7
:100a2400eb1808f1ff3004d2994502d9a8f102006d
:100a34002b44a3eb0903a4b2b3fbfef10efb113369
:100a44004a4344ea0344a2424ed92c1901f1ff332c
:100a540003d2a24201d98b1e2c44a41abce7ccf1c8
:100a6400200e02fa0cf521fa0ef901fa0cf320fa21
:100a74000efe4eea03034fea154800fa0cf4b9fbe4
:100a8400f8f11ffa85fe08fb1192180c01fb0ef613
:100a940040ea0242964221d9aa1801f1ff3003d25a
:100aa400964201d9881e2a44921b9bb2b2fbf8f9e4
:100ab40008fb192209fb0efe43ea02439e450fd9a7
:100ac400eb1809f1ff3604d29e4502d9a9f10206ba
:100ad4002b44a3eb0e0346ea004693e70846e3e7fc
:100ae4004e46f6e74046a4e70b46b6e78b4206d9e6
:100af400002f7ed00026c7e90001304674e7b3fa20
:100b040083fcbcf1000f0fd18b4201d3824209d880
:100b1400841a61eb030e0120002f6dd0c7e9004e4b
:100b2400002661e76046f7e7ccf1200e03fa0cf3e8
:100b340022fa0ef521fa0ef41d4301fa0cf320fa01
:100b44000ef10b434fea154a00fa0cf6b4fbfaf91e
:100b54001ffa85f80afb19401c0c09fb08f144ea4a
:100b64000044a14202fa0cf23fd92c1909f1ff30da
:100b740004d2a14202d9a9f102002c44641a9bb206
:100b8400b4fbfaf90afb194409fb08f843ea0441e7
:100b940088452cd9691809f1ff3304d2884502d954
:100ba400a9f10203294443ea0040a1eb0801a0fb98
:100bb40002894945c2464c4602d306d1464504d271
:100bc400b8eb020a69eb05040138afb1b6eb0a03ce
:100bd40061eb040606fa0efe23fa0cf34eea030355
:100be40026fa0cf6c7e900369ae74846c6e74b46ac
:0c0bf400d9e73e463846f7e63e46f5e6f7
:020000040000fa
:100c000030b591ea030f00f18280841a71eb030c76
:100c100005d2121953eb0c03001b71eb0c0140f2cf
:100c2000000ccff6e07c1cea430f52d0bceb410f26
:100c30005fd90c0da4eb135e5ff0010c6cf31f5138
:100c40006cf31f53def1200c2ad303fa0cf5401984
:100c500041f1000122fa0ef5401923fa0ef569411f
:100c600012fa0cf2cd0208d349085fea30005feabd
:100c7000320228bf42f001020134013c5fea500c0d
:100c800072f1004250f1000051eb04514ff4001397
:100c900013eb410f38bf30bd6ff31301002030bd9f
:100ca000bef1200ebef1200f1ed223fa0ef5401920
:100cb00041f10001cef1200c124218bf012203facb
:100cc0000cf52a43cee711ea5c0f04bf0020002197
:100cd00030bd1cea410f04bf01f00041002030bdcf
:100ce00001f00041002030bd21f4801101eb0451de
:100cf00030bd004218bf41f00101bceb410f08bffd
:100d000030bd4ff0fe4141f47801002030bd83f04a
:100d10000043841a71eb030e07d28ef0004e001bc5
:100d200071eb0e01121953eb0e0340f2000ccff6db
:100d3000e07c1cea430fc6d0bceb410f72d90c0d0e
:100d4000a4eb135ec90241ea5051c00241f00041d8
:100d5000db0243ea5253d20243f00043def1200c9f
:100d600041d312fa0cf522fa0ef203fa0cf542ea1c
:100d7000050218bf42f0010223fa0ef3801a9941ce
:100d8000e30ac4f30a0411f0404f03d418d0013c25
:100d900040004941013c23d44205c00a40ea415089
:100da000c90a51eac3715fea500c72f1004250f176
:100db000000051eb045130bd01002fd00020203c39
:100dc0000029f9d0b1fa81fcdcf1200e11fa0cf106
:100dd00030fa0ef510fa0cf02943a4eb0c04d9e715
:100de0000020d90730bdaef1200ebef1200f0dd28c
:100df000cef1200c03fa0cf533fa0ef32a4318bf98
:100e000043f00103c01a61f10001b9e721f000418c
:100e1000c00a40ea4150c90a01eb045130bd00202c
:100e2000002130bd004218bf41f00101bceb410f71
:0e0e30007ff467afbceb430f3ff463af30bd00
:020000040000fa
:020e3e007047fb
:020000040000fa
:100e4000a80500201c00000000000000c8050020cc
:100e5000300000000000000008040020c000000076
:100e600000000000f80500200c0000000000000059
:100e70007c0500202c000000000000002606002059
:100e80000200000000000000240600200200000014
:100e90000000000028060020040000000000000000
:100ea000c804002064000000000000001c070020af
:100eb000020000000100000005010000c405002040
:100ec00004000000000000002c050020500000007d
:100ed000000000002c0600206c0000000100000053
:100ee00038060020340600203806002000000000ec
:100ef00025000000080000200004000000000000a1
:100f000000000000000000000000000000000000e1
:100f1000000000000000000000000000412a000066
:100f200000000000000000000000000000000000c1
:100f3000fd1d000000000000000000000000000097
:100f40000000000000000000000000000000002081
:100f50000804000000000000f80600202000000047
:100f6000010000000100000003000000000000007c
:100f70000000000000000000000000000000000071
:100f800010060020100600201000000000000000e5
:100f90009806002060000000010000000100000031
:100fa000030000000000000000000000000000003e
:100fb0000000000000000000191f000000000000f9
:100fc00000000000000000002d2a0000532a00004d
:100fd0000000000000000000000000000000000011
:100fe0000000000000000000000000000000000001
:100ff00000000000000000000000000018070020b2
:101000000400000001000000010000002006002094
:101010000400000000000000040600200c00000096
:101020000000000000000000000000006666666628
:020000040000fa
:101030006c4b9b7d002b00f0d38010b56a4b9c6af3
:10104000684b5b8b13f0020f16d0674bff2283f8bf
:101050002020022283f82120634b93f820305bb2da
:10106000b3f1ff3f00f08a805f4b93f820305bb212
:10107000062b00f09c8010bd5a4b5b8b13f0010fc8
:1010800007d0594bff2283f82020022283f8212029
:10109000e2e7544b5b8b13f0040f07d0524bff2257
:1010a00083f82020012283f82120d5e74e4b93f8c6
:1010b00020305bb2032b42d0042b10d0022bcbd1bb
:1010c000494b1b692bb1484b9888002101f072f8fd
:1010d000c2e7454b9888012101f06cf8bce7424a11
:1010e000936912699a420bd03f4a9268d15c3d4a9b
:1010f0009162591cd369002bfcd13b4b9961abe742
:10110000394b5b6973b1384b9b885b0043f001033b
:10111000344a5362d369002bfcd1334b032283f84a
:10112000202099e72f4a536843f440335360d36932
:10113000002bfcd12c4b062283f820208ce72a4b75
:10114000d9695b69013b8b420bd0264ad369002bde
:10115000fcd1244b986a244bda6850540131d96190
:101160007ae7204a536843f4e0235360d369002ba5
:10117000fcd11d4b062283f82020e6e71a4b002203
:1011800083f82020174a536843f440335360d369ef
:10119000002bfcd1134b83221a76134b5b6a002b76
:1011a0003ff469af104b5b6a2046984763e70e4bec
:1011b000002283f8202083f821200a4b83221a760c
:1011c0001a46538b03f03003102bfad1064b5b6a9f
:1011d000002b3ff450af044b5b6a204698474ae728
:0c11e000704700bf000800437c050020a1
:020000040000fa
:1011ec00f0b540f2ff7681ea030c16ea115e1ebfe1
:1011fc00b64516ea1355b54252d021ea465141f490
:10120c008011a1fb024723ea465343f48013ae44fa
:10121c00a0fb03650cf0004c36197d41a1fb034784
:10122c0047f10003a0fb0217f619654153f10003c7
:10123c00094218bf46f0010640f2fe74b3f5007f78
:10124c0013d2aef5806ea64523d24cea03312803a7
:10125c0041ea155140ea16503203450872f100423a
:10126c0050f1000051eb0e51f0bdaef2ff3ea64521
:10127c000fd24ceac321e80241ea555140ea5650dc
:10128c00f202450872f1004250f1000051eb0e5190
:10129c00f0bd1eea0e0f2dd50cf000410020f0bd64
:1012ac0016ea115f04bf01f000410020004218bf94
:1012bc0041f0010116ea135f04bf03f00043002262
:1012cc00124218bf43f0010306ea1354b44218bf8c
:1012dc00b64503d00cf000410020f0bd21f00041d8
:1012ec0023f00043b1eb065f0cd8b3eb065f09d8d3
:1012fc0041b13bb10cf0004141f0fe4141f47001b1
:10130c000020f0bd40f20001c7f6f8710020f0bdde
:020000040000fa
:10131c00546f67676c696e67204c4544206174207c
:10132c00353030206d696c6c697365636f6e6473f6
:10133c002072617465200d0a00000000546f67670d
:10134c006c696e67204c45442061742025732072b3
:10135c00617465200d0a00004c454420546f67678a
:10136c006c696e67207261746520697320636861b3
:10137c006e67656420746f2025730d0a00000000f1
:10138c0054656d7065726174757265203d202530f1
:10139c00326420460d0a000053616d706c696e67f3
:1013ac002054656d70657261747572652065766523
:1013bc0072792031207365636f6e64200d0a000012
:1013cc0053616d706c696e672054656d70657261e8
:1013dc007475726520657665727920322073656349
:1013ec006f6e6473200d0a0053616d706c696e67cb
:1013fc002054656d706572617475726520657665d3
:10140c0072792034207365636f6e6473200d0a004b
:10141c0053616d706c696e672054656d7065726197
:10142c007475726520657665727920353030206d63
:08143c0073200d0a000000bf3f
:020000040000fa
:10144400384b00221a7403f50063374a9a621a462d
:10145400536813f0100ffbd1344b4222c3f884209d
:101464001a4600bfd2f8843013f0400ffad0304b44
:1014740000229a6377225a631a46d36b13f0040f3f
:10148400fbd12b4b022283f830201a46d36b13f086
:10149400020ffbd1264a136c03f00303032bfad18a
:1014a400244b01225a711a46d37813f0010ffbd052
:1014b4001e4b214a1a621a46536813f0040ffbd1db
:1014c4001a4b1e4a5a621a46536813f0080ffbd18e
:1014d400164b4122c3f890201a4600bfd2f8903030
:1014e40013f0400ffad0114b4122c3f808211a46d9
:1014f400d2f8083113f0400ffad00c4b4122c3f854
:1015040010211a46d2f8103113f0400ffad0094bcb
:101514006ff07f421a6140f2ff725a6105221a622b
:10152400704700bf0014004006013000001c00405a
:1015340000100040000800400701010007010200fc
:020000040000fa
:1015440070b40401354d25442d7b04f1824404f527
:10155400204494f84e4014f0030f02d1edb2002d54
:1015640055d1040104f1824505f52045032685f88b
:101574004e602a4d254401262e73294d2c5b14f40c
:10158400806f19bfc91805eb0014254c04eb001437
:1015940061600101224c615a11f4006f27d01a4492
:1015a40004eb00118a601e4902018c18895a9bb20f
:1015b400c1f301210b419bb2638002f1824303f525
:1015c40020431a6c42f002021a641a6c12f4fe4fa1
:1015d4001fd193f8463013f0400f1dd111490c6907
:1015e400012202fa00f323430b61104612e00d4975
:1015f400498811f4404f04d1094901eb00118a6074
:10160400d1e71168064a02eb00129160cbe7002093
:1016140000e0012070bc70470120fbe7d8050020e2
:08162400c805002000a00041f0
:020000040000fa
:10162c00882910b536d012dc812943d003dc8029ff
:10163c0040d0002010bd82290ed08429f9d1196820
:10164c0002b30a1d1a60b1f90020d3171ee0a029bd
:10165c002bd00bdc9029ecd11968073121f0070154
:10166c0001f108021a60d1e900230fe0c02901d072
:10167c00f029ded11a68111d19601368036000236c
:10168c00436005e00a1d1a600a880023c0e90023a4
:10169c000120cfe7196822b10a1d1a6091f90020c8
:1016ac00d3e70a1d1a600a78efe71a68111d196052
:1016bc001268cae719681ab10a1d1a600a68c4e7e9
:0c16cc000c1d1c600b68c0e90032e1e757
:020000040000fa
:1016d8002de9f041d2e900230c4686b007465feabf
:1016e800d37820684968a5680590e66841d05242d9
:1016f80063eb4303002908db20f002000590b8f1f2
:10170800000f02d1059948072ad5691e05a802903d
:101718000a20cde90010204600f08cfab8f1000f3d
:1017280002d1059b59071fd5b8f1000f00f1ff3012
:1017380014bf2d232b2333542269059b0093013ab0
:101748002b46121a3118384600f074f97b68db050d
:1017580003d563689842b8bf184606b0bde8f08163
:101768000807d2d42946d1e71a07e5d5013820233e
:08177800e1e70029c0dac5e732
:020000040000fa
:10178000234ad36823f4e0631b041b0c43f0bf63bc
:1017900043f40033d360bff35f8f62b61d4be0218b
:1017a00083f80b134ff40060186083f80c134ff4a8
:1017b0008050186083f80d134ff40050186083f8c0
:1017c0001f134ff00040186083f8461340209860c4
:1017d00083f847138020986083f848134ff4807093
:1017e000986083f849134ff400719960536a43f489
:1017f00080235362536943f010035361536a43f4e7
:1018000000335362536a43f480335362704700bf1e
:0818100000ed00e000e100e042
:020000040000fa
:101818001c4bd3f8a03113f0020f32d070b51a4b1d
:101828001b78bbb9184b01221a70184e3446184d54
:101838000fcd0fc40fcd0fc40fcd0fc42b6824f8e4
:10184800023b1b0c2370304600f0faffc0b2114b6c
:10185800187070bd0c4b00221a700c4e34460e4d99
:101868000fcd0fc40fcd0fc40fcd0fc495e80700df
:1018780003c42270304600f0e3ffc0b2054b187075
:10188800e7e77047008000412a060020c8040020ce
:0c1898002c1d000026060020601d000032
:020000040000fa
:1018a4002de9ff41836946690093f61acde9016188
:1018b40004461746039216444ff002086d4642460a
:1018c4002946206800f0e4feb04209d1d4e902328e
:1018d400c4e905331a44a262384604b0bde8f08175
:1018e40000280dda6268002342f01002b8f1020ffa
:1018f400a362c4e90533626015d06b68ff1aebe795
:101904006b68984288bf0835a6eb000688bfc01aea
:101914002b6803442b606b68a3eb000088bf08f1bd
:0a192400ff386860cbe71f46d6e7e6
:020000040000fa
:02192e00fee7d2
:020000040000fa
:1019300008b5194b9847194b9847eff3108172b6c9
:10194000174ad2f8883043f47003c2f88830bff3e6
:101950004f8fbff36f8f01b962b6124a936823f0bd
:10196000010393601346da6812f0010ffbd10d4baf
:1019700024225a6001229a6000f0a2fd0a4b23f053
:101980007f03074a9360094b9847094b9847094bd7
:101990009847fef77dfcfee72b1d00002b1d000085
:1019a00000ed00e00060004100000000bd1e0000ee
:0819b0002b1d00002b1d00009f
:020000040000fa
:1019b80010b582b000230193030103f1824303f5bc
:1019c800204393f84e30dbb20193019b13f0020fd2
:1019d8000dd0010101f1824202f52042022382f872
:1019e8004e30134b0b4400221a73012400e00224ea
:1019f800019b13f0010f0cd0010101f1824202f5a5
:101a08002042012382f84e30094b0b4400221a73fe
:101a18000224074b03eb00135b6833b1044a02eb63
:101a2800001399685b682046984702b010bd00bf54
:041a3800d8050020ad
:020000040000fa
:101a3c002de9ff471d460c9b13f0010906468a460b
:101a4c00144601d195420bd822465146304600f03f
:101a5c00c5fca54204d82546284604b0bde8f0874d
:101a6c002f1b102f3a464ff0200128bf102268463a
:101a7c00b84600f065ff00bfb8f10f0f11d83b0955
:101a8c006ff00f0202fb03726946304600f0a6fcb1
:101a9c00b9f1000fe0d122465146304600f09efcd1
:101aac00dae710226946304600f098fca8f11008dd
:041abc00e2e700bf9e
:020000040000fa
:101ac000f0b51f4c2568a446002d36d000222946cb
:101ad00016461346d1f800e00f6986450ad132b1a7
:101ae000176101f110031846f0bd3946f2e7ccf852
:101af0000070f6e705d9ebb11c68a6453cbf164659
:101b00000b460a46002ff0d1002becd019461f6976
:101b100051f8102b121a102a05d918600844103aef
:101b20000761026007469d420cbfccf80070376128
:101b30000b46d8e716460b46e3e72b46d3e700bf34
:041b4000200600205b
:020000040000fa
:101b44001c4a137843f001031370536813f0010f18
:101b5400fbd118499923cb6100220a6203230b634a
:101b64004a630b61144b1a8101229a8210221a844f
:101b74009a851a87a3f84420a3f85020a3f85c2080
:101b8400a3f86820a3f87420a3f88020a3f88c207d
:101b9400a3f89820a3f8a420a3f8b020a3f8bc20ad
:101ba4000b7843f002030b700a46536813f0020fdc
:0c1bb400fbd1704700280040080400200e
:020000040000fa
:101bc000842910b523d00cdc812903d0822913d0bd
:101bd00080290bd119680c1d1c600b6803601a600a
:101be00013e0902921d003dc882917d0002010bdf4
:101bf000a029efd0c029ece719680c1d1c600b6808
:101c00000360d1171046c3e900010120efe719680e
:101c10000c1d1c600b6803601a80f6e719680c1d28
:101c20001c600b6803601a70efe719680c1d1c60dc
:0c1c300009680160d317c1e90023e6e752
:020000040000fa
:101c3c002de9f84f04460c9f6668d4f80cb0246963
:101c4c0010463a68013c002502f0020a0b9a0bf888
:101c5c000450002e1946b8bf0126012390464feac6
:101c6c00e279002c03dcd3b12046bde8f88f50eab2
:101c7c00010209d1721b002a06dc0a9a521b002aa7
:101c8c00f1ddbaf1000feed042464b4600f076fc87
:101c9c00013c134630320bf804200135e1e73b6878
:081cac0023f010033b60dfe7a9
:020000040000fa
:101cb400f8b5846a05460f46164654b1ab6a6a699c
:101cc4009b1ab3420bd2324639462846fff7e8fd49
:101cd400f8bd00f0c3fd0028f0d02046f8e7002e40
:101ce400f1d095f93430002b1bdbdbb23446621e95
:101cf400b95c994212d1224639462846fff7d0fdf5
:101d0400a042e5d32744341b22463946686900f0d3
:101d140063fd6b691c446c613046d9e71446002aa4
:061d2400e5d13446f0e7b2
:020000040000fa
:021d2a00704700
:020000040000fa
:101d2c002a2a2a2a2a2a2a2a2a2a2a2a2a205072a3
:101d3c00696e74696e672054656d70657261747537
:101d4c007265202a2a2a2a2a2a2a2a2a2a2a2a2a6e
:101d5c000d0a00002a2a2a2a2a2a2a2a2a2a2a2a68
:101d6c002a205072696e74696e6720546f67676cb5
:101d7c00696e67204c45442072617465202a2a2aba
:101d8c002a2a2a2a2a2a2a2a2a2a0d0a000000bfcd
:020000040000fa
:101d9c00144b01221a601a46d369002bfcd1114b4b
:101dac004ff480725a601a46d369002bfcd10d4b4c
:101dbc00ff22da600c4a1a601a46d369002bfcd158
:101dcc00084b10225a831a46d369002bfcd1074bbf
:101ddc00002283f8212083f82020024b83229a755d
:101dec00704700bf00080043160010007c0500205f
:020000040000fa
:101dfc007fb5c36800911546002b18bf013a0192bc
:101e0c0082680446cde902230e4602226946006828
:101e1c0000f025fc002808dc00f0180383f0080211
:101e2c0063681343636005460fe0019a8242fad25d
:101e3c00a368e363801ae268184420642ab15a1c30
:101e4c00e2632e441b7806f8013c284604b070bdb2
:020000040000fa
:101e5c0037b5154d2b68044673b100f06ffc01903b
:101e6c0001a800f026fd0f30019920f00f0000f0c2
:101e7c0009fd60b100232b60002c08bf01240f3436
:101e8c0034f00f0405d1094b0c221a60204603b024
:101e9c0030bd042c38bf04242046fff70bfe00286d
:101eac00f5d040f8044cf2e7180700201c0600207f
:020000040000fa
:101ebc000e4a38b5002313600d4a0e4c13600e4abf
:101ecc000e4d13600e4a13600e4a13600e4a536295
:101edc0013610123936000f069fd00f0b2fdac4288
:101eec0000d338bd54f8043b9847f8e71806002097
:101efc003805002070020000340500207402000038
:0c1f0c002c050020300500203c050020c2
:020000040000fa
:101f180038b50d46044608b9002038bd43689b060d
:101f280007d5d0e905239a4216d80023c4e905331a
:101f3800a362d4e90f13994204d20122c91a206876
:101f480000f07efd0023c4e90f33002de4d02068a3
:101f5800bde8384000f069bd0022c36a11469847c1
:0c1f68006369002be1d14ff0ff30d6e799
:020000040000fa
:101f740010b4104a002111705160916011730e4c1d
:101f84000e4b5c630e489863586940f08130586189
:101f94000c48186440f20940208083f84510012160
:101fa4001170032283f84d2040f602721a805df806
:101fb400044b7047d8050020c805002000a000414c
:081fc400e8050020000d2000db
:020000040000fa
:101fcc002de9ff41134dd1f80080af88adf80c70ae
:101fdc0006462868029002aca8798df80e00002afb
:101fec0018bf1446d1e901571a461bb9204600f018
:101ffc0025fc0246002d02dbaa4228bf2a46cdf85a
:10200c0000803b4621463046fff712fd04b0bde888
:08201c00f08100bf242a00003e
:020000040000fa
:10202400134b01221a801a46136913f0010ffbd1d6
:102034000f4b48f280121a801a46136913f4004faa
:10204400fbd10b4b4ff400721a621a46136913f05a
:10205400200ffbd1064b00225a621a46136913f073
:10206400400ffbd1024b4ff480725a81704700bf7e
:042074000024004004
:020000040000fa
:10207800353030206d696c6c695365636f6e6473bd
:102088000000000031205365636f6e64000000009b
:10209800000000000000000032205365636f6e648a
:1020a80073000000000000000000000034205365a9
:1020b800636f6e6473000000000000000000000001
:020000040000fa
:1020c80030b589b015464ff0ff32019202f2031283
:1020d800029200b96846cde9030151b14c1e0029ae
:1020e800059408da094b4f221a604ff0ff3009b007
:1020f80030bd0c46f3e700220270cde906001a460f
:10210800294601a800f074fbf1e700bf1c06002077
:020000040000fa
:1021180018b370b506460d4600f01afaddb1002472
:102128004ff08642137e13f0040ffbd0538b13f04d
:10213800070f0bd1536803f00703012b936a14bff1
:10214800335526f814300134a542ebd1a54214bf0b
:0e2158000020012070bd2c46f8e700207047e3
:020000040000fa
:02216600fee792
:020000040000fa
:10216800114b012283f8cc2083f8cd20222183f85b
:10217800b6104ff40011c3f80011002183f855116f
:1021880083f83a110320c3f89001052083f8c001b1
:1021980083f8c10183f8c82183f8c92183f8b011f5
:0c21a800332283f8b4217047008000410e
:020000040000fa
:1021b400104b00229a61da610f4b83221a765a6817
:1021c40022f480225a601a46d369002bfcd161b1f3
:1021d400084b032283f8202041ea4001064b596250
:1021e4001a46d369002bfcd17047024b042283f8b2
:0c21f4002020f1e77c05002000080043db
:020000040000fa
:1022000008b500f0c9fb0f4b1b680021186800f0ef
:10221000cbfb0d4b1b680021186800f0c5fbfff7d6
:10222000a3fffff70ff9fef70afefff7b7fdfff771
:10223000a1fe00f02bf9fff785fcfff7f3fefff797
:0c2240009ffa08bd3006002014070020a3
:020000040000fa
:10224c0001f000428b1aa3f16051b1f5801f0adb3b
:10225c00b1f17f6f09d242eac102c10071f10041b4
:10226c0042eb507070471046704701285b4113f5e4
:10227c00001f02d842f0ff407047c90041ea50707d
:0c228c00104340f4800040f08040704798
:020000040000fa
:10229800022a70b5044616461d461ad043689b06a6
:1022a80017d441b9002d08bf4ff4806505f1080027
:1022b800fff7d0fd01466368012e43f020036360f9
:1022c800c4e9021514bfff230a2384f83430024bf3
:0c22d800e362002070bd00bfb51c0000d8
:020000040000fa
:1022e40010b50278202a034600f10100f9d0a2f1ca
:1022f40009010429f5d92b2a07d02d2a11d101214e
:102304000133013b00200a2403e00021f8e7604385
:10231400801a13f8012f303a092af8d901b940423a
:0623240010bd0021ede7f1
:020000040000fa
:10232a00d8b110b40446d1b1084421464ff08642d0
:10233a006442137e13f0010ffbd0536803f00703c6
:10234a00012b14bf0b7834f81130936201318142aa
:10235a00efd101205df8044b70470020704701203f
:02236a00f8e792
:020000040000fa
:10236c0010b5054c227832b9044b13b10448aff3c5
:10237c0000800123237010bda80500200000000080
:10238c000000000008b5034b1bb103490348aff331
:10239c00008008bd00000000ac050020000000001b
:020000040000fa
:1023ac0030b50d4a002300bf12f8134024b902ebdc
:1023bc0043035b78184630bd01680d78a54209bf10
:1023cc0002eb430301335b78013114bfdbb20160d4
:0c23dc000a2be9d9eee700bfa82800009a
:020000040000fa
:1023e80038b5436813f4807f0446154611d0036955
:1023f8009a4228bf1d465db12a46406900f0eaf9b5
:10240800636922692b44551b0022636125611a7098
:0c24180038bddb06fcd400f02bfaf9e71d
:020000040000fa
:102424000b4b93f820305bb20bb10020704710b512
:102434000c46074b98800021d96059619c601a6151
:102444009970197083f82110fff7b2fe012010bdb6
:042454007c050020e3
:020000040000fa
:1024580010b50b4c94f8204064b20cb1002010bdac
:10246800074ca080e360029b6361a16022610021a8
:10247800a170217084f82110fff798fe0120eee783
:042488007c050020af
:020000040000fa
:10248c004ff086430a4a1a604ff622029a814ff4a3
:10249c0040325a601a46d369002bfcd14ff0864269
:1024ac00136843f002031360d369002bfcd170470f
:0424bc0004010040d7
:020000040000fa
:1024c00070b50a480a4d4ff6ff76016811b94368a6
:1024d00003b970bd83684268334000f10c0455f8bd
:1024e00023302046984704eb8000eee7400e0000c2
:0424f0003829000087
:020000040000fa
:1024f400c0f3c75191b142004fea40704fead20194
:102504004fea310101f16051b2f17f4f38bf70479a
:1025140001f1605118bf41f40021704710f00041ef
:0425240000207047dc
:020000040000fa
:1025280030b400eb4004094b03eb84031b899bb2d6
:10253800834201d030bc7047044b44002518ad00dd
:102548005951204403eb80035a60f3e70804002044
:020000040000fa
:102558004ff086435b8b13f0070f10d04ff0864384
:1025680080221a7607225a831b7e13f0040f06d0a6
:102578004ff086439a6a1a7e12f0040ffad1704718
:020000040000fa
:1025880053b94ab9002908bf00281cbf4ff0ff31d2
:102598004ff0ff3000f052baadf1080c6de904ceef
:1025a800fef7ccf9ddf804e0dde9022304b070475a
:020000040000fa
:1025b800064b1a680ab9064a1a60064a116809b928
:1025c800054911601a68054b1a6070470c0600200f
:1025d800200700200806002020090020040600200b
:020000040000fa
:1025e80008b5084b9a8992b207494a604cf2ff3203
:1025f8009a819b890b6823b10b46486889681b68d8
:0c260800984708bd00240040f8050020a1
:020000040000fa
:1026140010b5084c23680bb9fff7ccff06492268b4
:1026240009681044814234bf4ff0ff3220601046e5
:0c26340010bd00bf0406002008060020b6
:020000040000fa
:10264000802910db812901dd83290cd11368073330
:1026500023f0070303f108011160d3e90023c0e967
:0a266000002301207047002070479e
:020000040000fa
:10266a002de9f0410024804617460e462546bd4214
:10267a0002db2046bde8f081726856f8081b404626
:0a268a0000f06df801350444f1e79b
:020000040000fa
:102694002de9f0410024804617460e462546bd42ea
:1026a40002db2046bde8f081726856f8081b4046fc
:0a26b40000f076f801350444f1e768
:020000040000fa
:1026be0090f948305a1e1343426880f8483012f0a1
:1026ce0004031bbf42f010024260c0e90f334ff00b
:0826de00ff3008bf18467047e9
:020000040000fa
:1026e60010f0004160b148bf40420a0d02f21d429f
:1026f600b0fa80f3d21a9840c30a400503eb0251a0
:0227060070471a
:020000040000fa
:1027080008b5054b01225a61044b1b681bb1034bea
:1027180058681b68984708bd002800400804002036
:020000040000fa
:1027280008b5054b02225a61044bdb681bb1034b09
:102738001869db68984708bd002800400804002095
:020000040000fa
:1027480010b5054c22680ab9fff732ff034b186829
:102758002368c01a10bd00bf040600200806002028
:020000040000fa
:1027680038b550b952b10c46012529462046fff725
:0e277800cffc0028f9d0012000e0002038bd81
:020000040000fa
:1027860010b50023934206d113f0030018bf0120b1
:0e27960000eb930010bdc45ccc540133f2e79d
:020000040000fa
:1027a40038b50d461446012801d0204638bd2146cf
:0c27b4002846fff7b8fd0028f9d0f6e732
:020000040000fa
:1027c000044bd3f8a03113f0010f02d0024b0122c9
:0c27d0001a7070470080004127060020ae
:020000040000fa
:1027dc005ab110b40a44431e11f8014b03f8014fcf
:0c27ec009142f9d15df8044b7047704732
:020000040000fa
:1027f80013b50446019201aafdf71cff636813f0a4
:0c280800100f18bf4ff0ff3002b010bde1
:020000040000fa
:102814000eb403b503aa52f8041b019200f0ecf8bd
:0a28240002b05df804eb03b070474a
:020000040000fa
:02282e00fee7c3
:020000040000fa
:10283000044a138843f002031380136913f0020f54
:08284000fbd1704700240040a9
:020000040000fa
:1028480003783bb1034600bf13f8012f002afbd1e0
:08285800181a7047184670477a
:020000040000fa
:1028600010b50446fff72bff28b9a368e268c4e956
:0828700005331344a36210bdff
:020000040000fa
:1028780010b4c46a1cb123465df8044b18470068bd
:082888005df8044bfff78abf65
:020000040000fa
:10289000044a136823b91060036101600120704786
:0828a000002070472006002013
:020000040000fa
:1028a80068076c094c836a9074a07ac000806888b5
:0628b80000846c82008127
:020000040000fa
:1028be000068002808b501da002008bdfff7a3fe66
:0628ce00431cfad1f8e7fb
:020000040000fa
:1028d400034b98611a46136913f0080ffbd1704734
:0428e400002400408c
:020000040000fa
:1028e800034b18621a46136913f0200ffbd1704787
:0428f8000024004078
:020000040000fa
:1028fc0010f4807f02d0024b01221a70704700bf87
:04290c002806002079
:020000040000fa
:10291000012800d07047024b01221a70fae700bf6d
:042920001d0700206f
:020000040000fa
:1029240008b500f063f810b9014b01221a7008bd14
:042934002906002050
:020000040000fa
:1029380075290000872700008d0200008d02000025
:042948008d020000fc
:020000040000fa
:10294c0032b1c9b20244034603f8011b9342fbd1d6
:04295c00704700bf01
:020000040000fa
:1029600008b500f05bf8024b1860586008bd00bf66
:04297000100600202d
:020000040000fa
:102974000a440023914201d10020704701f8013b31
:02298400f8e772
:020000040000fa
:02298600fee76a
:020000040000fa
:10298800024b03eb0010416082607047d8050020bd
:020000040000fa
:10299800024b40f204521a80704700bf00400041c9
:020000040000fa
:1029a80000294ff480630cbf02220022fff770bc9d
:020000040000fa
:1029b80008b5fff7d1ff00f047f800f045f808bd6b
:020000040000fa
:0e29c800a0f14103192b98bf40f0200070478a
:020000040000fa
:0229d600fee71a
:020000040000fa
:0c29d800014b186099607047f805002062
:020000040000fa
:0c29e400014b5862996270477c0500208e
:020000040000fa
:0c29f000014b93f8210070477c0500208b
:020000040000fa
:0c29fc0013460a466ff00041fff760bb75
:020000040000fa
:0a2a080008b50020fef7d4ff08bd5a
:020000040000fa
:082a1200286e696c2900250003
:020000040000fa
:022a1a00fee7d5
:020000040000fa
:082a1c000048704798060020f5
:020000040000fa
:072a2400286e756c6c29009f
:020000040000fa
:062a2c000068fff7b9becf
:020000040000fa
:062a32004ff0ff30704779
:020000040000fa
:042a380000207047c3
:020000040000fa
:042a3c0000207047bf
:020000040000fa
:042a400000207047bb
:020000040000fa
:042a4400704700bf18
:020000040000fa
:042a480000207047b3
:020000040000fa
:022a4c00fee7a3
:020000040000fa
:022a4e007047cf
:020000040000fa
:022a50007047cd
:020000040000fa
:022a52007047cb
:020000040000fa
:0200000400807a
:044000003912003c35
:020000040000fa
:0200000400807a
:044004008000a82a66
:020000040000fa
:0200000400807a
:04400800ffffffffb8
:00000001FF
