:020000040000fa
:10000000f0ff032009480000bb5900007b5b0000a3
:10001000d76300004f660000136700000000000077
:10002000000000000000000000000000ed6700007c
:10003000e361000000000000ed6700003161000096
:10004000ed670000ed670000ed670000ed67000060
:10005000ed670000ed670000ed670000ed67000050
:10006000ed670000ed670000ed670000ed67000040
:10007000ed670000e5610000ed670000ed6700003e
:10008000ed670000ed670000ed670000ed67000020
:10009000ed670000ed670000ed670000ed67000010
:1000a000ed670000ed670000ed670000ed67000000
:1000b000ed670000ed670000ed670000ed670000f0
:1000c000ed670000ed670000ed670000ed670000e0
:1000d000ed670000ed670000ed670000ed670000d0
:1000e000ed670000ed670000000000000000000068
:1000f00000000000ed670000ed670000ed67000004
:10010000ed670000ed670000ed670000ed6700009f
:10011000ed670000ed670000ed670000ed6700008f
:10012000ed670000ed670000ed670000ed6700007f
:10013000ed670000ed670000ed670000ed6700006f
:10014000ed670000ed670000b1520000b152000001
:10015000b1520000b1520000ed670000ed670000f1
:10016000ed670000ed67000009530000095300002f
:100170000953000009530000ed670000ed6700001f
:10018000ed670000ed670000ed670000ed6700001f
:10019000ed670000ed670000ed670000ed6700000f
:1001a000ed670000ed670000ed670000ed670000ff
:1001b000ed670000ed670000ed670000ed670000ef
:1001c000ed670000ed670000ed670000ed670000df
:1001d000ed670000ed670000ed670000ed670000cf
:1001e000ed670000ed670000ed670000ed670000bf
:1001f000ed670000ed670000ed670000ed670000af
:10020000ed670000ed670000ed670000ed6700009e
:10021000ed670000ed670000ed670000ed6700008e
:10022000ed670000ed670000ed670000ed6700007e
:10023000ed670000ed670000000000000000000016
:10024000ed670000ed670000ed670000ed6700005e
:10025000ed670000ed670000ed670000ed6700004e
:04026000ed67000046
:020000040000fa
:10026400f8b500bff8bc08bc9e467047e1590000d1
:10027400f8b500bff8bc08bc9e467047bd590000e5
:020000040000fa
:08028400b0270000010000009a
:020000040000fa
:10028c00ffffffffffffffffffffffffffff9effd3
:10029c0015fd6ff36bf2e9f12af22ef3b3fc3dff7f
:1002ac00ffffffffffffffffffffffffffffffff52
:1002bc00ffffffffffffffffffffffffffffffff42
:1002cc00ffffffffffffffffffffffffffffffff32
:1002dc00ffffffffffffffffffffffffffffffff22
:1002ec00ffffffffffffffffffffffffffffffff12
:1002fc00ffffffffffffffffffffffffffffffff02
:10030c00fffffffffffffffffffffffffffffffff1
:10031c00ffffffffffffffffffffffffffffffffe1
:10032c00ffffffffffffffffffffffffffffffffd1
:10033c00ffffffffffffffffffffffffffffffffc1
:10034c00ffffffffffffffffffffdbfe09f203e8ec
:10035c0064e885f0a5f0c5f0c5f0a5f064e803e805
:10036c008cf2ffff9294694a3ce7ffffffffffff0f
:10037c00ffffffffffffffffffffffffffffffff81
:10038c00ffffffffffffffffffffffffffffffff71
:10039c00ffffffffffffffffffffffffffffffff61
:1003ac00ffffffffffffffffffffffffffffffff51
:1003bc00ffffffffffffffffffffffffffffffff41
:1003cc00ffffffffffffffffffffffffffffffff31
:1003dc00ffffffffffffffffffffffffffffffff21
:1003ec00ffffffffffffffffffffffffffffffff11
:1003fc00ffffffffffffffffffffffffffffffff01
:10040c00ffffffffffffffff8ff303e8a5f0e6f010
:10041c00e6f0e6f0e6f0e6f0e6f0e6f0e6f0e6f020
:10042c0003e819fe59bef083ffffffffffffffff3c
:10043c00ffffffffffffffffffffffffffffffffc0
:10044c00ffffffffffffffffffffffffffffffffb0
:10045c00ffffffffffffffffffffffffffffffffa0
:10046c00ffffffffffffffffffffffffffffffff90
:10047c00ffffffffffffffffffffffffffffffff80
:10048c00ffffffffffffffffffffffffffffffff70
:10049c00ffffffffffffffffffffffffffffffff60
:1004ac00ffffffffffffffffffffffffffffffff50
:1004bc00ffffffffffffffffffffffffffffffff40
:1004cc00ffffffffffff0af244e8e6f0e6f084e8e6
:1004dc00a5f0e6f0e6f0e6f0e6f0e6f0e6f084f003
:1004ec00a5f085f0ffffffffffffffffffffffff02
:1004fc00ffffffffffffffffffffffffffffffff00
:10050c00ffffffffffffffffffffffffffffffffef
:10051c00ffffffffffffffffffffffffffffffffdf
:10052c00ffffffffffffffffffffffffffffffffcf
:10053c00ffffffffffffffffffffffffffffffffbf
:10054c00ffffffffffffffffffffffffffffffffaf
:10055c00ffffffffffffffffffffffffffffffff9f
:10056c00ffffffffffffffffffffffffffffffff8f
:10057c00ffffffffffffffffffffffffffffffff7f
:10058c00ffffffffabf244e8e6f0e6f044e892fc34
:10059c002af285f0e6f0e6f0e6f0e6f044e892fcac
:1005ac0088f144e80ef3ffffffffffffffffffffa3
:1005bc00ffffffffffff18c60000a631ffffffff84
:1005cc00ffffffffffff452900009ad6ffffffff4b
:1005dc00ffffffffffffffffffffffffffffffff1f
:1005ec00ffffffffffffffffffffffffffffffff0f
:1005fc00ffffffffffffffffffffffffffffffffff
:10060c00ffffffffffffffffffffffffffffffffee
:10061c00ffffffffffffffffffffffffffffffffde
:10062c00ffffffffffffffffffffffffffffffffce
:10063c00ffffffffffffffffffffffffffffffffbe
:10064c00ffff55fd03e8e6f0e6f044e851fcffff40
:10065c00ffffc5f0c5f0e6f0e6f023e814fdffff60
:10066c00ffff23e803e87afeffffffffffffffff1a
:10067c00ffffffffffffaa520000000059ceffff53
:10068c00fffffffff7bd000000002d6bffffffff1a
:10069c00ffffffffffffffffffffffffffffffff5e
:1006ac00ffffffffffffffffffffffffffffffff4e
:1006bc00ffffffffffffffffffffffffffffffff3e
:1006cc00ffffffffffffffffffffffffffffffff2e
:1006dc00ffffffffffffffffffffffffffffffff1e
:1006ec00ffffffffffffffffffffffffffffffff0e
:1006fc00fffffffffffffffffffffffffffffffffe
:10070c00ffff84f0c5f0e6f0a5f0e8f1ffffffff76
:10071c00ffff79fe03e8e6f085f06af2ffffffffca
:10072c00ffff75fd03e8c5f0ffffffffffffffffb5
:10073c00ffffffffffffc73900000000e841ffff8c
:10074c00ffffffff863100000000494affff1ce756
:10075c00d39c38c6ffffffffd39c72949294929463
:10076c00518c9ad6ffff35ad14a534a534a534a50c
:10077c0014a5fce6ffffffff7ef79294729492940f
:10078c007294d39cffffffffffffdbde9294729409
:10079c0092947294b294ffff9ef7b39c59ceffffd4
:1007ac00ffffffff75adf39cffff55add39cffff23
:1007bc00b6b514a534a534a534a514a5dbdeffff0e
:1007cc00d7fd44e8e6f0c6f0a4f0ffffffffffff03
:1007dc00ffffffff0cf364e8e5f0fffffffffffff7
:1007ec00ffffffffe9f123e8b0f3ffffffffffff7f
:1007fc00ffffffffffffa318000000000000dfff5a
:10080c00ffffbfff0000000000002529ffff14a51b
:10081c0000008a52ffff00000000000000000000f2
:10082c0000000000ffff00000000000000000000be
:10083c00000000001ce7bfff0000000000000000eb
:10084c00000000000000fffff7bd000000000000ea
:10085c00000000000000ab5abad60000eb5affffb4
:10086c00ffffffff21080000ffff20000000ffff3b
:10087c00e420000000000000000000000000d7bdd4
:10088c002ef3a5f0e6f0a5f044e81cfffffffffff8
:10089c00ffffffffffff84e864e8ffffffffffffa0
:1008ac00ffffffffbeff23e802e81cffffffffff77
:1008bc00ffffffffffff0000000045290000108430
:1008cc00ffff8e730000452900002108ffff55ad86
:1008dc0000002c6379ce00000000452945294529ec
:1008ec0045298210ffff4108000086314529652902
:1008fc0061080000d39cd39c00000000e841084232
:10090c00c73900000000bad66a52000000006631f8
:10091c004529452904218e73dbde00006d6bffff3a
:10092c00ffffffffc3180000ffffa2100000ffff36
:10093c0065290000652945296529a21000008a5205
:10094c00a8f1c6f085f0ecf244e826f1ffffffffba
:10095c00ffffffffffffd6fd02e829f2ffffffffbd
:10096c00ffffffffffffb2fc03e827f1ffffffffd4
:10097c00ffffffffffff0000000018c6000021086a
:10098c00ffff00000000b7bd21080000ffff55adc0
:10099c0000002d6bb7bd00008e73ffffffffffff44
:1009ac00ffffffffffff21080000ffffffffffff1e
:1009bc00bbde0000718c1084000014a5ffffffff4c
:1009cc00ffff2d6b000059ce084200003defffffea
:1009dc00ffffffffffffffff59ce0000e739f4a434
:1009ec00b29414a561080000ffffa2100000ffffe5
:1009fc0045290000ffffffffffffffff0000c73985
:100a0c00c6f0a5f006f1ffff30fc02e851fcffff39
:100a1c00ffffffffffffffff4af202e895fdffff1c
:100a2c00ffffffffffffffff47f123e852fcffff33
:100a3c00ffffffff7ef700002000ffff000000001b
:100a4c006d6b00000000ffff61080000ffff75ad3b
:100a5c0000002d6bd7bd0000518cffffffffffff87
:100a6c00ffffffffffff4108000079ced7bd18c67e
:100a7c008e73000055adcf7b000076b5fffffffff6
:100a8c00fffff083000059ce284200009ef7ffffc5
:100a9c00ffffffffffffffff59ce0000000000002b
:100aac000000000000000000ffffa2100000ffff8c
:100abc00652900009ad67ad69ad696b500000842d7
:100acc00c5f023e87dffffffffff26f102e87dff65
:100adc00ffffffffffffffffffff23e843e8ffffe0
:100aec00ffffffffffffffff7cff02e803e83dff76
:100afc00ffffffff59ce0000e420ffffcb5a0000a0
:100b0c00000000002c63ffffc31800003def76b51a
:100b1c0000002d6bd7bd00007294ffffffffffff9d
:100b2c00ffffffffffff4108000000000000000076
:100b3c0000004108ffff6d6b0000b6b5ffffffff23
:100b4c00ffff1084000059ce28420000dfffffff9a
:100b5c00ffffffffffffffff59ce00004108c31846
:100b6c00a210c31800000000ffffa2100000ffff3e
:100b7c0065290000000000000000000000004d6b23
:100b8c00c4f014fdfffffffffffffbfe03e887f13e
:100b9c00ffffffffffffffffffff14fd02e88bf2db
:100bac00fffffffffffffffffffff0fb02e856fd1b
:100bbc00ffffffff55ad0000e739ffffdbde000054
:100bcc00000000003defffffa739000038c696b5c6
:100bdc0000002d6bd7bd00000842ffff5def5deffd
:100bec005def3defffff41080000e318a318c318a9
:100bfc000000000059ce108400002c63dfff5def75
:100c0c00dfffc739000039ce0842000014a5fffff2
:100c1c00dfffdfffbfffffff59ce00008e73ffff2a
:100c2c00ffffffffc3180000ffffa2100000ffff33
:100c3c006529000061084108410841088210bef78f
:100c4c00b2fcffffffffffffffffffff8af203e88d
:100c5c00d3fcffffffffffffffffffffe9f102e8ff
:100c6c0038feffffffffffffffffffff43e85dffc5
:100c7c00ffffffff30840000ab5affffffff821025
:100c8c000000c318ffffffff694a0000f4a4b6b5cb
:100c9c0000000c635def000000000000000000008d
:100cac0000000000ffff41080000fffffffffffff7
:100cbc0055ad0000d39cd7bd000000000000000023
:100ccc000000000000009ef72d6b000000000000eb
:100cdc00000000000000e420fce600002d6bffff8c
:100cec00ffffffffa2100000ffff82100000ffffbc
:100cfc0045290000ffffffffffffffffffffffff86
:100d0c00ffffffffffffffffffffffffa4f0c5f09a
:100d1c0023e8ffffffffffffffffffff17fe44e885
:100d2c00a4e8ffffffffffffffffffff5dffffffdb
:100d3c00ffffffffec6200008e73ffffffffbef7ab
:100d4c00cf7bbef7ffffffff2d6b0000cf7bb6b54f
:100d5c000000ab5affffcb5a00000000000000005f
:100d6c000000a210ffff00000000ffffffffffffcd
:100d7c0075ad00009294ffffa73900000000000041
:100d8c0000000000eb5affffbfff4108000000000d
:100d9c00000000000000518c9ad600000c63ffff8d
:100dac00ffffffff82100000ffff62100000ffff3b
:100dbc0024210000ffffffffffffffffffffffffee
:100dcc00ffffffffffffffffffffa8f1a5f0e6f01d
:100ddc0085f029f2ffffffffffffffffa5f0c5f035
:100dec0064e84ef3ffffffffffffffffffffffff76
:100dfc00fffffffffffffffffffffffffffffffff7
:100e0c00ffffffffffffffffffffffffffffffffe6
:100e1c00ffffffffffffffffffffffffffffffffd6
:100e2c00ffffffffffffffffffffffffffffffffc6
:100e3c00ffffffffffffffffffffffffffffffffb6
:100e4c00ffffffffffffffffffffffffffffffffa6
:100e5c00ffffffffffffffffffffffffffffffff96
:100e6c00ffffffffffffffffffffffffffffffff86
:100e7c00ffffffffffffffffffffffffffffffff76
:100e8c00fffffffffffffffff0fb44e8e6f0e6f09b
:100e9c00e6f003e895fdffffffff8bf285f0e6f02f
:100eac00e6f003e8dafeffffffffffffffffffffa7
:100ebc00ffffffffffffffffffffffffffffffff36
:100ecc00ffffffffffffffffffffffffffffffff26
:100edc00ffffffffffffffffffffffffffffffff16
:100eec00ffffffffffffffffffffffffffffffff06
:100efc00fffffffffffffffffffffffffffffffff6
:100f0c00ffffffffffffffffffffffffffffffffe5
:100f1c00ffffffffffffffffffffffffffffffffd5
:100f2c00ffffffffffffffffffffffffffffffffc5
:100f3c00ffffffffffffffffffffffffffffffffb5
:100f4c00ffffffffffff79fe02e8e6f0e6f0e6f0b8
:100f5c00e6f0c6f064e8feff14fd23e8e6f0e6f0e8
:100f6c00e6f0c5f006f1fffffffffffffffffffffd
:100f7c00ffffffffffffffffffffffffffffffff75
:100f8c00ffffffffffffffffffffffffffffffff65
:100f9c00ffffffffffffffffffffffffffffffff55
:100fac00ffffffffffffffffffffffffffffffff45
:100fbc00ffffffffffffffffffffffffffffffff35
:100fcc00ffffffffffffffffffffffffffffffff25
:100fdc00ffffffffffffffffffffffffffffffff15
:100fec00ffffffffffffffffffffffffffffffff05
:100ffc00fffffffffffffffffffffffffffffffff5
:10100c00ffffffffffff87f164e8e6f0e6f0e6f094
:10101c00e6f0e6f0c6f064e864e8e6f0e6f0e6f048
:10102c00e6f0e6f023e8aff3ffffffffffffffff63
:10103c00ffffffffffffffffffffffffffffffffb4
:10104c00ffffffffffffffffffffffffffffffffa4
:10105c00ffffffffffffffffffffffffffffffff94
:10106c00ffffffffffffffffffffffffffffffff84
:10107c00ffffffffffffffffffffffffffffffff74
:10108c00ffffffffffffffffffffffffffffffff64
:10109c00ffffffffffffffffffffffffffffffff54
:1010ac00ffffffffffffffffffffffffffffffff44
:1010bc00ffffffffffffffffffffffffffffffff34
:1010cc00ffffffffffffffff6bf223e8c5f0e6f029
:1010dc00e6f0e6f0e6f0e6f0e6f0e6f0e6f0e6f054
:1010ec00c6f044e806f13cffffffffffffffffffe8
:1010fc00fffffffffffffffffffffffffffffffff4
:10110c00ffffffffffffffffffffffffffffffffe3
:10111c00ffffffffffffffffffffffffffffffffd3
:10112c00ffffffffffffffffffffffffffffffffc3
:10113c00ffffffffffffffffffffffffffffffffb3
:10114c00ffffffffffffffffffffffffffffffffa3
:10115c00ffffffffffffffffffffffffffffffff93
:10116c00ffffffffffffffffffffffffffffffff83
:10117c00ffffffffffffffffffffffffffffffff73
:10118c00ffffffffffffffffffffd7fd06f123e887
:10119c0084f0a5f0c6f0e6f0c6f0c5f085f044e8a2
:1011ac0043e852fcffffffffffffffffffffffffc6
:1011bc00ffffffffffffffffffffffffffffffff33
:1011cc00ffffffffffffffffffffffffffffffff23
:1011dc00ffffffffffffffffffffffffffffffff13
:1011ec00ffffffffffffffffffffffffffffffff03
:1011fc00fffffffffffffffffffffffffffffffff3
:10120c00ffffffffffffffffffffffffffffffffe2
:10121c00ffffffffffffffffffffffffffffffffd2
:10122c00ffffffffffffffffffffffffffffffffc2
:10123c00ffffffffffffffffffffffffffffffffb2
:10124c00ffffffffffffffffffffffffffffbbfee7
:10125c0011fc6bf287f1c6f046f10af28ff3d7fd61
:10126c00ffffffffffffffffffffffffffffffff82
:10127c00ffffffffffffffffffffffffffffffff72
:10128c00ffffffffffffffffffffffffffffffff62
:10129c00ffffffffffffffffffffffffffffffff52
:1012ac00ffffffffffffffffffffffffffffffff42
:1012bc00ffffffffffffffffffffffffffffffff32
:1012cc00ffffffffffffffffffffffffffffffff22
:1012dc00ffffffffffffffffffffffffffffffff12
:1012ec00ffffffffffffffffffffffffffffffff02
:1012fc00fffffffffffffffffffffffffffffffff2
:020000040000fa
:10130c00ffffffffffffffffffffffffffffffffe1
:10131c00ffffffffffffffffffff3dff51fc0cf343
:10132c00abf2affb96fdffffffffffffffffffffe1
:10133c00ffffffffffffffffffffffff7eff14fd1f
:10134c006ef3abf20cf3d3fcffffffffffffffffcd
:10135c00ffffffffffffffffffffffffffffffff91
:10136c00ffffffffffffffffffffffffffffffff81
:10137c00ffffffffffffdfff6af283f046f1a7f1eb
:10138c00a7e986f104f142e84af296fdffffffff60
:10139c00ffffffffffffbeffd3fc87f183e805f1e2
:1013ac0066f1a7e9a7f145e942e88ef3ffffffffdd
:1013bc00ffffffffffffffffffffffffffffffff31
:1013cc00ffffffffffffffffffffffffffffffff21
:1013dc00fffffffff8fd62f066f1e8f1c7f1a7e946
:1013ec00a7e9c8f108f229f287f1e4e841e8a7f18e
:1013fc00cffb6ef304e962e804e987e9c8f1c7f1b1
:10140c00a7f1a7e9c8e9e8f129f225e9c4e85dffed
:10141c00ffffffffffffffffffffffffffffffffd0
:10142c00ffffffffffffffffffffffffffffffffc0
:10143c00ffff56fd42e8c8f1e8f1a7f187e987e91b
:10144c0087e9a7e9c8e9e8e9e8e9e7e9e8e9a7e90c
:10145c0066e966e9a7e9c8e9a7e9a7e987e987e9a1
:10146c0087e987e9a7e9c7e9e8e929f2a7e941e8ab
:10147c001cffffffffffffffffffffffffffffff53
:10148c00ffffffffffffffffffffffffffffffff60
:10149c00dbfe42f0a7f1e8f1a7f187e966e986e9fe
:1014ac0087e987e9a7e9a7e986e92df3ecf2a7e933
:1014bc00c8f1a7f1a7e987e987e986e966e966e952
:1014cc0066e986e987e9a7e9c7e9e8e908ea66e990
:1014dc0083e8ffffffffffffffffffffffffffffa3
:1014ec00ffffffffffffffffffffffffffffffff00
:1014fc0087f146f1a7f1a7e987e966e946e966e9cc
:10150c0086e986e987e986e904e9fff75af625e9d1
:10151c00a7e987e987e966e966e966e946e946e904
:10152c0066e966e966e986e9a7e9a7e9c7e9c8e9d2
:10153c0004e90df3ffffffffffffffffffffffffbe
:10154c00ffffffffffffffffffffffffffff59fe46
:10155c00c4f0c8f1a7e987e987e946e945e946e916
:10156c0066e966e966e905e9f0f37eefdfef45e948
:10157c0066e986e966e946e946e946e946e945e968
:10158c0045e946e166e166e186e987e9a7e9c7e94d
:10159c00a7e9a3e8ffffffffffffffffffffffff30
:1015ac00fffffffffffffffffffffffffffff0fb52
:1015bc00b0fb6af287e987e966e946e145e145e176
:1015cc0046e946e946e941e85ef759e69fef2df317
:1015dc0025e966e946e945e945e925e945e945e1b5
:1015ec0045e145e146e146e166e186e125e1a3e01e
:1015fc002df329eab7fdffffffffffffffffffff02
:10160c00ffffffffffffffffffffffffffff2dfbb4
:10161c0073fc6ff346e966e966e946e125e145e1cd
:10162c0046e946e905e94af2ffefabe21def14ed9e
:10163c00c4e845e925e925e945e925e925e1e4e0a2
:10164c0005e946e146e146e166e146e125e1a3e034
:10165c00ecea82e0f4fcffffffffffffffffffff60
:10166c00ffffffffffffffffffffffffffffcffbb2
:10167c0046f1e8f146e946e945e925e125e145e988
:10168c0046e966e9a3e876f5dfe721e076e51cefad
:10169c0082e825e925e925e925e925e1c4e010ecf6
:1016ac008aea05e946e145e145e125e1e4e0c3e0ec
:1016bc00c3e062e076fdffffffffffffffffffffd0
:1016cc00ffffffffffffffffffffffffffff55fdca
:1016dc0025f187f146e925e925e925e904e982e8c0
:1016ec00e4e845e9a3e8fff7f8e500e0d0e3ffef15
:1016fc00e4e825e925e925e925e125e1a3e0dfef8b
:10170c00dff7c4e825e125e125e104e1c3e0a3e02e
:10171c00c3e000e03dffffffffffffffffffffff08
:10172c00ffffffffffffffffffffffffffffffffbd
:10173c00e4f087f146f125e905e9e4e866e99ff76d
:10174c00abf283e84ef3ffef2de382e06ae2ffefaa
:10175c00cbeae4e025e125e125e1e4e0ecea7eefeb
:10176c005ee776f582e025e105e1c3e0a3e083e0e6
:10177c0082d804d9ffffffffffffffffffffffff32
:10178c00ffffffffffffffffffffffffffffffff5d
:10179c00affb66f146e925e904e900e03ef73de7d9
:1017ac00dff700e8f8ed9ee7a3e0e4e005e1ffefea
:1017bc0072ecc3e025e125e125e182e056ed39e646
:1017cc00b3dcfff7e8e1e4e0e4e0e4e0a3d862d8be
:1017dc0000d096f5ffffffffffffffffffffffffae
:1017ec00fffffffffffffffffffffffffffffffffd
:1017fc00ffffe4f0ecf2e4e883e8afebdfef76e533
:10180c009fefcbeaffefb3e483e025d921d85eef5d
:10181c0039ee82e025e125e105e121d89fefd3e403
:10182c00a3d09fe7dcf600d8c3e062d841d821d022
:10183c0045d1ffffffffffffffffffffffffffff94
:10184c00ffffffffffffffffffffffffffffffff9c
:10185c00fffff8fd46e918fe00e0dff71de700d8b2
:10186c009fe77ef79fe7a7e1e4e025d982d897e5cb
:10187c00dfef62e004e124e1e4e0a7e1ffef4ddb00
:10188c0000d072dcffef8ae200d000c800c800c0b4
:10189c00dfffffffffffffffffffffffffffffff6c
:1018ac00ffffffffffffffffffffffffffffffff3c
:1018bc00ffffffff31f435fd5effdfefabda00d049
:1018cc00f4e4ffefb7e541d804d925e1a3d810e43f
:1018dc00ffefc8e1e4e005e1a3d88fe3dfefc7d960
:1018ec00a3d041d03de75df76ada2ddb2ddbf8f5af
:1018fc00ffffdfffdfffdfffdfffdfffdfffdfffcc
:10190c001deffceefceefceefceefceefce6fce669
:10191c00fce6dce63de71de75ee755dd00d841d887
:10192c0041d819e645d9e4d804d905d9c4d88be2f5
:10193c00dfef6eeba3e005e162d876ed9fe762d8ae
:10194c00c3d000d0c7d1dfe7ffef7ee73de7dce691
:10195c009be69be69be69be69be69be69be69be673
:10196c003df71cf71cf71cf71cf71cf71cf71cf7b2
:10197c001cf71cf73df79ef76eeb21e0e4d882d8fc
:10198c0041d800d8a3d8e4d804d904d9e4d8e4e0e9
:10199c00ffef15ed83e004e100d89feff8e541d0af
:1019ac0041d021c800c862c841b8d3e47ef73df7e6
:1019bc003df73df73df73df75df75df75df75df7fb
:1019cc00ffffffffffffffffffffffffffffffff1b
:1019dc00ffffffffffffffffffffabea62d8c3d89b
:1019ec0082d862d862d8c4d804d904d904d941d8d1
:1019fc001deffcee41d8e4d846d9ffef31dc00d026
:101a0c0041d021c821c800b872e4ffffffffffffdf
:101a1c00ffffffffffffffffffffffffffffffffca
:101a2c00ffffffffffffffffffffffffffffffffba
:101a3c00ffffffffffffffffffffffff4deb21d875
:101a4c00a3d882d862d862d8c4d804d904d982d891
:101a5c0035edffefc3d882d82de3ffefe8d100d0ee
:101a6c0021c821c800c075edffffffffffffffff7e
:101a7c00ffffffffffffffffffffffffffffffff6a
:101a8c00ffffffffffffffffffffffffffffffff5a
:101a9c00ffffffffffffffffffffffffffffafebae
:101aac0000d8a3d862d842d862d8c3d8e4d8a3d877
:101abc006ee3ffef4ae200d015e5ffef00d021c83e
:101acc0021c800c0d7f5ffffffffffffffffffff9f
:101adc00ffffffffffffffffffffffffffffffff0a
:101aec00fffffffffffffffffffffffffffffffffa
:101afc00ffffffffffffffffffffffffffffffffea
:101b0c00afeb00d882d862d842d842d883d8a3d8b9
:101b1c00a7d9ffefcfe300c85eef59e600c821c894
:101b2c0000c0f8f5ffffffffffffffffffffffff08
:101b3c00ffffffffffffffffffffffffffffffffa9
:101b4c00ffffffffffffffffffffffffffffffff99
:101b5c00ffffffffffffffffffffffffffffffff89
:101b6c00ffff8eeb00d062d841d041d041d041d0a4
:101b7c0000d0dfef35e500c8ffef10dc00c800c077
:101b8c00f7f5ffffffffffffffffffffffffffff6b
:101b9c00ffffffffffffffffffffffffffffffff49
:101bac00ffffffffffffffffffffffffffffffff39
:101bbc00ffffffffffffffffffffffffffffffff29
:101bcc00ffffffff8feb00d061d041d041d041d05f
:101bdc0000c8b7e5fcee86d1ffefc7c900c0f8f529
:101bec00fffffffffffffffffffffffffffffffff9
:101bfc00ffffffffffffffffffffffffffffffffe9
:101c0c00ffffffffffffffffffffffffffffffffd8
:101c1c00ffffffffffffffffffffffffffffffffc8
:101c2c00ffffffffffff10ec00d041d021d021c8f7
:101c3c0000c86edbdfef11e4dfef00b839f6ffff11
:101c4c00ffffffffffffffffffffffffffffffff98
:101c5c00ffffffffffffffffffffffffffffffff88
:101c6c00ffffffffffffffffffffffffffffffff78
:101c7c00ffffffffffffffffffffffffffffffff68
:101c8c00ffffffffffffffff14f500c800c821c8ce
:101c9c0000c025c9bfef5df776dd59f6ffffffffea
:101cac00ffffffffffffffffffffffffffffffff38
:101cbc00ffffffffffffffffffffffffffffffff28
:101ccc00ffffffffffffffffffffffffffffffff18
:101cdc00ffffffffffffffffffffffffffffffff08
:101cec00ffffffffffffffffffff3dffe4d000b84a
:101cfc0000c000b85eef1def7ef7ffffffffffff98
:101d0c00ffffffffffffffffffffffffffffffffd7
:101d1c00ffffffffffffffffffffffffffffffffc7
:101d2c00ffffffffffffffffffffffffffffffffb7
:101d3c00ffffffffffffffffffffffffffffffffa7
:101d4c00fffffffffffffffffffffffffffff8f5a8
:101d5c00cbd22ddbdceedce6dfffffffffffffff6e
:101d6c00ffffffffffffffffffffffffffffffff77
:101d7c00ffffffffffffffffffffffffffffffff67
:101d8c00ffffffffffffffffffffffffffffffff57
:101d9c00ffffffffffffffffffffffffffffffff47
:101dac00ffffffffffffffffffffffffffffffff37
:101dbc00ffffffffdfff7ae6ffffffffffffffffe5
:101dcc00ffffffffffffffffffffffffffffffff17
:101ddc00ffffffffffffffffffffffffffffffff07
:020000040000fa
:101dec0084b008b50df1080c8ce80f00a34b1b78e0
:101dfc00a34a1370122b00f27881dfe813f0130062
:101e0c0057006500860022003000410030011901a6
:101e1c009800a800bc00cd00de00ef0003017601a5
:101e2c007601730103f0d0ff002800f05e81954825
:101e3c0004f02cf9914b05221a70934b01221a7065
:101e4c0053e103f0b3fa18b98c4b11221a704ce120
:101e5c008e4804f01bf9894b05221a7045e103f0fa
:101e6c00fdfe30b18a4804f011f9844b06221a7039
:101e7c003be1884804f00af9804b10221a7034e1d7
:101e8c000df1090004f03efb01460df1090003f0d1
:101e9c00effd18b9794b11221a7026e17e4804f037
:101eac00f5f8794b1a78754b1a701ee19df80830cd
:101ebc001bb9724b02221a7017e1784804f0e6f84d
:101ecc006e4b03221a7010e10df10901744804f0f5
:101edc005ff90df1090004f015fb01460df1090045
:101eec0003f038fb40b10df109016e4804f050f9d4
:101efc00624b07221a70f8e00df109016a4804f0f0
:101f0c0047f95e4b03221a70efe0322002f0b8ff63
:101f1c0018b95a4b11221a70e7e0644804f0b6f86d
:101f2c00594b09221a70554b05221a70dde0c0205e
:101f3c0003f040f818b9514b11221a70d5e0c021aa
:101f4c005b4804f025f94d4b0a221a70cde00421b0
:101f5c00584803f083fa18b9484b11221a70c4e0a0
:101f6c005449554804f014f9474b0b221a70434b53
:101f7c0004221a70b9e00421504803f0dbf818b9b8
:101f8c003e4b11221a70b0e04c494d4804f000f958
:101f9c003a4b0c221a70a8e00a214a4803f0f8f8d0
:101fac0018b9364b11221a709fe04649464804f086
:101fbc00eff8324b0d221a7097e00a21434803f0d8
:101fcc00e7f818b92d4b11221a708ee03f493e48a4
:101fdc0004f0def8294b0e221a7086e00a213c48e8
:101fec0003f0d6f818b9254b11221a707de0384948
:101ffc00354804f0cdf8244b0f221a701f4b0422e5
:10200c001a7072e000231a460721324802f000fdd4
:10201c0018b91a4b11221a7067e02e492e4804f099
:10202c00b7f8194b08221a70144b04221a705ce092
:10203c000df1090004f066fac1b20df1090002f0cd
:10204c002bfe18b90d4b11221a704ee00df109013f
:10205c00224804f09df8094b07221a7045e003f062
:10206c0027fd18b9054b11221a703ee01c4804f0ec
:10207c000df8024b12221a7037e000bf4b110020f2
:10208c0049110020342700004a1100204827000085
:10209c00602700007827000098270000b427000074
:1020ac00f02700001028000064280000d42800004d
:1020bc00f028000018290000202900004029000009
:1020cc00482900006829000074290000a02900009c
:1020dc00ac290000b8290000c0290000d829000054
:1020ec00f8290000044803f0d1ff044b1878bde830
:1020fc00084004b0704700bf142a000049110020aa
:020000040000fa
:10210c00a01000201c00000000000000080d0020a2
:10211c00c0000000000000000809002000040000be
:10212c0000000000e00f0020400000000000000054
:10213c00c80d00200001000000000000201000204d
:10214c004000000000000000e41000200c00000023
:10215c0000000000e310002001000000000000005f
:10216c00c80e002064000000000000004611002092
:10217c0001000000000000002011002004000000fd
:10218c0000000000481100200100000000000000c9
:10219c004711002001000000000000002411002065
:1021ac0004000000000000004012002008000000a5
:1021bc0001000000130200003030303060100020ad
:1021cc0040000000000000002c0f00206400000004
:1021dc000000000049110020030000000000000076
:1021ec00081100201000000000000000f01000207a
:1021fc000c00000000000000bc10002016000000c5
:10220c00000000005211002002000000010000003c
:10221c001d3000004c1200200200000001000000e4
:10222c0016600000281100200400000000000000cf
:10223c004c1100200400000000000000d21000200f
:10224c0002000000000000002c110020040000001f
:10225c0000000000401100200200000000000000ff
:10226c0050110020010000000000000000000020c0
:10227c0000050000000000004211002004000000d6
:10228c0000000000d41000200f000000000000002f
:10229c00511100200100000000000000301100204e
:1022ac000400000000000000900f0020500000000f
:1022bc0000000000541100206c0000000100000020
:1022cc00601100205c110020601100200000000053
:1022dc00250000000805002000040000000000009c
:1022ec0000000000000000000000000000000000e2
:1022fc00000000000000000000000000e16700008a
:10230c0000000000000000000000000000000000c1
:10231c0081500000000000000000000000000000e0
:10232c00000000000000000000000000000500207c
:10233c000804000000000000201200202000000013
:10234c00010000000100000003000000000000007c
:10235c000000000000000000000000000000000071
:10236c0018110020181100200800000000000000c7
:10237c00341100200800000000000000c0110020f3
:10238c0060000000010000000100000003000000dc
:10239c000000000000000000000000000000000031
:1023ac00000000005552000000000000000000007a
:1023bc0000000000bd670000f56700000000000091
:1023cc000000000000000000000000000000000001
:1023dc0000000000000000000000000000000000f1
:1023ec000000000000000000481200200400000063
:1023fc0001000000010000003c110020040000005e
:10240c0000000000fc1000200c0000000000000088
:10241c000000000000000000666666666666666680
:020000040000fa
:10242c002de9f041aeb006461546059100270599f9
:10243c000b78002b00f0fa8000244ff0ff33cde92d
:10244c0009430eab0c9380230b940d930b5d0bb1d6
:10245c00252b26d134b12246304603f0c5fb059b13
:10246c0023440593059b1a78252a40f0d78003f165
:10247c000108cdf81480059803782b2b1ad025d899
:10248c00202b1bd0232b1dd02a2b27d003f0e4f9b3
:10249c000b90059b1a78303a092a2ed801330593f4
:1024ac00f7e70134d2e7099b43f0010301300993ac
:1024bc000590e0e7099b43f00403f7e7099b43f021
:1024cc000803f3e7099b43f01003efe72d2bead049
:1024dc00302bd9d1099b43f00203e7e72b681a1d77
:1024ec001b682a600130002b05900b9305da099ac2
:1024fc005b4282f0010209920b93099bda0744bffd
:10250c0023f002030993059b1a782e2a0dd1002281
:10251c00581c0a9205905a782a2a25d10233059321
:10252c002b681a1d1b682a600a9305a803f03efb52
:10253c00059b0390187804f0d2f86928039979d098
:10254c0032dc632800f0cb8019dc252800f0d98020
:10255c00612853d000234ff0ff32cdf8148009933b
:10256c000b930a920093d4e003f076f90a90059b42
:10257c001a78303a092ad8d801330593f7e764283a
:10258c0058d06728e6dc2a4606a803f0effc0028a2
:10259c0000f0a180059b5a1c05921b7806aa09a97c
:1025ac00304604f015f938e0702873d015dc6e282d
:1025bc0000f08c806f28cdd12b46002206a801f0ac
:1025cc00ebfe002800f08780059b06aa013309a9c1
:1025dc003046059304f0faf81fe075283ad07828b5
:1025ec0048d07328b6d1802975d1059b2a68013350
:1025fc000593131d2b60126800237de02a4606a864
:10260c0003f0b4fc002866d0059b5a1c05921b787d
:10261c0006aa09a9304604f0dbf804443c44a7425e
:10262c007add3e4b4f221a604ff0ff3738462eb002
:10263c00bde8f0812b46012206a801f0adfe002872
:10264c0049d0059b06aa013309a93046059301f030
:10265c00f5ffe2e72b46002206a801f09dfe0028bc
:10266c0039d0059b06aa013309a93046059304f01d
:10267c00adf8d2e72b46002206a801f08dfe50b330
:10268c00059b5a1c05921b7806aa09a9304601f035
:10269c001df9c2e72b460022f02106a801f07cfeb2
:1026ac00c8b1059b01330593dde9062313430bd118
:1026bc001b4803f027ff099b009319490b9b02460b
:1026cc00304602f0e7f9a8e77823dde72b463a1904
:1026dc0006a802f01ffb059b013305939ee780299a
:1026ec00f9d1059b013305932b681a1d1b682a60d1
:1026fc008df8183006aa012309a9304602f082fe93
:10270c008be78029e7d1059b01330593099b009347
:10271c000b9b04490122d3e7274688e63811002099
:08272c009c670000a267000099
:020000040000fa
:10273400524e42443a20496e697469616c697a69ff
:102744006e670d00524e42443a205265626f6f74b8
:1027540020436f6d706c657465640d00524e424485
:102764003a20456e746572656420434d44204d6f74
:1027740064650d00524e42443a204661696c6564ba
:1027840020656e746572696e6720434d44204d6ff9
:1027940064650d00524e42443a2041647665727479
:1027a4006973696e672073746f707065640d0000df
:1027b400524e42443a204170706c69636174696f8f
:1027c4006e2061736b656420666f7220426c756560
:1027d400746f6f7468204d6f64756c652046616317
:1027e400746f72792052657365740d00524e4244c1
:1027f4003a20436865636b204d6f64756c65204ea9
:10280400616d653a2025730d0a000000524e424462
:102814003a20436f6e6e6563746564206d6f6475f2
:102824006c65206e616d65206d61746368657320ed
:1028340025732e0d0a09536b697070696e672052f7
:102844004e424420726567697374657220696e69cb
:102854007469616c697a6174696f6e2e0d0a000087
:10286400524e42443a20436f6e6e65637465642031
:102874006d6f64756c65206e616d6520646f657342
:10288400206e6f74206d617463682025732e204d53
:102894006f64756c652077696c6c20626520726565
:1028a40073657420746f20666163746f727920732a
:1028b400657474696e677320616e642072652d6936
:1028c4006e697469616c697a65642e0d0a00000092
:1028d400524e42443a20466163746f7279205265c5
:1028e40073657420446f6e650d000000524e4244bf
:1028f4003a2053657276696365204269746d61702c
:102904002053657420746f3a203078253032780d66
:102914000a0000003033343000000000524e4244bc
:102924003a20417070656172616e6365205365740d
:1029340020746f3a2025730d0a00000031383044aa
:1029440000000000524e42443a2053657276696397
:102954006520555549442053657420746f3a2025e9
:10296400730d0a00324133372c31302c30350000de
:10297400524e42443a205365727669636520436837
:1029840061726163746572697374696373205365fa
:102994007420746f3a2025730d0a000032413338d5
:1029a4002c30322c30350000324133392c30382c65
:1029b40030350000313030352c303300524e424433
:1029c4003a20485242532053657420746f3a2025ac
:1029d400730d0a00524e42443a2044657669636599
:1029e400204e616d652053657420746f3a20257301
:1029f4000d0a0000524e42443a20416476657274d6
:102a04006973696e6720737461727465640d000084
:102a1400524e42443a20496e697469616c697a6124
:102a240074696f6e20436f6d706c6574650d000082
:020000040000fa
:102a34002de9f04f099f154604468e461e46002b8d
:102a440040f0cc808a42b2fa82fc4cd9bcf1000f2f
:102a54000bd0ccf1200801fa0cfe20fa08f802fa97
:102a64000cf548ea0e0e00fa0cf44fea15491ffa69
:102a740085f8befbf9fa210c09fb1ae30afb08fbf3
:102a840041ea03439b452ad9eb180af1ff3004d2eb
:102a94009b4502d9aaf102002b44a3eb0b03a4b279
:102aa400b3fbf9f209fb123302fb08f844ea0344ce
:102ab400a04516d92c1902f1ff3303d2a04501d940
:102ac400931e2c44a4eb080443ea004027b124fae3
:102ad4000cf400233c607b603146bde8f08f504627
:102ae400dbe71346eee702b9ffdebcf1000f2ed19f
:102af4008b1a01264fea154eaab2b3fbfef8210c3d
:102b04000efb183308fb02f941ea0343994561d9e6
:102b1400eb1808f1ff3004d2994502d9a8f102005c
:102b24002b44a3eb0903a4b2b3fbfef10efb113358
:102b34004a4344ea0344a2424ed92c1901f1ff331b
:102b440003d2a24201d98b1e2c44a41abce7ccf1b7
:102b5400200e02fa0cf521fa0ef901fa0cf320fa10
:102b64000efe4eea03034fea154800fa0cf4b9fbd3
:102b7400f8f11ffa85fe08fb1192180c01fb0ef602
:102b840040ea0242964221d9aa1801f1ff3003d249
:102b9400964201d9881e2a44921b9bb2b2fbf8f9d3
:102ba40008fb192209fb0efe43ea02439e450fd996
:102bb400eb1809f1ff3604d29e4502d9a9f10206a9
:102bc4002b44a3eb0e0346ea004693e70846e3e7eb
:102bd4004e46f6e74046a4e70b46b6e78b4206d9d5
:102be400002f7ed00026c7e90001304674e7b3fa0f
:102bf40083fcbcf1000f0fd18b4201d3824209d870
:102c0400841a61eb030e0120002f6dd0c7e9004e3a
:102c1400002661e76046f7e7ccf1200e03fa0cf3d7
:102c240022fa0ef521fa0ef41d4301fa0cf320faf0
:102c34000ef10b434fea154a00fa0cf6b4fbfaf90d
:102c44001ffa85f80afb19401c0c09fb08f144ea39
:102c54000044a14202fa0cf23fd92c1909f1ff30c9
:102c640004d2a14202d9a9f102002c44641a9bb2f5
:102c7400b4fbfaf90afb194409fb08f843ea0441d6
:102c840088452cd9691809f1ff3304d2884502d943
:102c9400a9f10203294443ea0040a1eb0801a0fb87
:102ca40002894945c2464c4602d306d1464504d260
:102cb400b8eb020a69eb05040138afb1b6eb0a03bd
:102cc40061eb040606fa0efe23fa0cf34eea030344
:102cd40026fa0cf6c7e900369ae74846c6e74b469b
:0c2ce400d9e73e463846f7e63e46f5e6e6
:020000040000fa
:102cf0002de9f04f83b07c4b1c88a4b27b4b0122a2
:102d00001a707b4b1b88a34288bf4ff4a064794a9a
:102d1000b2f90010784ab2f80080784a1578784afb
:102d200016784ff0000a5746d146d646d446754825
:102d3000cdf804a023e0c25cd2b2312a0cd001331a
:102d40009ab293b29c420dd910f802c05ffa8cfc83
:102d50000132bcf1310ff4d101339bb201273e4661
:102d6000bc460ce04ff0010c09e0c25cd2b2352a3f
:102d70000cbf0226002601339bb20127bc469c42b1
:102d800040f28f80042efad801a252f826f000bf3c
:102d9000372d00006b2d0000a52d0000bb2d00007d
:102da0004d2e0000c25cd2b23b2a0cbf0326002687
:102db00001339bb20127bc46e1e71a464ff0010cf4
:102dc00010e001339bb201270426b9460021be461c
:102dd000019dbc46d3e701339bb201321ffa82fb4f
:102de0005c450dd993b210f802b05ffa8bfbbbf1d2
:102df0003b0ff0d10135edb2032de2d0e646eae714
:102e00004ff0010cbbe74ff00109cc46b7e7bef12c
:102e1000000f01d0394b1d70b9f1000f01d0354bb7
:102e200019800024364b1c70334b1c802f4b1c70b8
:102e30004ff4a0622146334803f0ecfb2a4b1c8080
:102e40002b4b1c802b4bb3f900004ae09b46c25c25
:102e5000d2b23b2a19d001331ffa83fc10f80b3091
:102e600001eb810103eb4101303909b21ffa8cf308
:102e70009c42c8d9e34610f80c20d2b20cf1010ce8
:102e80003b2aebd14ff00109cc4608f101081ffaab
:102e900088f8b8f1400fbad04ff0010a5746002623
:102ea0006de7bcf1000f01d0114a1380bef1000f95
:102eb00001d0124a1570b9f1000f01d00d4a1180ee
:102ec0000fb10f4a1670baf1000f02d00a4aa2f8e9
:102ed0000080b3f5a06f02bf054b00221a804ff0af
:102ee000ff3003b0bde8f08f4211002050110020e8
:102ef00044110020d2100020401100205111002068
:082f00004e110020000000202a
:020000040000fa
:102f0800000000000000005f000000070007001438
:102f18007f147f14242a7f2a1223130864623649f7
:102f28005620500008070300001c224100004122df
:102f38001c002a1c7f1c2a08083e08080000703064
:102f48000008080808080000606000201008040253
:102f58003e5149453e00427f400072494949462159
:102f680041494d331814127f1027454545393c4acd
:102f780049493141211109073649494936464949e4
:102f8800291e00001400000040340000000814222c
:102f9800411414141414004122140802015909069a
:102fa8003e415d594e7c1211127c7f494949363e9b
:102fb800414141227f4141413e7f494949417f0981
:102fc8000909013e414151737f0808087f00417f8c
:102fd80041002040413f017f081422417f4040408a
:102fe800407f021c027f7f0408107f3e4141413e22
:102ff8007f090909063e4151215e7f0919294626a4
:103008004949493203017f01033f4040403f1f20a7
:1030180040201f3f4038403f63140814630304787e
:1030280004036159494d43007f414141020408109e
:1030380020004141417f04020102044040404040d9
:10304800000307080020545438407f284444383887
:1030580044444428384444287f38545454180008b9
:103068007e09020c52524a3c7f0804047800447dd1
:1030780040002040403d007f1028440000417f4030
:10308800007c047804787c08040478384444443884
:103098007c18242418182424187c7c080404084864
:1030a8005454542404043f44243c4040207c1c20b5
:1030b80040201c3c4030403c44281028444c505090
:1030c800503c4464544c44000836410000007700ea
:0c30d80000004136080002010204020062
:020000040000fa
:1030e4004150505f42543a20535720312077617346
:1030f40020707265737365642e2042542044657693
:103104006963652077696c6c2062652061736b6507
:103114006420746f2066756c6c792072652d696efd
:10312400697469616c697a652e0d00004150505fc5
:1031340042543a20524e4244204d6f64756c6520cf
:10314400496e697469616c697a6174696f6e204350
:103154006f6d706c65746520210d00004150505fe7
:103164004254204552524f523a20524e4244204d2e
:103174006f64756c6520496e697469616c697a6104
:1031840074696f6e204661696c656420210d0000ce
:103194004150505f425420494e464f3a20524e42cd
:1031a40044204d6f64756c65204e6f7420466f75b6
:1031b4006e6420210d0000004150505f42543a20bb
:1031c40053656e64696e672068656172742072610c
:1031d4007465206f76657220746865206169723a3f
:1031e4002025640d0a0000002578000031303032bb
:1031f400000000004150505f42543a204661696c1f
:10320400656420746f2073656e642074686520643f
:10321400617461206f7665722074686520616972db
:1032240020210d004150505f42543a2052756e6e79
:10323400696e672077697468206e6f204254204d50
:103244006f64756c652041747461636865642e20d5
:1032540044617461206e6f742073656e74206f76a0
:10326400657220746865206169722e20210d00004a
:020000040000fa
:1032740070b50546504b1a689ab100214f4e00e0d4
:103284000246100902f00f03092b94bf3033373381
:10329400ccb2335501310f2af2d8494a1360464b58
:1032a40018604849284601f0b9fe38b10023464a5f
:1032b4001370464a1370464a137070bd4549284638
:1032c40001f0acfe18b1424b01221a70f5e74249f5
:1032d400284601f0a3fe002857d03d4b00221a7067
:1032e400681e3e4b03f1310110f8012f03f8012b46
:1032f4009942f9d1394c04220821204602f00efeed
:1033040008220d21204602f009fe0822162120463b
:1033140002f004fe08221f21204602f0fffd0422d1
:103324002821204602f0fafd04222d21204602f035
:10333400f5fd4f2003f096f8542003f093f8412054
:1033440003f090f8412003f08df82c2003f08af864
:10335400302003f087f8312003f084f82c2003f0a8
:1033640081f8302003f07ef8144ca07803f07af84a
:10337400607803f077f8207803f074f80d2003f0f8
:1033840071f80a2003f06ef897e71549284601f012
:1033940045fe30b10d4b01221a700d4b00221a70fc
:1033a4008be71049284601f039fe002885d0064bea
:1033b40001221a7081e700bf40120020441200204d
:1033c400241100200c5d000046110020e3100020b1
:1033d40047110020185d0000245d0000c80e002085
:0833e4002c5d0000385d0000c3
:020000040000fa
:1033ec002de9f04196468c46002932d0002830d089
:1033fc00514a576817f007073dd1bef1000f7dd039
:10340c004d4a127e12f0040f05d04b4a916a117e80
:10341c0011f0040ffad1484a518b41f00401518349
:10342c00117e41f08001117663458cbfa3eb0c0239
:10343c0000221fb15b084fea5c0c52083e4c217e07
:10344c0011f0010ffbd0002635463b494ff6ff78b3
:10345c0024e0002b4cd0bef1000f4bd0364a5768fd
:10346c0017f007075ed0bcf1000f60d113f0010f0d
:10347c0006d000203ae01cf0010f3dd1002bf5d115
:10348c00002808bf4ff0000cb7e730f815408c62ed
:10349c00013573b90c7e14f0010ffbd0654518d0c3
:1034ac00002ff2d1445d8c620135f2e7c1f828801f
:1034bc0014e00c7e14f0040ffbd08c6a9e42edd20b
:1034cc001fb90ef806400136e8e72ef81640013613
:1034dc00e4e72ab1002fe9d1ff248c62013ad8e746
:1034ec00154a137e13f0020ffbd00120bde8f081ca
:1034fc000020fbe70020f9e70020f7e70e4b1b7ece
:10350c0013f0040f18bf00237ff47faf0a4b5a8bc4
:10351c0042f004025a831a7e42f080021a7600238b
:10352c001a4686e700287ff468afbc4668e71cf0b3
:0c353c00010f9bd00020d9e700300040b8
:020000040000fa
:103548002de9f04f87b09df840400194bdf84450f4
:10355800bdf84840454e3668002e00f083809b46f3
:1035680090462b0a8df80c308df80d50230a8df8f3
:1035780008308df8094000f110038df814303c4be9
:103588001b7803fb08030f338df815308df81010e6
:10359800384c237803fb0b13013b8df8113002f0f4
:1035a80083ff02f08dff152002f0a2ff022105a87b
:1035b80002f05afd752002f09bff022104a802f0d8
:1035c80053fd5c2002f094ff02f086ff2378002b65
:1035d80046d0002300933de0022102a803f08ff8b3
:1035e800013ce4b2ff2c06d0002df5d0022103a83f
:1035f80003f085f8f4e74644f6b21d4b1b7809fb47
:1036080003f39e4208da17f8015b9df800301d416c
:10361800444605f00105e3e70af1010a5ffa8afa70
:10362800d3450fd0124b1b78019aa2f120070f4afd
:10363800126803fb0727c14608fb03f3002bebd0f6
:103648000026e0e70099013100910a4b1a78cbb2c5
:103658009a4205d94ff0000abbf1000fe2d1f1e719
:1036680002f070fe07b0bde8f08f00bf28110020ff
:083678004d1100204c1100204f
:020000040000fa
:1036800010b584b0002302938df80c303d4b1b78ad
:10369000042b0ad8dfe803f0030f3e5e67003a4bc5
:1036a0001b7823b9374b01221a7004b010bd37487c
:1036b00002f0f2fcf6e7344b03f1100292e803004b
:1036c0000090adf804100fcbfef790fb112817d037
:1036d00012280bd01028e8d1012002f0d1ff2c488d
:1036e00002f0dafc274b04221a70dee7002002f019
:1036f000c7ff284802f0d0fc224b02221a70d4e700
:10370000032002f0bdff244802f0c6fc1d4b052239
:103710001a70cae71b4b5b78002bc6d0194c218965
:103720001e4802f03bfd22891d4902a802f046fe18
:1037300002a802f0edfec3b202aa0421194801f06a
:103740006df918b10f4b03221a70aee7164802f05c
:10375000a3fcf7e7022002f093ff0a4b00225a7005
:1037600002221a70a1e7074b5b78002b9dd00f480f
:1037700002f092fc022002f083ff024b00225a70fa
:1037800093e700bff0100020bc100020e4300000e0
:10379000943100003031000060310000bc31000085
:1037a000ec310000f0310000f83100002832000058
:020000040000fa
:1037b000424b00221a7403f50063414a9a621a468a
:1037c000536813f0100ffbd13e4b4222c3f8842004
:1037d0001a4600bfd2f8843013f0400ffad03a4bab
:1037e00000229a6377225a631a46d36b13f0040fb0
:1037f000fbd1354b022283f830201a46d36b13f0ed
:10380000020ffbd1304a136c03f00303032bfad1f0
:103810002e4b01225a711a46d37813f0010ffbd0b8
:10382000284b2b4a1a621a46536813f0040ffbd137
:10383000244b284a5a621a46536813f0080ffbd1ea
:10384000204b4122c3f890201a4600bfd2f8903096
:1038500013f0400ffad01b4b4122c3f89c201a46ac
:10386000d2f89c3013f0400ffad0164b4122c3f827
:1038700008211a46d2f8083113f0400ffad0114b44
:103880004122c3f80c211a46d2f80c3113f0400f34
:10389000fad00c4b4122c3f814211a46d2f8143145
:1038a00013f0400ffad0094b6ff07f421a6141f2da
:1038b000ff725a610b221a62704700bf0014004069
:1038c00006013000001c00400010004000080040cd
:0838d0000701010007010200dd
:020000040000fa
:1038d8002de9f04f0e4649683568d6f80890f76824
:1038e8008bb0cde903230029acbf25f002050121e7
:1038f80015f010030593039b8346d3e900232fd0cb
:1039080052ea03002cd0a9f10208346915f0080026
:1039180004f1ff3408904ff00000385518bf08f143
:10392800ff388a46012c1ddc059b002b54d1089bcf
:1039380013b1013c20233b5532690095013a4b46af
:10394800121b3919584601f0a7f8dbf80430db05db
:1039580003d573689842b8bf18460bb0bde8f08f1e
:10396800c846d2e752ea030009d1baf1000f06dcd3
:10397800a8eb010050440028d6dda807d4d502f0f2
:103988000f000928d4bf00f1300e00f1570e04983b
:10399800a0f1410cbcf1190f04f1ff3410d84ef01e
:1039a800200cacf1610cbcf1190f09d870460991d3
:1039b800cde9062302f09cfedde906230999864637
:1039c800100940ea03704fea131c07f804e00af1f3
:1039d800ff3a02466346a5e7039bd3e9000150ea94
:1039e8000103a4d03a19049b02f8013c023c30239d
:0439f8003b559ce7b8
:020000040000fa
:1039fc0010b53d4b1b78062b0ad8dfe803f0040a00
:103a0c0019384a5d680001f04bff374b01221a70e0
:103a1c0010bd354bdb78002bfad0334c0023a3714f
:103a2c00324802f033fb01f05dff02232370efe715
:103a3c002f4b4ff480329a614ff40012c3f81421cb
:103a4c00294b5b78002be3d0274c00236370284b69
:103a5c004ff480325a614ff40012c3f818212548f4
:103a6c0002f014fb02f044f803232370d0e702f0b9
:103a7c00f3f90028ccd0fff735f91b4b98800028c0
:103a8c00c6dd01461c4802f083fb174b04221a705a
:103a9c00bee71a4802f0fafa134cb4f9040000f02d
:103aac0021fe174802f0f2faa08802f0ebfd002389
:103abc00e37005232370abe70b4bdb78002ba7d00f
:103acc00104802f0e3fa084b02221a70a0e7084be8
:103adc004ff40012c3f814214ff480325a61024b98
:103aec0001229a7194e700bf08110020143b0000da
:103afc0000800041403b0000683b0000943b00000c
:083b0c00b03b0000e83b0000a3
:020000040000fa
:103b14004150503a204170706c69636174696f6ef2
:103b24002077616974696e6720666f7220737769a4
:103b34007463682070726573730d00004150503acd
:103b44002053776974636820507265737365642cbd
:103b54002072656164696e672048522073656e73d4
:103b64006f720d004150503a2048522053656e73d5
:103b74006f722072656164204865617274205261bd
:103b840074652076616c75653a2025640d0a000021
:103b9400494e464f3a20446973706c6179696e6787
:103ba400207468652048520d00000000494e464fbd
:103bb4003a2054726967676572696e672074686534
:103bc4002041505f425420746f2073656e642064fa
:103bd400617461206f766572207468652061697212
:103be4000d0000004150503a2057616974696e67b6
:103bf40020666f72207377697463682070726573ce
:043c0400730d00003c
:020000040000fa
:103c080010b4354b4ff480321a601a61002283f8e1
:103c1800502083f838203149c3f880104ff4a03180
:103c2800c3f8901083f8c820012183f8cc1083f8da
:103c3800cd1083f8ce2083f8d01083f8d81083f8fd
:103c4800d91083f8de1083f8df1083f8b42022201f
:103c580083f8b60083f8b7200c2483f8b84083f8bb
:103c6800bc00332483f8bf401d4cc3f80041c3f89f
:103c7800104183f8452183f84c1183f84d1183f8de
:103c8800522183f8552183f8582183f8591183f874
:103c9800322183f8360183f8392183f83a2120212b
:103ca80083f83c114ff4a051c3f8801141f203414d
:103cb800c3f89011072183f8c01183f8c11183f864
:103cc800ca2183f8cc2183f8b02183f8b52183f881
:103cd800b6215df8044b70470080004100410100a7
:043ce8002000240193
:020000040000fa
:103cec002de9f84300295ed00f4600242f4e304baf
:103cfc0000f1010edff8bcc006e00cf801809a6000
:103d0c00621c0134974244d9726802f00702012afe
:103d1c0018d09968dd684a1cd3f81080424528bf3a
:103d2c000022954236d010f80480756805f007051e
:103d3c00012de2d14d000cf81180691c00250cf806
:103d4c000150dce7d3f80880d96808f101021d693d
:103d5c00aa4228bf002291421cd01ef8145010f821
:103d6c00141041ea0521756805f00705012d05d0f1
:103d7c00c9b20cf808109a60621cc2e74fea4805f9
:103d8c005ffa81f90cf818900135090a0cf8051046
:103d9c00f1e7144602f01afb10b1044b01229a759c
:103dac002046bde8f8830c46f4e700bf000400434e
:083dbc00e00f0020080b0020bd
:020000040000fa
:103dc4002de9f84f06460f46904699462a4ce56879
:103dd400a84710b163689847fae73146274802f0cc
:103de400dbf94146264802f0d7f93946304601f05e
:103df4001dff64220021234802f00afc0024264609
:103e04001d4fdff880b005e0fb69012098470134bd
:103e1400412c0dd8a84782460028f5d07b689847e6
:103e24000bf806000136fb69012098470124f1e7ed
:103e34001449154802f0b0f9b14517d8b9f1000f8b
:103e440017d0104b1a7898f800309a420ed10d4bc7
:103e540008f10100c844404506d010f8012b13f8be
:103e6400011f9142f7d001e04ff0010a5046bde82e
:103e7400f88f4ff0010af9e7546100001055000073
:0c3e8400285500002c0f002044550000c1
:020000040000fa
:103e90002de9f04385b0bdf8304002f1ff38804491
:103ea0005ffa88f85f2828bf5f20b8f15f0f28bf4e
:103eb0004ff05f0840450dd8074689465f2928bf67
:103ec0004ff05f095d1e0d44edb25f2d28bf5f25e9
:103ed000a94502d905b0bde8f08300f110038df8c3
:103ee0000c3008f110038df80d308df808908df826
:103ef0000950230a8df804308df8054002f0d8faf5
:103f000002f0e2fa152002f0f7fa022103a802f00b
:103f1000aff8752002f0f0fa022102a802f0a8f82a
:103f20005c2002f0e9fa02f0dbfa0de01c463146b3
:103f300001a802f0e8fb631cdbb2a542f6d17b1cb2
:103f4000dbb2b84503d01f464c460226efe702f02d
:043f5000fdf9bfe7d1
:020000040000fa
:103f540038b52e4c4ff08073c4f81431012001f0b1
:103f64004bfd4ff48073c4f894304ff48053c4f87d
:103f740098314ff48065c4f89851012001f03cfd5c
:103f8400c4f894510a2001f037fdc4f89851c820b0
:103f940001f032fd4ff48043c4f8943002f086fa05
:103fa40002f090fafd2002f0a5fa122002f0e2f8e5
:103fb400fd2002f09ffab12002f0dcf8ae2002f0fe
:103fc40099faa02002f096fa322002f0d3f8ca201f
:103fd40002f090fa5f2002f0cdf8a12002f08afaf4
:103fe400802002f0c7f8a22002f084fa202002f018
:103ff400c1f8a62002f07efaaf2002f07bfa02f0ac
:10400400a3f9642001f0f8fc38bd00bf0080004132
:020000040000fa
:104014002de9f041294e2a4c4ff00108294f13e0b5
:10402400226afab1616a236a40469847a36a013357
:10403400226b934228bf002314e0a26aedb2bd5460
:10404400a36294f83430fbb9337e13f0040f32d0fa
:10405400b56aa36a0133226b934228bf0023e26a44
:104064009a42ddd0e26a9a42eed0726802f0070208
:10407400012ae2d1a16a4a00e8b207f8110001322c
:10408400c5f30725bd54dbe702f0b0f9236a002b22
:10409400dad0616a94f83c3033b1a36b9842d3d33d
:1040a400236a00209847cfe7a36b9842ccd1236ab8
:1040b40000209847c8e7bde8f08100bf0004004332
:0840c400e00f002008090020b4
:020000040000fa
:1040cc002de9f041294e2a4c4ff00108294f13e0fd
:1040dc00226afab1616a236a40469847a36a01339f
:1040ec00226b934228bf002314e0a26aedb2bd54a8
:1040fc00a36294f83430fbb9337e13f0040f32d042
:10410c00b56aa36a0133226b934228bf0023e26a8b
:10411c009a42ddd0e26a9a42eed0726802f007024f
:10412c00012ae2d1a16a4a00e8b207f81100013273
:10413c00c5f30725bd54dbe702f06cf9236a002bad
:10414c00dad0616a94f83c3033b1a36b9842d3d384
:10415c00236a00209847cfe7a36b9842ccd1236aff
:10416c0000209847c8e7bde8f08100bf000c004371
:08417c0020100020c80d0020f6
:020000040000fa
:1041840000b1704770b502f049f90146254800f0c6
:1041940001fc254b1860254b1b78002b30d0244b99
:1041a4001a88214b1b681344b3f5a06f2fd3204cfe
:1041b400208822881f4d1b4ec2f5a0623146284438
:1041c40002f0def821882288174b1b68a3f5a06350
:1041d400c1f5a0611a443144284602f0d1f8124bcb
:1041e4001b68134a11880b449bb2138013889bb23b
:1041f400b3f5a06f04d31388a3f5a0639bb2138017
:10420400094b1a680021074802f002fa70bd084bf6
:104214001b88054a126803490648184402f0b0f89e
:10422400dde700bfd41000202c1100205011002025
:084234004211002000000020ef
:020000040000fa
:10423c00494e464f3a20426c7565746f6f74682016
:10424c004d6f64756c6520496e697469616c697a2f
:10425c0065640d00494e464f3a20426c7565746f8b
:10426c006f7468204d6f64756c65204e6f742046ba
:10427c006f756e642e2052756e6e696e672077694d
:10428c0074686f757420426c7565746f6f74680d0b
:10429c0000000000494e464f3a20426c7565746f21
:1042ac006f7468204d6f64756c65204852204461b2
:1042bc0074612053656e740d000000004552524f1e
:1042cc00523a20426c7565746f6f7468204d6f6440
:1042dc00756c65204e6f74696679204572726f72c9
:0442ec000d0000bf02
:020000040000fa
:1042f000f0b583b0089e013a0244d2b25f2828bfcd
:104300005f205f2a28bf5f2290420bd80d465f29ad
:1043100028bf5f25013b1944c9b25f2928bf5f212f
:104320008d4201d903b0f0bd141a01344b1b013387
:1043300014fb03f4a4b210308df8040010328df891
:1043400005208df800508df8011002f0b1f802f050
:10435000bbf8152002f0d0f8022101a801f088fe78
:10436000752002f0c9f80221684601f081fe5c2048
:1043700002f0c2f802f0b4f8651eadb27cb10024c0
:104380004ff6ff773319587802f0b6f8305d02f037
:10439000b3f80234a4b2013dadb2bd42f2d101f096
:0443a000d5ffbfe79f
:020000040000fa
:1043a400882910b536d012dc812943d003dc80295a
:1043b40040d0002010bd82290ed08429f9d119687b
:1043c40002b30a1d1a60b1f90020d3171ee0a02918
:1043d4002bd00bdc9029ecd11968073121f00701af
:1043e40001f108021a60d1e900230fe0c02901d0cd
:1043f400f029ded11a68111d1960136803600023c7
:10440400436005e00a1d1a600a880023c0e90023fe
:104414000120cfe7196822b10a1d1a6091f9002022
:10442400d3e70a1d1a600a78efe71a68111d1960ac
:104434001268cae719681ab10a1d1a600a68c4e743
:0c4444000c1d1c600b68c0e90032e1e7b1
:020000040000fa
:1044500030b4274ad36823f4e0631b041b0c43f0f9
:10446000bf6343f40033d360bff35f8f62b6e021d4
:1044700082f823101f4b83f80c134ff480541c60f8
:1044800083f80d134ff40050186083f8421304258d
:104490009d6083f8431308259d6083f8441310251d
:1044a0009d6083f8451320259d6083f84a134ff4df
:1044b00080659d6083f84b134ff400659d6083f821
:1044c0004c139c6083f84d139860536a43f4802327
:1044d0005362536943f010035361536a43f400334a
:1044e0005362536a43f48033536230bc704700bf59
:0844f00000ed00e000e100e036
:020000040000fa
:1044f80070b582b0254d264c264e14e0f25c8df83e
:104508000620013322699a4298bf0023e3606b6852
:1045180003f00703012b14bf9df80630bdf80630e1
:10452800ab62237dbbb92b7e13f0010f2cd0a268a0
:10453800e3689a4225d06a6802f00702012addd1b1
:104548005a0016f813108df806100132b25c8df877
:1045580007200133d6e702f027f82368002be2d0c2
:104568006168237f33b1a3699842dcd323680320b1
:104578009847d8e7a3699842d5d12368032098477c
:10458800d1e7024b01221a7502b070bd0004004346
:08459800e00f0020080b0020d9
:020000040000fa
:1045a00070b582b0254d264c264e14e0f25c8df895
:1045b0000620013322699a4298bf0023e3606b68aa
:1045c00003f00703012b14bf9df80630bdf8063039
:1045d000ab62237dbbb92b7e13f0010f2cd0a268f8
:1045e000e3689a4225d06a6802f00702012addd109
:1045f0005a0016f813108df806100132b25c8df8cf
:1046000007200133d6e701f0ddff2368002be2d05d
:104610006168237f33b1a3699842dcd32368032008
:104620009847d8e7a3699842d5d1236803209847d3
:10463000d1e7024b01221a7502b070bd000c004395
:0846400020100020480e0020ac
:020000040000fa
:104648002de9f041d2e900230c4686b007465fea1f
:10465800d37820684968a5680590e66841d0524239
:1046680063eb4303002908db20f002000590b8f152
:10467800000f02d1059948072ad5691e05a802909e
:104688000a20cde90010204600f084fbb8f1000fa5
:1046980002d1059b59071fd5b8f1000f00f1ff3073
:1046a80014bf2d232b2333542269059b0093013a11
:1046b8002b46121a3118384600f0eef97b68db05f4
:1046c80003d563689842b8bf184606b0bde8f081c4
:1046d8000807d2d42946d1e71a07e5d5013820239f
:0846e800e1e70029c0dac5e793
:020000040000fa
:1046f00030b589b005460146184801f04ffd00204d
:1047000001f0cafe164b0093164b1b78164a12781e
:1047100000211820fff7ecfd04acaab21349204693
:1047200001f04cfe00258df81950114801f06afb8c
:10473000104801f07ffb082205210f4801f014fe0c
:1047400002954ff6ff730193009402231a465021fd
:10475000012000f02dff09b030bd00bf84570000dc
:104760000c1300005211002053110020ac57000020
:0c477000b4570000c4570000082f0000e0
:020000040000fa
:10477c002de9ff41836946690093f61acde9016181
:10478c0004461746039216444ff002086d46424603
:10479c002946206801f029fcb04209d1d4e9023243
:1047ac00c4e905331a44a262384604b0bde8f0816e
:1047bc0000280dda6268002342f01002b8f1020ff3
:1047cc00a362c4e90533626015d06b68ff1aebe78e
:1047dc006b68984288bf0835a6eb000688bfc01ae4
:1047ec002b6803442b606b68a3eb000088bf08f1b7
:0a47fc00ff386860cbe71f46d6e7e0
:020000040000fa
:024806007047f9
:020000040000fa
:1048080008b5194b9847194b9847eff3108172b6c2
:10481800174ad2f8883043f47003c2f88830bff3df
:104828004f8fbff36f8f01b962b6124a936823f0b6
:10483800010393601346da6812f0010ffbd10d4ba8
:1048480024225a6001229a6001f076fa0a4b23f07a
:104858007f03074a9360094b9847094b9847094bd0
:10486800984701f037fffee7ef670000ef670000a9
:1048780000ed00e00060004100000000f951000078
:08488800ef670000ef6700007c
:020000040000fa
:104890001e4a137843f001031370536813f0010f9d
:1048a000fbd11a490b7843f010030b709923cb61ad
:1048b00000220a6202230b634a630b61144b10222d
:1048c0001a81012098821a849a851a87a3f84420b5
:1048d000a3f85020a3f85c20a3f86820a3f8742064
:1048e000a3f88020a3f88c20a3f89820a3f8a42094
:1048f000a3f8b020a3f8bc200b7843f002030b70a0
:104900000a46536813f0020ffbd17047002800409d
:04491000080d00206e
:020000040000fa
:104914002de9f0411c4ad36a956a89b30e46ab422d
:1049240008bf002227d00122dff864c0174ca0f191
:10493400020e0138144f0ce0e15c81540133396bf1
:10494400994298bf0023b24214d2511cab4212d0f8
:104954000a46dcf8041001f007010129ecd15900e2
:1049640014f813800ef812800131615c00f8121003
:104974000133e4e71d46044bdd621046bde8f081d7
:104984001d460a46f7e700bfe00f00200809002093
:0449940000040043d8
:020000040000fa
:104998002de9f0411c4ad36a956a89b30e46ab42a9
:1049a80008bf002227d00122dff864c0174ca0f10d
:1049b800020e0138144f0ce0e15c81540133396b6d
:1049c800994298bf0023b24214d2511cab4212d074
:1049d8000a46dcf8041001f007010129ecd159005e
:1049e80014f813800ef812800131615c00f812107f
:1049f8000133e4e71d46044bdd621046bde8f08153
:104a08001d460a46f7e700bf20100020c80d002009
:044a1800000c00434b
:020000040000fa
:104a1c00f0b589b00d4617461e460023019302934c
:104a2c0003930493059306930793164b00930a463e
:104a3c00014601a801f0a0fc2c1de4b286b9344457
:104a4c00e4b2114b1b882df80430684601f05afd76
:104a5c000a230e4ac1b26846fff7aef909b0f0bda1
:104a6c000deb04020a4b19889b782df804109370f7
:104a7c000735ecb2324639460deb040001f07cfcf4
:104a8c00dde700bf5348572c7066000074660000c9
:044a9c00d0670000df
:020000040000fa
:104aa0002de9ff471d460c9b13f0010906468a4677
:104ab000144601d195420bd822465146304601f0aa
:104ac00099f8a54204d82546284604b0bde8f087e9
:104ad0002f1b102f3a464ff0200128bf10226846a6
:104ae000b84601f097fd00bfb8f10f0f11d83b0990
:104af0006ff00f0202fb03726946304601f07af84c
:104b0000b9f1000fe0d122465146304601f072f86b
:104b1000dae710226946304601f06cf8a8f1100877
:044b2000e2e700bf09
:020000040000fa
:104b2400f0b51f4c2568a446002d36d00022294636
:104b340016461346d1f800e00f6986450ad132b112
:104b4400176101f110031846f0bd3946f2e7ccf8bd
:104b54000070f6e705d9ebb11c68a6453cbf1646c4
:104b64000b460a46002ff0d1002becd019461f69e2
:104b740051f8102b121a102a05d918600844103a5b
:104b84000761026007469d420cbfccf80070376194
:104b94000b46d8e716460b46e3e72b46d3e700bfa0
:044ba4003c110020a0
:020000040000fa
:104ba8001c4b1d4a1a604ff622029a814ff440327c
:104bb8005a601a46d369002bfcd1164a136843f091
:104bc80002031360d369002bfcd1144b00221a6234
:104bd8009a62da6283f8342083f83c209a63da8791
:104be8001a609a60da601a751a779a61094b5b68dd
:104bf80003f00703012b094b14bf4ff400724ff465
:104c080080721a631a61034b80229a7504229a757e
:104c1800704700bf0004004304011040e00f00206b
:020000040000fa
:104c28001b4b1c4a1a604ff622029a814ff44032fd
:104c38005a601a46d369002bfcd1154a136843f011
:104c480002031360d369002bfcd1134b00221a62b4
:104c58009a62da6283f8342083f83c209a63da8710
:104c68001a609a60da601a751a779a61084b5b685d
:104c780003f00703012b084b14bf802240221a635c
:104c88001a61034b80229a7504229a75704700bff7
:0c4c9800000c004304011040201000201c
:020000040000fa
:104ca40030b585b005460c4601ab194a07ca03c3a3
:104cb40023f8022b120c1a70164b53221a704e2230
:104cc4005a702c229a7004b36b1e134a601e55fa54
:104cd40080f000bf13f8011f02f8011f8342f9d1cd
:104ce40022460c48d31cdbb20d21c154111dc9b29c
:104cf4000a2343540532d2b200218154611d01aa12
:104d0400c9b2fff75df805b030bd2246e9e700bf40
:0c4d1400306000006010002062100020e1
:020000040000fa
:104d2000842910b523d00cdc812903d0822913d02b
:104d300080290bd119680c1d1c600b6803601a6078
:104d400013e0902921d003dc882917d0002010bd62
:104d5000a029efd0c029ece719680c1d1c600b6876
:104d60000360d1171046c3e900010120efe719687d
:104d70000c1d1c600b6803601a80f6e719680c1d97
:104d80001c600b6803601a70efe719680c1d1c604b
:0c4d900009680160d317c1e90023e6e7c1
:020000040000fa
:104d9c002de9f84f04460c9f6668d4f80cb02469d2
:104dac0010463a68013c002502f0020a0b9a0bf8f7
:104dbc000450002e1946b8bf0126012390464fea35
:104dcc00e279002c03dcd3b12046bde8f88f50ea21
:104ddc00010209d1721b002a06dc0a9a521b002a16
:104dec00f1ddbaf1000feed042464b4601f04cf823
:104dfc00013c134630320bf804200135e1e73b68e7
:084e0c0023f010033b60dfe717
:020000040000fa
:104e1400f8b5846a05460f46164654b1ab6a6a690a
:104e24009b1ab3420bd2324639462846fff7a4fcfc
:104e3400f8bd01f077fb0028f0d02046f8e7002efb
:104e4400f1d095f93430002b1bdbdbb23446621e03
:104e5400b95c994212d1224639462846fff78cfca8
:104e6400a042e5d32744341b22463946686901f041
:104e740087fa6b691c446c613046d9e71446002af2
:064e8400e5d13446f0e721
:020000040000fa
:024e8a0070476f
:020000040000fa
:104e8c0070b588b0064601ac144d0fcd0fc495e833
:104e9c00070003c424f8022b120c2270104c53236d
:104eac002370462363702c23a370e6700d232371ab
:104ebc000a2363710023a37101a801f023fbc3b281
:104ecc0001aa06212046fef777ff0446054bdb6955
:104edc00fa209847204608b070bd00bf146300004c
:084eec00601000205461000079
:020000040000fa
:104ef40038b5134b00241c70dc709c705c70114a34
:104f04004ff4803151614ff40011c2f8181101259a
:104f14009d7101f05ffb22460b49284600f028fff3
:104f24000a4801f019fc2146094801f0fdfb01f093
:104f34002ffc00f0c1fa074801f0acf838bd00bfff
:104f44000811002000800041516700005d4f0000ff
:084f54007d5b00000462000017
:020000040000fa
:104f5c0008b5032809d8dfe800f00209101710483b
:104f6c0001f094f80f4b0122da7008bd0e4801f0e5
:104f7c008df80c4b0122da70f7e70c4801f086f83b
:104f8c00084b0122da70f0e7094801f07ff800f0d5
:104f9c00cbfc044b06221a700022da70e5e700bf46
:104fac003c4200000811002060420000a0420000ba
:044fbc00c8420000e7
:020000040000fa
:104fc00010b584b0034601ac134a07ca03c424f8e1
:104fd000022b120c22701a091049532008704870d5
:104fe0002c208870092a94bf303257320b49ca707e
:104ff00003f00f03092b94bf303357330748037175
:105000000d2343710a2383710022c27101aa072173
:10501000fef7d8fe04b010bd306000006010002024
:020000040000fa
:1050200091f800c0f0b4bcf1000f24d00678f6b1be
:10503000b4450346074606d04678c6b1581cb44569
:1050400003460746f8d14a7872b146789642f4d1c1
:10505000013004464a1c03e014f8015f9d42e7d189
:1050600012f8013f002bf7d13846f0bc70473746a5
:105070003846f0bc704707463846f0bc704700bf62
:020000040000fa
:105080007fb5c36800911546002b18bf013a019205
:1050900082680446cde902230e4602226946006872
:1050a00000f094ff002808dc00f0180383f00802e9
:1050b00063681343636005460fe0019a8242fad2a7
:1050c000a368e363801ae268184420642ab15a1c7a
:1050d000e2632e441b7806f8013c284604b070bdfc
:020000040000fa
:1050e00037b5154d2b68044673b101f0bbf801903c
:1050f00001a801f048fa0f30019920f00f0001f0eb
:105100002bfa60b100232b60002c08bf01240f3460
:1051100034f00f0405d1094b0c221a60204603b06d
:1051200030bd042c38bf04242046fff7fbfc0028c8
:10513000f5d040f8044cf2e7481200203811002066
:020000040000fa
:1051400030b589b005460c461e2200210df1020043
:1051500001f060fa0e4b1b68adf800301b0c8df8a7
:105160000230224629460df1030001f00bf9033409
:10517000e4b2084b1b882df80430684601f0c8f9ea
:105180000a23054ac1b26846fef71cfe09b030bdcd
:0c519000cc670000706600007466000030
:020000040000fa
:10519c0030b589b005460c461e2200210df10200e7
:1051ac0001f032fa0e4b1b68adf800301b0c8df879
:1051bc000230224629460df1030001f0ddf80334dc
:1051cc00e4b2084b1b882df80430684601f09af9bc
:1051dc000a23054ac1b26846fef7eefd09b030bda0
:0c51ec00c86700007066000074660000d8
:020000040000fa
:1051f8000e4a38b5002313600d4a0e4c13600e4a50
:105208000e4d13600e4a13600e4a13600e4a536225
:1052180013610123936001f047fa01f0e5faac420b
:1052280000d338bd54f8043b9847f8e73411002000
:105238009c0f002070020000980f002074020000ec
:0c524800900f0020940f0020a00f002009
:020000040000fa
:1052540038b50d46044608b9002038bd43689b069e
:1052640007d5d0e905239a4216d80023c4e90533ab
:10527400a362d4e90f13994204d20122c91a206807
:1052840001f0b0fa0023c4e90f33002de4d0206804
:10529400bde8384001f093ba0022c36a114698472a
:0c52a4006369002be1d14ff0ff30d6e72a
:020000040000fa
:1052b00008b5144b9b7df3b1124a137edbb2927d8d
:1052c00012f0800f18d10f4a137edbb2927d12f0dc
:1052d000010f04d013f0010f01d0fff70df9094ab7
:1052e000137edbb2927d12f0040f04d013f0040f92
:1052f00001d0fef78ffe08bd13f0800fe3d000f061
:08530000f5f9e0e700040043a9
:020000040000fa
:1053080008b5144b9b7df3b1124a137edbb2927d34
:1053180012f0800f18d10f4a137edbb2927d12f083
:10532800010f04d013f0010f01d0fff735f9094a36
:10533800137edbb2927d12f0040f04d013f0040f39
:1053480001d0fef7bffe08bd13f0800fe3d000f0d8
:08535800eff9e0e7000c00434f
:020000040000fa
:1053600008b501f075f9124b1b680021186801f0af
:1053700097f9104b1b680021186801f091f9fef7ae
:1053800043fcfef715fafff73efa00f0b3fdfff716
:105390004bfc00f0a9fefff707fc00f09dfcfff7b7
:1053a00077fafff7a7fd00f039fafff751f808bdcb
:0853b000581100203c120020fe
:020000040000fa
:1053b80010b584b0114a01ab07ca03c31a80104c58
:1053c800522323702c2363703123a3700d23237180
:1053d8000a2363710023a37101a801f095f8c3b2f1
:1053e80001aa05212046fef7e9fc0446054bdb69c6
:1053f800fa209847204604b010bd00bf446700005b
:08540800601000205461000057
:020000040000fa
:105410002de9ff41134dd1f80080af88adf80c7035
:1054200006462868029002aca8798df80e00002a82
:1054300018bf1446d1e901571a461bb9204601f09e
:1054400067f80246002d02dbaa4228bf2a46cdf8a3
:1054500000803b4621463046fff722fb04b0bde802
:08546000f08100bfb4670000f9
:020000040000fa
:1054680010b588b00c46002301930293039304936c
:105478000593069307930c4b00930a46014601a82f
:1054880000f07cff0434e4b2084b1b882df804308c
:10549800684601f039f80a23054ac1b26846fef7a2
:1054a8008dfc08b010bd00bf5344412c706600004d
:0454b8007466000016
:020000040000fa
:1054bc0038b500210f4801f02df94ff4a0610e48ca
:1054cc00fff764fa0a2001f01ff90021012000f017
:1054dc00adff01f07bf8094c4ff48025c4f8145152
:1054ec00142000f085fac4f81851054b01221a70eb
:1054fc0038bd00bf85410000000000200080004145
:04550c004f1100201b
:020000040000fa
:1055100053656e64696e6720436f6d6d616e643aaa
:1055200020272573270a0d0045787065637465642c
:1055300020526573706f6e73653a20272573270ab2
:105540000d000000526563656976656420526573dd
:10555000706f6e73653a20272573270a0d0000bf10
:020000040000fa
:1055600030b589b005460c4620220021684601f07e
:1055700051f822462946684600f004ff0deb04026c
:10558000094b18684df8040099889b7991809371b4
:10559000684600f0bdffc3b26a4604210348fef727
:1055a00011fc09b030bd00bf6066000068660000f5
:020000040000fa
:1055b0002de9f04784b082468946154698460c9cf2
:1055c000bdf83470bdf8386023789bb1029601971e
:1055d000009343462a4649465046fdf7b5ff074b20
:1055e000187800fb05a001305ffa80fa14f8013f3b
:1055f000002bebd104b0bde8f08700bf4d110020b7
:020000040000fa
:1056000030b589b015464ff0ff32019202f2031215
:10561000029200b96846cde9030151b14c1e002940
:10562000059408da094b4f221a604ff0ff3009b099
:1056300030bd0c46f3e700220270cde906001a46a1
:10564000294601a800f0acfef1e700bf38110020a8
:020000040000fa
:1056500018b370b506460d4600f0a4fbddb100247a
:105660004ff08642137e13f0040ffbd0538b13f0e0
:10567000070f0bd1536803f00703012b936a14bf84
:10568000335526f814300134a542ebd1a54214bf9e
:0e5690000020012070bd2c46f8e70020704776
:020000040000fa
:10569e0013b5836a8df80710044673b16369a26a65
:1056ae00934212d3e36a01220df107012046984777
:1056be00012806d19df8070005e000f02eff002816
:1056ce00ecd04ff0ff3002b010bd9df8070094f9fa
:0e56de0034209042e6d05a1c62611870f3e747
:020000040000fa
:1056ec0008b5104b5b8b13f0070300d108bd0e4ab5
:1056fc00d3870c4b80221a7607225a831b7e13f019
:10570c00040f05d0074b9a6a1a7e12f0040ffad1d7
:10571c00054b1b6a002be9d0034b596a1b6a02200c
:0c572c009847e3e700040043e00f002072
:020000040000fa
:1057380008b5104b5b8b13f0070300d108bd0e4a68
:10574800d3870c4b80221a7607225a831b7e13f0cc
:10575800040f05d0074b9a6a1a7e12f0040ffad18b
:10576800054b1b6a002be9d0034b596a1b6a0220c0
:0c5778009847e3e7000c004320100020dd
:020000040000fa
:10578400446973706c61793a2057726974696e6701
:105794002074686520686561727420726174653a6a
:1057a4002025640d0a00000025642062706d00004d
:1057b400535732202d206e65772072656164000096
:0c57c400486561727420526174653a00ff
:020000040000fa
:1057d000022a70b5044616461d461ad043689b0639
:1057e00017d441b9002d08bf4ff4806505f10800ba
:1057f000fff776fc01466368012e43f020036360e7
:10580000c4e9021514bfff230a2384f83430024b85
:0c581000e362002070bd00bf154e0000d8
:020000040000fa
:10581c0070b40d4b00221a700c4e0d4c0fccc6f808
:10582c000100c6f80510c6f80920c6f80d3020682e
:10583c00c6f81100074bd3f8a03183f0010303f035
:10584c000103337070bc7047f0100020bc100020b6
:08585c0080640000008000419f
:020000040000fa
:1058640010b50278202a034600f10100f9d0a2f114
