:020000040000fa
:10000000f0ff0320f1cd0000fffc00001f04010001
:100010007f12010087150100271901000000000070
:1000200000000000000000000000000077f4000065
:100030001b0e01000000000077f400006d27010096
:1000400077f4000077f4000077f4000077f4000004
:1000500077f4000077f4000077f4000077f40000f4
:1000600077f4000077f4000077f4000077f40000e4
:1000700077f4000077f4000077f4000077f40000d4
:1000800077f4000077f4000077f4000077f40000c4
:1000900077f4000077f4000077f4000077f40000b4
:1000a00077f4000077f4000077f4000077f40000a4
:1000b00077f4000077f4000077f4000077f4000094
:1000c00077f4000077f4000077f4000077f4000084
:1000d00077f4000077f4000077f4000077f4000074
:1000e00077f4000077f4000000000000000000003a
:1000f0000000000077f40000858400008584000083
:10010000858400008584000077f4000077f4000007
:1001100077f4000077f4000077f4000077f4000033
:1001200077f4000077f4000077f4000077f4000023
:1001300077f4000077f4000077f4000077f4000013
:1001400077f4000077f40000dd850000dd85000015
:10015000dd850000dd85000077f4000077f4000005
:1001600077f4000077f4000077f4000077f40000e3
:1001700077f4000077f4000077f4000077f40000d3
:1001800077f4000077f4000077f4000077f40000c3
:1001900077f4000077f4000077f4000077f40000b3
:1001a00077f4000077f4000077f4000077f40000a3
:1001b00077f4000077f4000077f4000077f4000093
:1001c00077f4000077f4000077f4000077f4000083
:1001d00077f4000077f4000077f4000077f4000073
:1001e00077f4000077f4000077f400009d1e010012
:1001f00077f4000077f4000077f4000077f4000053
:1002000077f4000077f4000077f4000077f4000042
:1002100077f4000077f4000077f4000077f4000032
:1002200077f4000077f4000077f4000077f4000022
:1002300077f4000077f400000000000000000000e8
:1002400077f4000077f4000077f4000077f4000002
:1002500077f4000077f4000077f4000077f40000f2
:0402600077f400002f
:020000040000fa
:10026400f8b500bff8bc08bc9e467047d109010030
:10027400f8b500bff8bc08bc9e467047ad09010044
:020000040000fa
:08028400a4530000010000007a
:020000040000fa
:10028c0017ff090bfd0000f00000da0000c30000ae
:10029c00ac0000170018ec0d3fb93bb92ba627a6f4
:1002ac00147c117c0000606906b90000009635369c
:1002bc008d0039b8ecbbd6d1950000c400992e0046
:1002cc00001cab00be090092dae5ccf4cc5c0076e5
:1002dc00501ea9000000a71d557300000000387cbb
:1002ec0000000298eaeed2343ec33e7c170c26e2a4
:1002fc00707c00000047c5e47e06000038919d83a9
:10030c001a1f38807d8e2fc7e5e899100000377ac8
:10031c00000000000ec2d239000bc606005b792823
:10032c00ac007e5a0000715c09c516c00100005279
:10033c008434a6945daea50e07aac653b2844d5d57
:10034c0071000000a92ea12b39940000379f008a60
:10035c00495a7d0000b91d0025cdcc1e0033d2dae0
:10036c00a50300000000a25b00c832000000007b67
:10037c009429d9100000000011ece12300000000ca
:10038c000dd17fc779009761005cad000dc28fdc89
:10039c0010004bca050039fba700000191d5d7bd51
:1003ac003dbc86003fb92ba6147c0000004aa60178
:1003bc00d8213bc2007389008a7200827a005da149
:1003cc00001ae204009d5c000e6200005c970000c5
:1003dc00d22a007687003ebe0026d5002fcd0056cf
:1003ec00a9009f611ad8083e3400000000007b7ef3
:1003fc0000002f3a63663833489ddddf9e4e002d9a
:10040c00bec232000079534b8400000000004488c7
:10041c0000000000448800005cccd9e7cc920000be
:10042c004488000000004488000000000fd2073b05
:10043c00b900705c0000000072cccc1600160018dd
:10044c00eb0c0000000027cc0000856f0001dc16cf
:10045c000040b400009d560009e20800589b0000c3
:10046c00b53e00000058d6d88b0015e21501ba45f0
:10047c0055a300005c977188000041b36d880000a3
:10048c0041b850a300005c9d0cdf1501b954005716
:10049c00d8d79001000182e600ab84e8001e0be87f
:1004ac0000000ce800000ce800000ce800000ce870
:1004bc0000000ce81097d8d28d0013580003c846e2
:1004cc0000000000ab5b00000019de1400000ac441
:1004dc0058000007b86d000004b0720000006df801
:1004ec00cccccc9223afcbd0a4070e2a0000b15aaf
:1004fc0000000017ce31003fd3f47800000000114b
:10050c00b8680000000063a322080005b07256d83a
:10051c00cfd6920500000071ec0000000030bbe566
:10052c000000000ac721ea0000009b5400ec000008
:10053c0053950000ec0000b6e3e0e0fde011000094
:10054c000000ec000000000000ec000000decccc51
:10055c00cc1600e40000000007dd0000000013f0e2
:10056c00c9d088040005000ab173000000005f9f29
:10057c00140c0004aa6634d2cfcf860200109ed28f
:10058c00cc2400ae7a0000001ad9010000004daf57
:10059c00a5cfa8135ee01f0082954da5000039bdc4
:1005ac0010dc1a007e8c0048cccdad1069ccccccc4
:1005bc00ddb900000000996300000014e20800009f
:1005cc00007e8400000007e31a00000062a6000011
:1005dc000000d33600000047c70000000071cbd0ec
:1005ec00a90922dc07009f6616df0d00a74f0052f9
:1005fc00d8c1810008b3827acf235d97000055a142
:10060c0058b102006f980395d1cdb416007ad5d2ab
:10061c0081003dc80702b5506c880000559f42c848
:10062c000a09aab1007bcfc1859d000000008c682f
:10063c0000000036df1300bccdc034001ee31315e0
:10064c00b90d00000000000000160018eb0c0000b3
:10065c0023e41119ba0b0000000000000000002e6a
:10066c00e4005e95007a3100000000001a5e000084
:10067c001b93b9401993aa38000040c97d1800009b
:10068c0000024fb9a737000000002e694fcccccc2c
:10069c00cc850000000000004fcccccccc850000f9
:1006ac00423600000000209fb138000000001e926e
:1006bc00ae360000075cc2731a88c66e0c00484e3a
:1006cc000200000082cdceb0091b00009364000034
:1006dc0000986200005fc8080032c80e0000665225
:1006ec000000000d09000000947e000000002cabff
:1006fc00cfcbc55c0000003bc73100000d9e7000e5
:10070c0002c81947cfcead03c808329e04da1a08c6
:10071c00cd009330557820be0019c10093314b8b1e
:10072c000cd60762c607c70814cf046ccd8466ca02
:10073c004f000081a71e000020080000000058b9df
:10074c00cfca9f0e00000000000022fd2500000013
:10075c00000084d3860000000002e241e4030000a4
:10076c000048cd00c74a000000aa750071ac00001b
:10077c0012f7e4e0e4f814006eae000000b2700072
:10078c00cf3a0000003bd200f0cfcbd38802f01060
:10079c000009db38f0100014dc1ff0cfd1f264003c
:1007ac00f0100012cd42f01000008a82f010000808
:1007bc00c958f0cfcdd5870100047fd6d0d95500cc
:1007cc009aa809000c1318f00f0000000047c9008c
:1007dc000000000049c700000000001ef00c0000e3
:1007ec00000000b09e06000004000c98ddcecf394e
:1007fc00f0cfd0d6840800f010000b9faa00f010a8
:10080c00000009ea23f010000000c050f0100000b6
:10081c0000c450f01000000eee20f0100012aca23c
:10082c0000f0cfd5d57e0500f0cfcccc5cf010001d
:10083c000000f010000000f0cfcccc36f01000001f
:10084c0000f010000000f010000000f0cfcccc5ce9
:10085c00f0cfcccc5cf010000000f010000000f0e9
:10086c0010000000f0cfcccc33f010000000f010e2
:10087c00000000f01000000000026fcfd0dab502cb
:10088c000091b2110000250017ef120000000000cb
:10089c0047c600000000000048be000069cce22bf7
:1008ac001bed08000000cc3000a49f0a0000cc30e7
:1008bc00000789d6cdccc81ff010000000ec14f056
:1008cc0010000000ec14f010000000ec14f0cfcc81
:1008dc00ccccfb14f010000000ec14f01000000065
:1008ec00ec14f010000000ec14f010000000ec14fc
:1008fc0061ecd72e00a45c0000a45c0000a45c009a
:10090c0000a45c0000a45c0000a45c005ee9d22c96
:10091c000000fc0000fc0000fc0000fc0000fc00df
:10092c0000fc0000fc0000fa002fdbadc74100000a
:10093c00f0100011d144f01007c05c00f011a87742
:10094c000000f09ac7000000f089db4b0000f010ab
:10095c0035e41800f0100074b901f0100001b87300
:10096c00f010000000f010000000f010000000f08b
:10097c0010000000f010000000f010000000f0105b
:10098c00000000f0e2e0e06cf0b600000000bce813
:10099c00ded81800001dcce7e77f7300007c77e8f9
:1009ac00eb21d10000d220e8ec00c2303ba810e8cb
:1009bc00ec00648f9b4810e8ec000ee1d60310e8c5
:1009cc00ec0000a7880010e8f089000000a04ce1c2
:1009dc00e5320000a04ce15acf0400a04cea00b66e
:1009ec007800a04cec0020ec269f4cec000072c16f
:1009fc009a4cec000003cce74cec00000031fc4cb2
:100a0c00000a94d8d1ca4e0000ad93020020db40fe
:100a1c001eee0900000060b249c6000000002ee086
:100a2c0049c70000000030df1def0900000061b174
:100a3c0000ad92020020da40000b94d9d1ca4e00ce
:100a4c00f0cfcdc73c00f0100040e700f0100000e4
:100a5c00f70ef0100161cd00f0cfcfa21d00f01009
:100a6c0000000000f01000000000f010000000007a
:100a7c00000a94d8d1ca4d0000ad93020020da3e92
:100a8c001eee0900000060b049c6000000002edf19
:100a9c0049c70000000030dd1def0900000061b205
:100aac0000ad92020020da43000b94d9d8e5530034
:100abc00000000001ee53d00000000000048e82694
:100acc00f0cfcdca4100f0100035e900f010000065
:100adc00f50bf0100055ca00f0cfdfcd1a00f01066
:100aec0014e01d00f0100066b400f0100001c859ad
:100afc000077c6d0d0263ecd0400180542d307009f
:100b0c00000002aed867080000003eaedc1a000000
:100b1c000000a06e14040002af5850d5cece850153
:100b2c00b5cce2e8cccc0000708c00000000708cde
:100b3c0000000000708c00000000708c00000000b1
:100b4c00708c00000000708c00000000708c0000a5
:100b5c0004fc00000000f00c04fc00000000f00c91
:100b6c0004fc00000000f00c04fc00000000f00c81
:100b7c0004fc00000000f00c00f109000003f60377
:100b8c0000aa7000006ab3000015a8ced1ac160004
:100b9c00d3330000009d6a7a8c000006ea1520e22f
:100bac0001004db70000c63e00a55e00006c960922
:100bbc00ea0d000015e554ab00000000b8cd510063
:100bcc000000005df0070000bf4b000095bd000069
:100bdc0015f0047c8b0000d9de0e0053b20039cb2b
:100bec000029c69b5400926f0004ee0e7280519f38
:100bfc0000d12c0000b34abb370ce214e700000014
:100c0c00708ce30200bb7ea60000002de4a5000062
:100c1c0070e36300000001e85c000025ff21000088
:100c2c007b9d000028d60905d13b00bf4300003650
:100c3c00d0639f0000000094ec1300000000bfdea6
:100c4c0036000000629e3acf040015db1400a0753c
:100c5c0000a466000016e421bc56000021e20b350e
:100c6c00d80400a46b0000ad642ddb05000028df68
:100c7c00b85b000000009dd10100000000609c00ea
:100c8c0000000000609c0000000000609c00000060
:100c9c005ccccccce6b700000009da3b0000008845
:100cac00970000002ee10f000002c9520000006ff7
:100cbc00b00000001de51c0000008ceeccccccafcd
:100ccc0020f7cc4620d4000020d4000020d4000013
:100cdc0020d4000020d4000020d4000020d4000038
:100cec0020d400001cdfcc46b63e0000589c00000f
:100cfc0009e20900009d58000040b6000001dd1813
:100d0c0000008572000027d092d6bc0034bc0034a1
:100d1c00bc0034bc0034bc0034bc0034bc0034bc5b
:100d2c000034bc92d0a7000000007c8d00000009ac
:100d3c00bdb51a00006a623d940003c70700b71fd7
:100d4c00588000003c9d000003ccccccccb80000fb
:100d5c004bd202007b680000007cc8d1a1010009c5
:100d6c000000c2350280cbcdee485cbf0c00b2480f
:100d7c006f98001aeb4815c8d5ac944810e80000e1
:100d8c0000000010e7000000000010e492cece3905
:100d9c000010ff3e0039dc0010f3000000e51710d6
:100dac00f3000000e51710ff430039dc0010c49a73
:100dbc00cfcd39000058d1cfa81ee818000358aa8f
:100dcc0000000058aa00000020e8170006005cd3c1
:100ddc00cfa800000000000024d40000000024d4a0
:100dec000062d6cb89d41fe8160081d454aa000027
:100dfc002dd454a8000029d420e5130076d4006526
:100e0c00d6c973d20053ccd0a80a1ad00a008f7955
:100e1c0056ecccccd59058b1000000001cef27004c
:100e2c0003100051d3cfd1430052ddcc1900c13c8b
:100e3c00000082f4d4850000cc2c000000cc2c00e7
:100e4c000000cc2c000000cc2c000000cc2c0000ae
:100e5c00005fd5c06dd01ce615007dd453aa0000f0
:100e6c0029d454a9000025d41ee4130072d40064c4
:100e7c00d6c189d4000000002acb00280000819c38
:100e8c0000b9d5cfb81a000010e80000000010e837
:100e9c000000000010e48cc6d64810ff43003bce87
:100eac0010f300000ce710e800000ce810e800005c
:100ebc000ce810e800000ce8099f000010e810e8ae
:100ecc0010e810e810e810e800099f00000000107e
:100edc00e80010e80010e80010e80010e80010e846
:100eec000010e8001edb7ade6a00000010e400004f
:100efc00000010e40000000010e4001bd13310e4eb
:100f0c0013cd400010e3c270000010f979d60d002b
:100f1c0010e4007da70010e40002bf6810e810e8a0
:100f2c0010e810e810e810e810e810e810cf8ec7b1
:100f3c00c945b4d1b40510ff3b007ae40e00b94c9e
:100f4c0010f2000050ab0000906310e8000050a4b9
:100f5c000000906410e8000050a40000906410e8b9
:100f6c00000050a40000906410cf8cc5d74810ff2f
:100f7c0046003bcd10f300000ce710e800000ce835
:100f8c0010e800000ce810e800000ce8004fccd092
:100f9c00b81d001ae317005bbc0052a9000003f94e
:100fac000557aa000003f50319e519005eb7000008
:100fbc004fd0cdb51d00000010cf8fcecf39001013
:100fcc00ff3a003ddd0010f0000000e51710f400c2
:100fdc000000ed1610ff450045da0010e397c5ce72
:100fec00370010e7000000000010e80000000000cf
:100ffc0010e8000000000000005fd6ca6ed01ee5ad
:10100c0015007fd453aa00002dd454a800002ad474
:10101c0020e4120077d40065d7c883d40000000008
:10102c0023d40000000024d40000000024d40000cd
:10103c0010c779d34610fa62000010f604000010b5
:10104c00e800000010e800000010e80000000000bc
:10105c0014b6cad4625f9500010a19cb9a2f00000e
:10106c000147c86d12020043b74bd6ccca3b0000f7
:10107c000053000003dc000092fecc8c00f8000052
:10108c0000f8000000f8000000f211000079df9079
:10109c0020d800001cdc20d800001cdc20d800006c
:1010ac001cdc1fd8000027dc0af1110078dc00786a
:1010bc00dbc476d7d0340000a267718f0009ea1028
:1010cc0016e20357a70000b344b147000053a4dd58
:1010dc0002000006ea870000be3f0058f70a009a9b
:1010ec0064798000a7c24f00db1e35c105db4e9c26
:1010fc001dd70002e64c9f0add5f920000abc34f88
:10110c0000b4c04c000066f6090067fa0c00000041
:10111c005cb9000bd73000aa679278000013ddc2cf
:10112c000200001eddce080001bf4f7c9100739fb2
:10113c000004cc46cc3900009c6d6b960005e8157c
:10114c0011e40549b50000a94c9f590000499edfe8
:10115c000a000003dda100000000b94500000030ca
:10116c00d8020000b1d53c00000000004fcccce40c
:10117c00a200000bd22b00009b7000004ebb0100a4
:10118c0017d81b00008beccccc950000000aaeb439
:10119c00004db00000589c00007e88009ad61300c9
:1011ac0000877d0000589b0000579c00003cc40445
:1011bc00000085a960706070607060706070607015
:1011cc0060706070607060706070000082c41e009f
:1011dc0000817d00006c8800005aab010004bcc982
:1011ec00004eb202006b8800006c8700009a690008
:1011fc00839d08002dc3c5642c6a49111fa1d248d8
:020000040000fa
:10120c00d05802201c0000000000000048520220b0
:10121c00a800000000000000a858022008000000f0
:10122c000000000088510220c000000000000000f7
:10123c00785902201400000000000000a860022071
:10124c002c00000001000000493b0100a30d01002f
:10125c00670d010015ff000047120100b3fc0000f0
:10126c0067fc00000000000000000000000000000f
:10127c0000000000146102201800000001000000b2
:10128c0047310100fd3401002d0a01002d0a010037
:10129c002d0a01002d0a01005461022020000000db
:1012ac00010000001db100008b3c0100053701005e
:1012bc008f3c0100013c0100073c01003339010067
:1012cc000d3c0100685d0220e401000001000000fb
:1012dc00e76a00004139010089330100312e010019
:1012ec00fd3a0100b93701004f390100e76a0000ef
:1012fc00e76a0000e76a0000073b01005f18010085
:10130c00e76a00005129010071290100af2c01008e
:10131c00cd2c0100eb2c0100e76a0000e76a00000d
:10132c00e76a0000e76a00002d1801009f330100f6
:10133c00e76a0000b5330100cb33010043300100f4
:10134c005d300100e76a0000e76a0000e76a000010
:10135c00e76a0000476e0000e1330100113501001f
:10136c00e76a0000092d01003d1d01002516010052
:10137c00e76a0000e76a0000e76a0000e76a00001d
:10138c00477c00005f310100f73301004d2e010056
:10139c00e76a0000513b0100133c0100e76a0000c2
:1013ac00e76a0000e76a0000e76a00008b8800002b
:1013bc000d3401002334010009250100933c010088
:1013cc00e76a0000193c0100e76a0000e76a0000c8
:1013dc00e76a0000e76a0000477c00005f3101000b
:1013ec00f73301002d2501001f3c0100253c0100b5
:1013fc00e76a0000e76a0000e76a0000e76a00009d
:10140c00e76a0000e76a0000e76a0000e76a00008c
:10141c00e76a0000e76a0000e76a0000e76a00007c
:10142c00e76a0000e76a0000e76a0000e76a00006c
:10143c00e76a0000e76a0000e76a0000e76a00005c
:10144c00e76a0000e76a0000e76a0000e76a00004c
:10145c00e76a0000e76a0000e76a0000e76a00003c
:10146c00e76a0000e76a0000e76a0000e76a00002c
:10147c00e76a0000e76a0000e76a0000e76a00001c
:10148c00e76a0000e76a0000e76a0000e76a00000c
:10149c00e76a0000e76a0000e76a0000e76a0000fc
:1014ac00e76a0000e76a0000e76a0000e76a0000ec
:1014bc00e76a00003c5802202400000000000000f5
:1014cc00305e012010000000000000002c560220ad
:1014dc000400000000000000e8490220ec020000bb
:1014ec0000000000d4600220200000000100000079
:1014fc00000000008c020000800f000000000000c3
:10150c00000000000d00090001000000a8260000ea
:10151c006c6002203c000000010000000000000094
:10152c00ec1d0000bb0800000200000004000000dd
:10153c00600000003000000000120000bb0800003a
:10154c00ec1d000000000000000000000000000086
:10155c0000000000000000000c57022004000000f6
:10156c00000000003c5702200400000000000000b6
:10157c003c5a02200400000000000000f85a02202f
:10158c0004000000000000005e5b0220010000006f
:10159c0000000000fc5a02200400000000000000c3
:1015ac005f5b02200100000000000000685b02206d
:1015bc000002000001000000000000800004008414
:1015cc00100010801004f7bd108400f8e007e0ff55
:1015dc001f001ff8ff07ffff0c00100015001a007a
:1015ec001f00e002ec02f002f502fa02ff022004f6
:1015fc002c04300435043a043f0460056c05700576
:10160c0075057a057f05a006ac06b006b506ba06c8
:10161c00bf06e007ec07f007f507fa07ff070060c5
:10162c000c60106015601a601f60e062ec62f06282
:10163c00f562fa62ff6220642c64306435643a64ab
:10164c003f6460656c65706575657a657f65a066dd
:10165c00ac66b066b566ba66bf66e067ec67f06705
:10166c00f567fa67ff6700800c80108015801a8080
:10167c001f80e082ec82f082f582fa82ff82208465
:10168c002c84308435843a843f8460856c857085e5
:10169c0075857a857f85a086ac86b086b586ba8638
:1016ac00bf86e087ec87f087f587fa87ff8700a86d
:1016bc000ca810a815a81aa81fa8e0aaecaaf0aab2
:1016cc00f5aafaaaffaa20ac2cac30ac35ac3aacdb
:1016dc003fac60ad6cad70ad75ad7aad7fada0ae0d
:1016ec00acaeb0aeb5aebaaebfaee0afecaff0af35
:1016fc00f5affaafffaf00d00cd010d015d01ad088
:10170c001fd0e0d2ecd2f0d2f5d2fad2ffd220d454
:10171c002cd430d435d43ad43fd460d56cd570d5d4
:10172c0075d57ad57fd5a0d6acd6b0d6b5d6bad627
:10173c00bfd6e0d7ecd7f0d7f5d7fad7ffd700f85c
:10174c000cf810f815f81af81ff8e0faecfaf0faa1
:10175c00f5fafafafffa20fc2cfc30fc35fc3afcca
:10176c003ffc60fd6cfd70fd75fd7afd7ffda0fefc
:10177c00acfeb0feb5febafebffee0ffecfff0ff24
:10178c00f5fffaffffff41088210e3182529863187
:10179c00c7392842694acb5a0c630c630c63ae738d
:1017ac001084518cb294f39c54a596b5d7bd38c611
:1017bc0079cedbde1ce77defec5802201c0000002c
:1017cc0000000000ac5602203400000000000000b5
:1017dc00605b02200100000000000000085902209c
:1017ec005400000000000000906102200400000082
:1017fc0001000000d4600220005b02200800000001
:10180c0000000000615b02200100000000000000ed
:10181c00085b02201400000000000000625b022044
:10182c0002000000000000002a5502200200000007
:10183c00000000002e5a02200200000000000000f0
:10184c00465b02200800000000000000c0310220ae
:10185c002014000000000000e05602202c000000c4
:10186c00000000004e5b0220100000000000000091
:10187c00105702202c00000000000000c050022075
:10188c00c800000000000000d44e02200c00000034
:10189c0000000000b45002200c000000000000000a
:1018ac00b45902200c00000000000000405a022035
:1018bc000c00000000000000d45902200c000000b5
:1018cc00000000004c5a022018000000000000002c
:1018dc00405702202c00000000000000e04e0220c7
:1018ec00f400000000000000d05a022008000000a4
:1018fc0000000000645a02200c00000000000000f0
:10190c008c5902201400000000000000705a0220c4
:10191c0024000000000000005c5902201c000000a4
:10192c0000000000a059022014000000000000007c
:10193c00b05802202000000000000000945a022041
:10194c000c00000000000000e05902201000000014
:10195c0000000000a05a02200c0000000000000053
:10196c00c05902201400000000000000305a022070
:10197c000c00000000000000c457022028000000ea
:10198c0000000000c0050220001000000000000054
:10199c0000f30120c012000000000000409e012056
:1019ac00c03c000000000000c0250220000c00001c
:1019bc000000000000db0120001800000000000007
:1019cc00d44f0220e000000000000000605802200c
:1019dc002400000000000000c015022000100000d0
:1019ec0000000000186002205400000001000000fc
:1019fc00100000002c01000000000000200000007e
:101a0c0060000000000000004000000060000000ca
:101a1c00000000008000000020000000000000001a
:101a2c00c4000000300000000000000000010000b5
:101a3c001800000000000000000000000000000082
:101a4c0000000000645b02200200000000000000a7
:101a5c00f05902201000000000000000405e012040
:101a6c000040000000000000e45502204800000087
:101a7c0000000000705602203c0000000000000036
:101a8c001c5b022008000000000000009c6102208a
:101a9c0001000000010000006400000084610220cd
:101aac000c00000001000000a93a01001190000098
:101abc00b5f00000d85a0220080000000000000019
:101acc00245b02200400000000000000e05a022009
:101adc000800000000000000285b02200400000049
:101aec00000000002c610220280000000100000012
:101afc006500000000000000000000000000000075
:101b0c000000000066000000000000000000000063
:101b1c0000000000000000002c5b0220040000000c
:101b2c0000000000665b02200100000000000000c5
:101b3c006c5702202c00000000000000675b0220a4
:101b4c000100000000000000985702202c0000004b
:101b5c0000000000ac5a02200c0000000000000045
:101b6c00e85a02200800000000000000305b022050
:101b7c000400000000000000d44c02200002000011
:101b8c0000000000445b0220020000000000000086
:101b9c002c55022068000000000000003056022086
:101bac004000000000000000f0520220a0000000e5
:101bbc0000000000986102200200000001000000fb
:101bcc0001000000ec57022028000000000000007b
:101bdc0090530220900000000000000014580220d6
:101bec00280000000000000020540220900000009b
:101bfc0000000000b85a02200c0000000000000099
:101c0c008458022024000000000000000000002086
:101c1c00305e010000000000005a0220200000008d
:101c2c0000000000746102201000000001000000a0
:101c3c00205363616e20416761696e2e2e2e212028
:101c4c00205a02200e00000000000000b0540220b8
:101c5c007a00000000000000345b02200400000049
:101c6c00000000009455022050000000000000000d
:101c7c004c5f02206c00000001000000585f022045
:101c8c00545f0220585f0220000000002500000075
:101c9c00e8450220000400000000000000000000e5
:101cac000000000000000000000000000000000028
:101cbc000000000000000000153d010000000000c5
:101ccc00000000000000000000000000a1ea00007d
:101cdc0000000000000000000000000000000000f8
:101cec000000000000000000e04502200804000095
:101cfc0000000000f4600220200000000100000041
:101d0c0001000000030000000000000000000000c3
:101d1c00000000000000000000000000f05a02204b
:101d2c00f05a02200800000000000000385b02207e
:101d3c000800000000000000b85f022060000000f6
:101d4c000100000001000000030000000000000082
:101d5c000000000000000000000000000000000077
:101d6c00e9ed000000000000000000000000000091
:101d7c007f3c0100773101000000000000000000f2
:101d8c000000000000000000000000000000000047
:101d9c000000000000000000000000000000000037
:101dac00000000009461022004000000010000000b
:101dbc0001000000405b0220040000000000000055
:101dcc00c45a02200c0000000000000000000000bb
:101ddc00000000006666666666666666666666662f
:020000040000fa
:101dec00ffd8ffe000104a4649460001010100609f
:101dfc0000600000ffdb0043000302020302020349
:101e0c0003030304030304050805050404050a077a
:101e1c000706080c0a0c0c0b0a0b0b0d0e12100dfe
:101e2c000e110e0b0b1016101113141515150c0f9b
:101e3c00171816141812141514ffdb0043010304b1
:101e4c000405040509050509140d0b0d14141414cf
:101e5c001414141414141414141414141414141436
:101e6c001414141414141414141414141414141426
:101e7c001414141414141414141414141414ffc07f
:101e8c00001108003000600301220002110103114f
:101e9c0001ffc4001f000001050101010101010047
:101eac0000000000000000010203040506070809f9
:101ebc000a0bffc400b51000020103030204030562
:101ecc000504040000017d01020300041105122128
:101edc0031410613516107227114328191a10823fb
:101eec0042b1c11552d1f02433627282090a16171d
:101efc0018191a25262728292a3435363738393a1d
:101f0c00434445464748494a535455565758595add
:101f1c00636465666768696a737475767778797acd
:101f2c00838485868788898a9293949596979899c5
:101f3c009aa2a3a4a5a6a7a8a9aab2b3b4b5b6b7ea
:101f4c00b8b9bac2c3c4c5c6c7c8c9cad2d3d4d516
:101f5c00d6d7d8d9dae1e2e3e4e5e6e7e8e9eaf155
:101f6c00f2f3f4f5f6f7f8f9faffc4001f010003d9
:101f7c00010101010101010101000000000000014b
:101f8c0002030405060708090a0bffc400b511007b
:101f9c000201020404030407050404000102770093
:101fac00010203110405213106124151076171131d
:101fbc0022328108144291a1b1c109233352f01588
:101fcc006272d10a162434e125f11718191a262742
:101fdc0028292a35363738393a4344454647484943
:101fec004a535455565758595a636465666768691d
:101ffc006a737475767778797a8283848586878814
:10200c00898a92939495969798999aa2a3a4a5a637
:10201c00a7a8a9aab2b3b4b5b6b7b8b9bac2c3c463
:10202c00c5c6c7c8c9cad2d3d4d5d6d7d8d9dae28f
:10203c00e3e4e5e6e7e8e9eaf2f3f4f5f6f7f8f9b4
:10204c00faffda000c03010002110311003f00fd3e
:10205c0053a28a2800a28a2800ae6fc4ff00107c0d
:10206c0035e0bda75ef1069ba3ee1955bcba48c975
:10207c001ea0139af20fdaf7f681b8f82de0fb6b7d
:10208c003d16455f12eafbd6de461bbecd12e37c45
:10209c00b8e99f98019e32727a1af95fc5bfb2bf38
:1020ac008bee3e0c9f89daaea773a9ebd362faefe5
:1020bc004f9c192516ac3224321624b804315c70ae
:1020cc003e86bc9c4e3654e4e9d18f334aefc8fdb2
:1020dc002321e13a38fa34b199a623d852ab2e48d1
:1020ec0069794dfe495f4bbebdb43f41bc33f10b2a
:1020fc00c35e3356fec1f10e9bac151965b3bb49db
:10210c005947a900e4574b5f9ddf04ff0067df19b7
:10211c00f84fc016bf18b45ba68f5bb33f6db3d13d
:10212c001533f6db21feb031ea0baee2171c803b17
:10213c00915f767807c71a6fc46f08e99e23d22681
:10214c00f32c6fa212a827943d191bd195b208f558
:10215c0015b613113ad1fdec795bd7d51e5f12641d
:10216c00586ca6ab780afeda9464e1276b38cd7d07
:10217c0097deeb66b47692e8ce968a28af40f8b03c
:10218c00a28a2800a28a827b88ed636966916289a3
:10219c004659ddb6a8fa9a009e8a8649d218cbbc5d
:1021ac008a8bc7cccc00e7a0fccd4b401e1df12385
:1021bc00f678b5f8a9f1bf46f12f88163bbf0de9ab
:1021cc005a5f92b60e7227b832b1c30fee80437bc2
:1021dc009c7bd667c08f1b69da2f8bfc4ff066f3a4
:1021ec00538f553a131fecb92460c65b26504dbb78
:1021fc00e7abc5bb61f503d8d7b7f88acefb50d097
:10220c00b50b6d32f3fb3b509a078edeeda3f33c1e
:10221c00990a90afb723383ce2bf36356f807f19ef
:10222c00be0ef8f21d7acb47bed52fed6e4dcc3ad3
:10223c00b696a6e9266c92ccc07cd86c9c861ce623
:10224c00bc3c53785a91a94e0dddeafcbb7f5d8fe7
:10225c00d6b8729d3e23c1d6c063f171872412a5f6
:10226c0016ed6926da95de9d5a95b56a5e48fafb3d
:10227c00e16eb307c1ff008a57df096f2f236d2e64
:10228c00f11b54f0cef90168a2666325a11db6902e
:10229c00cc9eab9f6ae8be1afc37d53e18fc4ef1bb
:1022ac00441a76c1e03d6106a76f6f9ff8f3be2c10
:1022bc0004b1a8ecac3e6e3d31dabe31d13e0cfc23
:1022cc0070f8bdf1417c5b79a6de689ab35ca5c160
:1022dc00d5b53436d1db95236ec53f315500614001
:1022ec00fc7935fa3da7c73c7636e9772acd72b131
:1022fc00aacb2469b559f03240c9c0279c66b4c139
:10230c00c9d7bb945c545fbbe9d8e6e2aa34f29718
:10231c0018d2c442acebc12aca3aae78b4f9b4d9db
:10232c00befbdf99dad2b1768a28af60fcb828a25e
:10233c008a002be50ff829ab5e5e7ecb17da0e9f79
:10234c0038b7bdf116b7a668d139620665b94e0e1d
:10235c003b7cbcd7d5f5e71f19fe09e8bf1c34ff41
:10236c00000dd96b975796d6fa16b76baf42b68c51
:10237c0083cd9a024a23ee07e4249ce307d0d007ce
:10238c00e557c72fda27c6bf193f669f0d7c1db6d0
:10239c0092ea1f1b78262d42ebc6926e6564874b22
:1023ac0005222cd8e77fca7fde415f4b78bbf6d283
:1023bc00f893630ea3a2784534796fae2cfc1d6d97
:1023cc00a2dc6a50b308e7d563632c93107e7c14af
:1023dc000381c64f5e95f4c6a1fb217c38bcd73e69
:1023ec00276b96fa5cd63adfc43d39f4cd66fa1900
:1023fc00896f2dd36bb44ad95466386271cb2827b8
:10240c00bd701aa7fc13bfc09aa786b51d225f101a
:10241c00f89637bbb1d1aca2bf86ea34b8b56d31f2
:10242c00596de68d827df218e720f38c01401c5724
:10243c00c58f885fb4ff00ecfbf067c5fe30f1a7d9
:10244c008a3e1fdf9b71670e9d269ba7cca209a518
:10245c00bb8a367943e01411bbe7d0807b579a4b8b
:10246c00fb727c58f05c3e343278e7e1cfc528ac87
:10247c003c2775ac4179e1182468b4fb949e18a3f1
:10248c001392464379ac42f7dbf5af7cb5ff008283
:10249c007ce8d73e1cd7742f117c51f885e31d378f
:1024ac00564b6592df5fd552e638fc9b88e70550aa
:1024bc00a632c630a491f74903d6ba6f1b7ec27ff1
:1024cc000abc61ab6a5776da42f85e0d47c3f71e59
:1024dc001ebbb2f0f430d9c53452c91c82560a9cca
:1024ec00c88d1aed278f506803c3358f8edfb487e4
:1024fc00c02f117816efe23eb5e0df15685e28b309
:10250c00d4248ecf48b27b7960961b17b95dcc4032
:10251c00c8ca81c67393ec6baff825e22fdaafc64d
:10252c009e1ef0af8fb5df117c3d5f07ea9651ea36
:10253c00d3e996f613ade0b678cb8456c150f823a8
:10254c00a9c7bd6b7847fe09c7e12d0fc4da76ad7c
:10255c00aff8ff00c79e3a4d36d6e2d6cb4ff10608
:10256c00aa26b7b71342d0b3200808211881838e4e
:10257c0099e9567e1dfec0367f0df56d1a4b0f8cfa
:10258c003f12eeb44d28ed87c3f75aca9b168c291f
:10259c005585a30806c03f847a500785f85ffe0a6c
:1025ac00813f8b3e1f7c2dd22cae73f14356f1151f
:1025bc00969fae07d19d6c7ecd25cba4be5393b414
:1025cc0036d31e304f39a55fdb93e2a6bd37822d83
:1025dc0021f18fc3cf02b6af67abdd5d6a5e2e8291
:1025ec0048ad19ad7517b68e34657c862801c1ebe4
:1025fc00b58d7d4b07ec71e1287e0ef80be1d2ea2c
:10260c003a98d2fc1dab5beb1677798bed134b0c28
:10261c00cf2aaca7660a96739c01c0183595e11faa
:10262c00d833e1af87758f0fdf6a304be2a8345b8c
:10263c003bfb4b7b0d7a082e6dcfdaee8dcbb9437d
:10264c001fdf5624291d149ebd680343f62ff8e3a3
:10265c00e23f8e5e01f125e789af743d5b50d13cc2
:10266c004173a3aeafe1a0e2c2fe38d519658b79f8
:10267c0027077e3f015f41d637857c1fa1781b471a
:10268c004d2bc3ba358685a623175b3d36d92088da
:0c269c0031ea76a00326b66803ffd900df
:020000040000fa
:1026a8005f000000200000000000030000000000a0
:1026b80000000000000000002100030008000300e3
:1026c80000000800000003000000000022000400d1
:1026d80003000400000008000000040018000000c7
:1026e800230007000800070000000800000007009a
:1026f800240000002400060009000600000008006d
:10270800000006005c000000250009000800090020
:1027180000000800000009009400000026000900dd
:10272800080008000000080000000900dc000000a4
:102738002700020003000200000008000000020059
:1027480024010000280003000a000300000008001c
:10275800000003002c010000290003000a00030008
:1027680000000800000003004c0100002a000600d9
:102778000500060000000800000006006c010000cb
:102788002b000600050006000000060000000600f9
:102798008c0100002c00030003000300000002006d
:1027a80000000300ac0100002d000400010004003b
:1027b8000000030000000400b80100002e00030020
:1027c800020003000000020000000300bc0100003a
:1027d8002f000400080004000000080000000400a6
:1027e800c4010000300006000800060000000800d0
:1027f80000000600e40100003100040008000600a3
:102808000000080000000400140200003200060066
:10281800080006000000080000000600340200005e
:10282800330006000800060000000800000006004b
:1028380064020000340007000800060000000800d9
:10284800000007009402000035000600080006009a
:102858000000080000000600cc0200003600060058
:10286800080006000000080000000600fc02000046
:1028780037000600080006000000080000000600f7
:102888002c030000380006000800060000000800bd
:10289800000006005c03000039000600080006007e
:1028a80000000800000006008c0300003a00030046
:1028b800060003000000060000000300bc0300003f
:1028c8003b000300080003000000060000000300ae
:1028d800d00300003c0006000600060000000700c8
:1028e80000000600e80300003d00060003000600a3
:1028f80000000500000006000c0400003e00060071
:102908000600060000000700000006002004000082
:102918003f00050008000500000008000000050051
:102928004404000040000a0009000a0000000800f2
:1029380000000a006c0400004100080008000700bd
:102948000000080000000800c8040000420006005b
:102958000800070001000800000006000805000044
:1029680043000700080007000000080000000700f7
:1029780038050000440007000800080001000800ae
:10298800000007007005000045000500080006006b
:102998000100080000000500a80500004600050029
:1029a800080006000100080000000500d00500002e
:1029b80047000800080008000000080000000800a0
:1029c800f80500004800070008000800010008009a
:1029d8000000070038060000490004000800040051
:1029e8000000080000000400700600004a00030010
:1029f8000a000300ffff0800000003009006000023
:102a08004b0006000800070001000800000006004f
:102a1800b00600004c000500080006000100080090
:102a280000000500e00600004d00080008000a004c
:102a38000100080000000800080700004e00070019
:102a4800080008000100080000000700480700000f
:102a58004f000800080009000000080000000800f6
:102a68008007000050000600080007000100080069
:102a780000000600c0070000510008000a00090015
:102a88000000080000000800f007000052000600df
:102a980008000700010008000000060040080000c8
:102aa80053000600080006000000080000000600a9
:102ab8007008000054000600080006000000080026
:102ac80000000600a00800005500080008000800e3
:102ad8000000080000000800d008000056000700a9
:102ae80008000700000008000000070010090000a7
:102af80057000b0008000a000000080000000b0047
:102b080048090000580007000800060000000800f7
:102b180000000700a009000059000700080006008f
:102b28000000080000000700d80900005a0006004d
:102b3800080006000000080000000600100a000057
:102b48005b0004000a000400000008000000040004
:102b5800400a00005c0004000800040000000800af
:102b680000000400680a00005d0003000a00040079
:102b78000000080000000300880a00005e0006004c
:102b8800050006000000080000000600a80a000072
:102b98005f00060001000500ffffffff00000600c0
:102ba800c80a0000600003000200030000000900da
:102bb80000000300d00a00006100060006000600bd
:102bc8000000060000000600d80a000062000700a6
:102bd800080007000000080000000700fc0a0000c9
:102be800630005000600050000000600000005005f
:102bf800340b00006400060008000700000008000d
:102c080000000600540b00006500060006000600e0
:102c18000000060000000600840b000066000500a6
:102c2800080004000000080000000500a80b0000d0
:102c38006700060009000700000006000000060003
:102c4800d00b00006800060008000700000008001c
:102c580000000600080c00006900020008000300dc
:102c68000000080000000200380c00006a000300a1
:102c78000b000300ffff080000000300480c0000e1
:102c88006b000600080006000000080000000600af
:102c98006c0c00006c000200080003000000080033
:102ca800000002009c0c00006d000a0006000a00eb
:102cb8000000060000000a00ac0c00006e000600d0
:102cc800060007000000060000000600e80c0000ef
:102cd8006f0007000600070000000600000007005c
:102ce8000c0d000070000700090007000000060036
:102cf80000000700380d00007100060009000700f9
:102d08000000060000000600780d000072000500b3
:102d1800060005000000060000000500b00d0000d8
:102d2800730005000600050000000600000005000d
:102d3800d00d000074000400080004000000080022
:102d480000000400f00d00007500060006000700f2
:102d58000000060000000600100e000076000600c5
:102d6800060006000000060000000600340e000001
:102d780077000900060009000000060000000900ad
:102d8800580e000078000600060006000000060045
:102d980000000600900e00007900060009000600f9
:102da8000000060000000600b40e00007a000500ce
:102db800060005000000060000000500ec0e0000fb
:102dc8007b0004000a000400000008000000040062
:102dd8000c0f00007c0002000b0006000200080037
:102de80000000200340f00007d0004000a00040007
:102df80000000800000004004c0f00007e000600e0
:102e0800020006000000050000000600740f000024
:020000040000fa
:102e18002de9f04f8db0099090f8cc87b8f1000fec
:102e28004ad0b8f1010f00f0cf80b8f1020f00f0de
:102e38006b81b8f1030f00f01d820999d1f8043aab
:102e4800d1f8fc291344adf82830d1f8083ad1f864
:102e5800002a1344adf82a30bc4b1b78adf82c304f
:102e6800bb4b1b78adf82e3028310aa80cf0f2fcc9
:102e7800012800f0ca82b54b1b7809990846d1f899
:102e8800042a1344c1f8043ad1f8ec19b0f84220e6
:102e98000a44934208dbc0f8041aad4b1a78d0f8fc
:102ea800083a1344c0f8083a099b98690cf09afd4f
:102eb80000200db0bde8f08f0820a44b1870a44b7b
:102ec8001870099c04f1040acdf800a0002304221c
:102ed800014609f001ff60690ff026fea06104f2c7
:102ee800c4439c4a136004f244539b4a136004f29f
:102ef800c4539a4a13609a4b00221a80994f4ff094
:102f0800000b954e954d994659e0404634e04246af
:102f180040e04346120242ea00400343b9f8002069
:102f280050460cf013f823680233236033680233e9
:102f380033602b6802332b603988013189b23980bc
:102f4800072933d82368b3f900c00cf1800c4fea85
:102f5800cc1c3368b3f90030834a13602a68b2f98d
:102f6800002082480260b42000fb02c0c011ccd40b
:102f7800ff28a8bfff20c0b26ff02b0e0efb03ccba
:102f88006ff05a0e0efb02c2d211c0d4ff2aa8bf9e
:102f9800ff22d2b203eb031ec3eb0e136344db1113
:102fa800b7d4ff2ba8bfff23dbb2b3e7b9f80030d3
:102fb80001339bb2a9f80030072b3ff63eafa7f8c4
:102fc80000b00021634cbde70820604b1870102149
:102fd8005f4b1970099c231d07930093002304225b
:102fe80009f07afe60690ff09ffda0610023604a36
:102ff8001370584cdff86091dff86081584f9a469b
:103008009b466de0dc463fe05e464be058463302a7
:1030180043ea0c43564e3678dff858c11cf8066070
:1030280032440343d20007980bf090ff2368023321
:1030380023602988013189b2298007293ed823686d
:10304800b3f900e00ef1800e4feace1e3a8856081a
:1030580001ebc606d9f8003033f91600424b186068
:10306800d8f8003033f91660404b1e604ff0b40cae
:103078000cfb06ec5feaec1cc4d4bcf1ff0fa8bf44
:103088004ff0ff0c5ffa8cfc6ff02b0303fb00ee94
:103098006ff05a0303fb06e6f611b5d4ff2ea8bf5e
:1030a800ff26f6b200eb0013c0eb03107044c0110a
:1030b800acd4ff28a8bfff20c0b2a8e73b880133e3
:1030c8009bb23b80072b03d8a5f800a05946b6e76a
:1030d800274a13780133dbb21370012b3ff6adaeec
:1030e800099901ebc31202f2c44222609b0103f268
:1030f800c453ca18c9f8002080330b44c8f80030fc
:10310800a7f800a0174ddfe71020104b1870082112
:103118000f4b1970099c231d079300930023042269
:1031280009f0dafd60690ff0fffca0610023104a86
:103138001370084cdff82090dff82080084f9a467b
:103148009b4683e0dc4655e05e4661e0625b022018
:10315800635b0220105b0220085b02200c5b0220ec
:10316800485b02202a550220145b0220185b0220cb
:10317800615b0220a03c01005846330243ea0c433d
:10318800b04e3678dff8ecc21cf806600343120133
:10319800314407980bf0dafe23680233236029884c
:1031a800013189b2298007293ed82368b3f900e0a4
:1031b8000ef1800e4feace1e3a884e0806ebc20684
:1031c800d9f8003033f916009f4b1860d8f8003052
:1031d80033f916609d4b1e604ff0b40c0cfb06ece7
:1031e8005feaec1caed4bcf1ff0fa8bf4ff0ff0c98
:1031f8005ffa8cfc6ff02b0303fb00ee6ff05a03b1
:1032080003fb06e6f6119fd4ff2ea8bfff26f6b2f1
:1032180000eb0013c0eb03107044c011acd4ff28be
:10322800a8bfff20c0b2a8e73b8801339bb23b8010
:10323800072b03d8a5f800a05946b6e7814a1378aa
:103248000133dbb21370012b3ff6f7ad099901eb9f
:10325800c31202f2c4422260db0003f2c453ca184c
:10326800c9f8002080330b44c8f80030a7f800a044
:10327800774ddfe71020774b1870774b1870099c53
:10328800231d0793009300230422014609f024fd1f
:1032980060690ff049fca06100236a4a13706f4d02
:1032a800dff8dcb1dff8dca16d4e4ff00002adf8bd
:1032b800222089e04ff0000c31e000213fe000229d
:1032c8000b0243ea0c43b7f800c06649098801ebd2
:1032d8004c011343644a1288014407980bf036fee8
:1032e8002088013080b22080012834d82b689a1cad
:1032f8002a60b3f900e00ef1800e4feace1ed8f82e
:1033080000104ff0b40c0cfb01ec5feaec1cd1d4bc
:10331800bcf1ff0fa8bf4ff0ff0c5ffa8cfcd9f887
:1033280000206ff02b0303fb02ee6ff05a0303fb40
:1033380001e1c911c1d4ff29a8bfff21c9b202eb1d
:103348000213c2eb03127244d211b8d4ff2aa8bfe9
:10335800ff22d2b2b4e73b8801339bb23b80032bf8
:1033680015d83288520803ebc2039bb2dbf8002061
:1033780032f91320c9f80020daf8002032f91330a6
:10338800c8f80030bdf8223023800020aee733882b
:1033980001339bb23380072b0ed8344a128813446a
:1033a800314a1380bdf822303b800023dff8989023
:1033b800dff898802e4cd4e7224a13780133dbb229
:1033c8001370032b3ff639ad2a4ad15c254a118088
:1033d8005a0829498a5c25490a80099901ebc312d0
:1033e80002f2c4422a60254ad35c03f262335b00ce
:1033f800ca18cbf8002080330b44caf80030bdf857
:10340800223033800023124fc7e709980146036b27
:103418000493d0f8083ad0f8002a13440393d0f85c
:10342800043ad0f8fc29134402930b4b1b78019300
:10343800084b1b780093446a00231a460431a047be
:1034480019e500bf615b0220145b0220185b0220b3
:103458002a550220625b0220635b0220105b022077
:10346800485b0220465b02204c5b02204a5b02203c
:103478002e5a02209c3c0100a03c0100983c01000f
:08348800085b02200c5b02202e
:020000040000fa
:103490002de9f04f87b0044600274ff0010bba46e4
:1034a0002368a26b9b689a4280f07082baf1010f88
:1034b00044d0256a23465a4659460df10d00a847c7
:1034c0009df80d50ff2debd1266a23465a465946ea
:1034d0000df10e00b0479df80e30d92b40f2db8085
:1034e000db2b00f05f81c0f02382dd2b00f04e81ea
:1034f000e02b40f0db8020460ef0caf90f2840f2a6
:103500002a81256a23460522594604a8a8479df822
:1035100010304a2b00f0238120460ff0acfd84f8d8
:103520003d0020460ff0a7fd84f83e0094f83d30a2
:10353000012bb5d0642084f8be04f6e194f846303f
:10354000012b0cd0032b40f01f8294f84a30012b42
:103550000bd0022b4fd0642084f8be04e5e184f840
:10356000c334002084f8cc07dfe194f84d30012b00
:1035700022d0022befd194f84b30012bebd194f8f1
:103580004e30012be7d1e36c23f47f0323f47f4318
:10359000c04a9342dfd1042384f8c334002084f866
:1035a000c60784f8c707012384f8c837022284f8c5
:1035b000c92784f8cc37b8e194f84b30012bcad135
:1035c00094f84e30012bc6d1e36c23f47f0323f42f
:1035d0007f43b04a9342bed1032384f8c334002012
:1035e00084f8c607012384f8c737022384f8c83754
:1035f00084f8cc0799e194f84d30012b27d0022ba9
:10360000a9d194f84b30012ba5d194f84e30012b61
:10361000a1d1e36c23f47f0323f47f439d4a9342bb
:1036200099d1062384f8c334002084f8c60784f8af
:10363000c70784f8c80784f8c907012384f8ca3784
:10364000022384f8cb37032384f8cc376de194f858
:103650004b30012b7ff47faf94f84e30012b7ff479
:103660007aafe36c23f47f0323f47f43894a9342c8
:103670007ff471af042384f8c334002084f8c607b4
:1036800084f8c707012384f8c837022384f8c937b0
:1036900084f8cc3749e1d02bbff402afc02b10d057
:1036a000c42b00f0e380012b3ff4faae20460ef06d
:1036b000eff8012840f264810238a36b1844a0633c
:1036c000eee620460ef0e4f80546082839d92046f3
:1036d0000ff0d1fc84f8400020460ef0d9f8a4f891
:1036e000440020460ef0d4f8a4f8420020460ff023
:1036f000c2fc84f8460000eb40030733ab4226daf5
:10370000002610b3f5b220460ff0b5fc254485f82d
:10371000470020460ff0affc8df80d00030985f837
:103720004a3000f00f0085f84d0020460ff0a3fc52
:1037300085f85000013694f84620f3b29a42e1d859
:10374000aee6642084f8be04efe08246a8e664207a
:1037500084f8be04e9e0642084f8be04e5e09df846
:103760001130462b7ff4d8ae9df81230492b7ff4f0
:10377000d3ae9df81330462b7ff4ceae9df81430b7
:10378000002b7ff4c9ae84f83cb0c5e620460ef0ad
:103790007ff804287ff484ae20460ef079f8a4f870
:1037a000d4017de620460ef073f8422802d9574630
:1037b000824645e0642084f8be04b6e023465a46bb
:1037c00059460df10f00276ab84723465a46594615
:1037d00004a8276ab8472b7803eb881304eb43034c
:1037e0009df80f109df8102002eb0122a3f8542041
:1037f0000135b54216d08df8109094f85330002b57
:10380000dcd123465a4659460df10f00276ab847c6
:103810002b7803eb881304eb43039df80f20a3f8e8
:103820005420e5e7019f94f85330002b0cbf41234f
:103830008123aaeb030a1ffa8afabaf1420f13d9bd
:1038400020460ff018fc8df80d0000f00f0894f8da
:10385000533043ea101384f853300f4d05f14006fe
:103860004ff000090197c6e7ba4619e620460ef068
:103870000ff80546122825d8642084f8be0454e0c9
:1038800004eb031909f2d71904eb032303f2f71829
:103890002be000bf01000001ac0a0100b9f1100fdc
:1038a00040d8276a23464a4659464046b847a5ebc2
:1038b0000905adb294f8d631013384f8d631122d12
:1038c0007ff6eead20460ff0d6fb8df80d0000f030
:1038d0000f03c0f30017002fd2d13f331b0103f1b8
:1038e0000709a144273304eb030823461022594655
:1038f0004846266ab04709f1ff3309f10f014ff03e
:10390000000900bf13f8012f4a441ffa82f98b42c5
:10391000f8d1113dadb2a94504d8002fbed0b9f5fc
:10392000807fbed9642084f8be0407b0bde8f08f64
:1039300020460df0adff0646022817d920460ff0ad
:103940009afb8df80d00f71ea7eb4007bfb294f865
:10395000463083420ed143000233b3420ada0026d6
:1039600078bba36b3b44a363da4699e5642084f8f3
:10397000be04dae7642084f8be04d6e75d460de0b5
:10398000642084f8be04d0e70020cee794f83c0021
:1039900010f1ff3018bf0120c7e7554620460ff051
:1039a0006afb8df80d00631900f00f0283f8b8244c
:1039b000000983f8bb04013694f84620f3b29a421a
:1039c000cfd920460ff057fb8df80d0094f8473003
:1039d0008342e2d094f848308342cfd094f8493003
:1039e000834208bf0225d9d0022de4d8d6e700bf14
:020000040000fa
:1039f0002de9f04f87b0a74cdff8a8a20af11c030d
:103a0000029304f1440b0be00023a360022284f82c
:103a10002820636423689b6859460720984700bfa5
:103a200094f82820531e002a00f04d82092bfad862
:103a300001a151f823f000bf093a0000613a0000eb
:103a4000c73b00006f3c0000a93c00007d3d00002a
:103a5000853d0000e93d0000ef3d0000153e0000ff
:103a6000a368636423689b6859460f209847002821
:103a700003dd092384f82830d2e7a0680df06cff3d
:103a80002062006e606224300ff0a6fe606a303063
:103a90000ff0a2fea0680df0dffd40017e4b1a582a
:103aa0004ff48043b3fbf2f37c4a1360e368012bcd
:103ab0000fd9606a436863b1002500bf50f8241b2a
:103ac00001ebc5010cf0dcfa0135606a43689d42e8
:103ad000f4d3606a0369002553b1c16801ebc501e5
:103ae00024300cf0cdfa0135606a03699d42f4d3ad
:103af000836a1bb9092384f8283091e724300bf03e
:103b000055fa606a24300bf0e5f8606a24300bf057
:103b10002bfea0680df0bafd012807d0606a5f4b4c
:103b20001968243007f046fd00260be0606a5b4b05
:103b30001968243007f09afdf6e7606a04a930306e
:103b40000cf09efa636a9a6ae2b153f8241f04aa41
:103b50000868496803c2314618460ef006fc636add
:103b60005a6b002ae9d00025186b04a900ebc500a8
:103b70000bf04cfe0128e5d00135636a5a6b954283
:103b8000f2d3dae7a0680df081fd01280dd0606a5c
:103b9000303008f0bcfb002323612363636a5b6b56
:103ba00043b9092384f828303ae7606a303008f0d6
:103bb0005dfbf0e7a0680df04ffd0af02ffa03233c
:103bc00084f828302ce7636a22695b6b9a4203d140
:103bd0000a2384f8283023e74ff0ff332364029848
:103be0000ff092fe78b3236cb3f1ff3f3ff418afb0
:103bf00001260025a0680df0affe8146636a2169a9
:103c00001b6b03ebc10108f0c9fe636a22691b6be1
:103c100003ebc203b3f90470b3f90680a0680df09a
:103c20001bfd039500951e4b334402464146384622
:103c300009f056f899f85c304bb1022b0bd00423f5
:103c400084f82830ece6002626645546d2e799f839
:103c50005030052bf3d103980af0c2feb0f1ff3fbc
:103c6000edd12a69002168690ff02efde7e7a06811
:103c70000df072fe44300cf0dbf8606128b10023d7
:103c8000c377052384f82830cae6072384f8283050
:103c9000c6e600bfe4550220147f0000205b02202e
:103ca000405e0120705602206569ab7f6bb12b68c6
:103cb0009b6b2846984701280bd0ab7f022b14d072
:103cc000ab6c003318bf0123ab77062384f8283090
:103cd000a6e62b685b6c284698470028edd12b6838
:103ce000d3f8183128469847efe72b6c5bb304a94b
:103cf00028460bf0e7fcbdf91430002b12ddbdf9ae
:103d00001630002b0edd636a21691b6b03ebc101ca
:103d100004a80bf0a3fd58b92b68d3f81831284636
:103d20009847d2e72b68d3f8183128469847cce754
:103d3000636a20691b6b04f1180204a903ebc0003d
:103d40000af0f4fc09e0636a21691a6b04f11803b4
:103d500002ebc1021068516803c32b68d3f8143119
:103d60005a49284698476b6a01336b62eb7f012bf7
:103d700040f0a980236b01332363a1e7042384f877
:103d800028304de6636a22691b6b03ebc20133f9ed
:103d90003200b1f90210266cc6eb06150aeb85025b
:103da000d368936253681362936853621af825507c
:103db0000b2d28bf00253201931b0aeb83031d77cf
:103dc0001d69dd6200259d635d691d631a462368d8
:103dd0005b681c329847b0f1ff3f74d04ff0ff335f
:103de00023640ef0b5fe1be60ef0b2fe18e6a368e3
:103df0000133a360364a1268d2f8e822934234bff6
:103e000002230a2384f8283023689b6800210620b7
:103e1000984705e623689b680021082098470023ff
:103e20002363e36a0133e362294b1b68d3f8e8326a
:103e3000002b3ff4f5ad0026b146254f31e0294671
:103e400005f10c000cf0b8fb6b68082b03d9284671
:103e50000ef09efd2ce028460ff0befc28e005f198
:103e6000180805f10c0140460cf0a6fbeb69082b85
:103e700006d940460ef08cfd012384f8283009e075
:103e800040460ff0a9fcf7e705f10c000ff0a4fc89
:103e900084f8289001363b68d3f8e8329e42bff49c
:103ea000bfad30460df058fd056ee368012bc6d856
:103eb000eb69002bd3d12b69082be5d905f10c0058
:103ec0000ef066fde4e707b0bde8f08f9c610220cc
:043ed0001c5b022055
:020000040000fa
:103ed4002de9f04fc5b003460390881c02330df161
:103ee400140b01f1120202929a46b3e0b5f91e30a6
:103ef400b0f81e8008fb03f8b5f95e20b0f85e3018
:103f040003fb02f308eb030241f2511101fb02f13e
:103f14007c4a02fb031241f67e0303fb081835f9c1
:103f2400021c30f8023c03fb01f3b5f93e40c18f9b
:103f340001fb04f103eb01094fea49395b1a5b0306
:103f440008eb0904a9eb08010091d1189b1a01930d
:103f5400b5f96e20b0f86e8008fb02f8b5f94e2072
:103f6400b0f84ee00efb02feb5f92e20b0f82ec0dc
:103f74000cfb02fcc28906fb02f608eb0c050eebf7
:103f84000607ea1942f2a15909fb02f25e4b03fb50
:103f940005255e4b03fb072208eb06075c4b03fb7e
:103fa40007f705eb070940f68e1303fb089817443f
:103fb40043f20b0909fb06760eeb0c07dff854916c
:103fc40009fb07f73a4444f2b31909fb0e223d44b6
:103fd40046f2542707fb0c5ca51905f58065ed1224
:103fe4004bf8045ca61b06f58066f612cbf8dc6081
:103ff40001eb0c0404f58064e412cbf81c40a1eb43
:104004000c0101f58061c912cbf8bc10019b991811
:1040140001f58061c912cbf83c109b1a03f580634b
:10402400db12cbf89c30009a1346434403f58063bb
:10403400db12cbf85c30a2eb080808f58063db12d6
:10404400cbf87c3002300af1020a0bf1040b029b1c
:1040540098423bd05546baf90e60002e7ff446af25
:10406400baf91e30002b7ff441afbaf92e30002b81
:104074007ff43cafbaf93e30002b7ff437afbaf986
:104084004e30002b7ff432afbaf95e30002b7ff450
:104094002dafbaf96e30002b7ff428af3af9022c19
:1040a40030f8023c03fb02f39b004bf8043ccbf8d2
:1040b4001c30cbf83c30cbf85c30cbf87c30cbf800
:1040c4009c30cbf8bc30cbf8dc30bbe7039b03f16e
:1040d400100b0cae9033019329e06ff07f0489e05c
:1040e4006ff07f0898e06ff07f01a3e06ff07f022c
:1040f400aee06ff07f02b9e06ff07f03c4e06ff0d1
:104104007f03cfe0dfc4ffff3bc1ffff84f3ffff6a
:1041140033e3fffffdadffff6ff07f072af8087c54
:104124000bf1100b2036019b9b4500f0ca8056f81a
:10413400187c56f8080c3a1841f2511a0afb02fa94
:10414400614b03fb00a041f67e0909fb07a756f863
:10415400203c56f8102c03eb02094fea49399b1a0c
:104164005b0307eb0901a9eb070ec2181b1a0093a6
:1041740056f8049c56f80cac56f814cc56f81c8c23
:1041840009eb0c040aeb0805601942f2a15707fb7e
:1041940000f04e4f07fb04044d4f07fb050009ebed
:1041a40008054c4f07fb05f5671940f68e1303fb12
:1041b4000977054443f20b0909fb08580aeb0c057f
:1041c400dff8149109fb05f5284444f2b31909fbff
:1041d4000a002c4446f2542505fb0c4c01eb080460
:1041e40004f50034a41414f1800ffff676af7f2c8d
:1041f400a8bf7f24da462bf8104ca1eb080808f579
:1042040000384feaa84818f1800ffff669afb8f1fb
:104214007f0fa8bf4ff07f082af8028c02eb0c0135
:1042240001f50031891411f1800ffff65caf7f298d
:10423400a8bf7f212af80e1ca2eb0c0202f5003263
:10424400921412f1800ffff651af7f2aa8bf7f228c
:104254002af8042c009b1a1802f50032921412f169
:10426400800ffff646af7f2aa8bf7f222af80c2cc6
:10427400009b1b1a03f500339b1413f1800ffff608
:104284003baf7f2ba8bf7f232af8063c0eeb070326
:1042940003f500339b1413f1800ffff630af7f2b2f
:1042a400a8bf7f232af80a3caeeb070707f50037bf
:1042b400bf1417f1800ffff62faf7f2fa8bf7f2702
:1042c4002ce745b0bde8f08fdfc4ffff3bc1ffff23
:0c42d40084f3ffff33e3fffffdadffffad
:020000040000fa
:1042e0002de9f04fedb000230546164603910493e7
:1042f0009946039b1b78002b62d00023cde9053340
:1043000007930aab089303a98023284609930df06d
:10431000e8fc0446039b1a780ab1252a40d1049888
:10432000204404901a78252a31d15a1c0024039283
:1043300007945a782a2a04bf02330393039808bfcc
:1043400001240cf049f80146079028460ef0ecffd6
:10435000039b1a78303a092a48d903a80cf06cfe5e
:10436000039b804618780ff031fb672861dc6528d5
:1043700080f2c680612800f0c3803adc252800f076
:10438000ef805b2800f00c81039b013303937b1cbf
:1043900040f0f980b9f1000f08bf4ff0ff390fe08e
:1043a000eb6bea6c93420fd25a1cea631f78039bb3
:1043b0001b78bb420ed0eb6c13b1eb6b013beb6394
:1043c00048466db0bde8f08f28460af0a7ff0746c3
:1043d0000130ecd1049b01330493039b03a9013307
:1043e000284603930df07dfc044493e701330393c7
:1043f000aee7632800f098806428c5d104ab05aa15
:104400002aa928460ff084fc0028c0f26a81039b89
:1044100001330393002c40f0b6803346012241461d
:104420002aa809f0f9f80028044667da0134b1d067
:10443000c6e7702841d00bdc6e2850d02fdc6928ed
:10444000a2d104ab05aa2aa928460ff061fcdbe73c
:10445000752813d0782829d0732895d1b8f1800f0a
:1044600092d1039b01330393002c77d133681a1d3b
:1044700032601b680093012204ab68e004ab05aa1c
:104480002aa928460ff044fc0028c0f22a81039b89
:1044900001330393002c76d133462246bfe704aba9
:1044a00005aa2aa928460ff033fcede704ab05aabc
:1044b0002aa928460ff02cfce6e704ab05aa2aa996
:1044c00028460ff025fc0028c0f20b81039b013326
:1044d0000393002c57d133462246f021a0e7039bdb
:1044e000049a01330393d317cde92a23002c4ad130
:1044f0003346224641462aa809f08ef8a144f8e640
:1045000004ab05aa2aa928460ff002fc0028c0f235
:10451000e880039b01330393002c34d1324641469b
:104520002aa80bf0a9fe7ee7b8f1800f7ff42caf2c
:10453000079b0bb901230793039b013303935cb9da
:1045400033681a1d32601b680093002204ab05a972
:10455000284608f03afb66e70023f5e7002389e7e1
:10456000b8f1800f7ff410af039bea6c0133039323
:10457000eb6b934209d25a1cea631878252808d1bc
:10458000049b013304930024b8e728460af0c6fed2
:10459000f4e7eb6c002bf6d0eb6b013beb63f2e73f
:1045a000b8f1800f7ff4f0ae002c39d133681a1dba
:1045b0003260d3f80080039b5a1c03925a785e2a1b
:1045c0000cbf012700272aac08bf023340f20112ba
:1045d0003946204608bf03930ff076f80023237076
:1045e000039b1a782d2a1ed101330393c7f10103cf
:1045f00084f82e30c7f10107039a13785d2b1bd185
:10460000b8f1000f5cd1eb6bea6c934264d25a1c98
:10461000ea631f78e3195b78002b59d19a463ae098
:104620004ff00008c7e75d2ae4d101330393c7f1d7
:10463000010384f85e30dde7002be1d02d2b06d09e
:10464000039b13f8012b039322445770d4e7049b78
:104650001b78002bf4d05d2bf2d0531c0393029bec
:104660001b7851788b42ebda0133e754f9e700bf4e
:1046700008f80b70049b013304930bf1010bea6bf8
:10468000eb6c9a42da461ed2531ceb631778e3199f
:104690005b78002becd1eb6c13b1eb6b013beb6364
:1046a000039b01330393baf1000f3ff46daeb8f1f1
:1046b000000f3ff469ae002308f80a3001241de71b
:1046c0004ff0000bdbe728460af028fe0746dee73e
:1046d000049b0133049396e728460af01ffe074621
:0846e00098e70446a2e600bfc2
:020000040000fa
:1046e800f0b583b0954b4ff00042c3f81421082170
:1046f800c3f81411c3f81821914b1b780b2b00f247
:104708000e81dfe813f00c0049005d00770094008b
:10471800a500b600e10000013901b001ba01884cda
:10472800884b63600120a0600023e3602361462278
:1047380022756375032103f099fca061b0f1ff3f76
:1047480003d17f4b0b221a70e9e0211d0df0cefb3f
:1047580018b97b4b0b221a70e1e000227a49a06954
:104768000cf00eff012323700ef078ff774c102217
:10477800774920460df09cff63699d680ff0ecf9be
:104788000022114600680cf09ffb01462046a8470e
:1047980070480ef02ff8c2e0402107200cf062fab2
:1047a80018b9674b0b221a70b9e00cf055f818b11c
:1047b800634b02221a70b2e0614b0b221a70aee012
:1047c80040200bf0aff9044640200bf0abf9812ce8
:1047d80005d0822803d05a4b02221a709fe00cf0b1
:1047e8003bf818b1564b03221a7098e0544b0b2231
:1047f8001a7094e078210a200cf034fa18b9504b5a
:104808000b221a708be00cf027f818b94c4b0b22ce
:104818001a7084e04a4b04221a704f480df0eaffe0
:104828004e480df0e7ff4e480df0e4ff77e0022117
:1048380020200cf017fa002871d00cf00df818b1f0
:104848003f4b05221a706ae03d4b0b221a7066e056
:10485800072121200cf006fa002860d00bf0fcff9d
:1048680018b1374b06221a7059e0354b0b221a70d3
:1048780055e03c4c21463c480ef054fc23781bb1d3
:10488800312b05d0302b0bd0c8200cf0abf946e00b
:10489800a4f12303202283f8232007221a70f3e7c8
:1048a800274b202283f82320c8200cf09bf9bff364
:1048b8004f8f2e49ca6802f4e0622d4b1343cb6038
:1048c800bff34f8f00bffde7012104200cf0caf9a8
:1048d80018b91b4b0b221a7021e0012104200cf09f
:1048e800c1f918b9164b0b221a7018e002210420de
:1048f8000cf0b8f918b1124b08221a700fe0104bdf
:104908000b221a700be044200bf00cf90c4b93f8b7
:10491800283013f0040f04d102200cf063f903b01f
:10492800f0bd0df0dfff064c04f5af33d862114837
:104938000df060ff09232370eee700bf00800041ff
:104948000000002000127a00112c01008458022077
:10495800105a02206c9800008c980000c49800003f
:10496800f4980000230000202899000000ed00e0e2
:104978000400fa052c990000434bdb6a002b5ed03b
:10498800424b4ff40012c3f81c2141483c2380f8e5
:104998002430002380f8253080f8203000f11c03f3
:1049a80001933c4b009300f12a03012200f12401fa
:1049b800806902f04bfe364a92f82030002bfbd07b
:1049c800314bda6aa2f59632da62334903f12b0cdd
:1049d8000024a646a1f59637304e2314c3eb0313e3
:1049e800da010846734600bf02eb234537f8155035
:1049f80020f8025b03f5c0230133b342f4d104f17c
:104a0800011401f520716145e7d1234805f07efbcb
:104a1800002884d0224d28460ef0cafa214c63693a
:104a28005b692946204698471f4b1868036dd3f8e1
:104a3800383121469847164b0a221a706fe71b48ef
:104a48000df0d8fe174c63695b69194920469847f1
:104a5800154b1868036dd3f83831214698470c4b2d
:104a68000a221a705be713480df0c4fe12480df0d5
:104a7800c1fe074b06221a7051e710480df0bafe26
:104a8800034b0a221a704ae7005e012000800041a9
:104a980000000020012c01002b2c01204001800780
:104aa800005a022084580220f85a02204c9900002b
:104ab80074610220c4980000f49800007099000006
:020000040000fa
:104ac8002de9f041aeb00646154605910027059937
:104ad8000b78002b00f0fa8000244ff0ff33cde96b
:104ae80009430eab0c9380230b940d930b5d0bb114
:104af800252b26d134b1224630460cf0d5fa059b39
:104b080023440593059b1a78252a40f0d78003f1a2
:104b18000108cdf81480059803782b2b1ad025d8d6
:104b2800202b1bd0232b1dd02a2b27d00bf050fc79
:104b38000b90059b1a78303a092a2ed80133059331
:104b4800f7e70134d2e7099b43f0010301300993e9
:104b58000590e0e7099b43f00403f7e7099b43f05e
:104b68000803f3e7099b43f01003efe72d2bead086
:104b7800302bd9d1099b43f00203e7e72b681a1db4
:104b88001b682a600130002b05900b9305da099aff
:104b98005b4282f0010209920b93099bda0744bf3a
:104ba80023f002030993059b1a782e2a0dd10022bf
:104bb800581c0a9205905a782a2a25d1023305935f
:104bc8002b681a1d1b682a600a9305a80cf030fa96
:104bd800059b039018780ef0f5fe6928039979d0a3
:104be80032dc632800f0cb8019dc252800f0d9805e
:104bf800612853d000234ff0ff32cdf81480099379
:104c08000b930a920093d4e00bf0e2fb0a90059b09
:104c18001a78303a092ad8d801330593f7e7642877
:104c280058d06728e6dc2a4606a80df007fa0028bf
:104c380000f0a180059b5a1c05921b7806aa09a9b9
:104c480030460ff05ff838e0702873d015dc6e2816
:104c580000f08c806f28cdd12b46002206a806f0e4
:104c6800bffe002800f08780059b06aa013309a92a
:104c7800304605930ff044f81fe075283ad078289d
:104c880048d07328b6d1802975d1059b2a6801338d
:104c98000593131d2b60126800237de02a4606a8a1
:104ca8000df0ccf9002866d0059b5a1c05921b789c
:104cb80006aa09a930460ff025f804443c44a74247
:104cc8007add3e4b4f221a604ff0ff3738462eb040
:104cd800bde8f0812b46012206a806f081fe0028d7
:104ce80049d0059b06aa013309a9304605930ff060
:104cf80007f8e2e72b46002206a806f071fe002816
:104d080039d0059b06aa013309a9304605930af054
:104d180083fbd2e72b46002206a806f061fe50b3bb
:104d2800059b5a1c05921b7806aa09a9304604f06f
:104d38002dfec2e72b460022f02106a806f050fe01
:104d4800c8b1059b01330593dde9062313430bd155
:104d58001b480ef0d9fa099b009319490b9b024690
:104d6800304608f057faa8e77823dde72b463a19ca
:104d780006a808f00ffc059b013305939ee78029e0
:104d8800f9d1059b013305932b681a1d1b682a600e
:104d98008df8183006aa012309a930460af08efac0
:104da8008be78029e7d1059b01330593099b009385
:104db8000b9b04490122d3e7274688e63c5b022087
:084dc800e83b0100ee3b010095
:020000040000fa
:104dd000cf000000cf000000ff00000080000000b6
:104de0004000000000000000e10000008000000022
:104df000ff000000e1000000cf0000000000000004
:104e000012000000ff000000e1000000910000001f
:104e1000ba000000ba000000ff000000920000008d
:104e20004900000000000000db00000092000000cc
:104e3000ff000000db000000ba00000000000000de
:104e400003000000ff000000db00000092000000f3
:104e50007ac600007ac60000ffff00001084000040
:104e600008420000000000001cd700001084000071
:104e7000ffff00001cd700007ac600000000000001
:104e80001f000000ffff00001cd70000928c0000f4
:104e900075c6000075c60000ffff000021840000f9
:104ea000114200000100000039d7000021840000f9
:104eb000ffff000039d7000075c6000001000000a8
:104ec0003f000000ffff000039d70000a58c000064
:104ed000d4d0c800d4d0c800ffffff00808080007d
:104ee0004040400000000000e7e3d60080808000e2
:104ef000ffffff00e7e3d600d4d0c80000000000a9
:104f0000ff000000ffffff00e7e3d60094928c0053
:104f1000ffd4d0c8ffd4d0c8ffffffffff80808040
:104f2000ff404040ff000000ffe7e3d6ff808080a5
:104f3000ffffffffffe7e3d6ffd4d0c8ff0000006c
:104f4000ffff0000ffffffffffe7e3d6ff94928c17
:104f5000d4d0c8ffd4d0c8ffffffffff808080ff00
:104f6000404040ff000000ffe7e3d6ff808080ff65
:104f7000ffffffffe7e3d6ffd4d0c8ff000000ff2c
:104f8000ff0000ffffffffffe7e3d6ff94928cffd7
:104f90000000000000000000000000000000000011
:104fa0000000000000000000000000000000000001
:104fb00000000000000000000000000000000000f1
:104fc00000000000000000000000000000000000e1
:104fd00000000000000000000000000000000000d1
:104fe00000000000000000000000000000000000c1
:104ff00000000000000000000000000000000000b1
:1050000000000000000000000000000000000000a0
:105010000000000000000000000000000000000090
:105020000000000000000000000000000000000080
:105030000000000000000000000000000000000070
:105040000000000000000000000000000000000060
:10505000010000000000000000000000000000004f
:105060000000000000000000000000000000000040
:105070000000000000000000000000000000000030
:105080000000000000000000000000000000000020
:08509000000000000000000018
:020000040000fa
:1050980012000000cf000000ff00000080000000a8
:1050a8004000000012000000e10000008000000045
:1050b800ff000000e1000000cf0000001200000027
:1050c80012000000ff000000e10000009100000055
:1050d80003000000ba000000ff000000920000007a
:1050e8004900000003000000db00000092000000ff
:1050f800ff000000db000000ba0000000300000011
:1051080003000000ff000000db0000009200000028
:105118001f0000007ac60000ffff00001084000096
:10512800084200001f0000001cd700001084000087
:10513800ffff00001cd700007ac600001f00000017
:105148001f000000ffff00001cd70000928c000029
:105158003f00000075c60000ffff0000218400002a
:10516800114200003f00000039d7000021840000f0
:10517800ffff000039d7000075c600003f0000009f
:105188003f000000ffff000039d70000a58c000099
:10519800ff000000d4d0c800ffffff00808080001f
:1051a80040404000ff000000e7e3d6008080800018
:1051b800ffffff00e7e3d600d4d0c800ff000000df
:1051c800ff000000ffffff00e7e3d60094928c0089
:1051d800ffff0000ffd4d0c8ffffffffff808080e3
:1051e800ff404040ffff0000ffe7e3d6ff808080dc
:1051f800ffffffffffe7e3d6ffd4d0c8ffff0000a3
:10520800ffff0000ffffffffffe7e3d6ff94928c4c
:10521800ff0000ffd4d0c8ffffffffff808080ffa2
:10522800404040ffff0000ffe7e3d6ff808080ff9b
:10523800ffffffffe7e3d6ffd4d0c8ffff0000ff62
:10524800ff0000ffffffffffe7e3d6ff94928cff0c
:105258000000000000000000000000000000000046
:105268000000000000000000000000000000000036
:105278000000000000000000000000000000000026
:105288000000000000000000000000000000000016
:105298000000000000000000000000000000000006
:1052a80000000000000000000000000000000000f6
:1052b80000000000000000000000000000000000e6
:1052c80000000000000000000000000000000000d6
:1052d8000c000000fc0000000f00000008000000a7
:1052e800ed0000000c000000fe00000008000000b7
:1052f8000f000000fe000000fc0000000c00000091
:105308000c0000000f000000fe000000f600000086
:105318000000000000000000000000000000000085
:105328000000000000000000000000000000000075
:105338000000000000000000000000000000000065
:105348000000000000000000000000000000000055
:0853580000000000000000004d
:020000040000fa
:10536000ff000000cf000000ff00000080000000f0
:1053700040000000ff000000e1000000800000008d
:10538000ff000000e1000000cf000000000000006e
:1053900012000000ff000000e1000000910000008a
:1053a000ff000000ba000000ff00000092000000b3
:1053b00049000000ff000000db0000009200000038
:1053c000ff000000db000000ba0000000000000049
:1053d00003000000ff000000db000000920000005e
:1053e000ffff00007ac60000ffff000010840000ed
:1053f00008420000ffff00001cd7000010840000de
:10540000ffff00001cd700007ac60000000000006b
:105410001f000000ffff00001cd70000928c00005e
:10542000ffff000075c60000ffff000021840000a0
:1054300011420000ffff000039d700002184000066
:10544000ffff000039d7000075c600000100000012
:105450003f000000ffff000039d70000a58c0000ce
:10546000ffffff00d4d0c800ffffff008080800056
:1054700040404000ffffff00e7e3d600808080004f
:10548000ffffff00e7e3d600d4d0c8000000000013
:10549000ff000000ffffff00e7e3d60094928c00be
:1054a000ffffffffffd4d0c8ffffffffff8080801a
:1054b000ff404040ffffffffffe7e3d6ff80808013
:1054c000ffffffffffe7e3d6ffd4d0c8ff000000d7
:1054d000ffff0000ffffffffffe7e3d6ff94928c82
:1054e000ffffffffd4d0c8ffffffffff808080ffda
:1054f000404040ffffffffffe7e3d6ff808080ffd3
:10550000ffffffffe7e3d6ffd4d0c8ff000000ff96
:10551000ff0000ffffffffffe7e3d6ff94928cff41
:10552000000000000000000000000000000000007b
:10553000000000000000000000000000000000006b
:10554000000000000000000000000000000000005b
:10555000000000000000000000000000000000004b
:10556000000000000000000000000000000000003b
:10557000000000000000000000000000000000002b
:10558000000000000000000000000000000000001b
:10559000000000000000000000000000000000000b
:1055a0000f000000fc0000000f00000008000000d9
:1055b000ed0000000f000000fe00000008000000e9
:1055c0000f000000fe000000fc00000000000000d2
:1055d0000c0000000f000000fe000000f6000000bc
:1055e00000000000000000000000000000000000bb
:1055f00000000000000000000000000000000000ab
:10560000000000000000000000000000000000009a
:10561000000000000000000000000000000000008a
:08562000000000000000000082
:020000040000fa
:105628002de9f04f099f154604468e461e46002b6d
:1056380040f0cc808a42b2fa82fc4cd9bcf1000f0f
:105648000bd0ccf1200801fa0cfe20fa08f802fa77
:105658000cf548ea0e0e00fa0cf44fea15491ffa49
:1056680085f8befbf9fa210c09fb1ae30afb08fbd3
:1056780041ea03439b452ad9eb180af1ff3004d2cb
:105688009b4502d9aaf102002b44a3eb0b03a4b259
:10569800b3fbf9f209fb123302fb08f844ea0344ae
:1056a800a04516d92c1902f1ff3303d2a04501d920
:1056b800931e2c44a4eb080443ea004027b124fac3
:1056c8000cf400233c607b603146bde8f08f504607
:1056d800dbe71346eee702b9ffdebcf1000f2ed17f
:1056e8008b1a01264fea154eaab2b3fbfef8210c1d
:1056f8000efb183308fb02f941ea0343994561d9c7
:10570800eb1808f1ff3004d2994502d9a8f102003c
:105718002b44a3eb0903a4b2b3fbfef10efb113338
:105728004a4344ea0344a2424ed92c1901f1ff33fb
:1057380003d2a24201d98b1e2c44a41abce7ccf197
:10574800200e02fa0cf521fa0ef901fa0cf320faf0
:105758000efe4eea03034fea154800fa0cf4b9fbb3
:10576800f8f11ffa85fe08fb1192180c01fb0ef6e2
:1057780040ea0242964221d9aa1801f1ff3003d229
:10578800964201d9881e2a44921b9bb2b2fbf8f9b3
:1057980008fb192209fb0efe43ea02439e450fd976
:1057a800eb1809f1ff3604d29e4502d9a9f1020689
:1057b8002b44a3eb0e0346ea004693e70846e3e7cb
:1057c8004e46f6e74046a4e70b46b6e78b4206d9b5
:1057d800002f7ed00026c7e90001304674e7b3faef
:1057e80083fcbcf1000f0fd18b4201d3824209d850
:1057f800841a61eb030e0120002f6dd0c7e9004e1b
:10580800002661e76046f7e7ccf1200e03fa0cf3b7
:1058180022fa0ef521fa0ef41d4301fa0cf320fad0
:105828000ef10b434fea154a00fa0cf6b4fbfaf9ed
:105838001ffa85f80afb19401c0c09fb08f144ea19
:105848000044a14202fa0cf23fd92c1909f1ff30a9
:1058580004d2a14202d9a9f102002c44641a9bb2d5
:10586800b4fbfaf90afb194409fb08f843ea0441b6
:1058780088452cd9691809f1ff3304d2884502d923
:10588800a9f10203294443ea0040a1eb0801a0fb67
:1058980002894945c2464c4602d306d1464504d240
:1058a800b8eb020a69eb05040138afb1b6eb0a039d
:1058b80061eb040606fa0efe23fa0cf34eea030324
:1058c80026fa0cf6c7e900369ae74846c6e74b467b
:0c58d800d9e73e463846f7e63e46f5e6c6
:020000040000fa
:1058e4002de9f0439db00446894690461e46b0f922
:1058f40004500dab0068616803c37708b9b2bdf802
:105904003420521aadf83420bdf836305b1aadf8a5
:105914003630b3b25a19adf83820bdf83a201344e2
:10592400adf83a300da80df079fc012800f01f8184
:105934000fab2068616803c3b8f1000f00f01a814f
:105944000eb9002017e105ebd5756d1006aa414686
:10595400484601f077fa012e18d916f0010f57d0f6
:105964007b1c2b445a421592169217931893013bb1
:1059740007ee903af8eee77acded147aed1b07eed8
:10598400905af8ee677acded137a0ce06b421593da
:1059940016931795189507ee905af8eee77acded21
:1059a400147acded137ab4f900301193b4f90230be
:1059b4001293259b1a93279b1b93069b13b39df865
:1059c4002430012b39d09df82530012b3bd09df894
:1059d4002630012b3dd09df82730012b3fd0069b6c
:1059e400022b0fd19df83030012b3ed09df8313081
:1059f400012b40d09df83230012b42d09df833303a
:105a0400012b44d09df89030012b46d00020b2e009
:105a14007b195a421592169217931893013b07ee7d
:105a2400903af8ee677acded147aed1b07ee905ab2
:105a3400f8ee677acded137ab5e7089a07990fa8bf
:105a440003f04efdbfe7089a07990fa803f0e0fda5
